{
  "contractName": "DeX",
  "abi": [
    {
      "inputs": [],
      "stateMutability": "nonpayable",
      "type": "constructor"
    },
    {
      "anonymous": false,
      "inputs": [
        {
          "indexed": true,
          "internalType": "address",
          "name": "addr",
          "type": "address"
        },
        {
          "indexed": true,
          "internalType": "uint256",
          "name": "amount",
          "type": "uint256"
        }
      ],
      "name": "Deposited",
      "type": "event"
    },
    {
      "anonymous": false,
      "inputs": [
        {
          "indexed": true,
          "internalType": "address",
          "name": "oldOwner",
          "type": "address"
        },
        {
          "indexed": true,
          "internalType": "address",
          "name": "newOwner",
          "type": "address"
        }
      ],
      "name": "OwnerSet",
      "type": "event"
    },
    {
      "anonymous": false,
      "inputs": [
        {
          "indexed": true,
          "internalType": "string",
          "name": "cryptoName",
          "type": "string"
        },
        {
          "indexed": true,
          "internalType": "uint256",
          "name": "cVal",
          "type": "uint256"
        },
        {
          "indexed": true,
          "internalType": "uint256",
          "name": "tVal",
          "type": "uint256"
        }
      ],
      "name": "PoolValue",
      "type": "event"
    },
    {
      "anonymous": false,
      "inputs": [
        {
          "indexed": true,
          "internalType": "address",
          "name": "addr",
          "type": "address"
        },
        {
          "indexed": true,
          "internalType": "uint256",
          "name": "amount",
          "type": "uint256"
        }
      ],
      "name": "Withdrawn",
      "type": "event"
    },
    {
      "inputs": [
        {
          "internalType": "uint256",
          "name": "amount",
          "type": "uint256"
        }
      ],
      "name": "deposit",
      "outputs": [],
      "stateMutability": "payable",
      "type": "function",
      "payable": true
    },
    {
      "inputs": [
        {
          "internalType": "uint256",
          "name": "amount",
          "type": "uint256"
        }
      ],
      "name": "withdraw",
      "outputs": [],
      "stateMutability": "nonpayable",
      "type": "function"
    },
    {
      "inputs": [],
      "name": "getEther",
      "outputs": [
        {
          "internalType": "uint256",
          "name": "",
          "type": "uint256"
        }
      ],
      "stateMutability": "view",
      "type": "function",
      "constant": true
    },
    {
      "inputs": [
        {
          "internalType": "address",
          "name": "addr",
          "type": "address"
        }
      ],
      "name": "balanceOf",
      "outputs": [
        {
          "internalType": "uint256",
          "name": "",
          "type": "uint256"
        }
      ],
      "stateMutability": "view",
      "type": "function",
      "constant": true
    },
    {
      "inputs": [
        {
          "internalType": "string",
          "name": "cName",
          "type": "string"
        },
        {
          "internalType": "uint256",
          "name": "cVal",
          "type": "uint256"
        },
        {
          "internalType": "uint256",
          "name": "tVal",
          "type": "uint256"
        }
      ],
      "name": "addPool",
      "outputs": [],
      "stateMutability": "nonpayable",
      "type": "function"
    },
    {
      "inputs": [
        {
          "internalType": "string",
          "name": "cName",
          "type": "string"
        },
        {
          "internalType": "uint256",
          "name": "cVal",
          "type": "uint256"
        },
        {
          "internalType": "uint256",
          "name": "tVal",
          "type": "uint256"
        }
      ],
      "name": "initPool",
      "outputs": [],
      "stateMutability": "nonpayable",
      "type": "function"
    },
    {
      "inputs": [
        {
          "internalType": "string",
          "name": "cName",
          "type": "string"
        }
      ],
      "name": "getPool",
      "outputs": [
        {
          "components": [
            {
              "internalType": "string",
              "name": "cryptoName",
              "type": "string"
            },
            {
              "internalType": "uint256",
              "name": "cryptoAmt",
              "type": "uint256"
            },
            {
              "internalType": "uint256",
              "name": "tokenAmt",
              "type": "uint256"
            },
            {
              "internalType": "bool",
              "name": "cryptoStatus",
              "type": "bool"
            }
          ],
          "internalType": "struct DeX.pool",
          "name": "",
          "type": "tuple"
        }
      ],
      "stateMutability": "view",
      "type": "function",
      "constant": true
    },
    {
      "inputs": [
        {
          "internalType": "string",
          "name": "cName",
          "type": "string"
        },
        {
          "internalType": "int256",
          "name": "cVal",
          "type": "int256"
        },
        {
          "internalType": "int256",
          "name": "tVal",
          "type": "int256"
        }
      ],
      "name": "addAmt",
      "outputs": [],
      "stateMutability": "nonpayable",
      "type": "function"
    },
    {
      "inputs": [
        {
          "internalType": "string",
          "name": "oldCName",
          "type": "string"
        },
        {
          "internalType": "string",
          "name": "newCName",
          "type": "string"
        },
        {
          "internalType": "uint256",
          "name": "cVal",
          "type": "uint256"
        },
        {
          "internalType": "uint256",
          "name": "tVal",
          "type": "uint256"
        },
        {
          "internalType": "bool",
          "name": "pStatus",
          "type": "bool"
        }
      ],
      "name": "editPoolDetail",
      "outputs": [],
      "stateMutability": "nonpayable",
      "type": "function"
    },
    {
      "inputs": [],
      "name": "listAllPool",
      "outputs": [
        {
          "components": [
            {
              "internalType": "string",
              "name": "cryptoName",
              "type": "string"
            },
            {
              "internalType": "uint256",
              "name": "cryptoAmt",
              "type": "uint256"
            },
            {
              "internalType": "uint256",
              "name": "tokenAmt",
              "type": "uint256"
            },
            {
              "internalType": "bool",
              "name": "cryptoStatus",
              "type": "bool"
            }
          ],
          "internalType": "struct DeX.pool[]",
          "name": "",
          "type": "tuple[]"
        }
      ],
      "stateMutability": "view",
      "type": "function",
      "constant": true
    },
    {
      "inputs": [],
      "name": "listAllValidPool",
      "outputs": [
        {
          "components": [
            {
              "internalType": "string",
              "name": "cryptoName",
              "type": "string"
            },
            {
              "internalType": "uint256",
              "name": "cryptoAmt",
              "type": "uint256"
            },
            {
              "internalType": "uint256",
              "name": "tokenAmt",
              "type": "uint256"
            },
            {
              "internalType": "bool",
              "name": "cryptoStatus",
              "type": "bool"
            }
          ],
          "internalType": "struct DeX.pool[]",
          "name": "",
          "type": "tuple[]"
        }
      ],
      "stateMutability": "view",
      "type": "function",
      "constant": true
    },
    {
      "inputs": [
        {
          "internalType": "string",
          "name": "cryptoType",
          "type": "string"
        },
        {
          "internalType": "uint256",
          "name": "exchangeAmt",
          "type": "uint256"
        },
        {
          "internalType": "string",
          "name": "targetCryptoType",
          "type": "string"
        }
      ],
      "name": "exchangeBuy",
      "outputs": [
        {
          "internalType": "string",
          "name": "",
          "type": "string"
        },
        {
          "internalType": "uint256",
          "name": "",
          "type": "uint256"
        }
      ],
      "stateMutability": "nonpayable",
      "type": "function"
    },
    {
      "inputs": [
        {
          "internalType": "string",
          "name": "cryptoType",
          "type": "string"
        },
        {
          "internalType": "uint256",
          "name": "exchangeAmt",
          "type": "uint256"
        },
        {
          "internalType": "string",
          "name": "targetCryptoType",
          "type": "string"
        }
      ],
      "name": "exchangeSell",
      "outputs": [
        {
          "internalType": "string",
          "name": "",
          "type": "string"
        },
        {
          "internalType": "uint256",
          "name": "",
          "type": "uint256"
        }
      ],
      "stateMutability": "nonpayable",
      "type": "function"
    }
  ],
  "bytecode": "0x608060405260006003553480156200001657600080fd5b50336000806101000a81548173ffffffffffffffffffffffffffffffffffffffff021916908373ffffffffffffffffffffffffffffffffffffffff16021790555060008054906101000a900473ffffffffffffffffffffffffffffffffffffffff1673ffffffffffffffffffffffffffffffffffffffff16600073ffffffffffffffffffffffffffffffffffffffff167f342827c97908e5e2f71151c08502a66d44b6f758e3ac2f1de95f02eb95f0a73560405160405180910390a3620001256040518060400160405280600881526020017f77426974636f696e00000000000000000000000000000000000000000000000081525064174876e80065015607392200620001d460201b60201c565b620001796040518060400160405280600381526020017f424154000000000000000000000000000000000000000000000000000000000081525066031bd124399400642e90edd000620001d460201b60201c565b620001ce6040518060400160405280600381526020017f424e42000000000000000000000000000000000000000000000000000000000081525066034ebd544930006501d1a94a2000620001d460201b60201c565b62001036565b60008054906101000a900473ffffffffffffffffffffffffffffffffffffffff1673ffffffffffffffffffffffffffffffffffffffff163373ffffffffffffffffffffffffffffffffffffffff161462000265576040517f08c379a00000000000000000000000000000000000000000000000000000000081526004016200025c90620008b9565b60405180910390fd5b826000808103620003815760006001905060005b60035481101562000311578360405160200162000297919062000954565b6040516020818303038152906040528051906020012060016000838152602001908152602001600020600001604051602001620002d5919062000a75565b6040516020818303038152906040528051906020012003620002fb576000915062000311565b8080620003089062000ac7565b91505062000279565b50808360405160200162000326919062000bb4565b6040516020818303038152906040529062000379576040517f08c379a000000000000000000000000000000000000000000000000000000000815260040162000370919062000c39565b60405180910390fd5b50506200075e565b6001810362000496576000805b600354811015620004265783604051602001620003ac919062000954565b6040516020818303038152906040528051906020012060016000838152602001908152602001600020600001604051602001620003ea919062000a75565b604051602081830303815290604052805190602001200362000410576001915062000426565b80806200041d9062000ac7565b9150506200038e565b5080836040516020016200043b919062000cad565b604051602081830303815290604052906200048e576040517f08c379a000000000000000000000000000000000000000000000000000000000815260040162000485919062000c39565b60405180910390fd5b50506200075d565b600281148015620004a957506000825114155b15620005c05760006001905060005b600354811015620005505783604051602001620004d6919062000954565b604051602081830303815290604052805190602001206001600083815260200190815260200160002060000160405160200162000514919062000a75565b60405160208183030381529060405280519060200120036200053a576000915062000550565b8080620005479062000ac7565b915050620004b8565b50808360405160200162000565919062000bb4565b60405160208183030381529060405290620005b8576040517f08c379a0000000000000000000000000000000000000000000000000000000008152600401620005af919062000c39565b60405180910390fd5b50506200075c565b600381036200075b576000805b600354811015620006f05783604051602001620005eb919062000954565b604051602081830303815290604052805190602001206001600083815260200190815260200160002060000160405160200162000629919062000a75565b6040516020818303038152906040528051906020012003620006da57600191506001600082815260200190815260200160002060030160009054906101000a900460ff168460405160200162000680919062000d30565b60405160208183030381529060405290620006d3576040517f08c379a0000000000000000000000000000000000000000000000000000000008152600401620006ca919062000c39565b60405180910390fd5b50620006f0565b8080620006e79062000ac7565b915050620005cd565b50808360405160200162000705919062000cad565b6040516020818303038152906040529062000758576040517f08c379a00000000000000000000000000000000000000000000000000000000081526004016200074f919062000c39565b60405180910390fd5b50505b5b5b5b60008551146200080b576040518060800160405280868152602001858152602001848152602001600115158152506001600060035481526020019081526020016000206000820151816000019081620007b8919062000f4f565b50602082015181600101556040820151816002015560608201518160030160006101000a81548160ff02191690831515021790555090505060036000815480929190620008059062000ac7565b91905055505b8284866040516200081d919062000954565b60405180910390207f1c3e2c51276ce91148db2972b4614c440d1eff2734afc30a9b675564428f62ef60405160405180910390a45050505050565b600082825260208201905092915050565b7f43616c6c6572206973206e6f74206f776e657200000000000000000000000000600082015250565b6000620008a160138362000858565b9150620008ae8262000869565b602082019050919050565b60006020820190508181036000830152620008d48162000892565b9050919050565b600081519050919050565b600081905092915050565b60005b8381101562000911578082015181840152602081019050620008f4565b60008484015250505050565b60006200092a82620008db565b620009368185620008e6565b935062000948818560208601620008f1565b80840191505092915050565b60006200096282846200091d565b915081905092915050565b7f4e487b7100000000000000000000000000000000000000000000000000000000600052602260045260246000fd5b60006002820490506001821680620009b557607f821691505b602082108103620009cb57620009ca6200096d565b5b50919050565b60008190508160005260206000209050919050565b60008154620009f5816200099c565b62000a018186620008e6565b9450600182166000811462000a1f576001811462000a355762000a6c565b60ff198316865281151582028601935062000a6c565b62000a4085620009d1565b60005b8381101562000a645781548189015260018201915060208101905062000a43565b838801955050505b50505092915050565b600062000a838284620009e6565b915081905092915050565b7f4e487b7100000000000000000000000000000000000000000000000000000000600052601160045260246000fd5b6000819050919050565b600062000ad48262000abd565b91507fffffffffffffffffffffffffffffffffffffffffffffffffffffffffffffffff820362000b095762000b0862000a8e565b5b600182019050919050565b7f43727970746f63757272656e6379200000000000000000000000000000000000600082015250565b600062000b4c600f83620008e6565b915062000b598262000b14565b600f82019050919050565b7f20616c72656164792065786973742e0000000000000000000000000000000000600082015250565b600062000b9c600f83620008e6565b915062000ba98262000b64565b600f82019050919050565b600062000bc18262000b3d565b915062000bcf82846200091d565b915062000bdc8262000b8d565b915081905092915050565b6000601f19601f8301169050919050565b600062000c0582620008db565b62000c11818562000858565b935062000c23818560208601620008f1565b62000c2e8162000be7565b840191505092915050565b6000602082019050818103600083015262000c55818462000bf8565b905092915050565b7f206973206e6f742065786973742e000000000000000000000000000000000000600082015250565b600062000c95600e83620008e6565b915062000ca28262000c5d565b600e82019050919050565b600062000cba8262000b3d565b915062000cc882846200091d565b915062000cd58262000c86565b915081905092915050565b7f206973206e6f7420617661696c61626c652e0000000000000000000000000000600082015250565b600062000d18601283620008e6565b915062000d258262000ce0565b601282019050919050565b600062000d3d8262000b3d565b915062000d4b82846200091d565b915062000d588262000d09565b915081905092915050565b7f4e487b7100000000000000000000000000000000000000000000000000000000600052604160045260246000fd5b60006020601f8301049050919050565b600082821b905092915050565b60006008830262000de17fffffffffffffffffffffffffffffffffffffffffffffffffffffffffffffffff8262000da2565b62000ded868362000da2565b95508019841693508086168417925050509392505050565b6000819050919050565b600062000e3062000e2a62000e248462000abd565b62000e05565b62000abd565b9050919050565b6000819050919050565b62000e4c8362000e0f565b62000e6462000e5b8262000e37565b84845462000daf565b825550505050565b600090565b62000e7b62000e6c565b62000e8881848462000e41565b505050565b5b8181101562000eb05762000ea460008262000e71565b60018101905062000e8e565b5050565b601f82111562000eff5762000ec981620009d1565b62000ed48462000d92565b8101602085101562000ee4578190505b62000efc62000ef38562000d92565b83018262000e8d565b50505b505050565b600082821c905092915050565b600062000f246000198460080262000f04565b1980831691505092915050565b600062000f3f838362000f11565b9150826002028217905092915050565b62000f5a82620008db565b67ffffffffffffffff81111562000f765762000f7562000d63565b5b62000f8282546200099c565b62000f8f82828562000eb4565b600060209050601f83116001811462000fc7576000841562000fb2578287015190505b62000fbe858262000f31565b8655506200102e565b601f19841662000fd786620009d1565b60005b82811015620010015784890151825560018201915060208501945060208101905062000fda565b868310156200102157848901516200101d601f89168262000f11565b8355505b6001600288020188555050505b505050505050565b61567280620010466000396000f3fe6080604052600436106100c25760003560e01c8063b1fc4dc61161007f578063bf9b12b911610059578063bf9b12b91461027f578063de0ff7c5146102a8578063e7710f68146102d3578063fc81792a146102fe576100c2565b8063b1fc4dc6146101fa578063b6b55f2514610238578063ba0d181b14610254576100c2565b80632e1a7d4d146100c757806341d7b026146100f0578063493726dc1461012d57806370a082311461015657806376a38cd6146101935780638012cf5c146101bc575b600080fd5b3480156100d357600080fd5b506100ee60048036038101906100e99190614612565b610327565b005b3480156100fc57600080fd5b5061011760048036038101906101129190614785565b610457565b60405161012491906148da565b60405180910390f35b34801561013957600080fd5b50610154600480360381019061014f91906148fc565b6106b6565b005b34801561016257600080fd5b5061017d600480360381019061017891906149c9565b610ce7565b60405161018a9190614a05565b60405180910390f35b34801561019f57600080fd5b506101ba60048036038101906101b591906148fc565b610d30565b005b3480156101c857600080fd5b506101e360048036038101906101de9190614a20565b611375565b6040516101f1929190614af5565b60405180910390f35b34801561020657600080fd5b50610221600480360381019061021c9190614a20565b612140565b60405161022f929190614af5565b60405180910390f35b610252600480360381019061024d9190614612565b612ed3565b005b34801561026057600080fd5b50610269612f7c565b6040516102769190614c4a565b60405180910390f35b34801561028b57600080fd5b506102a660048036038101906102a19190614c98565b61318b565b005b3480156102b457600080fd5b506102bd613d05565b6040516102ca9190614a05565b60405180910390f35b3480156102df57600080fd5b506102e8613d0d565b6040516102f59190614c4a565b60405180910390f35b34801561030a57600080fd5b5061032560048036038101906103209190614d81565b613ebe565b005b600260003373ffffffffffffffffffffffffffffffffffffffff1673ffffffffffffffffffffffffffffffffffffffff1681526020019081526020016000205481111561037357600080fd5b80600260003373ffffffffffffffffffffffffffffffffffffffff1673ffffffffffffffffffffffffffffffffffffffff16815260200190815260200160002060008282546103c29190614e1f565b925050819055503373ffffffffffffffffffffffffffffffffffffffff166108fc479081150290604051600060405180830381858888f1935050505015801561040f573d6000803e3d6000fd5b50803373ffffffffffffffffffffffffffffffffffffffff167f7084f5476618d8e60b11ef0d7d3f06914655adb8793e28ff7f018d4c76d505d560405160405180910390a350565b61045f61459e565b60005b6003548110156105ce578260405160200161047d9190614e8f565b60405160208183030381529060405280519060200120600160008381526020019081526020016000206000016040516020016104b99190614f9e565b60405160208183030381529060405280519060200120036105bb576001600082815260200190815260200160002060405180608001604052908160008201805461050290614ed5565b80601f016020809104026020016040519081016040528092919081815260200182805461052e90614ed5565b801561057b5780601f106105505761010080835404028352916020019161057b565b820191906000526020600020905b81548152906001019060200180831161055e57829003601f168201915b5050505050815260200160018201548152602001600282015481526020016003820160009054906101000a900460ff1615151515815250509150506106b1565b80806105c690614fb5565b915050610462565b600160008281526020019081526020016000206040518060800160405290816000820180546105fc90614ed5565b80601f016020809104026020016040519081016040528092919081815260200182805461062890614ed5565b80156106755780601f1061064a57610100808354040283529160200191610675565b820191906000526020600020905b81548152906001019060200180831161065857829003601f168201915b5050505050815260200160018201548152602001600282015481526020016003820160009054906101000a900460ff1615151515815250509150505b919050565b60008054906101000a900473ffffffffffffffffffffffffffffffffffffffff1673ffffffffffffffffffffffffffffffffffffffff163373ffffffffffffffffffffffffffffffffffffffff1614610744576040517f08c379a000000000000000000000000000000000000000000000000000000000815260040161073b90615049565b60405180910390fd5b82600080810361084f5760006001905060005b6003548110156107e557836040516020016107729190614e8f565b60405160208183030381529060405280519060200120600160008381526020019081526020016000206000016040516020016107ae9190614f9e565b60405160208183030381529060405280519060200120036107d257600091506107e5565b80806107dd90614fb5565b915050610757565b5080836040516020016107f89190615101565b60405160208183030381529060405290610848576040517f08c379a000000000000000000000000000000000000000000000000000000000815260040161083f919061512e565b60405180910390fd5b5050610bf4565b60018103610953576000805b6003548110156108e957836040516020016108769190614e8f565b60405160208183030381529060405280519060200120600160008381526020019081526020016000206000016040516020016108b29190614f9e565b60405160208183030381529060405280519060200120036108d657600191506108e9565b80806108e190614fb5565b91505061085b565b5080836040516020016108fc919061519c565b6040516020818303038152906040529061094c576040517f08c379a0000000000000000000000000000000000000000000000000000000008152600401610943919061512e565b60405180910390fd5b5050610bf3565b60028114801561096557506000825114155b15610a6b5760006001905060005b600354811015610a01578360405160200161098e9190614e8f565b60405160208183030381529060405280519060200120600160008381526020019081526020016000206000016040516020016109ca9190614f9e565b60405160208183030381529060405280519060200120036109ee5760009150610a01565b80806109f990614fb5565b915050610973565b508083604051602001610a149190615101565b60405160208183030381529060405290610a64576040517f08c379a0000000000000000000000000000000000000000000000000000000008152600401610a5b919061512e565b60405180910390fd5b5050610bf2565b60038103610bf1576000805b600354811015610b8b5783604051602001610a929190614e8f565b6040516020818303038152906040528051906020012060016000838152602001908152602001600020600001604051602001610ace9190614f9e565b6040516020818303038152906040528051906020012003610b7857600191506001600082815260200190815260200160002060030160009054906101000a900460ff1684604051602001610b229190615215565b60405160208183030381529060405290610b72576040517f08c379a0000000000000000000000000000000000000000000000000000000008152600401610b69919061512e565b60405180910390fd5b50610b8b565b8080610b8390614fb5565b915050610a77565b508083604051602001610b9e919061519c565b60405160208183030381529060405290610bee576040517f08c379a0000000000000000000000000000000000000000000000000000000008152600401610be5919061512e565b60405180910390fd5b50505b5b5b5b6000855114610c9c576040518060800160405280868152602001858152602001848152602001600115158152506001600060035481526020019081526020016000206000820151816000019081610c4b91906153d9565b50602082015181600101556040820151816002015560608201518160030160006101000a81548160ff02191690831515021790555090505060036000815480929190610c9690614fb5565b91905055505b828486604051610cac9190614e8f565b60405180910390207f1c3e2c51276ce91148db2972b4614c440d1eff2734afc30a9b675564428f62ef60405160405180910390a45050505050565b6000600260008373ffffffffffffffffffffffffffffffffffffffff1673ffffffffffffffffffffffffffffffffffffffff168152602001908152602001600020549050919050565b826000808103610e3b5760006001905060005b600354811015610dd15783604051602001610d5e9190614e8f565b6040516020818303038152906040528051906020012060016000838152602001908152602001600020600001604051602001610d9a9190614f9e565b6040516020818303038152906040528051906020012003610dbe5760009150610dd1565b8080610dc990614fb5565b915050610d43565b508083604051602001610de49190615101565b60405160208183030381529060405290610e34576040517f08c379a0000000000000000000000000000000000000000000000000000000008152600401610e2b919061512e565b60405180910390fd5b50506111e0565b60018103610f3f576000805b600354811015610ed55783604051602001610e629190614e8f565b6040516020818303038152906040528051906020012060016000838152602001908152602001600020600001604051602001610e9e9190614f9e565b6040516020818303038152906040528051906020012003610ec25760019150610ed5565b8080610ecd90614fb5565b915050610e47565b508083604051602001610ee8919061519c565b60405160208183030381529060405290610f38576040517f08c379a0000000000000000000000000000000000000000000000000000000008152600401610f2f919061512e565b60405180910390fd5b50506111df565b600281148015610f5157506000825114155b156110575760006001905060005b600354811015610fed5783604051602001610f7a9190614e8f565b6040516020818303038152906040528051906020012060016000838152602001908152602001600020600001604051602001610fb69190614f9e565b6040516020818303038152906040528051906020012003610fda5760009150610fed565b8080610fe590614fb5565b915050610f5f565b5080836040516020016110009190615101565b60405160208183030381529060405290611050576040517f08c379a0000000000000000000000000000000000000000000000000000000008152600401611047919061512e565b60405180910390fd5b50506111de565b600381036111dd576000805b600354811015611177578360405160200161107e9190614e8f565b60405160208183030381529060405280519060200120600160008381526020019081526020016000206000016040516020016110ba9190614f9e565b604051602081830303815290604052805190602001200361116457600191506001600082815260200190815260200160002060030160009054906101000a900460ff168460405160200161110e9190615215565b6040516020818303038152906040529061115e576040517f08c379a0000000000000000000000000000000000000000000000000000000008152600401611155919061512e565b60405180910390fd5b50611177565b808061116f90614fb5565b915050611063565b50808360405160200161118a919061519c565b604051602081830303815290604052906111da576040517f08c379a00000000000000000000000000000000000000000000000000000000081526004016111d1919061512e565b60405180910390fd5b50505b5b5b5b82600260003373ffffffffffffffffffffffffffffffffffffffff1673ffffffffffffffffffffffffffffffffffffffff16815260200190815260200160002054101561122c57600080fd5b600085511461132a57604051806080016040528086815260200185815260200184815260200160011515815250600160006003548152602001908152602001600020600082015181600001908161128391906153d9565b50602082015181600101556040820151816002015560608201518160030160006101000a81548160ff021916908315150217905550905050600360008154809291906112ce90614fb5565b919050555082600260003373ffffffffffffffffffffffffffffffffffffffff1673ffffffffffffffffffffffffffffffffffffffff16815260200190815260200160002060008282546113229190614e1f565b925050819055505b82848660405161133a9190614e8f565b60405180910390207f1c3e2c51276ce91148db2972b4614c440d1eff2734afc30a9b675564428f62ef60405160405180910390a45050505050565b60606000846003600081036114855760006001905060005b60035481101561141b57836040516020016113a89190614e8f565b60405160208183030381529060405280519060200120600160008381526020019081526020016000206000016040516020016113e49190614f9e565b6040516020818303038152906040528051906020012003611408576000915061141b565b808061141390614fb5565b91505061138d565b50808360405160200161142e9190615101565b6040516020818303038152906040529061147e576040517f08c379a0000000000000000000000000000000000000000000000000000000008152600401611475919061512e565b60405180910390fd5b505061182a565b60018103611589576000805b60035481101561151f57836040516020016114ac9190614e8f565b60405160208183030381529060405280519060200120600160008381526020019081526020016000206000016040516020016114e89190614f9e565b604051602081830303815290604052805190602001200361150c576001915061151f565b808061151790614fb5565b915050611491565b508083604051602001611532919061519c565b60405160208183030381529060405290611582576040517f08c379a0000000000000000000000000000000000000000000000000000000008152600401611579919061512e565b60405180910390fd5b5050611829565b60028114801561159b57506000825114155b156116a15760006001905060005b60035481101561163757836040516020016115c49190614e8f565b60405160208183030381529060405280519060200120600160008381526020019081526020016000206000016040516020016116009190614f9e565b60405160208183030381529060405280519060200120036116245760009150611637565b808061162f90614fb5565b9150506115a9565b50808360405160200161164a9190615101565b6040516020818303038152906040529061169a576040517f08c379a0000000000000000000000000000000000000000000000000000000008152600401611691919061512e565b60405180910390fd5b5050611828565b60038103611827576000805b6003548110156117c157836040516020016116c89190614e8f565b60405160208183030381529060405280519060200120600160008381526020019081526020016000206000016040516020016117049190614f9e565b60405160208183030381529060405280519060200120036117ae57600191506001600082815260200190815260200160002060030160009054906101000a900460ff16846040516020016117589190615215565b604051602081830303815290604052906117a8576040517f08c379a000000000000000000000000000000000000000000000000000000000815260040161179f919061512e565b60405180910390fd5b506117c1565b80806117b990614fb5565b9150506116ad565b5080836040516020016117d4919061519c565b60405160208183030381529060405290611824576040517f08c379a000000000000000000000000000000000000000000000000000000000815260040161181b919061512e565b60405180910390fd5b50505b5b5b5b846003600081036119365760006001905060005b6003548110156118cc57836040516020016118599190614e8f565b60405160208183030381529060405280519060200120600160008381526020019081526020016000206000016040516020016118959190614f9e565b60405160208183030381529060405280519060200120036118b957600091506118cc565b80806118c490614fb5565b91505061183e565b5080836040516020016118df9190615101565b6040516020818303038152906040529061192f576040517f08c379a0000000000000000000000000000000000000000000000000000000008152600401611926919061512e565b60405180910390fd5b5050611cdb565b60018103611a3a576000805b6003548110156119d0578360405160200161195d9190614e8f565b60405160208183030381529060405280519060200120600160008381526020019081526020016000206000016040516020016119999190614f9e565b60405160208183030381529060405280519060200120036119bd57600191506119d0565b80806119c890614fb5565b915050611942565b5080836040516020016119e3919061519c565b60405160208183030381529060405290611a33576040517f08c379a0000000000000000000000000000000000000000000000000000000008152600401611a2a919061512e565b60405180910390fd5b5050611cda565b600281148015611a4c57506000825114155b15611b525760006001905060005b600354811015611ae85783604051602001611a759190614e8f565b6040516020818303038152906040528051906020012060016000838152602001908152602001600020600001604051602001611ab19190614f9e565b6040516020818303038152906040528051906020012003611ad55760009150611ae8565b8080611ae090614fb5565b915050611a5a565b508083604051602001611afb9190615101565b60405160208183030381529060405290611b4b576040517f08c379a0000000000000000000000000000000000000000000000000000000008152600401611b42919061512e565b60405180910390fd5b5050611cd9565b60038103611cd8576000805b600354811015611c725783604051602001611b799190614e8f565b6040516020818303038152906040528051906020012060016000838152602001908152602001600020600001604051602001611bb59190614f9e565b6040516020818303038152906040528051906020012003611c5f57600191506001600082815260200190815260200160002060030160009054906101000a900460ff1684604051602001611c099190615215565b60405160208183030381529060405290611c59576040517f08c379a0000000000000000000000000000000000000000000000000000000008152600401611c50919061512e565b60405180910390fd5b50611c72565b8080611c6a90614fb5565b915050611b5e565b508083604051602001611c85919061519c565b60405160208183030381529060405290611cd5576040517f08c379a0000000000000000000000000000000000000000000000000000000008152600401611ccc919061512e565b60405180910390fd5b50505b5b5b5b6000808060008091505b600354821015611ec6578c604051602001611d009190614e8f565b6040516020818303038152906040528051906020012060016000848152602001908152602001600020600001604051602001611d3c9190614f9e565b6040516020818303038152906040528051906020012003611eb3578b6001600084815260200190815260200160002060010154611d7991906154ab565b60016000848152602001908152602001600020600201546001600085815260200190815260200160002060010154611db191906154df565b611dbb9190615550565b9050806001600084815260200190815260200160002060020154611ddf9190614e1f565b93508060016000848152602001908152602001600020600201819055508b600160008481526020019081526020016000206001016000828254611e2291906154ab565b925050819055506001600083815260200190815260200160002060020154600160008481526020019081526020016000206001015460016000858152602001908152602001600020600001604051611e7a9190614f9e565b60405180910390207f1c3e2c51276ce91148db2972b4614c440d1eff2734afc30a9b675564428f62ef60405160405180910390a4611ec6565b8180611ebe90614fb5565b925050611ce5565b60008093505b600354841015612129578b604051602001611ee79190614e8f565b6040516020818303038152906040528051906020012060016000868152602001908152602001600020600001604051602001611f239190614f9e565b6040516020818303038152906040528051906020012003612116576000600160008681526020019081526020016000206001015403611fba5784600160008581526020019081526020016000206002016000828254611f8291906154ab565b925050819055508c600160008581526020019081526020016000206001016000828254611faf9190614e1f565b925050819055600080fd5b846001600086815260200190815260200160002060020154611fdc91906154ab565b6001600086815260200190815260200160002060010154600160008781526020019081526020016000206002015461201491906154df565b61201e9190615550565b91508160016000868152602001908152602001600020600101546120429190614e1f565b90508460016000868152602001908152602001600020600201600082825461206a91906154ab565b9250508190555081600160008681526020019081526020016000206001018190555060016000858152602001908152602001600020600201546001600086815260200190815260200160002060010154600160008781526020019081526020016000206000016040516120dd9190614f9e565b60405180910390207f1c3e2c51276ce91148db2972b4614c440d1eff2734afc30a9b675564428f62ef60405160405180910390a4612129565b838061212190614fb5565b945050611ecc565b8b819a509a50505050505050505050935093915050565b60606000846003600081036122505760006001905060005b6003548110156121e657836040516020016121739190614e8f565b60405160208183030381529060405280519060200120600160008381526020019081526020016000206000016040516020016121af9190614f9e565b60405160208183030381529060405280519060200120036121d357600091506121e6565b80806121de90614fb5565b915050612158565b5080836040516020016121f99190615101565b60405160208183030381529060405290612249576040517f08c379a0000000000000000000000000000000000000000000000000000000008152600401612240919061512e565b60405180910390fd5b50506125f5565b60018103612354576000805b6003548110156122ea57836040516020016122779190614e8f565b60405160208183030381529060405280519060200120600160008381526020019081526020016000206000016040516020016122b39190614f9e565b60405160208183030381529060405280519060200120036122d757600191506122ea565b80806122e290614fb5565b91505061225c565b5080836040516020016122fd919061519c565b6040516020818303038152906040529061234d576040517f08c379a0000000000000000000000000000000000000000000000000000000008152600401612344919061512e565b60405180910390fd5b50506125f4565b60028114801561236657506000825114155b1561246c5760006001905060005b600354811015612402578360405160200161238f9190614e8f565b60405160208183030381529060405280519060200120600160008381526020019081526020016000206000016040516020016123cb9190614f9e565b60405160208183030381529060405280519060200120036123ef5760009150612402565b80806123fa90614fb5565b915050612374565b5080836040516020016124159190615101565b60405160208183030381529060405290612465576040517f08c379a000000000000000000000000000000000000000000000000000000000815260040161245c919061512e565b60405180910390fd5b50506125f3565b600381036125f2576000805b60035481101561258c57836040516020016124939190614e8f565b60405160208183030381529060405280519060200120600160008381526020019081526020016000206000016040516020016124cf9190614f9e565b604051602081830303815290604052805190602001200361257957600191506001600082815260200190815260200160002060030160009054906101000a900460ff16846040516020016125239190615215565b60405160208183030381529060405290612573576040517f08c379a000000000000000000000000000000000000000000000000000000000815260040161256a919061512e565b60405180910390fd5b5061258c565b808061258490614fb5565b915050612478565b50808360405160200161259f919061519c565b604051602081830303815290604052906125ef576040517f08c379a00000000000000000000000000000000000000000000000000000000081526004016125e6919061512e565b60405180910390fd5b50505b5b5b5b846003600081036127015760006001905060005b60035481101561269757836040516020016126249190614e8f565b60405160208183030381529060405280519060200120600160008381526020019081526020016000206000016040516020016126609190614f9e565b60405160208183030381529060405280519060200120036126845760009150612697565b808061268f90614fb5565b915050612609565b5080836040516020016126aa9190615101565b604051602081830303815290604052906126fa576040517f08c379a00000000000000000000000000000000000000000000000000000000081526004016126f1919061512e565b60405180910390fd5b5050612aa6565b60018103612805576000805b60035481101561279b57836040516020016127289190614e8f565b60405160208183030381529060405280519060200120600160008381526020019081526020016000206000016040516020016127649190614f9e565b6040516020818303038152906040528051906020012003612788576001915061279b565b808061279390614fb5565b91505061270d565b5080836040516020016127ae919061519c565b604051602081830303815290604052906127fe576040517f08c379a00000000000000000000000000000000000000000000000000000000081526004016127f5919061512e565b60405180910390fd5b5050612aa5565b60028114801561281757506000825114155b1561291d5760006001905060005b6003548110156128b357836040516020016128409190614e8f565b604051602081830303815290604052805190602001206001600083815260200190815260200160002060000160405160200161287c9190614f9e565b60405160208183030381529060405280519060200120036128a057600091506128b3565b80806128ab90614fb5565b915050612825565b5080836040516020016128c69190615101565b60405160208183030381529060405290612916576040517f08c379a000000000000000000000000000000000000000000000000000000000815260040161290d919061512e565b60405180910390fd5b5050612aa4565b60038103612aa3576000805b600354811015612a3d57836040516020016129449190614e8f565b60405160208183030381529060405280519060200120600160008381526020019081526020016000206000016040516020016129809190614f9e565b6040516020818303038152906040528051906020012003612a2a57600191506001600082815260200190815260200160002060030160009054906101000a900460ff16846040516020016129d49190615215565b60405160208183030381529060405290612a24576040517f08c379a0000000000000000000000000000000000000000000000000000000008152600401612a1b919061512e565b60405180910390fd5b50612a3d565b8080612a3590614fb5565b915050612929565b508083604051602001612a50919061519c565b60405160208183030381529060405290612aa0576040517f08c379a0000000000000000000000000000000000000000000000000000000008152600401612a97919061512e565b60405180910390fd5b50505b5b5b5b6000808060008092505b600354831015612cd5578c604051602001612acb9190614e8f565b6040516020818303038152906040528051906020012060016000858152602001908152602001600020600001604051602001612b079190614f9e565b6040516020818303038152906040528051906020012003612cc257600060016000858152602001908152602001600020600101541480612b5c57508b6001600085815260200190815260200160002060010154105b15612b6657600080fd5b8b6001600085815260200190815260200160002060010154612b889190614e1f565b60016000858152602001908152602001600020600101546001600086815260200190815260200160002060020154612bc091906154df565b612bca9190615550565b9050600160008481526020019081526020016000206002015481612bee9190614e1f565b93508060016000858152602001908152602001600020600201819055508b600160008581526020019081526020016000206001016000828254612c319190614e1f565b925050819055506001600084815260200190815260200160002060020154600160008581526020019081526020016000206001015460016000868152602001908152602001600020600001604051612c899190614f9e565b60405180910390207f1c3e2c51276ce91148db2972b4614c440d1eff2734afc30a9b675564428f62ef60405160405180910390a4612cd5565b8280612ccd90614fb5565b935050612ab0565b60008092505b600354831015612ebc578b604051602001612cf69190614e8f565b6040516020818303038152906040528051906020012060016000858152602001908152602001600020600001604051602001612d329190614f9e565b6040516020818303038152906040528051906020012003612ea957846001600085815260200190815260200160002060020154612d6f9190614e1f565b60016000858152602001908152602001600020600101546001600086815260200190815260200160002060020154612da791906154df565b612db19190615550565b9150600160008481526020019081526020016000206001015482612dd59190614e1f565b905084600160008581526020019081526020016000206002016000828254612dfd9190614e1f565b925050819055508160016000858152602001908152602001600020600101819055506001600084815260200190815260200160002060020154600160008581526020019081526020016000206001015460016000868152602001908152602001600020600001604051612e709190614f9e565b60405180910390207f1c3e2c51276ce91148db2972b4614c440d1eff2734afc30a9b675564428f62ef60405160405180910390a4612ebc565b8280612eb490614fb5565b935050612cdb565b8b819a509a50505050505050505050935093915050565b803414612edf57600080fd5b80600260003373ffffffffffffffffffffffffffffffffffffffff1673ffffffffffffffffffffffffffffffffffffffff1681526020019081526020016000206000828254612f2e91906154ab565b92505081905550803373ffffffffffffffffffffffffffffffffffffffff167f2da466a7b24304f47e87fa2e1e5a81b9831ce54fec19055ce277ca2f39ba42c460405160405180910390a350565b606060008054906101000a900473ffffffffffffffffffffffffffffffffffffffff1673ffffffffffffffffffffffffffffffffffffffff163373ffffffffffffffffffffffffffffffffffffffff161461300c576040517f08c379a000000000000000000000000000000000000000000000000000000000815260040161300390615049565b60405180910390fd5b600060035467ffffffffffffffff81111561302a5761302961465a565b5b60405190808252806020026020018201604052801561306357816020015b61305061459e565b8152602001906001900390816130485790505b50905060005b60035481101561318357600160008281526020019081526020016000206040518060800160405290816000820180546130a190614ed5565b80601f01602080910402602001604051908101604052809291908181526020018280546130cd90614ed5565b801561311a5780601f106130ef5761010080835404028352916020019161311a565b820191906000526020600020905b8154815290600101906020018083116130fd57829003601f168201915b5050505050815260200160018201548152602001600282015481526020016003820160009054906101000a900460ff16151515158152505082828151811061316557613164615581565b5b6020026020010181905250808061317b90614fb5565b915050613069565b508091505090565b60008054906101000a900473ffffffffffffffffffffffffffffffffffffffff1673ffffffffffffffffffffffffffffffffffffffff163373ffffffffffffffffffffffffffffffffffffffff1614613219576040517f08c379a000000000000000000000000000000000000000000000000000000000815260040161321090615049565b60405180910390fd5b846001600081036133255760006001905060005b6003548110156132bb57836040516020016132489190614e8f565b60405160208183030381529060405280519060200120600160008381526020019081526020016000206000016040516020016132849190614f9e565b60405160208183030381529060405280519060200120036132a857600091506132bb565b80806132b390614fb5565b91505061322d565b5080836040516020016132ce9190615101565b6040516020818303038152906040529061331e576040517f08c379a0000000000000000000000000000000000000000000000000000000008152600401613315919061512e565b60405180910390fd5b50506136ca565b60018103613429576000805b6003548110156133bf578360405160200161334c9190614e8f565b60405160208183030381529060405280519060200120600160008381526020019081526020016000206000016040516020016133889190614f9e565b60405160208183030381529060405280519060200120036133ac57600191506133bf565b80806133b790614fb5565b915050613331565b5080836040516020016133d2919061519c565b60405160208183030381529060405290613422576040517f08c379a0000000000000000000000000000000000000000000000000000000008152600401613419919061512e565b60405180910390fd5b50506136c9565b60028114801561343b57506000825114155b156135415760006001905060005b6003548110156134d757836040516020016134649190614e8f565b60405160208183030381529060405280519060200120600160008381526020019081526020016000206000016040516020016134a09190614f9e565b60405160208183030381529060405280519060200120036134c457600091506134d7565b80806134cf90614fb5565b915050613449565b5080836040516020016134ea9190615101565b6040516020818303038152906040529061353a576040517f08c379a0000000000000000000000000000000000000000000000000000000008152600401613531919061512e565b60405180910390fd5b50506136c8565b600381036136c7576000805b60035481101561366157836040516020016135689190614e8f565b60405160208183030381529060405280519060200120600160008381526020019081526020016000206000016040516020016135a49190614f9e565b604051602081830303815290604052805190602001200361364e57600191506001600082815260200190815260200160002060030160009054906101000a900460ff16846040516020016135f89190615215565b60405160208183030381529060405290613648576040517f08c379a000000000000000000000000000000000000000000000000000000000815260040161363f919061512e565b60405180910390fd5b50613661565b808061365990614fb5565b91505061354d565b508083604051602001613674919061519c565b604051602081830303815290604052906136c4576040517f08c379a00000000000000000000000000000000000000000000000000000000081526004016136bb919061512e565b60405180910390fd5b50505b5b5b5b856002600081036137d65760006001905060005b60035481101561376c57836040516020016136f99190614e8f565b60405160208183030381529060405280519060200120600160008381526020019081526020016000206000016040516020016137359190614f9e565b6040516020818303038152906040528051906020012003613759576000915061376c565b808061376490614fb5565b9150506136de565b50808360405160200161377f9190615101565b604051602081830303815290604052906137cf576040517f08c379a00000000000000000000000000000000000000000000000000000000081526004016137c6919061512e565b60405180910390fd5b5050613b7b565b600181036138da576000805b60035481101561387057836040516020016137fd9190614e8f565b60405160208183030381529060405280519060200120600160008381526020019081526020016000206000016040516020016138399190614f9e565b604051602081830303815290604052805190602001200361385d5760019150613870565b808061386890614fb5565b9150506137e2565b508083604051602001613883919061519c565b604051602081830303815290604052906138d3576040517f08c379a00000000000000000000000000000000000000000000000000000000081526004016138ca919061512e565b60405180910390fd5b5050613b7a565b6002811480156138ec57506000825114155b156139f25760006001905060005b60035481101561398857836040516020016139159190614e8f565b60405160208183030381529060405280519060200120600160008381526020019081526020016000206000016040516020016139519190614f9e565b60405160208183030381529060405280519060200120036139755760009150613988565b808061398090614fb5565b9150506138fa565b50808360405160200161399b9190615101565b604051602081830303815290604052906139eb576040517f08c379a00000000000000000000000000000000000000000000000000000000081526004016139e2919061512e565b60405180910390fd5b5050613b79565b60038103613b78576000805b600354811015613b125783604051602001613a199190614e8f565b6040516020818303038152906040528051906020012060016000838152602001908152602001600020600001604051602001613a559190614f9e565b6040516020818303038152906040528051906020012003613aff57600191506001600082815260200190815260200160002060030160009054906101000a900460ff1684604051602001613aa99190615215565b60405160208183030381529060405290613af9576040517f08c379a0000000000000000000000000000000000000000000000000000000008152600401613af0919061512e565b60405180910390fd5b50613b12565b8080613b0a90614fb5565b9150506139fe565b508083604051602001613b25919061519c565b60405160208183030381529060405290613b75576040517f08c379a0000000000000000000000000000000000000000000000000000000008152600401613b6c919061512e565b60405180910390fd5b50505b5b5b5b60005b600354811015613c045789604051602001613b999190614e8f565b6040516020818303038152906040528051906020012060016000838152602001908152602001600020600001604051602001613bd59190614f9e565b604051602081830303815290604052805190602001200315613c04578080613bfc90614fb5565b915050613b7e565b6000881015613c1257600097505b6000871015613c2057600096505b6000895103613c2d578998505b88600160008381526020019081526020016000206000019081613c5091906153d9565b50876001600083815260200190815260200160002060010181905550866001600083815260200190815260200160002060020181905550856001600083815260200190815260200160002060030160006101000a81548160ff02191690831515021790555086888a604051613cc59190614e8f565b60405180910390207f1c3e2c51276ce91148db2972b4614c440d1eff2734afc30a9b675564428f62ef60405160405180910390a450505050505050505050565b600047905090565b6060600060035467ffffffffffffffff811115613d2d57613d2c61465a565b5b604051908082528060200260200182016040528015613d6657816020015b613d5361459e565b815260200190600190039081613d4b5790505b50905060005b600354811015613eb657600115156001600083815260200190815260200160002060030160009054906101000a900460ff16151503613ea35760016000828152602001908152602001600020604051806080016040529081600082018054613dd390614ed5565b80601f0160208091040260200160405190810160405280929190818152602001828054613dff90614ed5565b8015613e4c5780601f10613e2157610100808354040283529160200191613e4c565b820191906000526020600020905b815481529060010190602001808311613e2f57829003601f168201915b5050505050815260200160018201548152602001600282015481526020016003820160009054906101000a900460ff161515151581525050828281518110613e9757613e96615581565b5b60200260200101819052505b8080613eae90614fb5565b915050613d6c565b508091505090565b60008054906101000a900473ffffffffffffffffffffffffffffffffffffffff1673ffffffffffffffffffffffffffffffffffffffff163373ffffffffffffffffffffffffffffffffffffffff1614613f4c576040517f08c379a0000000000000000000000000000000000000000000000000000000008152600401613f4390615049565b60405180910390fd5b826001600081036140585760006001905060005b600354811015613fee5783604051602001613f7b9190614e8f565b6040516020818303038152906040528051906020012060016000838152602001908152602001600020600001604051602001613fb79190614f9e565b6040516020818303038152906040528051906020012003613fdb5760009150613fee565b8080613fe690614fb5565b915050613f60565b5080836040516020016140019190615101565b60405160208183030381529060405290614051576040517f08c379a0000000000000000000000000000000000000000000000000000000008152600401614048919061512e565b60405180910390fd5b50506143fd565b6001810361415c576000805b6003548110156140f2578360405160200161407f9190614e8f565b60405160208183030381529060405280519060200120600160008381526020019081526020016000206000016040516020016140bb9190614f9e565b60405160208183030381529060405280519060200120036140df57600191506140f2565b80806140ea90614fb5565b915050614064565b508083604051602001614105919061519c565b60405160208183030381529060405290614155576040517f08c379a000000000000000000000000000000000000000000000000000000000815260040161414c919061512e565b60405180910390fd5b50506143fc565b60028114801561416e57506000825114155b156142745760006001905060005b60035481101561420a57836040516020016141979190614e8f565b60405160208183030381529060405280519060200120600160008381526020019081526020016000206000016040516020016141d39190614f9e565b60405160208183030381529060405280519060200120036141f7576000915061420a565b808061420290614fb5565b91505061417c565b50808360405160200161421d9190615101565b6040516020818303038152906040529061426d576040517f08c379a0000000000000000000000000000000000000000000000000000000008152600401614264919061512e565b60405180910390fd5b50506143fb565b600381036143fa576000805b600354811015614394578360405160200161429b9190614e8f565b60405160208183030381529060405280519060200120600160008381526020019081526020016000206000016040516020016142d79190614f9e565b604051602081830303815290604052805190602001200361438157600191506001600082815260200190815260200160002060030160009054906101000a900460ff168460405160200161432b9190615215565b6040516020818303038152906040529061437b576040517f08c379a0000000000000000000000000000000000000000000000000000000008152600401614372919061512e565b60405180910390fd5b50614394565b808061438c90614fb5565b915050614280565b5080836040516020016143a7919061519c565b604051602081830303815290604052906143f7576040517f08c379a00000000000000000000000000000000000000000000000000000000081526004016143ee919061512e565b60405180910390fd5b50505b5b5b5b60008060008092505b60035483101561455057876040516020016144219190614e8f565b604051602081830303815290604052805190602001206001600085815260200190815260200160002060000160405160200161445d9190614f9e565b604051602081830303815290604052805190602001200361453d576001600084815260200190815260200160002060010154915060016000848152602001908152602001600020600201549050600087836144b891906155b0565b12156144cb57816144c8906155f4565b96505b600086826144d991906155b0565b12156144ec57806144e9906155f4565b95505b86826144f891906155b0565b6001600085815260200190815260200160002060010181905550858161451e91906155b0565b6001600085815260200190815260200160002060020181905550614550565b828061454890614fb5565b935050614406565b8587896040516145609190614e8f565b60405180910390207f1c3e2c51276ce91148db2972b4614c440d1eff2734afc30a9b675564428f62ef60405160405180910390a45050505050505050565b60405180608001604052806060815260200160008152602001600081526020016000151581525090565b6000604051905090565b600080fd5b600080fd5b6000819050919050565b6145ef816145dc565b81146145fa57600080fd5b50565b60008135905061460c816145e6565b92915050565b600060208284031215614628576146276145d2565b5b6000614636848285016145fd565b91505092915050565b600080fd5b600080fd5b6000601f19601f8301169050919050565b7f4e487b7100000000000000000000000000000000000000000000000000000000600052604160045260246000fd5b61469282614649565b810181811067ffffffffffffffff821117156146b1576146b061465a565b5b80604052505050565b60006146c46145c8565b90506146d08282614689565b919050565b600067ffffffffffffffff8211156146f0576146ef61465a565b5b6146f982614649565b9050602081019050919050565b82818337600083830152505050565b6000614728614723846146d5565b6146ba565b90508281526020810184848401111561474457614743614644565b5b61474f848285614706565b509392505050565b600082601f83011261476c5761476b61463f565b5b813561477c848260208601614715565b91505092915050565b60006020828403121561479b5761479a6145d2565b5b600082013567ffffffffffffffff8111156147b9576147b86145d7565b5b6147c584828501614757565b91505092915050565b600081519050919050565b600082825260208201905092915050565b60005b838110156148085780820151818401526020810190506147ed565b60008484015250505050565b600061481f826147ce565b61482981856147d9565b93506148398185602086016147ea565b61484281614649565b840191505092915050565b614856816145dc565b82525050565b60008115159050919050565b6148718161485c565b82525050565b600060808301600083015184820360008601526148948282614814565b91505060208301516148a9602086018261484d565b5060408301516148bc604086018261484d565b5060608301516148cf6060860182614868565b508091505092915050565b600060208201905081810360008301526148f48184614877565b905092915050565b600080600060608486031215614915576149146145d2565b5b600084013567ffffffffffffffff811115614933576149326145d7565b5b61493f86828701614757565b9350506020614950868287016145fd565b9250506040614961868287016145fd565b9150509250925092565b600073ffffffffffffffffffffffffffffffffffffffff82169050919050565b60006149968261496b565b9050919050565b6149a68161498b565b81146149b157600080fd5b50565b6000813590506149c38161499d565b92915050565b6000602082840312156149df576149de6145d2565b5b60006149ed848285016149b4565b91505092915050565b6149ff816145dc565b82525050565b6000602082019050614a1a60008301846149f6565b92915050565b600080600060608486031215614a3957614a386145d2565b5b600084013567ffffffffffffffff811115614a5757614a566145d7565b5b614a6386828701614757565b9350506020614a74868287016145fd565b925050604084013567ffffffffffffffff811115614a9557614a946145d7565b5b614aa186828701614757565b9150509250925092565b600082825260208201905092915050565b6000614ac7826147ce565b614ad18185614aab565b9350614ae18185602086016147ea565b614aea81614649565b840191505092915050565b60006040820190508181036000830152614b0f8185614abc565b9050614b1e60208301846149f6565b9392505050565b600081519050919050565b600082825260208201905092915050565b6000819050602082019050919050565b60006080830160008301518482036000860152614b6e8282614814565b9150506020830151614b83602086018261484d565b506040830151614b96604086018261484d565b506060830151614ba96060860182614868565b508091505092915050565b6000614bc08383614b51565b905092915050565b6000602082019050919050565b6000614be082614b25565b614bea8185614b30565b935083602082028501614bfc85614b41565b8060005b85811015614c385784840389528151614c198582614bb4565b9450614c2483614bc8565b925060208a01995050600181019050614c00565b50829750879550505050505092915050565b60006020820190508181036000830152614c648184614bd5565b905092915050565b614c758161485c565b8114614c8057600080fd5b50565b600081359050614c9281614c6c565b92915050565b600080600080600060a08688031215614cb457614cb36145d2565b5b600086013567ffffffffffffffff811115614cd257614cd16145d7565b5b614cde88828901614757565b955050602086013567ffffffffffffffff811115614cff57614cfe6145d7565b5b614d0b88828901614757565b9450506040614d1c888289016145fd565b9350506060614d2d888289016145fd565b9250506080614d3e88828901614c83565b9150509295509295909350565b6000819050919050565b614d5e81614d4b565b8114614d6957600080fd5b50565b600081359050614d7b81614d55565b92915050565b600080600060608486031215614d9a57614d996145d2565b5b600084013567ffffffffffffffff811115614db857614db76145d7565b5b614dc486828701614757565b9350506020614dd586828701614d6c565b9250506040614de686828701614d6c565b9150509250925092565b7f4e487b7100000000000000000000000000000000000000000000000000000000600052601160045260246000fd5b6000614e2a826145dc565b9150614e35836145dc565b9250828203905081811115614e4d57614e4c614df0565b5b92915050565b600081905092915050565b6000614e69826147ce565b614e738185614e53565b9350614e838185602086016147ea565b80840191505092915050565b6000614e9b8284614e5e565b915081905092915050565b7f4e487b7100000000000000000000000000000000000000000000000000000000600052602260045260246000fd5b60006002820490506001821680614eed57607f821691505b602082108103614f0057614eff614ea6565b5b50919050565b60008190508160005260206000209050919050565b60008154614f2881614ed5565b614f328186614e53565b94506001821660008114614f4d5760018114614f6257614f95565b60ff1983168652811515820286019350614f95565b614f6b85614f06565b60005b83811015614f8d57815481890152600182019150602081019050614f6e565b838801955050505b50505092915050565b6000614faa8284614f1b565b915081905092915050565b6000614fc0826145dc565b91507fffffffffffffffffffffffffffffffffffffffffffffffffffffffffffffffff8203614ff257614ff1614df0565b5b600182019050919050565b7f43616c6c6572206973206e6f74206f776e657200000000000000000000000000600082015250565b6000615033601383614aab565b915061503e82614ffd565b602082019050919050565b6000602082019050818103600083015261506281615026565b9050919050565b7f43727970746f63757272656e6379200000000000000000000000000000000000600082015250565b600061509f600f83614e53565b91506150aa82615069565b600f82019050919050565b7f20616c72656164792065786973742e0000000000000000000000000000000000600082015250565b60006150eb600f83614e53565b91506150f6826150b5565b600f82019050919050565b600061510c82615092565b91506151188284614e5e565b9150615123826150de565b915081905092915050565b600060208201905081810360008301526151488184614abc565b905092915050565b7f206973206e6f742065786973742e000000000000000000000000000000000000600082015250565b6000615186600e83614e53565b915061519182615150565b600e82019050919050565b60006151a782615092565b91506151b38284614e5e565b91506151be82615179565b915081905092915050565b7f206973206e6f7420617661696c61626c652e0000000000000000000000000000600082015250565b60006151ff601283614e53565b915061520a826151c9565b601282019050919050565b600061522082615092565b915061522c8284614e5e565b9150615237826151f2565b915081905092915050565b60006020601f8301049050919050565b600082821b905092915050565b60006008830261528f7fffffffffffffffffffffffffffffffffffffffffffffffffffffffffffffffff82615252565b6152998683615252565b95508019841693508086168417925050509392505050565b6000819050919050565b60006152d66152d16152cc846145dc565b6152b1565b6145dc565b9050919050565b6000819050919050565b6152f0836152bb565b6153046152fc826152dd565b84845461525f565b825550505050565b600090565b61531961530c565b6153248184846152e7565b505050565b5b818110156153485761533d600082615311565b60018101905061532a565b5050565b601f82111561538d5761535e81614f06565b61536784615242565b81016020851015615376578190505b61538a61538285615242565b830182615329565b50505b505050565b600082821c905092915050565b60006153b060001984600802615392565b1980831691505092915050565b60006153c9838361539f565b9150826002028217905092915050565b6153e2826147ce565b67ffffffffffffffff8111156153fb576153fa61465a565b5b6154058254614ed5565b61541082828561534c565b600060209050601f8311600181146154435760008415615431578287015190505b61543b85826153bd565b8655506154a3565b601f19841661545186614f06565b60005b8281101561547957848901518255600182019150602085019450602081019050615454565b868310156154965784890151615492601f89168261539f565b8355505b6001600288020188555050505b505050505050565b60006154b6826145dc565b91506154c1836145dc565b92508282019050808211156154d9576154d8614df0565b5b92915050565b60006154ea826145dc565b91506154f5836145dc565b9250828202615503816145dc565b9150828204841483151761551a57615519614df0565b5b5092915050565b7f4e487b7100000000000000000000000000000000000000000000000000000000600052601260045260246000fd5b600061555b826145dc565b9150615566836145dc565b92508261557657615575615521565b5b828204905092915050565b7f4e487b7100000000000000000000000000000000000000000000000000000000600052603260045260246000fd5b60006155bb82614d4b565b91506155c683614d4b565b9250828201905082811215600083121683821260008412151617156155ee576155ed614df0565b5b92915050565b60006155ff82614d4b565b91507f8000000000000000000000000000000000000000000000000000000000000000820361563157615630614df0565b5b81600003905091905056fea26469706673582212206de3f905a9d769c09c0d54b278a9616ee7e2f370f871e7edabe90ba26b2beaf264736f6c63430008110033",
  "immutableReferences": {},
  "source": "//SPDX-License-Identifier: MIT\r\npragma solidity ^0.8.0;\r\n//import \"hardhat/console.sol\";\r\n//import \"@openzeppelin/contracts/utils/Strings.sol\";\r\n\r\ncontract DeX{\r\n\r\n    address private owner;\r\n    // Rules(16/09/2022):\r\n    // 1. One Y3Token = 100 usd (Our own token)\r\n    // 2. Ether price = 1,472.00 usd\r\n    // 3. Bitcoin price = 19,758.00 usd\r\n    // 4. PAX Gold price = 1,685.00 usd\r\n\r\n    //Add code to convert 1 ETH -> Y4 Token \r\n    //Add mapping for balance(address)\r\n\r\n    struct pool{\r\n        string cryptoName;\r\n        uint cryptoAmt;\r\n        uint tokenAmt;\r\n        bool cryptoStatus;\r\n    }\r\n\r\n    function deposit(uint256 amount) public payable {\r\n        require(msg.value == amount);\r\n        yBalances[msg.sender] += amount;\r\n        emit Deposited(msg.sender,amount);\r\n    }\r\n\r\n    function withdraw(uint256 amount) public {\r\n        require(amount <= yBalances[msg.sender]);\r\n        yBalances[msg.sender] -= amount;\r\n        payable(msg.sender).transfer(address(this).balance); //Change to call\r\n        emit Withdrawn(msg.sender,amount);\r\n    }\r\n\r\n    function getEther() public view returns (uint) {\r\n        return address(this).balance;\r\n    }\r\n\r\n    function balanceOf(address addr) public view returns(uint256) {\r\n        return yBalances[addr];\r\n    }\r\n\r\n    \r\n\r\n    // act like dictionary in python\r\n    mapping(uint => pool) private cryptoList;\r\n    mapping(address => uint256) private yBalances;\r\n\r\n    uint cryptoListNum = 0;\r\n    //uint decimalPlace = 10000;\r\n\r\n    event OwnerSet(address indexed oldOwner, address indexed newOwner);\r\n    event PoolValue(string indexed cryptoName,uint indexed cVal, uint indexed tVal);\r\n    event Deposited(address indexed addr,uint indexed amount);\r\n    event Withdrawn(address indexed addr,uint indexed amount);\r\n\r\n    constructor() {\r\n        owner = msg.sender; \r\n        emit OwnerSet(address(0), owner);\r\n        //Values are in GWEI\r\n        initPool('wBitcoin', 100000000000, 1469000000000);\r\n        initPool('BAT', 875010000000000, 200000000000);\r\n        initPool('BNB', 931000000000000, 2000000000000);\r\n        //console.log(\"Pool created successfully. Liquidity Provider:\", msg.sender);\r\n    }\r\n\r\n    modifier isOwner() {\r\n        require(msg.sender == owner, \"Caller is not owner\");\r\n        _;\r\n    }\r\n\r\n    modifier inList(string memory cName, int funcName) {\r\n        //Used to validate add pool\r\n        if(funcName == 0){\r\n            bool resultStatus = true;\r\n            for (uint j=0; j<cryptoListNum; j++) {\r\n                if(keccak256(abi.encodePacked(cryptoList[j].cryptoName)) == keccak256(abi.encodePacked(cName))){\r\n                    resultStatus = false;\r\n                    break;\r\n                }\r\n            }\r\n            require(resultStatus, string(abi.encodePacked(\"Cryptocurrency \", cName, \" already exist.\")));\r\n        }\r\n        //Used to validate add amount to pool\r\n        else if(funcName == 1){\r\n            bool resultStatus = false;\r\n            for (uint j=0; j<cryptoListNum; j++) {\r\n                if(keccak256(abi.encodePacked(cryptoList[j].cryptoName)) == keccak256(abi.encodePacked(cName))){\r\n                    resultStatus = true;\r\n                    break;\r\n                }\r\n            }\r\n            require(resultStatus, string(abi.encodePacked(\"Cryptocurrency \", cName, \" is not exist.\")));\r\n        }\r\n        //Used to validate edit pool\r\n        else if(funcName == 2 && bytes(cName).length!=0){\r\n            bool resultStatus = true;\r\n            for (uint j=0; j<cryptoListNum; j++) {\r\n                if(keccak256(abi.encodePacked(cryptoList[j].cryptoName)) == keccak256(abi.encodePacked(cName))){\r\n                    resultStatus = false;\r\n                    break;\r\n                }\r\n            }\r\n            require(resultStatus, string(abi.encodePacked(\"Cryptocurrency \", cName, \" already exist.\")));\r\n        }\r\n        //Used to validate exchange buy and sell crypto\r\n        else if(funcName == 3){\r\n            bool resultStatus = false;\r\n            for (uint j=0; j<cryptoListNum; j++) {\r\n                if(keccak256(abi.encodePacked(cryptoList[j].cryptoName)) == keccak256(abi.encodePacked(cName))){\r\n                    resultStatus = true;\r\n                    require(cryptoList[j].cryptoStatus, string(abi.encodePacked(\"Cryptocurrency \", cName, \" is not available.\")));\r\n                    break;\r\n                }\r\n            }\r\n            require(resultStatus, string(abi.encodePacked(\"Cryptocurrency \", cName, \" is not exist.\")));\r\n        }\r\n        _;\r\n    }\r\n\r\n    function addPool(string memory cName, uint cVal, uint tVal) public inList(cName, 0){\r\n\r\n        require(yBalances[msg.sender] >= tVal);\r\n\r\n        if(bytes(cName).length!=0){\r\n            cryptoList[cryptoListNum] = pool(cName, cVal, tVal, true);\r\n            cryptoListNum ++;\r\n            yBalances[msg.sender] -= tVal;\r\n        }\r\n        emit PoolValue(cName,cVal,tVal);\r\n    }\r\n\r\n    function initPool(string memory cName, uint cVal, uint tVal) public isOwner inList(cName, 0){\r\n        if(bytes(cName).length!=0){\r\n            cryptoList[cryptoListNum] = pool(cName, cVal, tVal, true);\r\n            cryptoListNum ++;\r\n        }\r\n        emit PoolValue(cName,cVal,tVal);\r\n    }\r\n\r\n    function getPool(string memory cName) public view returns(pool memory){\r\n        uint j;\r\n        for (j=0; j<cryptoListNum; j++) {\r\n            if(keccak256(abi.encodePacked(cryptoList[j].cryptoName)) == keccak256(abi.encodePacked(cName))) return cryptoList[j];\r\n        }\r\n        return cryptoList[j];\r\n    }\r\n\r\n    function addAmt(string memory cName, int cVal, int tVal) public isOwner inList(cName, 1){\r\n        uint j;\r\n        int tempCVal;\r\n        int tempTVal;\r\n        for (j=0; j<cryptoListNum; j++) {\r\n            if(keccak256(abi.encodePacked(cryptoList[j].cryptoName)) == keccak256(abi.encodePacked(cName))){\r\n                tempCVal = int(cryptoList[j].cryptoAmt);\r\n                tempTVal = int(cryptoList[j].tokenAmt);\r\n                if((tempCVal + cVal)<0){\r\n                    cVal = -tempCVal;\r\n                }\r\n                if((tempTVal + tVal)<0){\r\n                    tVal = -tempTVal;\r\n                }\r\n                cryptoList[j].cryptoAmt =  uint(tempCVal + cVal);\r\n                cryptoList[j].tokenAmt = uint(tempTVal + tVal);\r\n                break;\r\n            }\r\n        }\r\n        emit PoolValue(cName,uint(cVal),uint(tVal));\r\n        //Add write success or fail return/emit\r\n    }\r\n\r\n    // left the newCName empty if no update\r\n    function editPoolDetail(string memory oldCName, string memory newCName, uint cVal, uint tVal, bool pStatus) public isOwner inList(oldCName, 1) inList(newCName, 2){\r\n        uint j;\r\n        for (j=0; j<cryptoListNum; j++) {\r\n            if(keccak256(abi.encodePacked(cryptoList[j].cryptoName)) == keccak256(abi.encodePacked(oldCName))) break;\r\n        }\r\n        if(cVal<0){\r\n            cVal = 0;\r\n        }\r\n        if(tVal<0){\r\n            tVal = 0;\r\n        }\r\n        if(bytes(newCName).length==0){\r\n            newCName = oldCName;\r\n        }\r\n        cryptoList[j].cryptoName = newCName;\r\n        cryptoList[j].cryptoAmt = cVal;\r\n        cryptoList[j].tokenAmt = tVal;\r\n        cryptoList[j].cryptoStatus = pStatus;\r\n        emit PoolValue(newCName,cVal,tVal);\r\n         //Add write success or fail return/emit\r\n    }\r\n\r\n    function listAllPool() public isOwner view returns(pool[] memory){\r\n        pool[] memory tempPool = new pool[](cryptoListNum);\r\n        for(uint j=0; j<cryptoListNum; j++){\r\n            tempPool[j]=cryptoList[j];\r\n        }\r\n        return tempPool;\r\n    }\r\n\r\n    function listAllValidPool() public view returns(pool[] memory){\r\n        pool[] memory tempPool = new pool[](cryptoListNum);\r\n        for(uint j=0; j<cryptoListNum; j++){\r\n            if(cryptoList[j].cryptoStatus == true) tempPool[j]=cryptoList[j];\r\n        }\r\n        return tempPool;\r\n    }\r\n\r\n    // Buy exchangeAmt of cryptoType with X targetCryptoType\r\n    function exchangeBuy(string memory cryptoType, uint exchangeAmt, string memory targetCryptoType) public inList(cryptoType, 3) inList(targetCryptoType, 3) returns(string memory, uint){\r\n        // Exchange cryptoType to token\r\n        uint amtTokenRequired = 0;\r\n        uint j;\r\n        uint i;\r\n        uint y_remain;\r\n        for(j=0; j<cryptoListNum; j++){\r\n            if(keccak256(abi.encodePacked(cryptoList[j].cryptoName)) == keccak256(abi.encodePacked(cryptoType))){\r\n                if(cryptoList[j].cryptoAmt==0 || cryptoList[j].cryptoAmt<exchangeAmt){\r\n                    //console.log(string(abi.encodePacked(\"Cryptocurrency \", cryptoList[j].cryptoName, \" pool is not enough. Maximum amount: \", Strings.toString(cryptoList[j].cryptoAmt))));\r\n                    revert();\r\n                }\r\n                // deduct amout of cryptoType frist to get the amount token required\r\n                // For example buy 10 bitcoin(cryptoType) with ether (targetCryptoType), in here we deduct 10 bitcoin from the pool to calculate the amount of token required.\r\n                y_remain = ((cryptoList[j].tokenAmt*cryptoList[j].cryptoAmt)/(cryptoList[j].cryptoAmt-exchangeAmt));\r\n                amtTokenRequired = y_remain-cryptoList[j].tokenAmt;\r\n                cryptoList[j].tokenAmt = y_remain;\r\n                cryptoList[j].cryptoAmt -= exchangeAmt;\r\n                emit PoolValue(cryptoList[j].cryptoName,cryptoList[j].cryptoAmt,cryptoList[j].tokenAmt);\r\n                break;\r\n            }\r\n        }\r\n\r\n        // Token to targetCryptoType\r\n        uint amtCryptoRequired = 0;\r\n        for(i=0; i<cryptoListNum; i++){\r\n            if(keccak256(abi.encodePacked(cryptoList[i].cryptoName)) == keccak256(abi.encodePacked(targetCryptoType))){\r\n                // decrease the token in the ether (targetCryptoType) pool to calculate how much targetCryptoType we should receive.\r\n                y_remain = (cryptoList[i].tokenAmt*cryptoList[i].cryptoAmt)/(cryptoList[i].tokenAmt-amtTokenRequired);\r\n                amtCryptoRequired = y_remain-cryptoList[i].cryptoAmt;\r\n                cryptoList[i].tokenAmt -= amtTokenRequired;\r\n                cryptoList[i].cryptoAmt = y_remain;\r\n                emit PoolValue(cryptoList[i].cryptoName,cryptoList[i].cryptoAmt,cryptoList[i].tokenAmt);\r\n                break;\r\n            }\r\n        }\r\n        \r\n        return (targetCryptoType, amtCryptoRequired);\r\n    }\r\n\r\n    // Sell exchangeAmt of cryptoType to X TargetCryptoType\r\n    function exchangeSell(string memory cryptoType, uint exchangeAmt, string memory targetCryptoType) public inList(cryptoType, 3) inList(targetCryptoType, 3) returns(string memory, uint){\r\n        // Exchange cryptoType to token\r\n        uint poolOut = 0;\r\n        uint i;\r\n        uint j;\r\n        uint y_remain;\r\n        for(j=0; j<cryptoListNum; j++){\r\n            if(keccak256(abi.encodePacked(cryptoList[j].cryptoName)) == keccak256(abi.encodePacked(cryptoType))){\r\n                //                   (           x           *           y          )/(           x           +    ^x     )\r\n                y_remain = ((cryptoList[j].cryptoAmt*cryptoList[j].tokenAmt)/(cryptoList[j].cryptoAmt+exchangeAmt));\r\n                poolOut = cryptoList[j].tokenAmt-y_remain;\r\n                cryptoList[j].tokenAmt = y_remain;\r\n                cryptoList[j].cryptoAmt += exchangeAmt;\r\n                emit PoolValue(cryptoList[j].cryptoName,cryptoList[j].cryptoAmt,cryptoList[j].tokenAmt);\r\n                break;\r\n            }\r\n        }\r\n\r\n        // Token to targetCryptoType\r\n        uint returnAmt = 0;\r\n        for(i=0; i<cryptoListNum; i++){\r\n            if(keccak256(abi.encodePacked(cryptoList[i].cryptoName)) == keccak256(abi.encodePacked(targetCryptoType))){\r\n                if(cryptoList[i].cryptoAmt==0){\r\n                    //console.log(string(abi.encodePacked(\"Cryptocurrency \", cryptoList[i].cryptoName, \" pool is empty.\")));\r\n                    cryptoList[j].tokenAmt += poolOut;\r\n                    cryptoList[j].cryptoAmt -= exchangeAmt;\r\n                    revert();\r\n                }\r\n                //                   (           x          *           y           )/(           x          +   ^x  )\r\n                //y_remain = roundOff(((cryptoList[i].tokenAmt*cryptoList[i].cryptoAmt*decimalPlace)/(cryptoList[i].tokenAmt+poolOut)));\r\n                y_remain = ((cryptoList[i].tokenAmt*cryptoList[i].cryptoAmt)/(cryptoList[i].tokenAmt+poolOut));\r\n                returnAmt = cryptoList[i].cryptoAmt-y_remain;\r\n                cryptoList[i].tokenAmt += poolOut;\r\n                cryptoList[i].cryptoAmt = y_remain;\r\n                emit PoolValue(cryptoList[i].cryptoName,cryptoList[i].cryptoAmt,cryptoList[i].tokenAmt);\r\n                break;\r\n            }\r\n        }\r\n        return (targetCryptoType, returnAmt);\r\n    }\r\n\r\n    // function roundOff(uint unprocessedInput) public view returns(uint){\r\n    //     // 4 decimalPlace, example input 188776261, it will return 18878\r\n    //     uint input = unprocessedInput;\r\n    //     uint temp = uint(input/decimalPlace);\r\n    //     uint tempNet = uint(input-(temp*decimalPlace));\r\n    //     uint ans = 0;\r\n    //     if(tempNet >= uint(decimalPlace/2)){\r\n    //         ans = uint((input+decimalPlace)/decimalPlace);\r\n    //     }\r\n    //     else{\r\n    //         ans = uint(input/decimalPlace);\r\n    //     }\r\n    //     return(ans);\r\n    // }\r\n}",
  "sourcePath": "c:\\Users\\maste\\OneDrive\\Documents\\Taruc Documents\\Degree\\Y4S1\\Blockchain Application Development\\Project\\Y3S1_Blockchain\\contracts\\DeX.sol",
  "compiler": {
    "name": "solc",
    "version": "0.8.17+commit.8df45f5f.Emscripten.clang"
  },
  "schemaVersion": "3.4.10",
  "updatedAt": "2022-10-02T15:35:03.529Z",
  "networkType": "ethereum",
  "devdoc": {
    "kind": "dev",
    "methods": {},
    "version": 1
  },
  "userdoc": {
    "kind": "user",
    "methods": {},
    "version": 1
  }
}