{
  "contractName": "DeX",
  "abi": [
    {
      "inputs": [],
      "stateMutability": "nonpayable",
      "type": "constructor"
    },
    {
      "anonymous": false,
      "inputs": [
        {
          "indexed": true,
          "internalType": "address",
          "name": "addr",
          "type": "address"
        },
        {
          "indexed": true,
          "internalType": "uint256",
          "name": "amount",
          "type": "uint256"
        }
      ],
      "name": "Deposited",
      "type": "event"
    },
    {
      "anonymous": false,
      "inputs": [
        {
          "indexed": true,
          "internalType": "address",
          "name": "oldOwner",
          "type": "address"
        },
        {
          "indexed": true,
          "internalType": "address",
          "name": "newOwner",
          "type": "address"
        }
      ],
      "name": "OwnerSet",
      "type": "event"
    },
    {
      "anonymous": false,
      "inputs": [
        {
          "indexed": true,
          "internalType": "string",
          "name": "cryptoName",
          "type": "string"
        },
        {
          "indexed": true,
          "internalType": "uint256",
          "name": "cVal",
          "type": "uint256"
        },
        {
          "indexed": true,
          "internalType": "uint256",
          "name": "tVal",
          "type": "uint256"
        }
      ],
      "name": "PoolValue",
      "type": "event"
    },
    {
      "anonymous": false,
      "inputs": [
        {
          "indexed": true,
          "internalType": "address",
          "name": "addr",
          "type": "address"
        },
        {
          "indexed": true,
          "internalType": "uint256",
          "name": "amount",
          "type": "uint256"
        }
      ],
      "name": "Withdrawn",
      "type": "event"
    },
    {
      "inputs": [
        {
          "internalType": "uint256",
          "name": "amount",
          "type": "uint256"
        }
      ],
      "name": "deposit",
      "outputs": [],
      "stateMutability": "payable",
      "type": "function",
      "payable": true
    },
    {
      "inputs": [
        {
          "internalType": "uint256",
          "name": "amount",
          "type": "uint256"
        }
      ],
      "name": "withdraw",
      "outputs": [],
      "stateMutability": "nonpayable",
      "type": "function"
    },
    {
      "inputs": [],
      "name": "getEther",
      "outputs": [
        {
          "internalType": "uint256",
          "name": "",
          "type": "uint256"
        }
      ],
      "stateMutability": "view",
      "type": "function",
      "constant": true
    },
    {
      "inputs": [
        {
          "internalType": "address",
          "name": "addr",
          "type": "address"
        }
      ],
      "name": "balanceOf",
      "outputs": [
        {
          "internalType": "uint256",
          "name": "",
          "type": "uint256"
        }
      ],
      "stateMutability": "view",
      "type": "function",
      "constant": true
    },
    {
      "inputs": [
        {
          "internalType": "string",
          "name": "cName",
          "type": "string"
        },
        {
          "internalType": "uint256",
          "name": "cVal",
          "type": "uint256"
        },
        {
          "internalType": "uint256",
          "name": "tVal",
          "type": "uint256"
        }
      ],
      "name": "addPool",
      "outputs": [],
      "stateMutability": "nonpayable",
      "type": "function"
    },
    {
      "inputs": [
        {
          "internalType": "string",
          "name": "cName",
          "type": "string"
        },
        {
          "internalType": "uint256",
          "name": "cVal",
          "type": "uint256"
        },
        {
          "internalType": "uint256",
          "name": "tVal",
          "type": "uint256"
        }
      ],
      "name": "initPool",
      "outputs": [],
      "stateMutability": "nonpayable",
      "type": "function"
    },
    {
      "inputs": [
        {
          "internalType": "string",
          "name": "cName",
          "type": "string"
        }
      ],
      "name": "getPool",
      "outputs": [
        {
          "components": [
            {
              "internalType": "string",
              "name": "cryptoName",
              "type": "string"
            },
            {
              "internalType": "uint256",
              "name": "cryptoAmt",
              "type": "uint256"
            },
            {
              "internalType": "uint256",
              "name": "tokenAmt",
              "type": "uint256"
            },
            {
              "internalType": "bool",
              "name": "cryptoStatus",
              "type": "bool"
            }
          ],
          "internalType": "struct DeX.pool",
          "name": "",
          "type": "tuple"
        }
      ],
      "stateMutability": "view",
      "type": "function",
      "constant": true
    },
    {
      "inputs": [
        {
          "internalType": "string",
          "name": "cName",
          "type": "string"
        },
        {
          "internalType": "int256",
          "name": "cVal",
          "type": "int256"
        },
        {
          "internalType": "int256",
          "name": "tVal",
          "type": "int256"
        }
      ],
      "name": "addAmt",
      "outputs": [],
      "stateMutability": "nonpayable",
      "type": "function"
    },
    {
      "inputs": [
        {
          "internalType": "string",
          "name": "oldCName",
          "type": "string"
        },
        {
          "internalType": "string",
          "name": "newCName",
          "type": "string"
        },
        {
          "internalType": "uint256",
          "name": "cVal",
          "type": "uint256"
        },
        {
          "internalType": "uint256",
          "name": "tVal",
          "type": "uint256"
        },
        {
          "internalType": "bool",
          "name": "pStatus",
          "type": "bool"
        }
      ],
      "name": "editPoolDetail",
      "outputs": [],
      "stateMutability": "nonpayable",
      "type": "function"
    },
    {
      "inputs": [],
      "name": "listAllPool",
      "outputs": [
        {
          "components": [
            {
              "internalType": "string",
              "name": "cryptoName",
              "type": "string"
            },
            {
              "internalType": "uint256",
              "name": "cryptoAmt",
              "type": "uint256"
            },
            {
              "internalType": "uint256",
              "name": "tokenAmt",
              "type": "uint256"
            },
            {
              "internalType": "bool",
              "name": "cryptoStatus",
              "type": "bool"
            }
          ],
          "internalType": "struct DeX.pool[]",
          "name": "",
          "type": "tuple[]"
        }
      ],
      "stateMutability": "view",
      "type": "function",
      "constant": true
    },
    {
      "inputs": [],
      "name": "listAllValidPool",
      "outputs": [
        {
          "components": [
            {
              "internalType": "string",
              "name": "cryptoName",
              "type": "string"
            },
            {
              "internalType": "uint256",
              "name": "cryptoAmt",
              "type": "uint256"
            },
            {
              "internalType": "uint256",
              "name": "tokenAmt",
              "type": "uint256"
            },
            {
              "internalType": "bool",
              "name": "cryptoStatus",
              "type": "bool"
            }
          ],
          "internalType": "struct DeX.pool[]",
          "name": "",
          "type": "tuple[]"
        }
      ],
      "stateMutability": "view",
      "type": "function",
      "constant": true
    },
    {
      "inputs": [
        {
          "internalType": "string",
          "name": "cryptoType",
          "type": "string"
        },
        {
          "internalType": "uint256",
          "name": "exchangeAmt",
          "type": "uint256"
        },
        {
          "internalType": "string",
          "name": "targetCryptoType",
          "type": "string"
        }
      ],
      "name": "exchangeBuy",
      "outputs": [
        {
          "internalType": "string",
          "name": "",
          "type": "string"
        },
        {
          "internalType": "uint256",
          "name": "",
          "type": "uint256"
        }
      ],
      "stateMutability": "nonpayable",
      "type": "function"
    },
    {
      "inputs": [
        {
          "internalType": "string",
          "name": "cryptoType",
          "type": "string"
        },
        {
          "internalType": "uint256",
          "name": "exchangeAmt",
          "type": "uint256"
        },
        {
          "internalType": "string",
          "name": "targetCryptoType",
          "type": "string"
        }
      ],
      "name": "exchangeSell",
      "outputs": [
        {
          "internalType": "string",
          "name": "",
          "type": "string"
        },
        {
          "internalType": "uint256",
          "name": "",
          "type": "uint256"
        }
      ],
      "stateMutability": "nonpayable",
      "type": "function"
    }
  ],
  "bytecode": "0x608060405260006003553480156200001657600080fd5b50336000806101000a81548173ffffffffffffffffffffffffffffffffffffffff021916908373ffffffffffffffffffffffffffffffffffffffff16021790555060008054906101000a900473ffffffffffffffffffffffffffffffffffffffff1673ffffffffffffffffffffffffffffffffffffffff16600073ffffffffffffffffffffffffffffffffffffffff167f342827c97908e5e2f71151c08502a66d44b6f758e3ac2f1de95f02eb95f0a73560405160405180910390a3620001256040518060400160405280600881526020017f77426974636f696e00000000000000000000000000000000000000000000000081525064174876e80065015607392200620001d460201b60201c565b620001796040518060400160405280600381526020017f424154000000000000000000000000000000000000000000000000000000000081525066031bd124399400642e90edd000620001d460201b60201c565b620001ce6040518060400160405280600381526020017f424e42000000000000000000000000000000000000000000000000000000000081525066034ebd544930006501d1a94a2000620001d460201b60201c565b62001036565b60008054906101000a900473ffffffffffffffffffffffffffffffffffffffff1673ffffffffffffffffffffffffffffffffffffffff163373ffffffffffffffffffffffffffffffffffffffff161462000265576040517f08c379a00000000000000000000000000000000000000000000000000000000081526004016200025c90620008b9565b60405180910390fd5b826000808103620003815760006001905060005b60035481101562000311578360405160200162000297919062000954565b6040516020818303038152906040528051906020012060016000838152602001908152602001600020600001604051602001620002d5919062000a75565b6040516020818303038152906040528051906020012003620002fb576000915062000311565b8080620003089062000ac7565b91505062000279565b50808360405160200162000326919062000bb4565b6040516020818303038152906040529062000379576040517f08c379a000000000000000000000000000000000000000000000000000000000815260040162000370919062000c39565b60405180910390fd5b50506200075e565b6001810362000496576000805b600354811015620004265783604051602001620003ac919062000954565b6040516020818303038152906040528051906020012060016000838152602001908152602001600020600001604051602001620003ea919062000a75565b604051602081830303815290604052805190602001200362000410576001915062000426565b80806200041d9062000ac7565b9150506200038e565b5080836040516020016200043b919062000cad565b604051602081830303815290604052906200048e576040517f08c379a000000000000000000000000000000000000000000000000000000000815260040162000485919062000c39565b60405180910390fd5b50506200075d565b600281148015620004a957506000825114155b15620005c05760006001905060005b600354811015620005505783604051602001620004d6919062000954565b604051602081830303815290604052805190602001206001600083815260200190815260200160002060000160405160200162000514919062000a75565b60405160208183030381529060405280519060200120036200053a576000915062000550565b8080620005479062000ac7565b915050620004b8565b50808360405160200162000565919062000bb4565b60405160208183030381529060405290620005b8576040517f08c379a0000000000000000000000000000000000000000000000000000000008152600401620005af919062000c39565b60405180910390fd5b50506200075c565b600381036200075b576000805b600354811015620006f05783604051602001620005eb919062000954565b604051602081830303815290604052805190602001206001600083815260200190815260200160002060000160405160200162000629919062000a75565b6040516020818303038152906040528051906020012003620006da57600191506001600082815260200190815260200160002060030160009054906101000a900460ff168460405160200162000680919062000d30565b60405160208183030381529060405290620006d3576040517f08c379a0000000000000000000000000000000000000000000000000000000008152600401620006ca919062000c39565b60405180910390fd5b50620006f0565b8080620006e79062000ac7565b915050620005cd565b50808360405160200162000705919062000cad565b6040516020818303038152906040529062000758576040517f08c379a00000000000000000000000000000000000000000000000000000000081526004016200074f919062000c39565b60405180910390fd5b50505b5b5b5b60008551146200080b576040518060800160405280868152602001858152602001848152602001600115158152506001600060035481526020019081526020016000206000820151816000019081620007b8919062000f4f565b50602082015181600101556040820151816002015560608201518160030160006101000a81548160ff02191690831515021790555090505060036000815480929190620008059062000ac7565b91905055505b8284866040516200081d919062000954565b60405180910390207f1c3e2c51276ce91148db2972b4614c440d1eff2734afc30a9b675564428f62ef60405160405180910390a45050505050565b600082825260208201905092915050565b7f43616c6c6572206973206e6f74206f776e657200000000000000000000000000600082015250565b6000620008a160138362000858565b9150620008ae8262000869565b602082019050919050565b60006020820190508181036000830152620008d48162000892565b9050919050565b600081519050919050565b600081905092915050565b60005b8381101562000911578082015181840152602081019050620008f4565b60008484015250505050565b60006200092a82620008db565b620009368185620008e6565b935062000948818560208601620008f1565b80840191505092915050565b60006200096282846200091d565b915081905092915050565b7f4e487b7100000000000000000000000000000000000000000000000000000000600052602260045260246000fd5b60006002820490506001821680620009b557607f821691505b602082108103620009cb57620009ca6200096d565b5b50919050565b60008190508160005260206000209050919050565b60008154620009f5816200099c565b62000a018186620008e6565b9450600182166000811462000a1f576001811462000a355762000a6c565b60ff198316865281151582028601935062000a6c565b62000a4085620009d1565b60005b8381101562000a645781548189015260018201915060208101905062000a43565b838801955050505b50505092915050565b600062000a838284620009e6565b915081905092915050565b7f4e487b7100000000000000000000000000000000000000000000000000000000600052601160045260246000fd5b6000819050919050565b600062000ad48262000abd565b91507fffffffffffffffffffffffffffffffffffffffffffffffffffffffffffffffff820362000b095762000b0862000a8e565b5b600182019050919050565b7f43727970746f63757272656e6379200000000000000000000000000000000000600082015250565b600062000b4c600f83620008e6565b915062000b598262000b14565b600f82019050919050565b7f20616c72656164792065786973742e0000000000000000000000000000000000600082015250565b600062000b9c600f83620008e6565b915062000ba98262000b64565b600f82019050919050565b600062000bc18262000b3d565b915062000bcf82846200091d565b915062000bdc8262000b8d565b915081905092915050565b6000601f19601f8301169050919050565b600062000c0582620008db565b62000c11818562000858565b935062000c23818560208601620008f1565b62000c2e8162000be7565b840191505092915050565b6000602082019050818103600083015262000c55818462000bf8565b905092915050565b7f206973206e6f742065786973742e000000000000000000000000000000000000600082015250565b600062000c95600e83620008e6565b915062000ca28262000c5d565b600e82019050919050565b600062000cba8262000b3d565b915062000cc882846200091d565b915062000cd58262000c86565b915081905092915050565b7f206973206e6f7420617661696c61626c652e0000000000000000000000000000600082015250565b600062000d18601283620008e6565b915062000d258262000ce0565b601282019050919050565b600062000d3d8262000b3d565b915062000d4b82846200091d565b915062000d588262000d09565b915081905092915050565b7f4e487b7100000000000000000000000000000000000000000000000000000000600052604160045260246000fd5b60006020601f8301049050919050565b600082821b905092915050565b60006008830262000de17fffffffffffffffffffffffffffffffffffffffffffffffffffffffffffffffff8262000da2565b62000ded868362000da2565b95508019841693508086168417925050509392505050565b6000819050919050565b600062000e3062000e2a62000e248462000abd565b62000e05565b62000abd565b9050919050565b6000819050919050565b62000e4c8362000e0f565b62000e6462000e5b8262000e37565b84845462000daf565b825550505050565b600090565b62000e7b62000e6c565b62000e8881848462000e41565b505050565b5b8181101562000eb05762000ea460008262000e71565b60018101905062000e8e565b5050565b601f82111562000eff5762000ec981620009d1565b62000ed48462000d92565b8101602085101562000ee4578190505b62000efc62000ef38562000d92565b83018262000e8d565b50505b505050565b600082821c905092915050565b600062000f246000198460080262000f04565b1980831691505092915050565b600062000f3f838362000f11565b9150826002028217905092915050565b62000f5a82620008db565b67ffffffffffffffff81111562000f765762000f7562000d63565b5b62000f8282546200099c565b62000f8f82828562000eb4565b600060209050601f83116001811462000fc7576000841562000fb2578287015190505b62000fbe858262000f31565b8655506200102e565b601f19841662000fd786620009d1565b60005b82811015620010015784890151825560018201915060208501945060208101905062000fda565b868310156200102157848901516200101d601f89168262000f11565b8355505b6001600288020188555050505b505050505050565b61577380620010466000396000f3fe6080604052600436106100c25760003560e01c8063b1fc4dc61161007f578063bf9b12b911610059578063bf9b12b91461027f578063de0ff7c5146102a8578063e7710f68146102d3578063fc81792a146102fe576100c2565b8063b1fc4dc6146101fa578063b6b55f2514610238578063ba0d181b14610254576100c2565b80632e1a7d4d146100c757806341d7b026146100f0578063493726dc1461012d57806370a082311461015657806376a38cd6146101935780638012cf5c146101bc575b600080fd5b3480156100d357600080fd5b506100ee60048036038101906100e9919061469b565b610327565b005b3480156100fc57600080fd5b506101176004803603810190610112919061480e565b610456565b6040516101249190614963565b60405180910390f35b34801561013957600080fd5b50610154600480360381019061014f9190614985565b6106b5565b005b34801561016257600080fd5b5061017d60048036038101906101789190614a52565b610ce6565b60405161018a9190614a8e565b60405180910390f35b34801561019f57600080fd5b506101ba60048036038101906101b59190614985565b610d2f565b005b3480156101c857600080fd5b506101e360048036038101906101de9190614aa9565b611383565b6040516101f1929190614b7e565b60405180910390f35b34801561020657600080fd5b50610221600480360381019061021c9190614aa9565b61214e565b60405161022f929190614b7e565b60405180910390f35b610252600480360381019061024d919061469b565b612ee1565b005b34801561026057600080fd5b50610269612f8a565b6040516102769190614cd3565b60405180910390f35b34801561028b57600080fd5b506102a660048036038101906102a19190614d21565b613199565b005b3480156102b457600080fd5b506102bd613d13565b6040516102ca9190614a8e565b60405180910390f35b3480156102df57600080fd5b506102e8613d1b565b6040516102f59190614cd3565b60405180910390f35b34801561030a57600080fd5b5061032560048036038101906103209190614e0a565b613ecc565b005b600260003373ffffffffffffffffffffffffffffffffffffffff1673ffffffffffffffffffffffffffffffffffffffff16815260200190815260200160002054811061037257600080fd5b80600260003373ffffffffffffffffffffffffffffffffffffffff1673ffffffffffffffffffffffffffffffffffffffff16815260200190815260200160002060008282546103c19190614ea8565b925050819055503373ffffffffffffffffffffffffffffffffffffffff166108fc479081150290604051600060405180830381858888f1935050505015801561040e573d6000803e3d6000fd5b50803373ffffffffffffffffffffffffffffffffffffffff167f7084f5476618d8e60b11ef0d7d3f06914655adb8793e28ff7f018d4c76d505d560405160405180910390a350565b61045e614627565b60005b6003548110156105cd578260405160200161047c9190614f18565b60405160208183030381529060405280519060200120600160008381526020019081526020016000206000016040516020016104b89190615027565b60405160208183030381529060405280519060200120036105ba576001600082815260200190815260200160002060405180608001604052908160008201805461050190614f5e565b80601f016020809104026020016040519081016040528092919081815260200182805461052d90614f5e565b801561057a5780601f1061054f5761010080835404028352916020019161057a565b820191906000526020600020905b81548152906001019060200180831161055d57829003601f168201915b5050505050815260200160018201548152602001600282015481526020016003820160009054906101000a900460ff1615151515815250509150506106b0565b80806105c59061503e565b915050610461565b600160008281526020019081526020016000206040518060800160405290816000820180546105fb90614f5e565b80601f016020809104026020016040519081016040528092919081815260200182805461062790614f5e565b80156106745780601f1061064957610100808354040283529160200191610674565b820191906000526020600020905b81548152906001019060200180831161065757829003601f168201915b5050505050815260200160018201548152602001600282015481526020016003820160009054906101000a900460ff1615151515815250509150505b919050565b60008054906101000a900473ffffffffffffffffffffffffffffffffffffffff1673ffffffffffffffffffffffffffffffffffffffff163373ffffffffffffffffffffffffffffffffffffffff1614610743576040517f08c379a000000000000000000000000000000000000000000000000000000000815260040161073a906150d2565b60405180910390fd5b82600080810361084e5760006001905060005b6003548110156107e457836040516020016107719190614f18565b60405160208183030381529060405280519060200120600160008381526020019081526020016000206000016040516020016107ad9190615027565b60405160208183030381529060405280519060200120036107d157600091506107e4565b80806107dc9061503e565b915050610756565b5080836040516020016107f7919061518a565b60405160208183030381529060405290610847576040517f08c379a000000000000000000000000000000000000000000000000000000000815260040161083e91906151b7565b60405180910390fd5b5050610bf3565b60018103610952576000805b6003548110156108e857836040516020016108759190614f18565b60405160208183030381529060405280519060200120600160008381526020019081526020016000206000016040516020016108b19190615027565b60405160208183030381529060405280519060200120036108d557600191506108e8565b80806108e09061503e565b91505061085a565b5080836040516020016108fb9190615225565b6040516020818303038152906040529061094b576040517f08c379a000000000000000000000000000000000000000000000000000000000815260040161094291906151b7565b60405180910390fd5b5050610bf2565b60028114801561096457506000825114155b15610a6a5760006001905060005b600354811015610a00578360405160200161098d9190614f18565b60405160208183030381529060405280519060200120600160008381526020019081526020016000206000016040516020016109c99190615027565b60405160208183030381529060405280519060200120036109ed5760009150610a00565b80806109f89061503e565b915050610972565b508083604051602001610a13919061518a565b60405160208183030381529060405290610a63576040517f08c379a0000000000000000000000000000000000000000000000000000000008152600401610a5a91906151b7565b60405180910390fd5b5050610bf1565b60038103610bf0576000805b600354811015610b8a5783604051602001610a919190614f18565b6040516020818303038152906040528051906020012060016000838152602001908152602001600020600001604051602001610acd9190615027565b6040516020818303038152906040528051906020012003610b7757600191506001600082815260200190815260200160002060030160009054906101000a900460ff1684604051602001610b21919061529e565b60405160208183030381529060405290610b71576040517f08c379a0000000000000000000000000000000000000000000000000000000008152600401610b6891906151b7565b60405180910390fd5b50610b8a565b8080610b829061503e565b915050610a76565b508083604051602001610b9d9190615225565b60405160208183030381529060405290610bed576040517f08c379a0000000000000000000000000000000000000000000000000000000008152600401610be491906151b7565b60405180910390fd5b50505b5b5b5b6000855114610c9b576040518060800160405280868152602001858152602001848152602001600115158152506001600060035481526020019081526020016000206000820151816000019081610c4a9190615462565b50602082015181600101556040820151816002015560608201518160030160006101000a81548160ff02191690831515021790555090505060036000815480929190610c959061503e565b91905055505b828486604051610cab9190614f18565b60405180910390207f1c3e2c51276ce91148db2972b4614c440d1eff2734afc30a9b675564428f62ef60405160405180910390a45050505050565b6000600260008373ffffffffffffffffffffffffffffffffffffffff1673ffffffffffffffffffffffffffffffffffffffff168152602001908152602001600020549050919050565b826000808103610e3a5760006001905060005b600354811015610dd05783604051602001610d5d9190614f18565b6040516020818303038152906040528051906020012060016000838152602001908152602001600020600001604051602001610d999190615027565b6040516020818303038152906040528051906020012003610dbd5760009150610dd0565b8080610dc89061503e565b915050610d42565b508083604051602001610de3919061518a565b60405160208183030381529060405290610e33576040517f08c379a0000000000000000000000000000000000000000000000000000000008152600401610e2a91906151b7565b60405180910390fd5b50506111df565b60018103610f3e576000805b600354811015610ed45783604051602001610e619190614f18565b6040516020818303038152906040528051906020012060016000838152602001908152602001600020600001604051602001610e9d9190615027565b6040516020818303038152906040528051906020012003610ec15760019150610ed4565b8080610ecc9061503e565b915050610e46565b508083604051602001610ee79190615225565b60405160208183030381529060405290610f37576040517f08c379a0000000000000000000000000000000000000000000000000000000008152600401610f2e91906151b7565b60405180910390fd5b50506111de565b600281148015610f5057506000825114155b156110565760006001905060005b600354811015610fec5783604051602001610f799190614f18565b6040516020818303038152906040528051906020012060016000838152602001908152602001600020600001604051602001610fb59190615027565b6040516020818303038152906040528051906020012003610fd95760009150610fec565b8080610fe49061503e565b915050610f5e565b508083604051602001610fff919061518a565b6040516020818303038152906040529061104f576040517f08c379a000000000000000000000000000000000000000000000000000000000815260040161104691906151b7565b60405180910390fd5b50506111dd565b600381036111dc576000805b600354811015611176578360405160200161107d9190614f18565b60405160208183030381529060405280519060200120600160008381526020019081526020016000206000016040516020016110b99190615027565b604051602081830303815290604052805190602001200361116357600191506001600082815260200190815260200160002060030160009054906101000a900460ff168460405160200161110d919061529e565b6040516020818303038152906040529061115d576040517f08c379a000000000000000000000000000000000000000000000000000000000815260040161115491906151b7565b60405180910390fd5b50611176565b808061116e9061503e565b915050611062565b5080836040516020016111899190615225565b604051602081830303815290604052906111d9576040517f08c379a00000000000000000000000000000000000000000000000000000000081526004016111d091906151b7565b60405180910390fd5b50505b5b5b5b82600260003373ffffffffffffffffffffffffffffffffffffffff1673ffffffffffffffffffffffffffffffffffffffff16815260200190815260200160002054101561122b57600080fd5b60008551146113385760405180608001604052808681526020018581526020018481526020016001151581525060016000600354815260200190815260200160002060008201518160000190816112829190615462565b50602082015181600101556040820151816002015560608201518160030160006101000a81548160ff021916908315150217905550905050600360008154809291906112cd9061503e565b9190505550633b9aca00836112e29190615534565b600260003373ffffffffffffffffffffffffffffffffffffffff1673ffffffffffffffffffffffffffffffffffffffff16815260200190815260200160002060008282546113309190614ea8565b925050819055505b8284866040516113489190614f18565b60405180910390207f1c3e2c51276ce91148db2972b4614c440d1eff2734afc30a9b675564428f62ef60405160405180910390a45050505050565b60606000846003600081036114935760006001905060005b60035481101561142957836040516020016113b69190614f18565b60405160208183030381529060405280519060200120600160008381526020019081526020016000206000016040516020016113f29190615027565b60405160208183030381529060405280519060200120036114165760009150611429565b80806114219061503e565b91505061139b565b50808360405160200161143c919061518a565b6040516020818303038152906040529061148c576040517f08c379a000000000000000000000000000000000000000000000000000000000815260040161148391906151b7565b60405180910390fd5b5050611838565b60018103611597576000805b60035481101561152d57836040516020016114ba9190614f18565b60405160208183030381529060405280519060200120600160008381526020019081526020016000206000016040516020016114f69190615027565b604051602081830303815290604052805190602001200361151a576001915061152d565b80806115259061503e565b91505061149f565b5080836040516020016115409190615225565b60405160208183030381529060405290611590576040517f08c379a000000000000000000000000000000000000000000000000000000000815260040161158791906151b7565b60405180910390fd5b5050611837565b6002811480156115a957506000825114155b156116af5760006001905060005b60035481101561164557836040516020016115d29190614f18565b604051602081830303815290604052805190602001206001600083815260200190815260200160002060000160405160200161160e9190615027565b60405160208183030381529060405280519060200120036116325760009150611645565b808061163d9061503e565b9150506115b7565b508083604051602001611658919061518a565b604051602081830303815290604052906116a8576040517f08c379a000000000000000000000000000000000000000000000000000000000815260040161169f91906151b7565b60405180910390fd5b5050611836565b60038103611835576000805b6003548110156117cf57836040516020016116d69190614f18565b60405160208183030381529060405280519060200120600160008381526020019081526020016000206000016040516020016117129190615027565b60405160208183030381529060405280519060200120036117bc57600191506001600082815260200190815260200160002060030160009054906101000a900460ff1684604051602001611766919061529e565b604051602081830303815290604052906117b6576040517f08c379a00000000000000000000000000000000000000000000000000000000081526004016117ad91906151b7565b60405180910390fd5b506117cf565b80806117c79061503e565b9150506116bb565b5080836040516020016117e29190615225565b60405160208183030381529060405290611832576040517f08c379a000000000000000000000000000000000000000000000000000000000815260040161182991906151b7565b60405180910390fd5b50505b5b5b5b846003600081036119445760006001905060005b6003548110156118da57836040516020016118679190614f18565b60405160208183030381529060405280519060200120600160008381526020019081526020016000206000016040516020016118a39190615027565b60405160208183030381529060405280519060200120036118c757600091506118da565b80806118d29061503e565b91505061184c565b5080836040516020016118ed919061518a565b6040516020818303038152906040529061193d576040517f08c379a000000000000000000000000000000000000000000000000000000000815260040161193491906151b7565b60405180910390fd5b5050611ce9565b60018103611a48576000805b6003548110156119de578360405160200161196b9190614f18565b60405160208183030381529060405280519060200120600160008381526020019081526020016000206000016040516020016119a79190615027565b60405160208183030381529060405280519060200120036119cb57600191506119de565b80806119d69061503e565b915050611950565b5080836040516020016119f19190615225565b60405160208183030381529060405290611a41576040517f08c379a0000000000000000000000000000000000000000000000000000000008152600401611a3891906151b7565b60405180910390fd5b5050611ce8565b600281148015611a5a57506000825114155b15611b605760006001905060005b600354811015611af65783604051602001611a839190614f18565b6040516020818303038152906040528051906020012060016000838152602001908152602001600020600001604051602001611abf9190615027565b6040516020818303038152906040528051906020012003611ae35760009150611af6565b8080611aee9061503e565b915050611a68565b508083604051602001611b09919061518a565b60405160208183030381529060405290611b59576040517f08c379a0000000000000000000000000000000000000000000000000000000008152600401611b5091906151b7565b60405180910390fd5b5050611ce7565b60038103611ce6576000805b600354811015611c805783604051602001611b879190614f18565b6040516020818303038152906040528051906020012060016000838152602001908152602001600020600001604051602001611bc39190615027565b6040516020818303038152906040528051906020012003611c6d57600191506001600082815260200190815260200160002060030160009054906101000a900460ff1684604051602001611c17919061529e565b60405160208183030381529060405290611c67576040517f08c379a0000000000000000000000000000000000000000000000000000000008152600401611c5e91906151b7565b60405180910390fd5b50611c80565b8080611c789061503e565b915050611b6c565b508083604051602001611c939190615225565b60405160208183030381529060405290611ce3576040517f08c379a0000000000000000000000000000000000000000000000000000000008152600401611cda91906151b7565b60405180910390fd5b50505b5b5b5b6000808060008091505b600354821015611ed4578c604051602001611d0e9190614f18565b6040516020818303038152906040528051906020012060016000848152602001908152602001600020600001604051602001611d4a9190615027565b6040516020818303038152906040528051906020012003611ec1578b6001600084815260200190815260200160002060010154611d879190615576565b60016000848152602001908152602001600020600201546001600085815260200190815260200160002060010154611dbf9190615534565b611dc991906155d9565b9050806001600084815260200190815260200160002060020154611ded9190614ea8565b93508060016000848152602001908152602001600020600201819055508b600160008481526020019081526020016000206001016000828254611e309190615576565b925050819055506001600083815260200190815260200160002060020154600160008481526020019081526020016000206001015460016000858152602001908152602001600020600001604051611e889190615027565b60405180910390207f1c3e2c51276ce91148db2972b4614c440d1eff2734afc30a9b675564428f62ef60405160405180910390a4611ed4565b8180611ecc9061503e565b925050611cf3565b60008093505b600354841015612137578b604051602001611ef59190614f18565b6040516020818303038152906040528051906020012060016000868152602001908152602001600020600001604051602001611f319190615027565b6040516020818303038152906040528051906020012003612124576000600160008681526020019081526020016000206001015403611fc85784600160008581526020019081526020016000206002016000828254611f909190615576565b925050819055508c600160008581526020019081526020016000206001016000828254611fbd9190614ea8565b925050819055600080fd5b846001600086815260200190815260200160002060020154611fea9190615576565b600160008681526020019081526020016000206001015460016000878152602001908152602001600020600201546120229190615534565b61202c91906155d9565b91508160016000868152602001908152602001600020600101546120509190614ea8565b9050846001600086815260200190815260200160002060020160008282546120789190615576565b9250508190555081600160008681526020019081526020016000206001018190555060016000858152602001908152602001600020600201546001600086815260200190815260200160002060010154600160008781526020019081526020016000206000016040516120eb9190615027565b60405180910390207f1c3e2c51276ce91148db2972b4614c440d1eff2734afc30a9b675564428f62ef60405160405180910390a4612137565b838061212f9061503e565b945050611eda565b8b819a509a50505050505050505050935093915050565b606060008460036000810361225e5760006001905060005b6003548110156121f457836040516020016121819190614f18565b60405160208183030381529060405280519060200120600160008381526020019081526020016000206000016040516020016121bd9190615027565b60405160208183030381529060405280519060200120036121e157600091506121f4565b80806121ec9061503e565b915050612166565b508083604051602001612207919061518a565b60405160208183030381529060405290612257576040517f08c379a000000000000000000000000000000000000000000000000000000000815260040161224e91906151b7565b60405180910390fd5b5050612603565b60018103612362576000805b6003548110156122f857836040516020016122859190614f18565b60405160208183030381529060405280519060200120600160008381526020019081526020016000206000016040516020016122c19190615027565b60405160208183030381529060405280519060200120036122e557600191506122f8565b80806122f09061503e565b91505061226a565b50808360405160200161230b9190615225565b6040516020818303038152906040529061235b576040517f08c379a000000000000000000000000000000000000000000000000000000000815260040161235291906151b7565b60405180910390fd5b5050612602565b60028114801561237457506000825114155b1561247a5760006001905060005b600354811015612410578360405160200161239d9190614f18565b60405160208183030381529060405280519060200120600160008381526020019081526020016000206000016040516020016123d99190615027565b60405160208183030381529060405280519060200120036123fd5760009150612410565b80806124089061503e565b915050612382565b508083604051602001612423919061518a565b60405160208183030381529060405290612473576040517f08c379a000000000000000000000000000000000000000000000000000000000815260040161246a91906151b7565b60405180910390fd5b5050612601565b60038103612600576000805b60035481101561259a57836040516020016124a19190614f18565b60405160208183030381529060405280519060200120600160008381526020019081526020016000206000016040516020016124dd9190615027565b604051602081830303815290604052805190602001200361258757600191506001600082815260200190815260200160002060030160009054906101000a900460ff1684604051602001612531919061529e565b60405160208183030381529060405290612581576040517f08c379a000000000000000000000000000000000000000000000000000000000815260040161257891906151b7565b60405180910390fd5b5061259a565b80806125929061503e565b915050612486565b5080836040516020016125ad9190615225565b604051602081830303815290604052906125fd576040517f08c379a00000000000000000000000000000000000000000000000000000000081526004016125f491906151b7565b60405180910390fd5b50505b5b5b5b8460036000810361270f5760006001905060005b6003548110156126a557836040516020016126329190614f18565b604051602081830303815290604052805190602001206001600083815260200190815260200160002060000160405160200161266e9190615027565b604051602081830303815290604052805190602001200361269257600091506126a5565b808061269d9061503e565b915050612617565b5080836040516020016126b8919061518a565b60405160208183030381529060405290612708576040517f08c379a00000000000000000000000000000000000000000000000000000000081526004016126ff91906151b7565b60405180910390fd5b5050612ab4565b60018103612813576000805b6003548110156127a957836040516020016127369190614f18565b60405160208183030381529060405280519060200120600160008381526020019081526020016000206000016040516020016127729190615027565b604051602081830303815290604052805190602001200361279657600191506127a9565b80806127a19061503e565b91505061271b565b5080836040516020016127bc9190615225565b6040516020818303038152906040529061280c576040517f08c379a000000000000000000000000000000000000000000000000000000000815260040161280391906151b7565b60405180910390fd5b5050612ab3565b60028114801561282557506000825114155b1561292b5760006001905060005b6003548110156128c1578360405160200161284e9190614f18565b604051602081830303815290604052805190602001206001600083815260200190815260200160002060000160405160200161288a9190615027565b60405160208183030381529060405280519060200120036128ae57600091506128c1565b80806128b99061503e565b915050612833565b5080836040516020016128d4919061518a565b60405160208183030381529060405290612924576040517f08c379a000000000000000000000000000000000000000000000000000000000815260040161291b91906151b7565b60405180910390fd5b5050612ab2565b60038103612ab1576000805b600354811015612a4b57836040516020016129529190614f18565b604051602081830303815290604052805190602001206001600083815260200190815260200160002060000160405160200161298e9190615027565b6040516020818303038152906040528051906020012003612a3857600191506001600082815260200190815260200160002060030160009054906101000a900460ff16846040516020016129e2919061529e565b60405160208183030381529060405290612a32576040517f08c379a0000000000000000000000000000000000000000000000000000000008152600401612a2991906151b7565b60405180910390fd5b50612a4b565b8080612a439061503e565b915050612937565b508083604051602001612a5e9190615225565b60405160208183030381529060405290612aae576040517f08c379a0000000000000000000000000000000000000000000000000000000008152600401612aa591906151b7565b60405180910390fd5b50505b5b5b5b6000808060008092505b600354831015612ce3578c604051602001612ad99190614f18565b6040516020818303038152906040528051906020012060016000858152602001908152602001600020600001604051602001612b159190615027565b6040516020818303038152906040528051906020012003612cd057600060016000858152602001908152602001600020600101541480612b6a57508b6001600085815260200190815260200160002060010154105b15612b7457600080fd5b8b6001600085815260200190815260200160002060010154612b969190614ea8565b60016000858152602001908152602001600020600101546001600086815260200190815260200160002060020154612bce9190615534565b612bd891906155d9565b9050600160008481526020019081526020016000206002015481612bfc9190614ea8565b93508060016000858152602001908152602001600020600201819055508b600160008581526020019081526020016000206001016000828254612c3f9190614ea8565b925050819055506001600084815260200190815260200160002060020154600160008581526020019081526020016000206001015460016000868152602001908152602001600020600001604051612c979190615027565b60405180910390207f1c3e2c51276ce91148db2972b4614c440d1eff2734afc30a9b675564428f62ef60405160405180910390a4612ce3565b8280612cdb9061503e565b935050612abe565b60008092505b600354831015612eca578b604051602001612d049190614f18565b6040516020818303038152906040528051906020012060016000858152602001908152602001600020600001604051602001612d409190615027565b6040516020818303038152906040528051906020012003612eb757846001600085815260200190815260200160002060020154612d7d9190614ea8565b60016000858152602001908152602001600020600101546001600086815260200190815260200160002060020154612db59190615534565b612dbf91906155d9565b9150600160008481526020019081526020016000206001015482612de39190614ea8565b905084600160008581526020019081526020016000206002016000828254612e0b9190614ea8565b925050819055508160016000858152602001908152602001600020600101819055506001600084815260200190815260200160002060020154600160008581526020019081526020016000206001015460016000868152602001908152602001600020600001604051612e7e9190615027565b60405180910390207f1c3e2c51276ce91148db2972b4614c440d1eff2734afc30a9b675564428f62ef60405160405180910390a4612eca565b8280612ec29061503e565b935050612ce9565b8b819a509a50505050505050505050935093915050565b803414612eed57600080fd5b80600260003373ffffffffffffffffffffffffffffffffffffffff1673ffffffffffffffffffffffffffffffffffffffff1681526020019081526020016000206000828254612f3c9190615576565b92505081905550803373ffffffffffffffffffffffffffffffffffffffff167f2da466a7b24304f47e87fa2e1e5a81b9831ce54fec19055ce277ca2f39ba42c460405160405180910390a350565b606060008054906101000a900473ffffffffffffffffffffffffffffffffffffffff1673ffffffffffffffffffffffffffffffffffffffff163373ffffffffffffffffffffffffffffffffffffffff161461301a576040517f08c379a0000000000000000000000000000000000000000000000000000000008152600401613011906150d2565b60405180910390fd5b600060035467ffffffffffffffff811115613038576130376146e3565b5b60405190808252806020026020018201604052801561307157816020015b61305e614627565b8152602001906001900390816130565790505b50905060005b60035481101561319157600160008281526020019081526020016000206040518060800160405290816000820180546130af90614f5e565b80601f01602080910402602001604051908101604052809291908181526020018280546130db90614f5e565b80156131285780601f106130fd57610100808354040283529160200191613128565b820191906000526020600020905b81548152906001019060200180831161310b57829003601f168201915b5050505050815260200160018201548152602001600282015481526020016003820160009054906101000a900460ff1615151515815250508282815181106131735761317261560a565b5b602002602001018190525080806131899061503e565b915050613077565b508091505090565b60008054906101000a900473ffffffffffffffffffffffffffffffffffffffff1673ffffffffffffffffffffffffffffffffffffffff163373ffffffffffffffffffffffffffffffffffffffff1614613227576040517f08c379a000000000000000000000000000000000000000000000000000000000815260040161321e906150d2565b60405180910390fd5b846001600081036133335760006001905060005b6003548110156132c957836040516020016132569190614f18565b60405160208183030381529060405280519060200120600160008381526020019081526020016000206000016040516020016132929190615027565b60405160208183030381529060405280519060200120036132b657600091506132c9565b80806132c19061503e565b91505061323b565b5080836040516020016132dc919061518a565b6040516020818303038152906040529061332c576040517f08c379a000000000000000000000000000000000000000000000000000000000815260040161332391906151b7565b60405180910390fd5b50506136d8565b60018103613437576000805b6003548110156133cd578360405160200161335a9190614f18565b60405160208183030381529060405280519060200120600160008381526020019081526020016000206000016040516020016133969190615027565b60405160208183030381529060405280519060200120036133ba57600191506133cd565b80806133c59061503e565b91505061333f565b5080836040516020016133e09190615225565b60405160208183030381529060405290613430576040517f08c379a000000000000000000000000000000000000000000000000000000000815260040161342791906151b7565b60405180910390fd5b50506136d7565b60028114801561344957506000825114155b1561354f5760006001905060005b6003548110156134e557836040516020016134729190614f18565b60405160208183030381529060405280519060200120600160008381526020019081526020016000206000016040516020016134ae9190615027565b60405160208183030381529060405280519060200120036134d257600091506134e5565b80806134dd9061503e565b915050613457565b5080836040516020016134f8919061518a565b60405160208183030381529060405290613548576040517f08c379a000000000000000000000000000000000000000000000000000000000815260040161353f91906151b7565b60405180910390fd5b50506136d6565b600381036136d5576000805b60035481101561366f57836040516020016135769190614f18565b60405160208183030381529060405280519060200120600160008381526020019081526020016000206000016040516020016135b29190615027565b604051602081830303815290604052805190602001200361365c57600191506001600082815260200190815260200160002060030160009054906101000a900460ff1684604051602001613606919061529e565b60405160208183030381529060405290613656576040517f08c379a000000000000000000000000000000000000000000000000000000000815260040161364d91906151b7565b60405180910390fd5b5061366f565b80806136679061503e565b91505061355b565b5080836040516020016136829190615225565b604051602081830303815290604052906136d2576040517f08c379a00000000000000000000000000000000000000000000000000000000081526004016136c991906151b7565b60405180910390fd5b50505b5b5b5b856002600081036137e45760006001905060005b60035481101561377a57836040516020016137079190614f18565b60405160208183030381529060405280519060200120600160008381526020019081526020016000206000016040516020016137439190615027565b6040516020818303038152906040528051906020012003613767576000915061377a565b80806137729061503e565b9150506136ec565b50808360405160200161378d919061518a565b604051602081830303815290604052906137dd576040517f08c379a00000000000000000000000000000000000000000000000000000000081526004016137d491906151b7565b60405180910390fd5b5050613b89565b600181036138e8576000805b60035481101561387e578360405160200161380b9190614f18565b60405160208183030381529060405280519060200120600160008381526020019081526020016000206000016040516020016138479190615027565b604051602081830303815290604052805190602001200361386b576001915061387e565b80806138769061503e565b9150506137f0565b5080836040516020016138919190615225565b604051602081830303815290604052906138e1576040517f08c379a00000000000000000000000000000000000000000000000000000000081526004016138d891906151b7565b60405180910390fd5b5050613b88565b6002811480156138fa57506000825114155b15613a005760006001905060005b60035481101561399657836040516020016139239190614f18565b604051602081830303815290604052805190602001206001600083815260200190815260200160002060000160405160200161395f9190615027565b60405160208183030381529060405280519060200120036139835760009150613996565b808061398e9061503e565b915050613908565b5080836040516020016139a9919061518a565b604051602081830303815290604052906139f9576040517f08c379a00000000000000000000000000000000000000000000000000000000081526004016139f091906151b7565b60405180910390fd5b5050613b87565b60038103613b86576000805b600354811015613b205783604051602001613a279190614f18565b6040516020818303038152906040528051906020012060016000838152602001908152602001600020600001604051602001613a639190615027565b6040516020818303038152906040528051906020012003613b0d57600191506001600082815260200190815260200160002060030160009054906101000a900460ff1684604051602001613ab7919061529e565b60405160208183030381529060405290613b07576040517f08c379a0000000000000000000000000000000000000000000000000000000008152600401613afe91906151b7565b60405180910390fd5b50613b20565b8080613b189061503e565b915050613a0c565b508083604051602001613b339190615225565b60405160208183030381529060405290613b83576040517f08c379a0000000000000000000000000000000000000000000000000000000008152600401613b7a91906151b7565b60405180910390fd5b50505b5b5b5b60005b600354811015613c125789604051602001613ba79190614f18565b6040516020818303038152906040528051906020012060016000838152602001908152602001600020600001604051602001613be39190615027565b604051602081830303815290604052805190602001200315613c12578080613c0a9061503e565b915050613b8c565b6000881015613c2057600097505b6000871015613c2e57600096505b6000895103613c3b578998505b88600160008381526020019081526020016000206000019081613c5e9190615462565b50876001600083815260200190815260200160002060010181905550866001600083815260200190815260200160002060020181905550856001600083815260200190815260200160002060030160006101000a81548160ff02191690831515021790555086888a604051613cd39190614f18565b60405180910390207f1c3e2c51276ce91148db2972b4614c440d1eff2734afc30a9b675564428f62ef60405160405180910390a450505050505050505050565b600047905090565b6060600060035467ffffffffffffffff811115613d3b57613d3a6146e3565b5b604051908082528060200260200182016040528015613d7457816020015b613d61614627565b815260200190600190039081613d595790505b50905060005b600354811015613ec457600115156001600083815260200190815260200160002060030160009054906101000a900460ff16151503613eb15760016000828152602001908152602001600020604051806080016040529081600082018054613de190614f5e565b80601f0160208091040260200160405190810160405280929190818152602001828054613e0d90614f5e565b8015613e5a5780601f10613e2f57610100808354040283529160200191613e5a565b820191906000526020600020905b815481529060010190602001808311613e3d57829003601f168201915b5050505050815260200160018201548152602001600282015481526020016003820160009054906101000a900460ff161515151581525050828281518110613ea557613ea461560a565b5b60200260200101819052505b8080613ebc9061503e565b915050613d7a565b508091505090565b60008054906101000a900473ffffffffffffffffffffffffffffffffffffffff1673ffffffffffffffffffffffffffffffffffffffff163373ffffffffffffffffffffffffffffffffffffffff1614613f5a576040517f08c379a0000000000000000000000000000000000000000000000000000000008152600401613f51906150d2565b60405180910390fd5b826001600081036140665760006001905060005b600354811015613ffc5783604051602001613f899190614f18565b6040516020818303038152906040528051906020012060016000838152602001908152602001600020600001604051602001613fc59190615027565b6040516020818303038152906040528051906020012003613fe95760009150613ffc565b8080613ff49061503e565b915050613f6e565b50808360405160200161400f919061518a565b6040516020818303038152906040529061405f576040517f08c379a000000000000000000000000000000000000000000000000000000000815260040161405691906151b7565b60405180910390fd5b505061440b565b6001810361416a576000805b600354811015614100578360405160200161408d9190614f18565b60405160208183030381529060405280519060200120600160008381526020019081526020016000206000016040516020016140c99190615027565b60405160208183030381529060405280519060200120036140ed5760019150614100565b80806140f89061503e565b915050614072565b5080836040516020016141139190615225565b60405160208183030381529060405290614163576040517f08c379a000000000000000000000000000000000000000000000000000000000815260040161415a91906151b7565b60405180910390fd5b505061440a565b60028114801561417c57506000825114155b156142825760006001905060005b60035481101561421857836040516020016141a59190614f18565b60405160208183030381529060405280519060200120600160008381526020019081526020016000206000016040516020016141e19190615027565b60405160208183030381529060405280519060200120036142055760009150614218565b80806142109061503e565b91505061418a565b50808360405160200161422b919061518a565b6040516020818303038152906040529061427b576040517f08c379a000000000000000000000000000000000000000000000000000000000815260040161427291906151b7565b60405180910390fd5b5050614409565b60038103614408576000805b6003548110156143a257836040516020016142a99190614f18565b60405160208183030381529060405280519060200120600160008381526020019081526020016000206000016040516020016142e59190615027565b604051602081830303815290604052805190602001200361438f57600191506001600082815260200190815260200160002060030160009054906101000a900460ff1684604051602001614339919061529e565b60405160208183030381529060405290614389576040517f08c379a000000000000000000000000000000000000000000000000000000000815260040161438091906151b7565b60405180910390fd5b506143a2565b808061439a9061503e565b91505061428e565b5080836040516020016143b59190615225565b60405160208183030381529060405290614405576040517f08c379a00000000000000000000000000000000000000000000000000000000081526004016143fc91906151b7565b60405180910390fd5b50505b5b5b5b60008060008092505b6003548310156145c3578760405160200161442f9190614f18565b604051602081830303815290604052805190602001206001600085815260200190815260200160002060000160405160200161446b9190615027565b60405160208183030381529060405280519060200120036145b0576001600084815260200190815260200160002060010154915060016000848152602001908152602001600020600201549050600087836144c69190615639565b12156144d957816144d69061567d565b96505b600086826144e79190615639565b12156144fa57806144f79061567d565b95505b86826145069190615639565b6001600085815260200190815260200160002060010181905550858161452c9190615639565b6001600085815260200190815260200160002060020181905550633b9aca008661455691906156c5565b600260003373ffffffffffffffffffffffffffffffffffffffff1673ffffffffffffffffffffffffffffffffffffffff16815260200190815260200160002060008282546145a49190614ea8565b925050819055506145c3565b82806145bb9061503e565b935050614414565b85816145cf9190615639565b87836145db9190615639565b896040516145e99190614f18565b60405180910390207f1c3e2c51276ce91148db2972b4614c440d1eff2734afc30a9b675564428f62ef60405160405180910390a45050505050505050565b60405180608001604052806060815260200160008152602001600081526020016000151581525090565b6000604051905090565b600080fd5b600080fd5b6000819050919050565b61467881614665565b811461468357600080fd5b50565b6000813590506146958161466f565b92915050565b6000602082840312156146b1576146b061465b565b5b60006146bf84828501614686565b91505092915050565b600080fd5b600080fd5b6000601f19601f8301169050919050565b7f4e487b7100000000000000000000000000000000000000000000000000000000600052604160045260246000fd5b61471b826146d2565b810181811067ffffffffffffffff8211171561473a576147396146e3565b5b80604052505050565b600061474d614651565b90506147598282614712565b919050565b600067ffffffffffffffff821115614779576147786146e3565b5b614782826146d2565b9050602081019050919050565b82818337600083830152505050565b60006147b16147ac8461475e565b614743565b9050828152602081018484840111156147cd576147cc6146cd565b5b6147d884828561478f565b509392505050565b600082601f8301126147f5576147f46146c8565b5b813561480584826020860161479e565b91505092915050565b6000602082840312156148245761482361465b565b5b600082013567ffffffffffffffff81111561484257614841614660565b5b61484e848285016147e0565b91505092915050565b600081519050919050565b600082825260208201905092915050565b60005b83811015614891578082015181840152602081019050614876565b60008484015250505050565b60006148a882614857565b6148b28185614862565b93506148c2818560208601614873565b6148cb816146d2565b840191505092915050565b6148df81614665565b82525050565b60008115159050919050565b6148fa816148e5565b82525050565b6000608083016000830151848203600086015261491d828261489d565b915050602083015161493260208601826148d6565b50604083015161494560408601826148d6565b50606083015161495860608601826148f1565b508091505092915050565b6000602082019050818103600083015261497d8184614900565b905092915050565b60008060006060848603121561499e5761499d61465b565b5b600084013567ffffffffffffffff8111156149bc576149bb614660565b5b6149c8868287016147e0565b93505060206149d986828701614686565b92505060406149ea86828701614686565b9150509250925092565b600073ffffffffffffffffffffffffffffffffffffffff82169050919050565b6000614a1f826149f4565b9050919050565b614a2f81614a14565b8114614a3a57600080fd5b50565b600081359050614a4c81614a26565b92915050565b600060208284031215614a6857614a6761465b565b5b6000614a7684828501614a3d565b91505092915050565b614a8881614665565b82525050565b6000602082019050614aa36000830184614a7f565b92915050565b600080600060608486031215614ac257614ac161465b565b5b600084013567ffffffffffffffff811115614ae057614adf614660565b5b614aec868287016147e0565b9350506020614afd86828701614686565b925050604084013567ffffffffffffffff811115614b1e57614b1d614660565b5b614b2a868287016147e0565b9150509250925092565b600082825260208201905092915050565b6000614b5082614857565b614b5a8185614b34565b9350614b6a818560208601614873565b614b73816146d2565b840191505092915050565b60006040820190508181036000830152614b988185614b45565b9050614ba76020830184614a7f565b9392505050565b600081519050919050565b600082825260208201905092915050565b6000819050602082019050919050565b60006080830160008301518482036000860152614bf7828261489d565b9150506020830151614c0c60208601826148d6565b506040830151614c1f60408601826148d6565b506060830151614c3260608601826148f1565b508091505092915050565b6000614c498383614bda565b905092915050565b6000602082019050919050565b6000614c6982614bae565b614c738185614bb9565b935083602082028501614c8585614bca565b8060005b85811015614cc15784840389528151614ca28582614c3d565b9450614cad83614c51565b925060208a01995050600181019050614c89565b50829750879550505050505092915050565b60006020820190508181036000830152614ced8184614c5e565b905092915050565b614cfe816148e5565b8114614d0957600080fd5b50565b600081359050614d1b81614cf5565b92915050565b600080600080600060a08688031215614d3d57614d3c61465b565b5b600086013567ffffffffffffffff811115614d5b57614d5a614660565b5b614d67888289016147e0565b955050602086013567ffffffffffffffff811115614d8857614d87614660565b5b614d94888289016147e0565b9450506040614da588828901614686565b9350506060614db688828901614686565b9250506080614dc788828901614d0c565b9150509295509295909350565b6000819050919050565b614de781614dd4565b8114614df257600080fd5b50565b600081359050614e0481614dde565b92915050565b600080600060608486031215614e2357614e2261465b565b5b600084013567ffffffffffffffff811115614e4157614e40614660565b5b614e4d868287016147e0565b9350506020614e5e86828701614df5565b9250506040614e6f86828701614df5565b9150509250925092565b7f4e487b7100000000000000000000000000000000000000000000000000000000600052601160045260246000fd5b6000614eb382614665565b9150614ebe83614665565b9250828203905081811115614ed657614ed5614e79565b5b92915050565b600081905092915050565b6000614ef282614857565b614efc8185614edc565b9350614f0c818560208601614873565b80840191505092915050565b6000614f248284614ee7565b915081905092915050565b7f4e487b7100000000000000000000000000000000000000000000000000000000600052602260045260246000fd5b60006002820490506001821680614f7657607f821691505b602082108103614f8957614f88614f2f565b5b50919050565b60008190508160005260206000209050919050565b60008154614fb181614f5e565b614fbb8186614edc565b94506001821660008114614fd65760018114614feb5761501e565b60ff198316865281151582028601935061501e565b614ff485614f8f565b60005b8381101561501657815481890152600182019150602081019050614ff7565b838801955050505b50505092915050565b60006150338284614fa4565b915081905092915050565b600061504982614665565b91507fffffffffffffffffffffffffffffffffffffffffffffffffffffffffffffffff820361507b5761507a614e79565b5b600182019050919050565b7f43616c6c6572206973206e6f74206f776e657200000000000000000000000000600082015250565b60006150bc601383614b34565b91506150c782615086565b602082019050919050565b600060208201905081810360008301526150eb816150af565b9050919050565b7f43727970746f63757272656e6379200000000000000000000000000000000000600082015250565b6000615128600f83614edc565b9150615133826150f2565b600f82019050919050565b7f20616c72656164792065786973742e0000000000000000000000000000000000600082015250565b6000615174600f83614edc565b915061517f8261513e565b600f82019050919050565b60006151958261511b565b91506151a18284614ee7565b91506151ac82615167565b915081905092915050565b600060208201905081810360008301526151d18184614b45565b905092915050565b7f206973206e6f742065786973742e000000000000000000000000000000000000600082015250565b600061520f600e83614edc565b915061521a826151d9565b600e82019050919050565b60006152308261511b565b915061523c8284614ee7565b915061524782615202565b915081905092915050565b7f206973206e6f7420617661696c61626c652e0000000000000000000000000000600082015250565b6000615288601283614edc565b915061529382615252565b601282019050919050565b60006152a98261511b565b91506152b58284614ee7565b91506152c08261527b565b915081905092915050565b60006020601f8301049050919050565b600082821b905092915050565b6000600883026153187fffffffffffffffffffffffffffffffffffffffffffffffffffffffffffffffff826152db565b61532286836152db565b95508019841693508086168417925050509392505050565b6000819050919050565b600061535f61535a61535584614665565b61533a565b614665565b9050919050565b6000819050919050565b61537983615344565b61538d61538582615366565b8484546152e8565b825550505050565b600090565b6153a2615395565b6153ad818484615370565b505050565b5b818110156153d1576153c660008261539a565b6001810190506153b3565b5050565b601f821115615416576153e781614f8f565b6153f0846152cb565b810160208510156153ff578190505b61541361540b856152cb565b8301826153b2565b50505b505050565b600082821c905092915050565b60006154396000198460080261541b565b1980831691505092915050565b60006154528383615428565b9150826002028217905092915050565b61546b82614857565b67ffffffffffffffff811115615484576154836146e3565b5b61548e8254614f5e565b6154998282856153d5565b600060209050601f8311600181146154cc57600084156154ba578287015190505b6154c48582615446565b86555061552c565b601f1984166154da86614f8f565b60005b82811015615502578489015182556001820191506020850194506020810190506154dd565b8683101561551f578489015161551b601f891682615428565b8355505b6001600288020188555050505b505050505050565b600061553f82614665565b915061554a83614665565b925082820261555881614665565b9150828204841483151761556f5761556e614e79565b5b5092915050565b600061558182614665565b915061558c83614665565b92508282019050808211156155a4576155a3614e79565b5b92915050565b7f4e487b7100000000000000000000000000000000000000000000000000000000600052601260045260246000fd5b60006155e482614665565b91506155ef83614665565b9250826155ff576155fe6155aa565b5b828204905092915050565b7f4e487b7100000000000000000000000000000000000000000000000000000000600052603260045260246000fd5b600061564482614dd4565b915061564f83614dd4565b92508282019050828112156000831216838212600084121516171561567757615676614e79565b5b92915050565b600061568882614dd4565b91507f800000000000000000000000000000000000000000000000000000000000000082036156ba576156b9614e79565b5b816000039050919050565b60006156d082614dd4565b91506156db83614dd4565b92508282026156e981614dd4565b91507f8000000000000000000000000000000000000000000000000000000000000000841460008412161561572157615720614e79565b5b828205841483151761573657615735614e79565b5b509291505056fea26469706673582212207594a0566bd530336271d3731160b6aaecb347fd6be20e75354691604c1bcfc064736f6c63430008110033",
  "immutableReferences": {},
  "source": "//SPDX-License-Identifier: MIT\r\npragma solidity ^0.8.0;\r\n//import \"hardhat/console.sol\";\r\n//import \"@openzeppelin/contracts/utils/Strings.sol\";\r\n\r\ncontract DeX{\r\n\r\n    address private owner;\r\n    // Rules(16/09/2022):\r\n    // 1. One Y3Token = 100 usd (Our own token)\r\n    // 2. Ether price = 1,472.00 usd\r\n    // 3. Bitcoin price = 19,758.00 usd\r\n    // 4. PAX Gold price = 1,685.00 usd\r\n\r\n    //Add code to convert 1 ETH -> Y4 Token \r\n    //Add mapping for balance(address)\r\n\r\n    struct pool{\r\n        string cryptoName;\r\n        uint cryptoAmt;\r\n        uint tokenAmt;\r\n        bool cryptoStatus;\r\n    }\r\n\r\n    function deposit(uint256 amount) public payable {\r\n        require(msg.value == amount);\r\n        yBalances[msg.sender] += amount;\r\n        emit Deposited(msg.sender,amount);\r\n    }\r\n\r\n    function withdraw(uint256 amount) public {\r\n        require(amount < yBalances[msg.sender]);\r\n        yBalances[msg.sender] -= amount;\r\n        payable(msg.sender).transfer(address(this).balance); //Change to call\r\n        emit Withdrawn(msg.sender,amount);\r\n    }\r\n\r\n    function getEther() public view returns (uint) {\r\n        return address(this).balance;\r\n    }\r\n\r\n    function balanceOf(address addr) public view returns(uint256) {\r\n        return yBalances[addr];\r\n    }\r\n\r\n    \r\n\r\n    // act like dictionary in python\r\n    mapping(uint => pool) private cryptoList;\r\n    mapping(address => uint256) private yBalances;\r\n\r\n    uint cryptoListNum = 0;\r\n    //uint decimalPlace = 10000;\r\n\r\n    event OwnerSet(address indexed oldOwner, address indexed newOwner);\r\n    event PoolValue(string indexed cryptoName,uint indexed cVal, uint indexed tVal);\r\n    event Deposited(address indexed addr,uint indexed amount);\r\n    event Withdrawn(address indexed addr,uint indexed amount);\r\n\r\n    constructor() {\r\n        owner = msg.sender; \r\n        emit OwnerSet(address(0), owner);\r\n        //Values are in GWEI\r\n        initPool('wBitcoin', 100000000000, 1469000000000);\r\n        initPool('BAT', 875010000000000, 200000000000);\r\n        initPool('BNB', 931000000000000, 2000000000000);\r\n        //console.log(\"Pool created successfully. Liquidity Provider:\", msg.sender);\r\n    }\r\n\r\n    modifier isOwner() {\r\n        require(msg.sender == owner, \"Caller is not owner\");\r\n        _;\r\n    }\r\n\r\n    modifier inList(string memory cName, int funcName) {\r\n        //Used to validate add pool\r\n        if(funcName == 0){\r\n            bool resultStatus = true;\r\n            for (uint j=0; j<cryptoListNum; j++) {\r\n                if(keccak256(abi.encodePacked(cryptoList[j].cryptoName)) == keccak256(abi.encodePacked(cName))){\r\n                    resultStatus = false;\r\n                    break;\r\n                }\r\n            }\r\n            require(resultStatus, string(abi.encodePacked(\"Cryptocurrency \", cName, \" already exist.\")));\r\n        }\r\n        //Used to validate add amount to pool\r\n        else if(funcName == 1){\r\n            bool resultStatus = false;\r\n            for (uint j=0; j<cryptoListNum; j++) {\r\n                if(keccak256(abi.encodePacked(cryptoList[j].cryptoName)) == keccak256(abi.encodePacked(cName))){\r\n                    resultStatus = true;\r\n                    break;\r\n                }\r\n            }\r\n            require(resultStatus, string(abi.encodePacked(\"Cryptocurrency \", cName, \" is not exist.\")));\r\n        }\r\n        //Used to validate edit pool\r\n        else if(funcName == 2 && bytes(cName).length!=0){\r\n            bool resultStatus = true;\r\n            for (uint j=0; j<cryptoListNum; j++) {\r\n                if(keccak256(abi.encodePacked(cryptoList[j].cryptoName)) == keccak256(abi.encodePacked(cName))){\r\n                    resultStatus = false;\r\n                    break;\r\n                }\r\n            }\r\n            require(resultStatus, string(abi.encodePacked(\"Cryptocurrency \", cName, \" already exist.\")));\r\n        }\r\n        //Used to validate exchange buy and sell crypto\r\n        else if(funcName == 3){\r\n            bool resultStatus = false;\r\n            for (uint j=0; j<cryptoListNum; j++) {\r\n                if(keccak256(abi.encodePacked(cryptoList[j].cryptoName)) == keccak256(abi.encodePacked(cName))){\r\n                    resultStatus = true;\r\n                    require(cryptoList[j].cryptoStatus, string(abi.encodePacked(\"Cryptocurrency \", cName, \" is not available.\")));\r\n                    break;\r\n                }\r\n            }\r\n            require(resultStatus, string(abi.encodePacked(\"Cryptocurrency \", cName, \" is not exist.\")));\r\n        }\r\n        _;\r\n    }\r\n\r\n    function addPool(string memory cName, uint cVal, uint tVal) public inList(cName, 0){\r\n\r\n        require(yBalances[msg.sender] >= tVal);\r\n\r\n        if(bytes(cName).length!=0){\r\n            cryptoList[cryptoListNum] = pool(cName, cVal, tVal, true);\r\n            cryptoListNum ++;\r\n            yBalances[msg.sender] -= uint256(tVal * 1000000000);\r\n        }\r\n        emit PoolValue(cName,cVal,tVal);\r\n    }\r\n\r\n    function initPool(string memory cName, uint cVal, uint tVal) public isOwner inList(cName, 0){\r\n        if(bytes(cName).length!=0){\r\n            cryptoList[cryptoListNum] = pool(cName, cVal, tVal, true);\r\n            cryptoListNum ++;\r\n        }\r\n        emit PoolValue(cName,cVal,tVal);\r\n    }\r\n\r\n    function getPool(string memory cName) public view returns(pool memory){\r\n        uint j;\r\n        for (j=0; j<cryptoListNum; j++) {\r\n            if(keccak256(abi.encodePacked(cryptoList[j].cryptoName)) == keccak256(abi.encodePacked(cName))) return cryptoList[j];\r\n        }\r\n        return cryptoList[j];\r\n    }\r\n\r\n    function addAmt(string memory cName, int cVal, int tVal) public isOwner inList(cName, 1){\r\n        uint j;\r\n        int tempCVal;\r\n        int tempTVal;\r\n        for (j=0; j<cryptoListNum; j++) {\r\n            if(keccak256(abi.encodePacked(cryptoList[j].cryptoName)) == keccak256(abi.encodePacked(cName))){\r\n                tempCVal = int(cryptoList[j].cryptoAmt);\r\n                tempTVal = int(cryptoList[j].tokenAmt);\r\n                if((tempCVal + cVal)<0){\r\n                    cVal = -tempCVal;\r\n                }\r\n                if((tempTVal + tVal)<0){\r\n                    tVal = -tempTVal;\r\n                }\r\n                cryptoList[j].cryptoAmt =  uint(tempCVal + cVal);\r\n                cryptoList[j].tokenAmt = uint(tempTVal + tVal);\r\n                yBalances[msg.sender] -= uint256(tVal * 1000000000);\r\n                break;\r\n            }\r\n        }\r\n        emit PoolValue(cName,uint(tempCVal + cVal),uint(tempTVal + tVal));\r\n        //Add write success or fail return/emit\r\n    }\r\n\r\n    // left the newCName empty if no update\r\n    function editPoolDetail(string memory oldCName, string memory newCName, uint cVal, uint tVal, bool pStatus) public isOwner inList(oldCName, 1) inList(newCName, 2){\r\n        uint j;\r\n        for (j=0; j<cryptoListNum; j++) {\r\n            if(keccak256(abi.encodePacked(cryptoList[j].cryptoName)) == keccak256(abi.encodePacked(oldCName))) break;\r\n        }\r\n        if(cVal<0){\r\n            cVal = 0;\r\n        }\r\n        if(tVal<0){\r\n            tVal = 0;\r\n        }\r\n        if(bytes(newCName).length==0){\r\n            newCName = oldCName;\r\n        }\r\n        cryptoList[j].cryptoName = newCName;\r\n        cryptoList[j].cryptoAmt = cVal;\r\n        cryptoList[j].tokenAmt = tVal;\r\n        cryptoList[j].cryptoStatus = pStatus;\r\n        emit PoolValue(newCName,cVal,tVal);\r\n         //Add write success or fail return/emit\r\n    }\r\n\r\n    function listAllPool() public isOwner view returns(pool[] memory){\r\n        pool[] memory tempPool = new pool[](cryptoListNum);\r\n        for(uint j=0; j<cryptoListNum; j++){\r\n            tempPool[j]=cryptoList[j];\r\n        }\r\n        return tempPool;\r\n    }\r\n\r\n    function listAllValidPool() public view returns(pool[] memory){\r\n        pool[] memory tempPool = new pool[](cryptoListNum);\r\n        for(uint j=0; j<cryptoListNum; j++){\r\n            if(cryptoList[j].cryptoStatus == true) tempPool[j]=cryptoList[j];\r\n        }\r\n        return tempPool;\r\n    }\r\n\r\n    // Buy exchangeAmt of cryptoType with X targetCryptoType\r\n    function exchangeBuy(string memory cryptoType, uint exchangeAmt, string memory targetCryptoType) public inList(cryptoType, 3) inList(targetCryptoType, 3) returns(string memory, uint){\r\n        // Exchange cryptoType to token\r\n        uint amtTokenRequired = 0;\r\n        uint j;\r\n        uint i;\r\n        uint y_remain;\r\n        for(j=0; j<cryptoListNum; j++){\r\n            if(keccak256(abi.encodePacked(cryptoList[j].cryptoName)) == keccak256(abi.encodePacked(cryptoType))){\r\n                if(cryptoList[j].cryptoAmt==0 || cryptoList[j].cryptoAmt<exchangeAmt){\r\n                    //console.log(string(abi.encodePacked(\"Cryptocurrency \", cryptoList[j].cryptoName, \" pool is not enough. Maximum amount: \", Strings.toString(cryptoList[j].cryptoAmt))));\r\n                    revert();\r\n                }\r\n                // deduct amout of cryptoType frist to get the amount token required\r\n                // For example buy 10 bitcoin(cryptoType) with ether (targetCryptoType), in here we deduct 10 bitcoin from the pool to calculate the amount of token required.\r\n                y_remain = ((cryptoList[j].tokenAmt*cryptoList[j].cryptoAmt)/(cryptoList[j].cryptoAmt-exchangeAmt));\r\n                amtTokenRequired = y_remain-cryptoList[j].tokenAmt;\r\n                cryptoList[j].tokenAmt = y_remain;\r\n                cryptoList[j].cryptoAmt -= exchangeAmt;\r\n                emit PoolValue(cryptoList[j].cryptoName,cryptoList[j].cryptoAmt,cryptoList[j].tokenAmt);\r\n                break;\r\n            }\r\n        }\r\n\r\n        // Token to targetCryptoType\r\n        uint amtCryptoRequired = 0;\r\n        for(i=0; i<cryptoListNum; i++){\r\n            if(keccak256(abi.encodePacked(cryptoList[i].cryptoName)) == keccak256(abi.encodePacked(targetCryptoType))){\r\n                // decrease the token in the ether (targetCryptoType) pool to calculate how much targetCryptoType we should receive.\r\n                y_remain = (cryptoList[i].tokenAmt*cryptoList[i].cryptoAmt)/(cryptoList[i].tokenAmt-amtTokenRequired);\r\n                amtCryptoRequired = y_remain-cryptoList[i].cryptoAmt;\r\n                cryptoList[i].tokenAmt -= amtTokenRequired;\r\n                cryptoList[i].cryptoAmt = y_remain;\r\n                emit PoolValue(cryptoList[i].cryptoName,cryptoList[i].cryptoAmt,cryptoList[i].tokenAmt);\r\n                break;\r\n            }\r\n        }\r\n        \r\n        return (targetCryptoType, amtCryptoRequired);\r\n    }\r\n\r\n    // Sell exchangeAmt of cryptoType to X TargetCryptoType\r\n    function exchangeSell(string memory cryptoType, uint exchangeAmt, string memory targetCryptoType) public inList(cryptoType, 3) inList(targetCryptoType, 3) returns(string memory, uint){\r\n        // Exchange cryptoType to token\r\n        uint poolOut = 0;\r\n        uint i;\r\n        uint j;\r\n        uint y_remain;\r\n        for(j=0; j<cryptoListNum; j++){\r\n            if(keccak256(abi.encodePacked(cryptoList[j].cryptoName)) == keccak256(abi.encodePacked(cryptoType))){\r\n                //                   (           x           *           y          )/(           x           +    ^x     )\r\n                y_remain = ((cryptoList[j].cryptoAmt*cryptoList[j].tokenAmt)/(cryptoList[j].cryptoAmt+exchangeAmt));\r\n                poolOut = cryptoList[j].tokenAmt-y_remain;\r\n                cryptoList[j].tokenAmt = y_remain;\r\n                cryptoList[j].cryptoAmt += exchangeAmt;\r\n                emit PoolValue(cryptoList[j].cryptoName,cryptoList[j].cryptoAmt,cryptoList[j].tokenAmt);\r\n                break;\r\n            }\r\n        }\r\n\r\n        // Token to targetCryptoType\r\n        uint returnAmt = 0;\r\n        for(i=0; i<cryptoListNum; i++){\r\n            if(keccak256(abi.encodePacked(cryptoList[i].cryptoName)) == keccak256(abi.encodePacked(targetCryptoType))){\r\n                if(cryptoList[i].cryptoAmt==0){\r\n                    //console.log(string(abi.encodePacked(\"Cryptocurrency \", cryptoList[i].cryptoName, \" pool is empty.\")));\r\n                    cryptoList[j].tokenAmt += poolOut;\r\n                    cryptoList[j].cryptoAmt -= exchangeAmt;\r\n                    revert();\r\n                }\r\n                //                   (           x          *           y           )/(           x          +   ^x  )\r\n                //y_remain = roundOff(((cryptoList[i].tokenAmt*cryptoList[i].cryptoAmt*decimalPlace)/(cryptoList[i].tokenAmt+poolOut)));\r\n                y_remain = ((cryptoList[i].tokenAmt*cryptoList[i].cryptoAmt)/(cryptoList[i].tokenAmt+poolOut));\r\n                returnAmt = cryptoList[i].cryptoAmt-y_remain;\r\n                cryptoList[i].tokenAmt += poolOut;\r\n                cryptoList[i].cryptoAmt = y_remain;\r\n                emit PoolValue(cryptoList[i].cryptoName,cryptoList[i].cryptoAmt,cryptoList[i].tokenAmt);\r\n                break;\r\n            }\r\n        }\r\n        return (targetCryptoType, returnAmt);\r\n    }\r\n\r\n    // function roundOff(uint unprocessedInput) public view returns(uint){\r\n    //     // 4 decimalPlace, example input 188776261, it will return 18878\r\n    //     uint input = unprocessedInput;\r\n    //     uint temp = uint(input/decimalPlace);\r\n    //     uint tempNet = uint(input-(temp*decimalPlace));\r\n    //     uint ans = 0;\r\n    //     if(tempNet >= uint(decimalPlace/2)){\r\n    //         ans = uint((input+decimalPlace)/decimalPlace);\r\n    //     }\r\n    //     else{\r\n    //         ans = uint(input/decimalPlace);\r\n    //     }\r\n    //     return(ans);\r\n    // }\r\n}",
  "sourcePath": "c:\\Users\\maste\\OneDrive\\Documents\\Taruc Documents\\Degree\\Y4S1\\Blockchain Application Development\\Project\\Y3S1_Blockchain\\contracts\\DeX.sol",
  "compiler": {
    "name": "solc",
    "version": "0.8.17+commit.8df45f5f.Emscripten.clang"
  },
  "schemaVersion": "3.4.10",
  "updatedAt": "2022-10-03T12:02:14.191Z",
  "networkType": "ethereum",
  "devdoc": {
    "kind": "dev",
    "methods": {},
    "version": 1
  },
  "userdoc": {
    "kind": "user",
    "methods": {},
    "version": 1
  }
}