{
  "contractName": "DeX",
  "abi": [
    {
      "inputs": [],
      "stateMutability": "nonpayable",
      "type": "constructor"
    },
    {
      "anonymous": false,
      "inputs": [
        {
          "indexed": true,
          "internalType": "address",
          "name": "addr",
          "type": "address"
        },
        {
          "indexed": true,
          "internalType": "uint256",
          "name": "amount",
          "type": "uint256"
        }
      ],
      "name": "Deposited",
      "type": "event"
    },
    {
      "anonymous": false,
      "inputs": [
        {
          "indexed": true,
          "internalType": "address",
          "name": "oldOwner",
          "type": "address"
        },
        {
          "indexed": true,
          "internalType": "address",
          "name": "newOwner",
          "type": "address"
        }
      ],
      "name": "OwnerSet",
      "type": "event"
    },
    {
      "anonymous": false,
      "inputs": [
        {
          "indexed": true,
          "internalType": "string",
          "name": "cryptoName",
          "type": "string"
        },
        {
          "indexed": true,
          "internalType": "uint256",
          "name": "cVal",
          "type": "uint256"
        },
        {
          "indexed": true,
          "internalType": "uint256",
          "name": "tVal",
          "type": "uint256"
        }
      ],
      "name": "PoolValue",
      "type": "event"
    },
    {
      "anonymous": false,
      "inputs": [
        {
          "indexed": true,
          "internalType": "address",
          "name": "addr",
          "type": "address"
        },
        {
          "indexed": true,
          "internalType": "uint256",
          "name": "amount",
          "type": "uint256"
        }
      ],
      "name": "Withdrawn",
      "type": "event"
    },
    {
      "inputs": [
        {
          "internalType": "uint256",
          "name": "amount",
          "type": "uint256"
        }
      ],
      "name": "deposit",
      "outputs": [],
      "stateMutability": "payable",
      "type": "function",
      "payable": true
    },
    {
      "inputs": [
        {
          "internalType": "uint256",
          "name": "amount",
          "type": "uint256"
        }
      ],
      "name": "withdraw",
      "outputs": [],
      "stateMutability": "nonpayable",
      "type": "function"
    },
    {
      "inputs": [],
      "name": "getEther",
      "outputs": [
        {
          "internalType": "uint256",
          "name": "",
          "type": "uint256"
        }
      ],
      "stateMutability": "view",
      "type": "function",
      "constant": true
    },
    {
      "inputs": [],
      "name": "balanceOf",
      "outputs": [
        {
          "internalType": "uint256",
          "name": "",
          "type": "uint256"
        }
      ],
      "stateMutability": "view",
      "type": "function",
      "constant": true
    },
    {
      "inputs": [
        {
          "internalType": "string",
          "name": "cName",
          "type": "string"
        },
        {
          "internalType": "uint256",
          "name": "cVal",
          "type": "uint256"
        },
        {
          "internalType": "uint256",
          "name": "tVal",
          "type": "uint256"
        }
      ],
      "name": "addPool",
      "outputs": [],
      "stateMutability": "nonpayable",
      "type": "function"
    },
    {
      "inputs": [
        {
          "internalType": "string",
          "name": "cName",
          "type": "string"
        }
      ],
      "name": "getPool",
      "outputs": [
        {
          "components": [
            {
              "internalType": "string",
              "name": "cryptoName",
              "type": "string"
            },
            {
              "internalType": "uint256",
              "name": "cryptoAmt",
              "type": "uint256"
            },
            {
              "internalType": "uint256",
              "name": "tokenAmt",
              "type": "uint256"
            },
            {
              "internalType": "bool",
              "name": "cryptoStatus",
              "type": "bool"
            }
          ],
          "internalType": "struct DeX.pool",
          "name": "",
          "type": "tuple"
        }
      ],
      "stateMutability": "view",
      "type": "function",
      "constant": true
    },
    {
      "inputs": [
        {
          "internalType": "string",
          "name": "cName",
          "type": "string"
        },
        {
          "internalType": "int256",
          "name": "cVal",
          "type": "int256"
        },
        {
          "internalType": "int256",
          "name": "tVal",
          "type": "int256"
        }
      ],
      "name": "addAmt",
      "outputs": [],
      "stateMutability": "nonpayable",
      "type": "function"
    },
    {
      "inputs": [
        {
          "internalType": "string",
          "name": "oldCName",
          "type": "string"
        },
        {
          "internalType": "string",
          "name": "newCName",
          "type": "string"
        },
        {
          "internalType": "uint256",
          "name": "cVal",
          "type": "uint256"
        },
        {
          "internalType": "uint256",
          "name": "tVal",
          "type": "uint256"
        },
        {
          "internalType": "bool",
          "name": "pStatus",
          "type": "bool"
        }
      ],
      "name": "editPoolDetail",
      "outputs": [],
      "stateMutability": "nonpayable",
      "type": "function"
    },
    {
      "inputs": [],
      "name": "listAllPool",
      "outputs": [
        {
          "components": [
            {
              "internalType": "string",
              "name": "cryptoName",
              "type": "string"
            },
            {
              "internalType": "uint256",
              "name": "cryptoAmt",
              "type": "uint256"
            },
            {
              "internalType": "uint256",
              "name": "tokenAmt",
              "type": "uint256"
            },
            {
              "internalType": "bool",
              "name": "cryptoStatus",
              "type": "bool"
            }
          ],
          "internalType": "struct DeX.pool[]",
          "name": "",
          "type": "tuple[]"
        }
      ],
      "stateMutability": "view",
      "type": "function",
      "constant": true
    },
    {
      "inputs": [],
      "name": "listAllValidPool",
      "outputs": [
        {
          "components": [
            {
              "internalType": "string",
              "name": "cryptoName",
              "type": "string"
            },
            {
              "internalType": "uint256",
              "name": "cryptoAmt",
              "type": "uint256"
            },
            {
              "internalType": "uint256",
              "name": "tokenAmt",
              "type": "uint256"
            },
            {
              "internalType": "bool",
              "name": "cryptoStatus",
              "type": "bool"
            }
          ],
          "internalType": "struct DeX.pool[]",
          "name": "",
          "type": "tuple[]"
        }
      ],
      "stateMutability": "view",
      "type": "function",
      "constant": true
    },
    {
      "inputs": [
        {
          "internalType": "string",
          "name": "cryptoType",
          "type": "string"
        },
        {
          "internalType": "uint256",
          "name": "exchangeAmt",
          "type": "uint256"
        },
        {
          "internalType": "string",
          "name": "targetCryptoType",
          "type": "string"
        }
      ],
      "name": "exchangeBuy",
      "outputs": [
        {
          "internalType": "string",
          "name": "",
          "type": "string"
        },
        {
          "internalType": "uint256",
          "name": "",
          "type": "uint256"
        }
      ],
      "stateMutability": "nonpayable",
      "type": "function"
    },
    {
      "inputs": [
        {
          "internalType": "string",
          "name": "cryptoType",
          "type": "string"
        },
        {
          "internalType": "uint256",
          "name": "exchangeAmt",
          "type": "uint256"
        },
        {
          "internalType": "string",
          "name": "targetCryptoType",
          "type": "string"
        }
      ],
      "name": "exchangeSell",
      "outputs": [
        {
          "internalType": "string",
          "name": "",
          "type": "string"
        },
        {
          "internalType": "uint256",
          "name": "",
          "type": "uint256"
        }
      ],
      "stateMutability": "nonpayable",
      "type": "function"
    },
    {
      "inputs": [
        {
          "internalType": "uint256",
          "name": "unprocessedInput",
          "type": "uint256"
        }
      ],
      "name": "roundOff",
      "outputs": [
        {
          "internalType": "uint256",
          "name": "",
          "type": "uint256"
        }
      ],
      "stateMutability": "view",
      "type": "function",
      "constant": true
    }
  ],
  "bytecode": "0x608060405260006003556127106004553480156200001c57600080fd5b50336000806101000a81548173ffffffffffffffffffffffffffffffffffffffff021916908373ffffffffffffffffffffffffffffffffffffffff16021790555060008054906101000a900473ffffffffffffffffffffffffffffffffffffffff1673ffffffffffffffffffffffffffffffffffffffff16600073ffffffffffffffffffffffffffffffffffffffff167f342827c97908e5e2f71151c08502a66d44b6f758e3ac2f1de95f02eb95f0a73560405160405180910390a3620001236040518060400160405280600781526020017f426974636f696e000000000000000000000000000000000000000000000000008152506065614e20620001c160201b60201c565b6200016f6040518060400160405280600581526020017f457468657200000000000000000000000000000000000000000000000000000081525061054f614e20620001c160201b60201c565b620001bb6040518060400160405280600881526020017f50415820476f6c640000000000000000000000000000000000000000000000008152506104a3614e20620001c160201b60201c565b62001023565b60008054906101000a900473ffffffffffffffffffffffffffffffffffffffff1673ffffffffffffffffffffffffffffffffffffffff163373ffffffffffffffffffffffffffffffffffffffff161462000252576040517f08c379a00000000000000000000000000000000000000000000000000000000081526004016200024990620008a6565b60405180910390fd5b8260008081036200036e5760006001905060005b600354811015620002fe578360405160200162000284919062000941565b6040516020818303038152906040528051906020012060016000838152602001908152602001600020600001604051602001620002c2919062000a62565b6040516020818303038152906040528051906020012003620002e85760009150620002fe565b8080620002f59062000ab4565b91505062000266565b50808360405160200162000313919062000ba1565b6040516020818303038152906040529062000366576040517f08c379a00000000000000000000000000000000000000000000000000000000081526004016200035d919062000c26565b60405180910390fd5b50506200074b565b6001810362000483576000805b60035481101562000413578360405160200162000399919062000941565b6040516020818303038152906040528051906020012060016000838152602001908152602001600020600001604051602001620003d7919062000a62565b6040516020818303038152906040528051906020012003620003fd576001915062000413565b80806200040a9062000ab4565b9150506200037b565b50808360405160200162000428919062000c9a565b604051602081830303815290604052906200047b576040517f08c379a000000000000000000000000000000000000000000000000000000000815260040162000472919062000c26565b60405180910390fd5b50506200074a565b6002811480156200049657506000825114155b15620005ad5760006001905060005b6003548110156200053d5783604051602001620004c3919062000941565b604051602081830303815290604052805190602001206001600083815260200190815260200160002060000160405160200162000501919062000a62565b60405160208183030381529060405280519060200120036200052757600091506200053d565b8080620005349062000ab4565b915050620004a5565b50808360405160200162000552919062000ba1565b60405160208183030381529060405290620005a5576040517f08c379a00000000000000000000000000000000000000000000000000000000081526004016200059c919062000c26565b60405180910390fd5b505062000749565b6003810362000748576000805b600354811015620006dd5783604051602001620005d8919062000941565b604051602081830303815290604052805190602001206001600083815260200190815260200160002060000160405160200162000616919062000a62565b6040516020818303038152906040528051906020012003620006c757600191506001600082815260200190815260200160002060030160009054906101000a900460ff16846040516020016200066d919062000d1d565b60405160208183030381529060405290620006c0576040517f08c379a0000000000000000000000000000000000000000000000000000000008152600401620006b7919062000c26565b60405180910390fd5b50620006dd565b8080620006d49062000ab4565b915050620005ba565b508083604051602001620006f2919062000c9a565b6040516020818303038152906040529062000745576040517f08c379a00000000000000000000000000000000000000000000000000000000081526004016200073c919062000c26565b60405180910390fd5b50505b5b5b5b6000855114620007f8576040518060800160405280868152602001858152602001848152602001600115158152506001600060035481526020019081526020016000206000820151816000019081620007a5919062000f3c565b50602082015181600101556040820151816002015560608201518160030160006101000a81548160ff02191690831515021790555090505060036000815480929190620007f29062000ab4565b91905055505b8284866040516200080a919062000941565b60405180910390207f1c3e2c51276ce91148db2972b4614c440d1eff2734afc30a9b675564428f62ef60405160405180910390a45050505050565b600082825260208201905092915050565b7f43616c6c6572206973206e6f74206f776e657200000000000000000000000000600082015250565b60006200088e60138362000845565b91506200089b8262000856565b602082019050919050565b60006020820190508181036000830152620008c1816200087f565b9050919050565b600081519050919050565b600081905092915050565b60005b83811015620008fe578082015181840152602081019050620008e1565b60008484015250505050565b60006200091782620008c8565b620009238185620008d3565b935062000935818560208601620008de565b80840191505092915050565b60006200094f82846200090a565b915081905092915050565b7f4e487b7100000000000000000000000000000000000000000000000000000000600052602260045260246000fd5b60006002820490506001821680620009a257607f821691505b602082108103620009b857620009b76200095a565b5b50919050565b60008190508160005260206000209050919050565b60008154620009e28162000989565b620009ee8186620008d3565b9450600182166000811462000a0c576001811462000a225762000a59565b60ff198316865281151582028601935062000a59565b62000a2d85620009be565b60005b8381101562000a515781548189015260018201915060208101905062000a30565b838801955050505b50505092915050565b600062000a708284620009d3565b915081905092915050565b7f4e487b7100000000000000000000000000000000000000000000000000000000600052601160045260246000fd5b6000819050919050565b600062000ac18262000aaa565b91507fffffffffffffffffffffffffffffffffffffffffffffffffffffffffffffffff820362000af65762000af562000a7b565b5b600182019050919050565b7f43727970746f63757272656e6379200000000000000000000000000000000000600082015250565b600062000b39600f83620008d3565b915062000b468262000b01565b600f82019050919050565b7f20616c72656164792065786973742e0000000000000000000000000000000000600082015250565b600062000b89600f83620008d3565b915062000b968262000b51565b600f82019050919050565b600062000bae8262000b2a565b915062000bbc82846200090a565b915062000bc98262000b7a565b915081905092915050565b6000601f19601f8301169050919050565b600062000bf282620008c8565b62000bfe818562000845565b935062000c10818560208601620008de565b62000c1b8162000bd4565b840191505092915050565b6000602082019050818103600083015262000c42818462000be5565b905092915050565b7f206973206e6f742065786973742e000000000000000000000000000000000000600082015250565b600062000c82600e83620008d3565b915062000c8f8262000c4a565b600e82019050919050565b600062000ca78262000b2a565b915062000cb582846200090a565b915062000cc28262000c73565b915081905092915050565b7f206973206e6f7420617661696c61626c652e0000000000000000000000000000600082015250565b600062000d05601283620008d3565b915062000d128262000ccd565b601282019050919050565b600062000d2a8262000b2a565b915062000d3882846200090a565b915062000d458262000cf6565b915081905092915050565b7f4e487b7100000000000000000000000000000000000000000000000000000000600052604160045260246000fd5b60006020601f8301049050919050565b600082821b905092915050565b60006008830262000dce7fffffffffffffffffffffffffffffffffffffffffffffffffffffffffffffffff8262000d8f565b62000dda868362000d8f565b95508019841693508086168417925050509392505050565b6000819050919050565b600062000e1d62000e1762000e118462000aaa565b62000df2565b62000aaa565b9050919050565b6000819050919050565b62000e398362000dfc565b62000e5162000e488262000e24565b84845462000d9c565b825550505050565b600090565b62000e6862000e59565b62000e7581848462000e2e565b505050565b5b8181101562000e9d5762000e9160008262000e5e565b60018101905062000e7b565b5050565b601f82111562000eec5762000eb681620009be565b62000ec18462000d7f565b8101602085101562000ed1578190505b62000ee962000ee08562000d7f565b83018262000e7a565b50505b505050565b600082821c905092915050565b600062000f116000198460080262000ef1565b1980831691505092915050565b600062000f2c838362000efe565b9150826002028217905092915050565b62000f4782620008c8565b67ffffffffffffffff81111562000f635762000f6262000d50565b5b62000f6f825462000989565b62000f7c82828562000ea1565b600060209050601f83116001811462000fb4576000841562000f9f578287015190505b62000fab858262000f1e565b8655506200101b565b601f19841662000fc486620009be565b60005b8281101562000fee5784890151825560018201915060208501945060208101905062000fc7565b868310156200100e57848901516200100a601f89168262000efe565b8355505b6001600288020188555050505b505050505050565b61508180620010336000396000f3fe6080604052600436106100c25760003560e01c8063b1fc4dc61161007f578063bf9b12b911610059578063bf9b12b914610281578063de0ff7c5146102aa578063e7710f68146102d5578063fc81792a14610300576100c2565b8063b1fc4dc6146101fc578063b6b55f251461023a578063ba0d181b14610256576100c2565b80631634de33146100c75780632e1a7d4d1461010457806341d7b0261461012d578063722713f71461016a57806376a38cd6146101955780638012cf5c146101be575b600080fd5b3480156100d357600080fd5b506100ee60048036038101906100e991906140ac565b610329565b6040516100fb91906140e8565b60405180910390f35b34801561011057600080fd5b5061012b600480360381019061012691906140ac565b6103b4565b005b34801561013957600080fd5b50610154600480360381019061014f9190614249565b6104e4565b604051610161919061439e565b60405180910390f35b34801561017657600080fd5b5061017f610743565b60405161018c91906140e8565b60405180910390f35b3480156101a157600080fd5b506101bc60048036038101906101b791906143c0565b61078a565b005b3480156101ca57600080fd5b506101e560048036038101906101e0919061442f565b610dbb565b6040516101f3929190614504565b60405180910390f35b34801561020857600080fd5b50610223600480360381019061021e919061442f565b611bb0565b604051610231929190614504565b60405180910390f35b610254600480360381019061024f91906140ac565b61296d565b005b34801561026257600080fd5b5061026b612a16565b6040516102789190614659565b60405180910390f35b34801561028d57600080fd5b506102a860048036038101906102a391906146a7565b612c25565b005b3480156102b657600080fd5b506102bf61379f565b6040516102cc91906140e8565b60405180910390f35b3480156102e157600080fd5b506102ea6137a7565b6040516102f79190614659565b60405180910390f35b34801561030c57600080fd5b5061032760048036038101906103229190614790565b613958565b005b60008082905060006004548261033f919061485d565b9050600060045482610351919061488e565b8361035c91906148d0565b90506000600260045461036f919061485d565b821061039757600454600454856103869190614904565b610390919061485d565b90506103a8565b600454846103a5919061485d565b90505b80945050505050919050565b600260003373ffffffffffffffffffffffffffffffffffffffff1673ffffffffffffffffffffffffffffffffffffffff1681526020019081526020016000205481111561040057600080fd5b80600260003373ffffffffffffffffffffffffffffffffffffffff1673ffffffffffffffffffffffffffffffffffffffff168152602001908152602001600020600082825461044f91906148d0565b925050819055503373ffffffffffffffffffffffffffffffffffffffff166108fc479081150290604051600060405180830381858888f1935050505015801561049c573d6000803e3d6000fd5b50803373ffffffffffffffffffffffffffffffffffffffff167f7084f5476618d8e60b11ef0d7d3f06914655adb8793e28ff7f018d4c76d505d560405160405180910390a350565b6104ec614038565b60005b60035481101561065b578260405160200161050a9190614974565b60405160208183030381529060405280519060200120600160008381526020019081526020016000206000016040516020016105469190614a83565b6040516020818303038152906040528051906020012003610648576001600082815260200190815260200160002060405180608001604052908160008201805461058f906149ba565b80601f01602080910402602001604051908101604052809291908181526020018280546105bb906149ba565b80156106085780601f106105dd57610100808354040283529160200191610608565b820191906000526020600020905b8154815290600101906020018083116105eb57829003601f168201915b5050505050815260200160018201548152602001600282015481526020016003820160009054906101000a900460ff16151515158152505091505061073e565b808061065390614a9a565b9150506104ef565b60016000828152602001908152602001600020604051806080016040529081600082018054610689906149ba565b80601f01602080910402602001604051908101604052809291908181526020018280546106b5906149ba565b80156107025780601f106106d757610100808354040283529160200191610702565b820191906000526020600020905b8154815290600101906020018083116106e557829003601f168201915b5050505050815260200160018201548152602001600282015481526020016003820160009054906101000a900460ff1615151515815250509150505b919050565b6000600260003373ffffffffffffffffffffffffffffffffffffffff1673ffffffffffffffffffffffffffffffffffffffff16815260200190815260200160002054905090565b60008054906101000a900473ffffffffffffffffffffffffffffffffffffffff1673ffffffffffffffffffffffffffffffffffffffff163373ffffffffffffffffffffffffffffffffffffffff1614610818576040517f08c379a000000000000000000000000000000000000000000000000000000000815260040161080f90614b2e565b60405180910390fd5b8260008081036109235760006001905060005b6003548110156108b957836040516020016108469190614974565b60405160208183030381529060405280519060200120600160008381526020019081526020016000206000016040516020016108829190614a83565b60405160208183030381529060405280519060200120036108a657600091506108b9565b80806108b190614a9a565b91505061082b565b5080836040516020016108cc9190614be6565b6040516020818303038152906040529061091c576040517f08c379a00000000000000000000000000000000000000000000000000000000081526004016109139190614c13565b60405180910390fd5b5050610cc8565b60018103610a27576000805b6003548110156109bd578360405160200161094a9190614974565b60405160208183030381529060405280519060200120600160008381526020019081526020016000206000016040516020016109869190614a83565b60405160208183030381529060405280519060200120036109aa57600191506109bd565b80806109b590614a9a565b91505061092f565b5080836040516020016109d09190614c81565b60405160208183030381529060405290610a20576040517f08c379a0000000000000000000000000000000000000000000000000000000008152600401610a179190614c13565b60405180910390fd5b5050610cc7565b600281148015610a3957506000825114155b15610b3f5760006001905060005b600354811015610ad55783604051602001610a629190614974565b6040516020818303038152906040528051906020012060016000838152602001908152602001600020600001604051602001610a9e9190614a83565b6040516020818303038152906040528051906020012003610ac25760009150610ad5565b8080610acd90614a9a565b915050610a47565b508083604051602001610ae89190614be6565b60405160208183030381529060405290610b38576040517f08c379a0000000000000000000000000000000000000000000000000000000008152600401610b2f9190614c13565b60405180910390fd5b5050610cc6565b60038103610cc5576000805b600354811015610c5f5783604051602001610b669190614974565b6040516020818303038152906040528051906020012060016000838152602001908152602001600020600001604051602001610ba29190614a83565b6040516020818303038152906040528051906020012003610c4c57600191506001600082815260200190815260200160002060030160009054906101000a900460ff1684604051602001610bf69190614cfa565b60405160208183030381529060405290610c46576040517f08c379a0000000000000000000000000000000000000000000000000000000008152600401610c3d9190614c13565b60405180910390fd5b50610c5f565b8080610c5790614a9a565b915050610b4b565b508083604051602001610c729190614c81565b60405160208183030381529060405290610cc2576040517f08c379a0000000000000000000000000000000000000000000000000000000008152600401610cb99190614c13565b60405180910390fd5b50505b5b5b5b6000855114610d70576040518060800160405280868152602001858152602001848152602001600115158152506001600060035481526020019081526020016000206000820151816000019081610d1f9190614ebe565b50602082015181600101556040820151816002015560608201518160030160006101000a81548160ff02191690831515021790555090505060036000815480929190610d6a90614a9a565b91905055505b828486604051610d809190614974565b60405180910390207f1c3e2c51276ce91148db2972b4614c440d1eff2734afc30a9b675564428f62ef60405160405180910390a45050505050565b6060600084600360008103610ecb5760006001905060005b600354811015610e615783604051602001610dee9190614974565b6040516020818303038152906040528051906020012060016000838152602001908152602001600020600001604051602001610e2a9190614a83565b6040516020818303038152906040528051906020012003610e4e5760009150610e61565b8080610e5990614a9a565b915050610dd3565b508083604051602001610e749190614be6565b60405160208183030381529060405290610ec4576040517f08c379a0000000000000000000000000000000000000000000000000000000008152600401610ebb9190614c13565b60405180910390fd5b5050611270565b60018103610fcf576000805b600354811015610f655783604051602001610ef29190614974565b6040516020818303038152906040528051906020012060016000838152602001908152602001600020600001604051602001610f2e9190614a83565b6040516020818303038152906040528051906020012003610f525760019150610f65565b8080610f5d90614a9a565b915050610ed7565b508083604051602001610f789190614c81565b60405160208183030381529060405290610fc8576040517f08c379a0000000000000000000000000000000000000000000000000000000008152600401610fbf9190614c13565b60405180910390fd5b505061126f565b600281148015610fe157506000825114155b156110e75760006001905060005b60035481101561107d578360405160200161100a9190614974565b60405160208183030381529060405280519060200120600160008381526020019081526020016000206000016040516020016110469190614a83565b604051602081830303815290604052805190602001200361106a576000915061107d565b808061107590614a9a565b915050610fef565b5080836040516020016110909190614be6565b604051602081830303815290604052906110e0576040517f08c379a00000000000000000000000000000000000000000000000000000000081526004016110d79190614c13565b60405180910390fd5b505061126e565b6003810361126d576000805b600354811015611207578360405160200161110e9190614974565b604051602081830303815290604052805190602001206001600083815260200190815260200160002060000160405160200161114a9190614a83565b60405160208183030381529060405280519060200120036111f457600191506001600082815260200190815260200160002060030160009054906101000a900460ff168460405160200161119e9190614cfa565b604051602081830303815290604052906111ee576040517f08c379a00000000000000000000000000000000000000000000000000000000081526004016111e59190614c13565b60405180910390fd5b50611207565b80806111ff90614a9a565b9150506110f3565b50808360405160200161121a9190614c81565b6040516020818303038152906040529061126a576040517f08c379a00000000000000000000000000000000000000000000000000000000081526004016112619190614c13565b60405180910390fd5b50505b5b5b5b8460036000810361137c5760006001905060005b600354811015611312578360405160200161129f9190614974565b60405160208183030381529060405280519060200120600160008381526020019081526020016000206000016040516020016112db9190614a83565b60405160208183030381529060405280519060200120036112ff5760009150611312565b808061130a90614a9a565b915050611284565b5080836040516020016113259190614be6565b60405160208183030381529060405290611375576040517f08c379a000000000000000000000000000000000000000000000000000000000815260040161136c9190614c13565b60405180910390fd5b5050611721565b60018103611480576000805b60035481101561141657836040516020016113a39190614974565b60405160208183030381529060405280519060200120600160008381526020019081526020016000206000016040516020016113df9190614a83565b60405160208183030381529060405280519060200120036114035760019150611416565b808061140e90614a9a565b915050611388565b5080836040516020016114299190614c81565b60405160208183030381529060405290611479576040517f08c379a00000000000000000000000000000000000000000000000000000000081526004016114709190614c13565b60405180910390fd5b5050611720565b60028114801561149257506000825114155b156115985760006001905060005b60035481101561152e57836040516020016114bb9190614974565b60405160208183030381529060405280519060200120600160008381526020019081526020016000206000016040516020016114f79190614a83565b604051602081830303815290604052805190602001200361151b576000915061152e565b808061152690614a9a565b9150506114a0565b5080836040516020016115419190614be6565b60405160208183030381529060405290611591576040517f08c379a00000000000000000000000000000000000000000000000000000000081526004016115889190614c13565b60405180910390fd5b505061171f565b6003810361171e576000805b6003548110156116b857836040516020016115bf9190614974565b60405160208183030381529060405280519060200120600160008381526020019081526020016000206000016040516020016115fb9190614a83565b60405160208183030381529060405280519060200120036116a557600191506001600082815260200190815260200160002060030160009054906101000a900460ff168460405160200161164f9190614cfa565b6040516020818303038152906040529061169f576040517f08c379a00000000000000000000000000000000000000000000000000000000081526004016116969190614c13565b60405180910390fd5b506116b8565b80806116b090614a9a565b9150506115a4565b5080836040516020016116cb9190614c81565b6040516020818303038152906040529061171b576040517f08c379a00000000000000000000000000000000000000000000000000000000081526004016117129190614c13565b60405180910390fd5b50505b5b5b5b6000808060008091505b600354821015611921578c6040516020016117469190614974565b60405160208183030381529060405280519060200120600160008481526020019081526020016000206000016040516020016117829190614a83565b604051602081830303815290604052805190602001200361190e576118168c60016000858152602001908152602001600020600101546117c29190614904565b600454600160008681526020019081526020016000206002015460016000878152602001908152602001600020600101546117fd919061488e565b611807919061488e565b611811919061485d565b610329565b905080600160008481526020019081526020016000206002015461183a91906148d0565b93508060016000848152602001908152602001600020600201819055508b60016000848152602001908152602001600020600101600082825461187d9190614904565b9250508190555060016000838152602001908152602001600020600201546001600084815260200190815260200160002060010154600160008581526020019081526020016000206000016040516118d59190614a83565b60405180910390207f1c3e2c51276ce91148db2972b4614c440d1eff2734afc30a9b675564428f62ef60405160405180910390a4611921565b818061191990614a9a565b92505061172b565b60008093505b600354841015611b99578b6040516020016119429190614974565b604051602081830303815290604052805190602001206001600086815260200190815260200160002060000160405160200161197e9190614a83565b6040516020818303038152906040528051906020012003611b86576000600160008681526020019081526020016000206001015403611a1557846001600085815260200190815260200160002060020160008282546119dd9190614904565b925050819055508c600160008581526020019081526020016000206001016000828254611a0a91906148d0565b925050819055600080fd5b611a8e856001600087815260200190815260200160002060020154611a3a9190614904565b60045460016000888152602001908152602001600020600101546001600089815260200190815260200160002060020154611a75919061488e565b611a7f919061488e565b611a89919061485d565b610329565b9150816001600086815260200190815260200160002060010154611ab291906148d0565b905084600160008681526020019081526020016000206002016000828254611ada9190614904565b925050819055508160016000868152602001908152602001600020600101819055506001600085815260200190815260200160002060020154600160008681526020019081526020016000206001015460016000878152602001908152602001600020600001604051611b4d9190614a83565b60405180910390207f1c3e2c51276ce91148db2972b4614c440d1eff2734afc30a9b675564428f62ef60405160405180910390a4611b99565b8380611b9190614a9a565b945050611927565b8b819a509a50505050505050505050935093915050565b6060600084600360008103611cc05760006001905060005b600354811015611c565783604051602001611be39190614974565b6040516020818303038152906040528051906020012060016000838152602001908152602001600020600001604051602001611c1f9190614a83565b6040516020818303038152906040528051906020012003611c435760009150611c56565b8080611c4e90614a9a565b915050611bc8565b508083604051602001611c699190614be6565b60405160208183030381529060405290611cb9576040517f08c379a0000000000000000000000000000000000000000000000000000000008152600401611cb09190614c13565b60405180910390fd5b5050612065565b60018103611dc4576000805b600354811015611d5a5783604051602001611ce79190614974565b6040516020818303038152906040528051906020012060016000838152602001908152602001600020600001604051602001611d239190614a83565b6040516020818303038152906040528051906020012003611d475760019150611d5a565b8080611d5290614a9a565b915050611ccc565b508083604051602001611d6d9190614c81565b60405160208183030381529060405290611dbd576040517f08c379a0000000000000000000000000000000000000000000000000000000008152600401611db49190614c13565b60405180910390fd5b5050612064565b600281148015611dd657506000825114155b15611edc5760006001905060005b600354811015611e725783604051602001611dff9190614974565b6040516020818303038152906040528051906020012060016000838152602001908152602001600020600001604051602001611e3b9190614a83565b6040516020818303038152906040528051906020012003611e5f5760009150611e72565b8080611e6a90614a9a565b915050611de4565b508083604051602001611e859190614be6565b60405160208183030381529060405290611ed5576040517f08c379a0000000000000000000000000000000000000000000000000000000008152600401611ecc9190614c13565b60405180910390fd5b5050612063565b60038103612062576000805b600354811015611ffc5783604051602001611f039190614974565b6040516020818303038152906040528051906020012060016000838152602001908152602001600020600001604051602001611f3f9190614a83565b6040516020818303038152906040528051906020012003611fe957600191506001600082815260200190815260200160002060030160009054906101000a900460ff1684604051602001611f939190614cfa565b60405160208183030381529060405290611fe3576040517f08c379a0000000000000000000000000000000000000000000000000000000008152600401611fda9190614c13565b60405180910390fd5b50611ffc565b8080611ff490614a9a565b915050611ee8565b50808360405160200161200f9190614c81565b6040516020818303038152906040529061205f576040517f08c379a00000000000000000000000000000000000000000000000000000000081526004016120569190614c13565b60405180910390fd5b50505b5b5b5b846003600081036121715760006001905060005b60035481101561210757836040516020016120949190614974565b60405160208183030381529060405280519060200120600160008381526020019081526020016000206000016040516020016120d09190614a83565b60405160208183030381529060405280519060200120036120f45760009150612107565b80806120ff90614a9a565b915050612079565b50808360405160200161211a9190614be6565b6040516020818303038152906040529061216a576040517f08c379a00000000000000000000000000000000000000000000000000000000081526004016121619190614c13565b60405180910390fd5b5050612516565b60018103612275576000805b60035481101561220b57836040516020016121989190614974565b60405160208183030381529060405280519060200120600160008381526020019081526020016000206000016040516020016121d49190614a83565b60405160208183030381529060405280519060200120036121f8576001915061220b565b808061220390614a9a565b91505061217d565b50808360405160200161221e9190614c81565b6040516020818303038152906040529061226e576040517f08c379a00000000000000000000000000000000000000000000000000000000081526004016122659190614c13565b60405180910390fd5b5050612515565b60028114801561228757506000825114155b1561238d5760006001905060005b60035481101561232357836040516020016122b09190614974565b60405160208183030381529060405280519060200120600160008381526020019081526020016000206000016040516020016122ec9190614a83565b60405160208183030381529060405280519060200120036123105760009150612323565b808061231b90614a9a565b915050612295565b5080836040516020016123369190614be6565b60405160208183030381529060405290612386576040517f08c379a000000000000000000000000000000000000000000000000000000000815260040161237d9190614c13565b60405180910390fd5b5050612514565b60038103612513576000805b6003548110156124ad57836040516020016123b49190614974565b60405160208183030381529060405280519060200120600160008381526020019081526020016000206000016040516020016123f09190614a83565b604051602081830303815290604052805190602001200361249a57600191506001600082815260200190815260200160002060030160009054906101000a900460ff16846040516020016124449190614cfa565b60405160208183030381529060405290612494576040517f08c379a000000000000000000000000000000000000000000000000000000000815260040161248b9190614c13565b60405180910390fd5b506124ad565b80806124a590614a9a565b915050612399565b5080836040516020016124c09190614c81565b60405160208183030381529060405290612510576040517f08c379a00000000000000000000000000000000000000000000000000000000081526004016125079190614c13565b60405180910390fd5b50505b5b5b5b6000808060008092505b60035483101561275a578c60405160200161253b9190614974565b60405160208183030381529060405280519060200120600160008581526020019081526020016000206000016040516020016125779190614a83565b6040516020818303038152906040528051906020012003612747576000600160008581526020019081526020016000206001015414806125cc57508b6001600085815260200190815260200160002060010154105b156125d657600080fd5b61264f8c60016000868152602001908152602001600020600101546125fb91906148d0565b60045460016000878152602001908152602001600020600101546001600088815260200190815260200160002060020154612636919061488e565b612640919061488e565b61264a919061485d565b610329565b905060016000848152602001908152602001600020600201548161267391906148d0565b93508060016000858152602001908152602001600020600201819055508b6001600085815260200190815260200160002060010160008282546126b691906148d0565b92505081905550600160008481526020019081526020016000206002015460016000858152602001908152602001600020600101546001600086815260200190815260200160002060000160405161270e9190614a83565b60405180910390207f1c3e2c51276ce91148db2972b4614c440d1eff2734afc30a9b675564428f62ef60405160405180910390a461275a565b828061275290614a9a565b935050612520565b60008092505b600354831015612956578b60405160200161277b9190614974565b60405160208183030381529060405280519060200120600160008581526020019081526020016000206000016040516020016127b79190614a83565b60405160208183030381529060405280519060200120036129435761284b8560016000868152602001908152602001600020600201546127f791906148d0565b60045460016000878152602001908152602001600020600101546001600088815260200190815260200160002060020154612832919061488e565b61283c919061488e565b612846919061485d565b610329565b915060016000848152602001908152602001600020600101548261286f91906148d0565b90508460016000858152602001908152602001600020600201600082825461289791906148d0565b92505081905550816001600085815260200190815260200160002060010181905550600160008481526020019081526020016000206002015460016000858152602001908152602001600020600101546001600086815260200190815260200160002060000160405161290a9190614a83565b60405180910390207f1c3e2c51276ce91148db2972b4614c440d1eff2734afc30a9b675564428f62ef60405160405180910390a4612956565b828061294e90614a9a565b935050612760565b8b819a509a50505050505050505050935093915050565b80341461297957600080fd5b80600260003373ffffffffffffffffffffffffffffffffffffffff1673ffffffffffffffffffffffffffffffffffffffff16815260200190815260200160002060008282546129c89190614904565b92505081905550803373ffffffffffffffffffffffffffffffffffffffff167f2da466a7b24304f47e87fa2e1e5a81b9831ce54fec19055ce277ca2f39ba42c460405160405180910390a350565b606060008054906101000a900473ffffffffffffffffffffffffffffffffffffffff1673ffffffffffffffffffffffffffffffffffffffff163373ffffffffffffffffffffffffffffffffffffffff1614612aa6576040517f08c379a0000000000000000000000000000000000000000000000000000000008152600401612a9d90614b2e565b60405180910390fd5b600060035467ffffffffffffffff811115612ac457612ac361411e565b5b604051908082528060200260200182016040528015612afd57816020015b612aea614038565b815260200190600190039081612ae25790505b50905060005b600354811015612c1d5760016000828152602001908152602001600020604051806080016040529081600082018054612b3b906149ba565b80601f0160208091040260200160405190810160405280929190818152602001828054612b67906149ba565b8015612bb45780601f10612b8957610100808354040283529160200191612bb4565b820191906000526020600020905b815481529060010190602001808311612b9757829003601f168201915b5050505050815260200160018201548152602001600282015481526020016003820160009054906101000a900460ff161515151581525050828281518110612bff57612bfe614f90565b5b60200260200101819052508080612c1590614a9a565b915050612b03565b508091505090565b60008054906101000a900473ffffffffffffffffffffffffffffffffffffffff1673ffffffffffffffffffffffffffffffffffffffff163373ffffffffffffffffffffffffffffffffffffffff1614612cb3576040517f08c379a0000000000000000000000000000000000000000000000000000000008152600401612caa90614b2e565b60405180910390fd5b84600160008103612dbf5760006001905060005b600354811015612d555783604051602001612ce29190614974565b6040516020818303038152906040528051906020012060016000838152602001908152602001600020600001604051602001612d1e9190614a83565b6040516020818303038152906040528051906020012003612d425760009150612d55565b8080612d4d90614a9a565b915050612cc7565b508083604051602001612d689190614be6565b60405160208183030381529060405290612db8576040517f08c379a0000000000000000000000000000000000000000000000000000000008152600401612daf9190614c13565b60405180910390fd5b5050613164565b60018103612ec3576000805b600354811015612e595783604051602001612de69190614974565b6040516020818303038152906040528051906020012060016000838152602001908152602001600020600001604051602001612e229190614a83565b6040516020818303038152906040528051906020012003612e465760019150612e59565b8080612e5190614a9a565b915050612dcb565b508083604051602001612e6c9190614c81565b60405160208183030381529060405290612ebc576040517f08c379a0000000000000000000000000000000000000000000000000000000008152600401612eb39190614c13565b60405180910390fd5b5050613163565b600281148015612ed557506000825114155b15612fdb5760006001905060005b600354811015612f715783604051602001612efe9190614974565b6040516020818303038152906040528051906020012060016000838152602001908152602001600020600001604051602001612f3a9190614a83565b6040516020818303038152906040528051906020012003612f5e5760009150612f71565b8080612f6990614a9a565b915050612ee3565b508083604051602001612f849190614be6565b60405160208183030381529060405290612fd4576040517f08c379a0000000000000000000000000000000000000000000000000000000008152600401612fcb9190614c13565b60405180910390fd5b5050613162565b60038103613161576000805b6003548110156130fb57836040516020016130029190614974565b604051602081830303815290604052805190602001206001600083815260200190815260200160002060000160405160200161303e9190614a83565b60405160208183030381529060405280519060200120036130e857600191506001600082815260200190815260200160002060030160009054906101000a900460ff16846040516020016130929190614cfa565b604051602081830303815290604052906130e2576040517f08c379a00000000000000000000000000000000000000000000000000000000081526004016130d99190614c13565b60405180910390fd5b506130fb565b80806130f390614a9a565b915050612fe7565b50808360405160200161310e9190614c81565b6040516020818303038152906040529061315e576040517f08c379a00000000000000000000000000000000000000000000000000000000081526004016131559190614c13565b60405180910390fd5b50505b5b5b5b856002600081036132705760006001905060005b60035481101561320657836040516020016131939190614974565b60405160208183030381529060405280519060200120600160008381526020019081526020016000206000016040516020016131cf9190614a83565b60405160208183030381529060405280519060200120036131f35760009150613206565b80806131fe90614a9a565b915050613178565b5080836040516020016132199190614be6565b60405160208183030381529060405290613269576040517f08c379a00000000000000000000000000000000000000000000000000000000081526004016132609190614c13565b60405180910390fd5b5050613615565b60018103613374576000805b60035481101561330a57836040516020016132979190614974565b60405160208183030381529060405280519060200120600160008381526020019081526020016000206000016040516020016132d39190614a83565b60405160208183030381529060405280519060200120036132f7576001915061330a565b808061330290614a9a565b91505061327c565b50808360405160200161331d9190614c81565b6040516020818303038152906040529061336d576040517f08c379a00000000000000000000000000000000000000000000000000000000081526004016133649190614c13565b60405180910390fd5b5050613614565b60028114801561338657506000825114155b1561348c5760006001905060005b60035481101561342257836040516020016133af9190614974565b60405160208183030381529060405280519060200120600160008381526020019081526020016000206000016040516020016133eb9190614a83565b604051602081830303815290604052805190602001200361340f5760009150613422565b808061341a90614a9a565b915050613394565b5080836040516020016134359190614be6565b60405160208183030381529060405290613485576040517f08c379a000000000000000000000000000000000000000000000000000000000815260040161347c9190614c13565b60405180910390fd5b5050613613565b60038103613612576000805b6003548110156135ac57836040516020016134b39190614974565b60405160208183030381529060405280519060200120600160008381526020019081526020016000206000016040516020016134ef9190614a83565b604051602081830303815290604052805190602001200361359957600191506001600082815260200190815260200160002060030160009054906101000a900460ff16846040516020016135439190614cfa565b60405160208183030381529060405290613593576040517f08c379a000000000000000000000000000000000000000000000000000000000815260040161358a9190614c13565b60405180910390fd5b506135ac565b80806135a490614a9a565b915050613498565b5080836040516020016135bf9190614c81565b6040516020818303038152906040529061360f576040517f08c379a00000000000000000000000000000000000000000000000000000000081526004016136069190614c13565b60405180910390fd5b50505b5b5b5b60005b60035481101561369e57896040516020016136339190614974565b604051602081830303815290604052805190602001206001600083815260200190815260200160002060000160405160200161366f9190614a83565b60405160208183030381529060405280519060200120031561369e57808061369690614a9a565b915050613618565b60008810156136ac57600097505b60008710156136ba57600096505b60008951036136c7578998505b886001600083815260200190815260200160002060000190816136ea9190614ebe565b50876001600083815260200190815260200160002060010181905550866001600083815260200190815260200160002060020181905550856001600083815260200190815260200160002060030160006101000a81548160ff02191690831515021790555086888a60405161375f9190614974565b60405180910390207f1c3e2c51276ce91148db2972b4614c440d1eff2734afc30a9b675564428f62ef60405160405180910390a450505050505050505050565b600047905090565b6060600060035467ffffffffffffffff8111156137c7576137c661411e565b5b60405190808252806020026020018201604052801561380057816020015b6137ed614038565b8152602001906001900390816137e55790505b50905060005b60035481101561395057600115156001600083815260200190815260200160002060030160009054906101000a900460ff1615150361393d576001600082815260200190815260200160002060405180608001604052908160008201805461386d906149ba565b80601f0160208091040260200160405190810160405280929190818152602001828054613899906149ba565b80156138e65780601f106138bb576101008083540402835291602001916138e6565b820191906000526020600020905b8154815290600101906020018083116138c957829003601f168201915b5050505050815260200160018201548152602001600282015481526020016003820160009054906101000a900460ff16151515158152505082828151811061393157613930614f90565b5b60200260200101819052505b808061394890614a9a565b915050613806565b508091505090565b60008054906101000a900473ffffffffffffffffffffffffffffffffffffffff1673ffffffffffffffffffffffffffffffffffffffff163373ffffffffffffffffffffffffffffffffffffffff16146139e6576040517f08c379a00000000000000000000000000000000000000000000000000000000081526004016139dd90614b2e565b60405180910390fd5b82600160008103613af25760006001905060005b600354811015613a885783604051602001613a159190614974565b6040516020818303038152906040528051906020012060016000838152602001908152602001600020600001604051602001613a519190614a83565b6040516020818303038152906040528051906020012003613a755760009150613a88565b8080613a8090614a9a565b9150506139fa565b508083604051602001613a9b9190614be6565b60405160208183030381529060405290613aeb576040517f08c379a0000000000000000000000000000000000000000000000000000000008152600401613ae29190614c13565b60405180910390fd5b5050613e97565b60018103613bf6576000805b600354811015613b8c5783604051602001613b199190614974565b6040516020818303038152906040528051906020012060016000838152602001908152602001600020600001604051602001613b559190614a83565b6040516020818303038152906040528051906020012003613b795760019150613b8c565b8080613b8490614a9a565b915050613afe565b508083604051602001613b9f9190614c81565b60405160208183030381529060405290613bef576040517f08c379a0000000000000000000000000000000000000000000000000000000008152600401613be69190614c13565b60405180910390fd5b5050613e96565b600281148015613c0857506000825114155b15613d0e5760006001905060005b600354811015613ca45783604051602001613c319190614974565b6040516020818303038152906040528051906020012060016000838152602001908152602001600020600001604051602001613c6d9190614a83565b6040516020818303038152906040528051906020012003613c915760009150613ca4565b8080613c9c90614a9a565b915050613c16565b508083604051602001613cb79190614be6565b60405160208183030381529060405290613d07576040517f08c379a0000000000000000000000000000000000000000000000000000000008152600401613cfe9190614c13565b60405180910390fd5b5050613e95565b60038103613e94576000805b600354811015613e2e5783604051602001613d359190614974565b6040516020818303038152906040528051906020012060016000838152602001908152602001600020600001604051602001613d719190614a83565b6040516020818303038152906040528051906020012003613e1b57600191506001600082815260200190815260200160002060030160009054906101000a900460ff1684604051602001613dc59190614cfa565b60405160208183030381529060405290613e15576040517f08c379a0000000000000000000000000000000000000000000000000000000008152600401613e0c9190614c13565b60405180910390fd5b50613e2e565b8080613e2690614a9a565b915050613d1a565b508083604051602001613e419190614c81565b60405160208183030381529060405290613e91576040517f08c379a0000000000000000000000000000000000000000000000000000000008152600401613e889190614c13565b60405180910390fd5b50505b5b5b5b60008060008092505b600354831015613fea5787604051602001613ebb9190614974565b6040516020818303038152906040528051906020012060016000858152602001908152602001600020600001604051602001613ef79190614a83565b6040516020818303038152906040528051906020012003613fd757600160008481526020019081526020016000206001015491506001600084815260200190815260200160002060020154905060008783613f529190614fbf565b1215613f655781613f6290615003565b96505b60008682613f739190614fbf565b1215613f865780613f8390615003565b95505b8682613f929190614fbf565b60016000858152602001908152602001600020600101819055508581613fb89190614fbf565b6001600085815260200190815260200160002060020181905550613fea565b8280613fe290614a9a565b935050613ea0565b858789604051613ffa9190614974565b60405180910390207f1c3e2c51276ce91148db2972b4614c440d1eff2734afc30a9b675564428f62ef60405160405180910390a45050505050505050565b60405180608001604052806060815260200160008152602001600081526020016000151581525090565b6000604051905090565b600080fd5b600080fd5b6000819050919050565b61408981614076565b811461409457600080fd5b50565b6000813590506140a681614080565b92915050565b6000602082840312156140c2576140c161406c565b5b60006140d084828501614097565b91505092915050565b6140e281614076565b82525050565b60006020820190506140fd60008301846140d9565b92915050565b600080fd5b600080fd5b6000601f19601f8301169050919050565b7f4e487b7100000000000000000000000000000000000000000000000000000000600052604160045260246000fd5b6141568261410d565b810181811067ffffffffffffffff821117156141755761417461411e565b5b80604052505050565b6000614188614062565b9050614194828261414d565b919050565b600067ffffffffffffffff8211156141b4576141b361411e565b5b6141bd8261410d565b9050602081019050919050565b82818337600083830152505050565b60006141ec6141e784614199565b61417e565b90508281526020810184848401111561420857614207614108565b5b6142138482856141ca565b509392505050565b600082601f8301126142305761422f614103565b5b81356142408482602086016141d9565b91505092915050565b60006020828403121561425f5761425e61406c565b5b600082013567ffffffffffffffff81111561427d5761427c614071565b5b6142898482850161421b565b91505092915050565b600081519050919050565b600082825260208201905092915050565b60005b838110156142cc5780820151818401526020810190506142b1565b60008484015250505050565b60006142e382614292565b6142ed818561429d565b93506142fd8185602086016142ae565b6143068161410d565b840191505092915050565b61431a81614076565b82525050565b60008115159050919050565b61433581614320565b82525050565b6000608083016000830151848203600086015261435882826142d8565b915050602083015161436d6020860182614311565b5060408301516143806040860182614311565b506060830151614393606086018261432c565b508091505092915050565b600060208201905081810360008301526143b8818461433b565b905092915050565b6000806000606084860312156143d9576143d861406c565b5b600084013567ffffffffffffffff8111156143f7576143f6614071565b5b6144038682870161421b565b935050602061441486828701614097565b925050604061442586828701614097565b9150509250925092565b6000806000606084860312156144485761444761406c565b5b600084013567ffffffffffffffff81111561446657614465614071565b5b6144728682870161421b565b935050602061448386828701614097565b925050604084013567ffffffffffffffff8111156144a4576144a3614071565b5b6144b08682870161421b565b9150509250925092565b600082825260208201905092915050565b60006144d682614292565b6144e081856144ba565b93506144f08185602086016142ae565b6144f98161410d565b840191505092915050565b6000604082019050818103600083015261451e81856144cb565b905061452d60208301846140d9565b9392505050565b600081519050919050565b600082825260208201905092915050565b6000819050602082019050919050565b6000608083016000830151848203600086015261457d82826142d8565b91505060208301516145926020860182614311565b5060408301516145a56040860182614311565b5060608301516145b8606086018261432c565b508091505092915050565b60006145cf8383614560565b905092915050565b6000602082019050919050565b60006145ef82614534565b6145f9818561453f565b93508360208202850161460b85614550565b8060005b85811015614647578484038952815161462885826145c3565b9450614633836145d7565b925060208a0199505060018101905061460f565b50829750879550505050505092915050565b6000602082019050818103600083015261467381846145e4565b905092915050565b61468481614320565b811461468f57600080fd5b50565b6000813590506146a18161467b565b92915050565b600080600080600060a086880312156146c3576146c261406c565b5b600086013567ffffffffffffffff8111156146e1576146e0614071565b5b6146ed8882890161421b565b955050602086013567ffffffffffffffff81111561470e5761470d614071565b5b61471a8882890161421b565b945050604061472b88828901614097565b935050606061473c88828901614097565b925050608061474d88828901614692565b9150509295509295909350565b6000819050919050565b61476d8161475a565b811461477857600080fd5b50565b60008135905061478a81614764565b92915050565b6000806000606084860312156147a9576147a861406c565b5b600084013567ffffffffffffffff8111156147c7576147c6614071565b5b6147d38682870161421b565b93505060206147e48682870161477b565b92505060406147f58682870161477b565b9150509250925092565b7f4e487b7100000000000000000000000000000000000000000000000000000000600052601260045260246000fd5b7f4e487b7100000000000000000000000000000000000000000000000000000000600052601160045260246000fd5b600061486882614076565b915061487383614076565b925082614883576148826147ff565b5b828204905092915050565b600061489982614076565b91506148a483614076565b92508282026148b281614076565b915082820484148315176148c9576148c861482e565b5b5092915050565b60006148db82614076565b91506148e683614076565b92508282039050818111156148fe576148fd61482e565b5b92915050565b600061490f82614076565b915061491a83614076565b92508282019050808211156149325761493161482e565b5b92915050565b600081905092915050565b600061494e82614292565b6149588185614938565b93506149688185602086016142ae565b80840191505092915050565b60006149808284614943565b915081905092915050565b7f4e487b7100000000000000000000000000000000000000000000000000000000600052602260045260246000fd5b600060028204905060018216806149d257607f821691505b6020821081036149e5576149e461498b565b5b50919050565b60008190508160005260206000209050919050565b60008154614a0d816149ba565b614a178186614938565b94506001821660008114614a325760018114614a4757614a7a565b60ff1983168652811515820286019350614a7a565b614a50856149eb565b60005b83811015614a7257815481890152600182019150602081019050614a53565b838801955050505b50505092915050565b6000614a8f8284614a00565b915081905092915050565b6000614aa582614076565b91507fffffffffffffffffffffffffffffffffffffffffffffffffffffffffffffffff8203614ad757614ad661482e565b5b600182019050919050565b7f43616c6c6572206973206e6f74206f776e657200000000000000000000000000600082015250565b6000614b186013836144ba565b9150614b2382614ae2565b602082019050919050565b60006020820190508181036000830152614b4781614b0b565b9050919050565b7f43727970746f63757272656e6379200000000000000000000000000000000000600082015250565b6000614b84600f83614938565b9150614b8f82614b4e565b600f82019050919050565b7f20616c72656164792065786973742e0000000000000000000000000000000000600082015250565b6000614bd0600f83614938565b9150614bdb82614b9a565b600f82019050919050565b6000614bf182614b77565b9150614bfd8284614943565b9150614c0882614bc3565b915081905092915050565b60006020820190508181036000830152614c2d81846144cb565b905092915050565b7f206973206e6f742065786973742e000000000000000000000000000000000000600082015250565b6000614c6b600e83614938565b9150614c7682614c35565b600e82019050919050565b6000614c8c82614b77565b9150614c988284614943565b9150614ca382614c5e565b915081905092915050565b7f206973206e6f7420617661696c61626c652e0000000000000000000000000000600082015250565b6000614ce4601283614938565b9150614cef82614cae565b601282019050919050565b6000614d0582614b77565b9150614d118284614943565b9150614d1c82614cd7565b915081905092915050565b60006020601f8301049050919050565b600082821b905092915050565b600060088302614d747fffffffffffffffffffffffffffffffffffffffffffffffffffffffffffffffff82614d37565b614d7e8683614d37565b95508019841693508086168417925050509392505050565b6000819050919050565b6000614dbb614db6614db184614076565b614d96565b614076565b9050919050565b6000819050919050565b614dd583614da0565b614de9614de182614dc2565b848454614d44565b825550505050565b600090565b614dfe614df1565b614e09818484614dcc565b505050565b5b81811015614e2d57614e22600082614df6565b600181019050614e0f565b5050565b601f821115614e7257614e43816149eb565b614e4c84614d27565b81016020851015614e5b578190505b614e6f614e6785614d27565b830182614e0e565b50505b505050565b600082821c905092915050565b6000614e9560001984600802614e77565b1980831691505092915050565b6000614eae8383614e84565b9150826002028217905092915050565b614ec782614292565b67ffffffffffffffff811115614ee057614edf61411e565b5b614eea82546149ba565b614ef5828285614e31565b600060209050601f831160018114614f285760008415614f16578287015190505b614f208582614ea2565b865550614f88565b601f198416614f36866149eb565b60005b82811015614f5e57848901518255600182019150602085019450602081019050614f39565b86831015614f7b5784890151614f77601f891682614e84565b8355505b6001600288020188555050505b505050505050565b7f4e487b7100000000000000000000000000000000000000000000000000000000600052603260045260246000fd5b6000614fca8261475a565b9150614fd58361475a565b925082820190508281121560008312168382126000841215161715614ffd57614ffc61482e565b5b92915050565b600061500e8261475a565b91507f800000000000000000000000000000000000000000000000000000000000000082036150405761503f61482e565b5b81600003905091905056fea26469706673582212200a404ff548b1e42389edf3f07bdcbac7ab099e2549aeda4433fa06caf123d57864736f6c63430008110033",
  "immutableReferences": {},
  "source": "//SPDX-License-Identifier: MIT\r\npragma solidity ^0.8.0;\r\n//import \"hardhat/console.sol\";\r\n//import \"@openzeppelin/contracts/utils/Strings.sol\";\r\n\r\ncontract DeX{\r\n\r\n    address private owner;\r\n    // Rules(16/09/2022):\r\n    // 1. One Y3Token = 100 usd (Our own token)\r\n    // 2. Ether price = 1,472.00 usd\r\n    // 3. Bitcoin price = 19,758.00 usd\r\n    // 4. PAX Gold price = 1,685.00 usd\r\n\r\n    //Add code to convert 1 ETH -> Y4 Token \r\n    //Add mapping for balance(address)\r\n\r\n    struct pool{\r\n        string cryptoName;\r\n        uint cryptoAmt;\r\n        uint tokenAmt;\r\n        bool cryptoStatus;\r\n    }\r\n\r\n    function deposit(uint256 amount) public payable {\r\n        require(msg.value == amount);\r\n        yBalances[msg.sender] += amount;\r\n        emit Deposited(msg.sender,amount);\r\n    }\r\n\r\n    function withdraw(uint256 amount) public {\r\n        require(amount <= yBalances[msg.sender]);\r\n        yBalances[msg.sender] -= amount;\r\n        payable(msg.sender).transfer(address(this).balance); //Change to call\r\n        emit Withdrawn(msg.sender,amount);\r\n    }\r\n\r\n    function getEther() public view returns (uint) {\r\n        return address(this).balance;\r\n    }\r\n\r\n    function balanceOf() public view returns(uint256) {\r\n        return yBalances[msg.sender];\r\n    }\r\n\r\n    \r\n\r\n    // act like dictionary in python\r\n    mapping(uint => pool) private cryptoList;\r\n    mapping(address => uint256) private yBalances;\r\n\r\n    uint cryptoListNum = 0;\r\n    uint decimalPlace = 10000;\r\n\r\n    event OwnerSet(address indexed oldOwner, address indexed newOwner);\r\n    event PoolValue(string indexed cryptoName,uint indexed cVal, uint indexed tVal);\r\n    event Deposited(address indexed addr,uint indexed amount);\r\n    event Withdrawn(address indexed addr,uint indexed amount);\r\n\r\n    constructor() {\r\n        owner = msg.sender; \r\n        emit OwnerSet(address(0), owner);\r\n        addPool('Bitcoin', 101, 20000);\r\n        addPool('Ether', 1359, 20000);\r\n        addPool('PAX Gold', 1187, 20000);\r\n        //console.log(\"Pool created successfully. Liquidity Provider:\", msg.sender);\r\n    }\r\n\r\n    modifier isOwner() {\r\n        require(msg.sender == owner, \"Caller is not owner\");\r\n        _;\r\n    }\r\n\r\n    modifier inList(string memory cName, int funcName) {\r\n        //Used to validate add pool\r\n        if(funcName == 0){\r\n            bool resultStatus = true;\r\n            for (uint j=0; j<cryptoListNum; j++) {\r\n                if(keccak256(abi.encodePacked(cryptoList[j].cryptoName)) == keccak256(abi.encodePacked(cName))){\r\n                    resultStatus = false;\r\n                    break;\r\n                }\r\n            }\r\n            require(resultStatus, string(abi.encodePacked(\"Cryptocurrency \", cName, \" already exist.\")));\r\n        }\r\n        //Used to validate add amount to pool\r\n        else if(funcName == 1){\r\n            bool resultStatus = false;\r\n            for (uint j=0; j<cryptoListNum; j++) {\r\n                if(keccak256(abi.encodePacked(cryptoList[j].cryptoName)) == keccak256(abi.encodePacked(cName))){\r\n                    resultStatus = true;\r\n                    break;\r\n                }\r\n            }\r\n            require(resultStatus, string(abi.encodePacked(\"Cryptocurrency \", cName, \" is not exist.\")));\r\n        }\r\n        //Used to validate edit pool\r\n        else if(funcName == 2 && bytes(cName).length!=0){\r\n            bool resultStatus = true;\r\n            for (uint j=0; j<cryptoListNum; j++) {\r\n                if(keccak256(abi.encodePacked(cryptoList[j].cryptoName)) == keccak256(abi.encodePacked(cName))){\r\n                    resultStatus = false;\r\n                    break;\r\n                }\r\n            }\r\n            require(resultStatus, string(abi.encodePacked(\"Cryptocurrency \", cName, \" already exist.\")));\r\n        }\r\n        //Used to validate exchange buy and sell crypto\r\n        else if(funcName == 3){\r\n            bool resultStatus = false;\r\n            for (uint j=0; j<cryptoListNum; j++) {\r\n                if(keccak256(abi.encodePacked(cryptoList[j].cryptoName)) == keccak256(abi.encodePacked(cName))){\r\n                    resultStatus = true;\r\n                    require(cryptoList[j].cryptoStatus, string(abi.encodePacked(\"Cryptocurrency \", cName, \" is not available.\")));\r\n                    break;\r\n                }\r\n            }\r\n            require(resultStatus, string(abi.encodePacked(\"Cryptocurrency \", cName, \" is not exist.\")));\r\n        }\r\n        _;\r\n    }\r\n\r\n    function addPool(string memory cName, uint cVal, uint tVal) public isOwner inList(cName, 0){\r\n        if(bytes(cName).length!=0){\r\n            cryptoList[cryptoListNum] = pool(cName, cVal, tVal, true);\r\n            cryptoListNum ++;\r\n        }\r\n        emit PoolValue(cName,cVal,tVal);\r\n    }\r\n\r\n    function getPool(string memory cName) public view returns(pool memory){\r\n        uint j;\r\n        for (j=0; j<cryptoListNum; j++) {\r\n            if(keccak256(abi.encodePacked(cryptoList[j].cryptoName)) == keccak256(abi.encodePacked(cName))) return cryptoList[j];\r\n        }\r\n        return cryptoList[j];\r\n    }\r\n\r\n    function addAmt(string memory cName, int cVal, int tVal) public isOwner inList(cName, 1){\r\n        uint j;\r\n        int tempCVal;\r\n        int tempTVal;\r\n        for (j=0; j<cryptoListNum; j++) {\r\n            if(keccak256(abi.encodePacked(cryptoList[j].cryptoName)) == keccak256(abi.encodePacked(cName))){\r\n                tempCVal = int(cryptoList[j].cryptoAmt);\r\n                tempTVal = int(cryptoList[j].tokenAmt);\r\n                if((tempCVal + cVal)<0){\r\n                    cVal = -tempCVal;\r\n                }\r\n                if((tempTVal + tVal)<0){\r\n                    tVal = -tempTVal;\r\n                }\r\n                cryptoList[j].cryptoAmt =  uint(tempCVal + cVal);\r\n                cryptoList[j].tokenAmt = uint(tempTVal + tVal);\r\n                break;\r\n            }\r\n        }\r\n        emit PoolValue(cName,uint(cVal),uint(tVal));\r\n        //Add write success or fail return/emit\r\n    }\r\n\r\n    // left the newCName empty if no update\r\n    function editPoolDetail(string memory oldCName, string memory newCName, uint cVal, uint tVal, bool pStatus) public isOwner inList(oldCName, 1) inList(newCName, 2){\r\n        uint j;\r\n        for (j=0; j<cryptoListNum; j++) {\r\n            if(keccak256(abi.encodePacked(cryptoList[j].cryptoName)) == keccak256(abi.encodePacked(oldCName))) break;\r\n        }\r\n        if(cVal<0){\r\n            cVal = 0;\r\n        }\r\n        if(tVal<0){\r\n            tVal = 0;\r\n        }\r\n        if(bytes(newCName).length==0){\r\n            newCName = oldCName;\r\n        }\r\n        cryptoList[j].cryptoName = newCName;\r\n        cryptoList[j].cryptoAmt = cVal;\r\n        cryptoList[j].tokenAmt = tVal;\r\n        cryptoList[j].cryptoStatus = pStatus;\r\n        emit PoolValue(newCName,cVal,tVal);\r\n         //Add write success or fail return/emit\r\n    }\r\n\r\n    function listAllPool() public isOwner view returns(pool[] memory){\r\n        pool[] memory tempPool = new pool[](cryptoListNum);\r\n        for(uint j=0; j<cryptoListNum; j++){\r\n            tempPool[j]=cryptoList[j];\r\n        }\r\n        return tempPool;\r\n    }\r\n\r\n    function listAllValidPool() public view returns(pool[] memory){\r\n        pool[] memory tempPool = new pool[](cryptoListNum);\r\n        for(uint j=0; j<cryptoListNum; j++){\r\n            if(cryptoList[j].cryptoStatus == true) tempPool[j]=cryptoList[j];\r\n        }\r\n        return tempPool;\r\n    }\r\n\r\n    // Buy exchangeAmt of cryptoType with X targetCryptoType\r\n    function exchangeBuy(string memory cryptoType, uint exchangeAmt, string memory targetCryptoType) public inList(cryptoType, 3) inList(targetCryptoType, 3) returns(string memory, uint){\r\n        // Exchange cryptoType to token\r\n        uint amtTokenRequired = 0;\r\n        uint j;\r\n        uint i;\r\n        uint y_remain;\r\n        for(j=0; j<cryptoListNum; j++){\r\n            if(keccak256(abi.encodePacked(cryptoList[j].cryptoName)) == keccak256(abi.encodePacked(cryptoType))){\r\n                if(cryptoList[j].cryptoAmt==0 || cryptoList[j].cryptoAmt<exchangeAmt){\r\n                    //console.log(string(abi.encodePacked(\"Cryptocurrency \", cryptoList[j].cryptoName, \" pool is not enough. Maximum amount: \", Strings.toString(cryptoList[j].cryptoAmt))));\r\n                    revert();\r\n                }\r\n                // deduct amout of cryptoType frist to get the amount token required\r\n                // For example buy 10 bitcoin(cryptoType) with ether (targetCryptoType), in here we deduct 10 bitcoin from the pool to calculate the amount of token required.\r\n                y_remain = roundOff(((cryptoList[j].tokenAmt*cryptoList[j].cryptoAmt*decimalPlace)/(cryptoList[j].cryptoAmt-exchangeAmt)));\r\n                amtTokenRequired = y_remain-cryptoList[j].tokenAmt;\r\n                cryptoList[j].tokenAmt = y_remain;\r\n                cryptoList[j].cryptoAmt -= exchangeAmt;\r\n                emit PoolValue(cryptoList[j].cryptoName,cryptoList[j].cryptoAmt,cryptoList[j].tokenAmt);\r\n                break;\r\n            }\r\n        }\r\n\r\n        // Token to targetCryptoType\r\n        uint amtCryptoRequired = 0;\r\n        for(i=0; i<cryptoListNum; i++){\r\n            if(keccak256(abi.encodePacked(cryptoList[i].cryptoName)) == keccak256(abi.encodePacked(targetCryptoType))){\r\n                // decrease the token in the ether (targetCryptoType) pool to calculate how much targetCryptoType we should receive.\r\n                y_remain = roundOff((cryptoList[i].tokenAmt*cryptoList[i].cryptoAmt*decimalPlace)/(cryptoList[i].tokenAmt-amtTokenRequired));\r\n                amtCryptoRequired = y_remain-cryptoList[i].cryptoAmt;\r\n                cryptoList[i].tokenAmt -= amtTokenRequired;\r\n                cryptoList[i].cryptoAmt = y_remain;\r\n                emit PoolValue(cryptoList[i].cryptoName,cryptoList[i].cryptoAmt,cryptoList[i].tokenAmt);\r\n                break;\r\n            }\r\n        }\r\n        \r\n        return (targetCryptoType, amtCryptoRequired);\r\n    }\r\n\r\n    // Sell exchangeAmt of cryptoType to X TargetCryptoType\r\n    function exchangeSell(string memory cryptoType, uint exchangeAmt, string memory targetCryptoType) public inList(cryptoType, 3) inList(targetCryptoType, 3) returns(string memory, uint){\r\n        // Exchange cryptoType to token\r\n        uint poolOut = 0;\r\n        uint i;\r\n        uint j;\r\n        uint y_remain;\r\n        for(j=0; j<cryptoListNum; j++){\r\n            if(keccak256(abi.encodePacked(cryptoList[j].cryptoName)) == keccak256(abi.encodePacked(cryptoType))){\r\n                //                   (           x           *           y          )/(           x           +    ^x     )\r\n                y_remain = roundOff(((cryptoList[j].cryptoAmt*cryptoList[j].tokenAmt*decimalPlace)/(cryptoList[j].cryptoAmt+exchangeAmt)));\r\n                poolOut = cryptoList[j].tokenAmt-y_remain;\r\n                cryptoList[j].tokenAmt = y_remain;\r\n                cryptoList[j].cryptoAmt += exchangeAmt;\r\n                emit PoolValue(cryptoList[j].cryptoName,cryptoList[j].cryptoAmt,cryptoList[j].tokenAmt);\r\n                break;\r\n            }\r\n        }\r\n\r\n        // Token to targetCryptoType\r\n        uint returnAmt = 0;\r\n        for(i=0; i<cryptoListNum; i++){\r\n            if(keccak256(abi.encodePacked(cryptoList[i].cryptoName)) == keccak256(abi.encodePacked(targetCryptoType))){\r\n                if(cryptoList[i].cryptoAmt==0){\r\n                    //console.log(string(abi.encodePacked(\"Cryptocurrency \", cryptoList[i].cryptoName, \" pool is empty.\")));\r\n                    cryptoList[j].tokenAmt += poolOut;\r\n                    cryptoList[j].cryptoAmt -= exchangeAmt;\r\n                    revert();\r\n                }\r\n                //                   (           x          *           y           )/(           x          +   ^x  )\r\n                y_remain = roundOff(((cryptoList[i].tokenAmt*cryptoList[i].cryptoAmt*decimalPlace)/(cryptoList[i].tokenAmt+poolOut)));\r\n                returnAmt = cryptoList[i].cryptoAmt-y_remain;\r\n                cryptoList[i].tokenAmt += poolOut;\r\n                cryptoList[i].cryptoAmt = y_remain;\r\n                emit PoolValue(cryptoList[i].cryptoName,cryptoList[i].cryptoAmt,cryptoList[i].tokenAmt);\r\n                break;\r\n            }\r\n        }\r\n        return (targetCryptoType, returnAmt);\r\n    }\r\n\r\n    function roundOff(uint unprocessedInput) public view returns(uint){\r\n        // 4 decimalPlace, example input 188776261, it will return 18878\r\n        uint input = unprocessedInput;\r\n        uint temp = uint(input/decimalPlace);\r\n        uint tempNet = uint(input-(temp*decimalPlace));\r\n        uint ans = 0;\r\n        if(tempNet >= uint(decimalPlace/2)){\r\n            ans = uint((input+decimalPlace)/decimalPlace);\r\n        }\r\n        else{\r\n            ans = uint(input/decimalPlace);\r\n        }\r\n        return(ans);\r\n    }\r\n}",
  "sourcePath": "c:\\Users\\maste\\OneDrive\\Documents\\Taruc Documents\\Degree\\Y4S1\\Blockchain Application Development\\Project\\Y3S1_Blockchain\\contracts\\DeX.sol",
  "compiler": {
    "name": "solc",
    "version": "0.8.17+commit.8df45f5f.Emscripten.clang"
  },
  "schemaVersion": "3.4.10",
  "updatedAt": "2022-10-02T07:59:24.210Z",
  "networkType": "ethereum",
  "devdoc": {
    "kind": "dev",
    "methods": {},
    "version": 1
  },
  "userdoc": {
    "kind": "user",
    "methods": {},
    "version": 1
  }
}