{
  "contractName": "DeX",
  "abi": [
    {
      "inputs": [],
      "stateMutability": "nonpayable",
      "type": "constructor"
    },
    {
      "anonymous": false,
      "inputs": [
        {
          "indexed": true,
          "internalType": "address",
          "name": "oldOwner",
          "type": "address"
        },
        {
          "indexed": true,
          "internalType": "address",
          "name": "newOwner",
          "type": "address"
        }
      ],
      "name": "OwnerSet",
      "type": "event"
    },
    {
      "anonymous": false,
      "inputs": [
        {
          "indexed": true,
          "internalType": "string",
          "name": "cryptoName",
          "type": "string"
        },
        {
          "indexed": true,
          "internalType": "uint256",
          "name": "cVal",
          "type": "uint256"
        },
        {
          "indexed": true,
          "internalType": "uint256",
          "name": "tVal",
          "type": "uint256"
        }
      ],
      "name": "PoolValue",
      "type": "event"
    },
    {
      "inputs": [
        {
          "internalType": "string",
          "name": "cName",
          "type": "string"
        },
        {
          "internalType": "uint256",
          "name": "cVal",
          "type": "uint256"
        },
        {
          "internalType": "uint256",
          "name": "tVal",
          "type": "uint256"
        }
      ],
      "name": "addPool",
      "outputs": [],
      "stateMutability": "nonpayable",
      "type": "function"
    },
    {
      "inputs": [
        {
          "internalType": "string",
          "name": "cName",
          "type": "string"
        }
      ],
      "name": "getPool",
      "outputs": [
        {
          "components": [
            {
              "internalType": "string",
              "name": "cryptoName",
              "type": "string"
            },
            {
              "internalType": "uint256",
              "name": "cryptoAmt",
              "type": "uint256"
            },
            {
              "internalType": "uint256",
              "name": "tokenAmt",
              "type": "uint256"
            },
            {
              "internalType": "bool",
              "name": "cryptoStatus",
              "type": "bool"
            }
          ],
          "internalType": "struct DeX.pool",
          "name": "",
          "type": "tuple"
        }
      ],
      "stateMutability": "view",
      "type": "function",
      "constant": true
    },
    {
      "inputs": [
        {
          "internalType": "string",
          "name": "cName",
          "type": "string"
        },
        {
          "internalType": "int256",
          "name": "cVal",
          "type": "int256"
        },
        {
          "internalType": "int256",
          "name": "tVal",
          "type": "int256"
        }
      ],
      "name": "addAmt",
      "outputs": [],
      "stateMutability": "nonpayable",
      "type": "function"
    },
    {
      "inputs": [
        {
          "internalType": "string",
          "name": "oldCName",
          "type": "string"
        },
        {
          "internalType": "string",
          "name": "newCName",
          "type": "string"
        },
        {
          "internalType": "uint256",
          "name": "cVal",
          "type": "uint256"
        },
        {
          "internalType": "uint256",
          "name": "tVal",
          "type": "uint256"
        },
        {
          "internalType": "bool",
          "name": "pStatus",
          "type": "bool"
        }
      ],
      "name": "editPoolDetail",
      "outputs": [],
      "stateMutability": "nonpayable",
      "type": "function"
    },
    {
      "inputs": [],
      "name": "listAllPool",
      "outputs": [
        {
          "components": [
            {
              "internalType": "string",
              "name": "cryptoName",
              "type": "string"
            },
            {
              "internalType": "uint256",
              "name": "cryptoAmt",
              "type": "uint256"
            },
            {
              "internalType": "uint256",
              "name": "tokenAmt",
              "type": "uint256"
            },
            {
              "internalType": "bool",
              "name": "cryptoStatus",
              "type": "bool"
            }
          ],
          "internalType": "struct DeX.pool[]",
          "name": "",
          "type": "tuple[]"
        }
      ],
      "stateMutability": "view",
      "type": "function",
      "constant": true
    },
    {
      "inputs": [],
      "name": "listAllValidPool",
      "outputs": [
        {
          "components": [
            {
              "internalType": "string",
              "name": "cryptoName",
              "type": "string"
            },
            {
              "internalType": "uint256",
              "name": "cryptoAmt",
              "type": "uint256"
            },
            {
              "internalType": "uint256",
              "name": "tokenAmt",
              "type": "uint256"
            },
            {
              "internalType": "bool",
              "name": "cryptoStatus",
              "type": "bool"
            }
          ],
          "internalType": "struct DeX.pool[]",
          "name": "",
          "type": "tuple[]"
        }
      ],
      "stateMutability": "view",
      "type": "function",
      "constant": true
    },
    {
      "inputs": [
        {
          "internalType": "string",
          "name": "cryptoType",
          "type": "string"
        },
        {
          "internalType": "uint256",
          "name": "exchangeAmt",
          "type": "uint256"
        },
        {
          "internalType": "string",
          "name": "targetCryptoType",
          "type": "string"
        }
      ],
      "name": "exchangeBuy",
      "outputs": [
        {
          "internalType": "string",
          "name": "",
          "type": "string"
        },
        {
          "internalType": "uint256",
          "name": "",
          "type": "uint256"
        }
      ],
      "stateMutability": "nonpayable",
      "type": "function"
    },
    {
      "inputs": [
        {
          "internalType": "string",
          "name": "cryptoType",
          "type": "string"
        },
        {
          "internalType": "uint256",
          "name": "exchangeAmt",
          "type": "uint256"
        },
        {
          "internalType": "string",
          "name": "targetCryptoType",
          "type": "string"
        }
      ],
      "name": "exchangeSell",
      "outputs": [
        {
          "internalType": "string",
          "name": "",
          "type": "string"
        },
        {
          "internalType": "uint256",
          "name": "",
          "type": "uint256"
        }
      ],
      "stateMutability": "nonpayable",
      "type": "function"
    }
  ],
  "bytecode": "0x608060405260006002553480156200001657600080fd5b50336000806101000a81548173ffffffffffffffffffffffffffffffffffffffff021916908373ffffffffffffffffffffffffffffffffffffffff16021790555060008054906101000a900473ffffffffffffffffffffffffffffffffffffffff1673ffffffffffffffffffffffffffffffffffffffff16600073ffffffffffffffffffffffffffffffffffffffff167f342827c97908e5e2f71151c08502a66d44b6f758e3ac2f1de95f02eb95f0a73560405160405180910390a36200011d6040518060400160405280600781526020017f426974636f696e000000000000000000000000000000000000000000000000008152506065614e20620001bb60201b60201c565b620001696040518060400160405280600581526020017f457468657200000000000000000000000000000000000000000000000000000081525061054f614e20620001bb60201b60201c565b620001b56040518060400160405280600881526020017f50415820476f6c640000000000000000000000000000000000000000000000008152506104a3614e20620001bb60201b60201c565b6200101d565b60008054906101000a900473ffffffffffffffffffffffffffffffffffffffff1673ffffffffffffffffffffffffffffffffffffffff163373ffffffffffffffffffffffffffffffffffffffff16146200024c576040517f08c379a00000000000000000000000000000000000000000000000000000000081526004016200024390620008a0565b60405180910390fd5b826000808103620003685760006001905060005b600254811015620002f857836040516020016200027e91906200093b565b6040516020818303038152906040528051906020012060016000838152602001908152602001600020600001604051602001620002bc919062000a5c565b6040516020818303038152906040528051906020012003620002e25760009150620002f8565b8080620002ef9062000aae565b91505062000260565b5080836040516020016200030d919062000b9b565b6040516020818303038152906040529062000360576040517f08c379a000000000000000000000000000000000000000000000000000000000815260040162000357919062000c20565b60405180910390fd5b505062000745565b600181036200047d576000805b6002548110156200040d57836040516020016200039391906200093b565b6040516020818303038152906040528051906020012060016000838152602001908152602001600020600001604051602001620003d1919062000a5c565b6040516020818303038152906040528051906020012003620003f757600191506200040d565b8080620004049062000aae565b91505062000375565b50808360405160200162000422919062000c94565b6040516020818303038152906040529062000475576040517f08c379a00000000000000000000000000000000000000000000000000000000081526004016200046c919062000c20565b60405180910390fd5b505062000744565b6002811480156200049057506000825114155b15620005a75760006001905060005b600254811015620005375783604051602001620004bd91906200093b565b6040516020818303038152906040528051906020012060016000838152602001908152602001600020600001604051602001620004fb919062000a5c565b604051602081830303815290604052805190602001200362000521576000915062000537565b80806200052e9062000aae565b9150506200049f565b5080836040516020016200054c919062000b9b565b604051602081830303815290604052906200059f576040517f08c379a000000000000000000000000000000000000000000000000000000000815260040162000596919062000c20565b60405180910390fd5b505062000743565b6003810362000742576000805b600254811015620006d75783604051602001620005d291906200093b565b604051602081830303815290604052805190602001206001600083815260200190815260200160002060000160405160200162000610919062000a5c565b6040516020818303038152906040528051906020012003620006c157600191506001600082815260200190815260200160002060030160009054906101000a900460ff168460405160200162000667919062000d17565b60405160208183030381529060405290620006ba576040517f08c379a0000000000000000000000000000000000000000000000000000000008152600401620006b1919062000c20565b60405180910390fd5b50620006d7565b8080620006ce9062000aae565b915050620005b4565b508083604051602001620006ec919062000c94565b604051602081830303815290604052906200073f576040517f08c379a000000000000000000000000000000000000000000000000000000000815260040162000736919062000c20565b60405180910390fd5b50505b5b5b5b6000855114620007f25760405180608001604052808681526020018581526020018481526020016001151581525060016000600254815260200190815260200160002060008201518160000190816200079f919062000f36565b50602082015181600101556040820151816002015560608201518160030160006101000a81548160ff02191690831515021790555090505060026000815480929190620007ec9062000aae565b91905055505b8284866040516200080491906200093b565b60405180910390207f1c3e2c51276ce91148db2972b4614c440d1eff2734afc30a9b675564428f62ef60405160405180910390a45050505050565b600082825260208201905092915050565b7f43616c6c6572206973206e6f74206f776e657200000000000000000000000000600082015250565b6000620008886013836200083f565b9150620008958262000850565b602082019050919050565b60006020820190508181036000830152620008bb8162000879565b9050919050565b600081519050919050565b600081905092915050565b60005b83811015620008f8578082015181840152602081019050620008db565b60008484015250505050565b60006200091182620008c2565b6200091d8185620008cd565b93506200092f818560208601620008d8565b80840191505092915050565b600062000949828462000904565b915081905092915050565b7f4e487b7100000000000000000000000000000000000000000000000000000000600052602260045260246000fd5b600060028204905060018216806200099c57607f821691505b602082108103620009b257620009b162000954565b5b50919050565b60008190508160005260206000209050919050565b60008154620009dc8162000983565b620009e88186620008cd565b9450600182166000811462000a06576001811462000a1c5762000a53565b60ff198316865281151582028601935062000a53565b62000a2785620009b8565b60005b8381101562000a4b5781548189015260018201915060208101905062000a2a565b838801955050505b50505092915050565b600062000a6a8284620009cd565b915081905092915050565b7f4e487b7100000000000000000000000000000000000000000000000000000000600052601160045260246000fd5b6000819050919050565b600062000abb8262000aa4565b91507fffffffffffffffffffffffffffffffffffffffffffffffffffffffffffffffff820362000af05762000aef62000a75565b5b600182019050919050565b7f43727970746f63757272656e6379200000000000000000000000000000000000600082015250565b600062000b33600f83620008cd565b915062000b408262000afb565b600f82019050919050565b7f20616c72656164792065786973742e0000000000000000000000000000000000600082015250565b600062000b83600f83620008cd565b915062000b908262000b4b565b600f82019050919050565b600062000ba88262000b24565b915062000bb6828462000904565b915062000bc38262000b74565b915081905092915050565b6000601f19601f8301169050919050565b600062000bec82620008c2565b62000bf881856200083f565b935062000c0a818560208601620008d8565b62000c158162000bce565b840191505092915050565b6000602082019050818103600083015262000c3c818462000bdf565b905092915050565b7f206973206e6f742065786973742e000000000000000000000000000000000000600082015250565b600062000c7c600e83620008cd565b915062000c898262000c44565b600e82019050919050565b600062000ca18262000b24565b915062000caf828462000904565b915062000cbc8262000c6d565b915081905092915050565b7f206973206e6f7420617661696c61626c652e0000000000000000000000000000600082015250565b600062000cff601283620008cd565b915062000d0c8262000cc7565b601282019050919050565b600062000d248262000b24565b915062000d32828462000904565b915062000d3f8262000cf0565b915081905092915050565b7f4e487b7100000000000000000000000000000000000000000000000000000000600052604160045260246000fd5b60006020601f8301049050919050565b600082821b905092915050565b60006008830262000dc87fffffffffffffffffffffffffffffffffffffffffffffffffffffffffffffffff8262000d89565b62000dd4868362000d89565b95508019841693508086168417925050509392505050565b6000819050919050565b600062000e1762000e1162000e0b8462000aa4565b62000dec565b62000aa4565b9050919050565b6000819050919050565b62000e338362000df6565b62000e4b62000e428262000e1e565b84845462000d96565b825550505050565b600090565b62000e6262000e53565b62000e6f81848462000e28565b505050565b5b8181101562000e975762000e8b60008262000e58565b60018101905062000e75565b5050565b601f82111562000ee65762000eb081620009b8565b62000ebb8462000d79565b8101602085101562000ecb578190505b62000ee362000eda8562000d79565b83018262000e74565b50505b505050565b600082821c905092915050565b600062000f0b6000198460080262000eeb565b1980831691505092915050565b600062000f26838362000ef8565b9150826002028217905092915050565b62000f4182620008c2565b67ffffffffffffffff81111562000f5d5762000f5c62000d4a565b5b62000f69825462000983565b62000f7682828562000e9b565b600060209050601f83116001811462000fae576000841562000f99578287015190505b62000fa5858262000f18565b86555062001015565b601f19841662000fbe86620009b8565b60005b8281101562000fe85784890151825560018201915060208501945060208101905062000fc1565b8683101562001008578489015162001004601f89168262000ef8565b8355505b6001600288020188555050505b505050505050565b614bf0806200102d6000396000f3fe608060405234801561001057600080fd5b50600436106100885760003560e01c8063ba0d181b1161005b578063ba0d181b1461013b578063bf9b12b914610159578063e7710f6814610175578063fc81792a1461019357610088565b806341d7b0261461008d57806376a38cd6146100bd5780638012cf5c146100d9578063b1fc4dc61461010a575b600080fd5b6100a760048036038101906100a29190613d73565b6101af565b6040516100b49190613ed2565b60405180910390f35b6100d760048036038101906100d29190613f20565b61040e565b005b6100f360048036038101906100ee9190613f8f565b610a3f565b604051610101929190614073565b60405180910390f35b610124600480360381019061011f9190613f8f565b611826565b604051610132929190614073565b60405180910390f35b6101436125d5565b60405161015091906141c8565b60405180910390f35b610173600480360381019061016e9190614216565b6127e4565b005b61017d61335e565b60405161018a91906141c8565b60405180910390f35b6101ad60048036038101906101a891906142ff565b61350f565b005b6101b7613bef565b60005b60025481101561032657826040516020016101d591906143aa565b604051602081830303815290604052805190602001206001600083815260200190815260200160002060000160405160200161021191906144b9565b6040516020818303038152906040528051906020012003610313576001600082815260200190815260200160002060405180608001604052908160008201805461025a906143f0565b80601f0160208091040260200160405190810160405280929190818152602001828054610286906143f0565b80156102d35780601f106102a8576101008083540402835291602001916102d3565b820191906000526020600020905b8154815290600101906020018083116102b657829003601f168201915b5050505050815260200160018201548152602001600282015481526020016003820160009054906101000a900460ff161515151581525050915050610409565b808061031e906144ff565b9150506101ba565b60016000828152602001908152602001600020604051806080016040529081600082018054610354906143f0565b80601f0160208091040260200160405190810160405280929190818152602001828054610380906143f0565b80156103cd5780601f106103a2576101008083540402835291602001916103cd565b820191906000526020600020905b8154815290600101906020018083116103b057829003601f168201915b5050505050815260200160018201548152602001600282015481526020016003820160009054906101000a900460ff1615151515815250509150505b919050565b60008054906101000a900473ffffffffffffffffffffffffffffffffffffffff1673ffffffffffffffffffffffffffffffffffffffff163373ffffffffffffffffffffffffffffffffffffffff161461049c576040517f08c379a000000000000000000000000000000000000000000000000000000000815260040161049390614593565b60405180910390fd5b8260008081036105a75760006001905060005b60025481101561053d57836040516020016104ca91906143aa565b604051602081830303815290604052805190602001206001600083815260200190815260200160002060000160405160200161050691906144b9565b604051602081830303815290604052805190602001200361052a576000915061053d565b8080610535906144ff565b9150506104af565b508083604051602001610550919061464b565b604051602081830303815290604052906105a0576040517f08c379a00000000000000000000000000000000000000000000000000000000081526004016105979190614678565b60405180910390fd5b505061094c565b600181036106ab576000805b60025481101561064157836040516020016105ce91906143aa565b604051602081830303815290604052805190602001206001600083815260200190815260200160002060000160405160200161060a91906144b9565b604051602081830303815290604052805190602001200361062e5760019150610641565b8080610639906144ff565b9150506105b3565b50808360405160200161065491906146e6565b604051602081830303815290604052906106a4576040517f08c379a000000000000000000000000000000000000000000000000000000000815260040161069b9190614678565b60405180910390fd5b505061094b565b6002811480156106bd57506000825114155b156107c35760006001905060005b60025481101561075957836040516020016106e691906143aa565b604051602081830303815290604052805190602001206001600083815260200190815260200160002060000160405160200161072291906144b9565b60405160208183030381529060405280519060200120036107465760009150610759565b8080610751906144ff565b9150506106cb565b50808360405160200161076c919061464b565b604051602081830303815290604052906107bc576040517f08c379a00000000000000000000000000000000000000000000000000000000081526004016107b39190614678565b60405180910390fd5b505061094a565b60038103610949576000805b6002548110156108e357836040516020016107ea91906143aa565b604051602081830303815290604052805190602001206001600083815260200190815260200160002060000160405160200161082691906144b9565b60405160208183030381529060405280519060200120036108d057600191506001600082815260200190815260200160002060030160009054906101000a900460ff168460405160200161087a919061475f565b604051602081830303815290604052906108ca576040517f08c379a00000000000000000000000000000000000000000000000000000000081526004016108c19190614678565b60405180910390fd5b506108e3565b80806108db906144ff565b9150506107cf565b5080836040516020016108f691906146e6565b60405160208183030381529060405290610946576040517f08c379a000000000000000000000000000000000000000000000000000000000815260040161093d9190614678565b60405180910390fd5b50505b5b5b5b60008551146109f45760405180608001604052808681526020018581526020018481526020016001151581525060016000600254815260200190815260200160002060008201518160000190816109a39190614923565b50602082015181600101556040820151816002015560608201518160030160006101000a81548160ff021916908315150217905550905050600260008154809291906109ee906144ff565b91905055505b828486604051610a0491906143aa565b60405180910390207f1c3e2c51276ce91148db2972b4614c440d1eff2734afc30a9b675564428f62ef60405160405180910390a45050505050565b6060600084600360008103610b4f5760006001905060005b600254811015610ae55783604051602001610a7291906143aa565b6040516020818303038152906040528051906020012060016000838152602001908152602001600020600001604051602001610aae91906144b9565b6040516020818303038152906040528051906020012003610ad25760009150610ae5565b8080610add906144ff565b915050610a57565b508083604051602001610af8919061464b565b60405160208183030381529060405290610b48576040517f08c379a0000000000000000000000000000000000000000000000000000000008152600401610b3f9190614678565b60405180910390fd5b5050610ef4565b60018103610c53576000805b600254811015610be95783604051602001610b7691906143aa565b6040516020818303038152906040528051906020012060016000838152602001908152602001600020600001604051602001610bb291906144b9565b6040516020818303038152906040528051906020012003610bd65760019150610be9565b8080610be1906144ff565b915050610b5b565b508083604051602001610bfc91906146e6565b60405160208183030381529060405290610c4c576040517f08c379a0000000000000000000000000000000000000000000000000000000008152600401610c439190614678565b60405180910390fd5b5050610ef3565b600281148015610c6557506000825114155b15610d6b5760006001905060005b600254811015610d015783604051602001610c8e91906143aa565b6040516020818303038152906040528051906020012060016000838152602001908152602001600020600001604051602001610cca91906144b9565b6040516020818303038152906040528051906020012003610cee5760009150610d01565b8080610cf9906144ff565b915050610c73565b508083604051602001610d14919061464b565b60405160208183030381529060405290610d64576040517f08c379a0000000000000000000000000000000000000000000000000000000008152600401610d5b9190614678565b60405180910390fd5b5050610ef2565b60038103610ef1576000805b600254811015610e8b5783604051602001610d9291906143aa565b6040516020818303038152906040528051906020012060016000838152602001908152602001600020600001604051602001610dce91906144b9565b6040516020818303038152906040528051906020012003610e7857600191506001600082815260200190815260200160002060030160009054906101000a900460ff1684604051602001610e22919061475f565b60405160208183030381529060405290610e72576040517f08c379a0000000000000000000000000000000000000000000000000000000008152600401610e699190614678565b60405180910390fd5b50610e8b565b8080610e83906144ff565b915050610d77565b508083604051602001610e9e91906146e6565b60405160208183030381529060405290610eee576040517f08c379a0000000000000000000000000000000000000000000000000000000008152600401610ee59190614678565b60405180910390fd5b50505b5b5b5b846003600081036110005760006001905060005b600254811015610f965783604051602001610f2391906143aa565b6040516020818303038152906040528051906020012060016000838152602001908152602001600020600001604051602001610f5f91906144b9565b6040516020818303038152906040528051906020012003610f835760009150610f96565b8080610f8e906144ff565b915050610f08565b508083604051602001610fa9919061464b565b60405160208183030381529060405290610ff9576040517f08c379a0000000000000000000000000000000000000000000000000000000008152600401610ff09190614678565b60405180910390fd5b50506113a5565b60018103611104576000805b60025481101561109a578360405160200161102791906143aa565b604051602081830303815290604052805190602001206001600083815260200190815260200160002060000160405160200161106391906144b9565b6040516020818303038152906040528051906020012003611087576001915061109a565b8080611092906144ff565b91505061100c565b5080836040516020016110ad91906146e6565b604051602081830303815290604052906110fd576040517f08c379a00000000000000000000000000000000000000000000000000000000081526004016110f49190614678565b60405180910390fd5b50506113a4565b60028114801561111657506000825114155b1561121c5760006001905060005b6002548110156111b2578360405160200161113f91906143aa565b604051602081830303815290604052805190602001206001600083815260200190815260200160002060000160405160200161117b91906144b9565b604051602081830303815290604052805190602001200361119f57600091506111b2565b80806111aa906144ff565b915050611124565b5080836040516020016111c5919061464b565b60405160208183030381529060405290611215576040517f08c379a000000000000000000000000000000000000000000000000000000000815260040161120c9190614678565b60405180910390fd5b50506113a3565b600381036113a2576000805b60025481101561133c578360405160200161124391906143aa565b604051602081830303815290604052805190602001206001600083815260200190815260200160002060000160405160200161127f91906144b9565b604051602081830303815290604052805190602001200361132957600191506001600082815260200190815260200160002060030160009054906101000a900460ff16846040516020016112d3919061475f565b60405160208183030381529060405290611323576040517f08c379a000000000000000000000000000000000000000000000000000000000815260040161131a9190614678565b60405180910390fd5b5061133c565b8080611334906144ff565b915050611228565b50808360405160200161134f91906146e6565b6040516020818303038152906040529061139f576040517f08c379a00000000000000000000000000000000000000000000000000000000081526004016113969190614678565b60405180910390fd5b50505b5b5b5b60008080600090505b60025481101561159e578b6040516020016113c991906143aa565b604051602081830303815290604052805190602001206001600083815260200190815260200160002060000160405160200161140591906144b9565b604051602081830303815290604052805190602001200361158b578a600160008381526020019081526020016000206001015461144291906149f5565b6001600083815260200190815260200160002060010154600160008481526020019081526020016000206002015461147a9190614a29565b6114849190614a9a565b60016000838152602001908152602001600020600201546114a59190614acb565b9250826001600083815260200190815260200160002060020160008282546114cd9190614acb565b925050819055508a6001600083815260200190815260200160002060010160008282546114fa91906149f5565b92505081905550600160008281526020019081526020016000206002015460016000838152602001908152602001600020600101546001600084815260200190815260200160002060000160405161155291906144b9565b60405180910390207f1c3e2c51276ce91148db2972b4614c440d1eff2734afc30a9b675564428f62ef60405160405180910390a461159e565b8080611596906144ff565b9150506113ae565b60008092505b600254831015611810578a6040516020016115bf91906143aa565b60405160208183030381529060405280519060200120600160008581526020019081526020016000206000016040516020016115fb91906144b9565b60405160208183030381529060405280519060200120036117fd576000600160008581526020019081526020016000206001015403611692578360016000848152602001908152602001600020600201600082825461165a91906149f5565b925050819055508b6001600084815260200190815260200160002060010160008282546116879190614acb565b925050819055600080fd5b8360016000858152602001908152602001600020600201546116b491906149f5565b600160008581526020019081526020016000206001015460016000868152602001908152602001600020600201546116ec9190614a29565b6116f69190614a9a565b60016000858152602001908152602001600020600101546117179190614acb565b90508360016000858152602001908152602001600020600201600082825461173f91906149f5565b925050819055508060016000858152602001908152602001600020600101600082825461176c9190614acb565b9250508190555060016000848152602001908152602001600020600201546001600085815260200190815260200160002060010154600160008681526020019081526020016000206000016040516117c491906144b9565b60405180910390207f1c3e2c51276ce91148db2972b4614c440d1eff2734afc30a9b675564428f62ef60405160405180910390a4611810565b8280611808906144ff565b9350506115a4565b8a81995099505050505050505050935093915050565b60606000846003600081036119365760006001905060005b6002548110156118cc578360405160200161185991906143aa565b604051602081830303815290604052805190602001206001600083815260200190815260200160002060000160405160200161189591906144b9565b60405160208183030381529060405280519060200120036118b957600091506118cc565b80806118c4906144ff565b91505061183e565b5080836040516020016118df919061464b565b6040516020818303038152906040529061192f576040517f08c379a00000000000000000000000000000000000000000000000000000000081526004016119269190614678565b60405180910390fd5b5050611cdb565b60018103611a3a576000805b6002548110156119d0578360405160200161195d91906143aa565b604051602081830303815290604052805190602001206001600083815260200190815260200160002060000160405160200161199991906144b9565b60405160208183030381529060405280519060200120036119bd57600191506119d0565b80806119c8906144ff565b915050611942565b5080836040516020016119e391906146e6565b60405160208183030381529060405290611a33576040517f08c379a0000000000000000000000000000000000000000000000000000000008152600401611a2a9190614678565b60405180910390fd5b5050611cda565b600281148015611a4c57506000825114155b15611b525760006001905060005b600254811015611ae85783604051602001611a7591906143aa565b6040516020818303038152906040528051906020012060016000838152602001908152602001600020600001604051602001611ab191906144b9565b6040516020818303038152906040528051906020012003611ad55760009150611ae8565b8080611ae0906144ff565b915050611a5a565b508083604051602001611afb919061464b565b60405160208183030381529060405290611b4b576040517f08c379a0000000000000000000000000000000000000000000000000000000008152600401611b429190614678565b60405180910390fd5b5050611cd9565b60038103611cd8576000805b600254811015611c725783604051602001611b7991906143aa565b6040516020818303038152906040528051906020012060016000838152602001908152602001600020600001604051602001611bb591906144b9565b6040516020818303038152906040528051906020012003611c5f57600191506001600082815260200190815260200160002060030160009054906101000a900460ff1684604051602001611c09919061475f565b60405160208183030381529060405290611c59576040517f08c379a0000000000000000000000000000000000000000000000000000000008152600401611c509190614678565b60405180910390fd5b50611c72565b8080611c6a906144ff565b915050611b5e565b508083604051602001611c8591906146e6565b60405160208183030381529060405290611cd5576040517f08c379a0000000000000000000000000000000000000000000000000000000008152600401611ccc9190614678565b60405180910390fd5b50505b5b5b5b84600360008103611de75760006001905060005b600254811015611d7d5783604051602001611d0a91906143aa565b6040516020818303038152906040528051906020012060016000838152602001908152602001600020600001604051602001611d4691906144b9565b6040516020818303038152906040528051906020012003611d6a5760009150611d7d565b8080611d75906144ff565b915050611cef565b508083604051602001611d90919061464b565b60405160208183030381529060405290611de0576040517f08c379a0000000000000000000000000000000000000000000000000000000008152600401611dd79190614678565b60405180910390fd5b505061218c565b60018103611eeb576000805b600254811015611e815783604051602001611e0e91906143aa565b6040516020818303038152906040528051906020012060016000838152602001908152602001600020600001604051602001611e4a91906144b9565b6040516020818303038152906040528051906020012003611e6e5760019150611e81565b8080611e79906144ff565b915050611df3565b508083604051602001611e9491906146e6565b60405160208183030381529060405290611ee4576040517f08c379a0000000000000000000000000000000000000000000000000000000008152600401611edb9190614678565b60405180910390fd5b505061218b565b600281148015611efd57506000825114155b156120035760006001905060005b600254811015611f995783604051602001611f2691906143aa565b6040516020818303038152906040528051906020012060016000838152602001908152602001600020600001604051602001611f6291906144b9565b6040516020818303038152906040528051906020012003611f865760009150611f99565b8080611f91906144ff565b915050611f0b565b508083604051602001611fac919061464b565b60405160208183030381529060405290611ffc576040517f08c379a0000000000000000000000000000000000000000000000000000000008152600401611ff39190614678565b60405180910390fd5b505061218a565b60038103612189576000805b600254811015612123578360405160200161202a91906143aa565b604051602081830303815290604052805190602001206001600083815260200190815260200160002060000160405160200161206691906144b9565b604051602081830303815290604052805190602001200361211057600191506001600082815260200190815260200160002060030160009054906101000a900460ff16846040516020016120ba919061475f565b6040516020818303038152906040529061210a576040517f08c379a00000000000000000000000000000000000000000000000000000000081526004016121019190614678565b60405180910390fd5b50612123565b808061211b906144ff565b91505061200f565b50808360405160200161213691906146e6565b60405160208183030381529060405290612186576040517f08c379a000000000000000000000000000000000000000000000000000000000815260040161217d9190614678565b60405180910390fd5b50505b5b5b5b60008080600091505b6002548210156123c9578b6040516020016121b091906143aa565b60405160208183030381529060405280519060200120600160008481526020019081526020016000206000016040516020016121ec91906144b9565b60405160208183030381529060405280519060200120036123b65760006001600084815260200190815260200160002060010154148061224157508a6001600084815260200190815260200160002060010154105b1561224b57600080fd5b60016000838152602001908152602001600020600201548b60016000858152602001908152602001600020600101546122849190614acb565b600160008581526020019081526020016000206001015460016000868152602001908152602001600020600201546122bc9190614a29565b6122c69190614a9a565b6122d09190614acb565b9250826001600084815260200190815260200160002060020160008282546122f89190614acb565b925050819055508a60016000848152602001908152602001600020600101600082825461232591906149f5565b92505081905550600160008381526020019081526020016000206002015460016000848152602001908152602001600020600101546001600085815260200190815260200160002060000160405161237d91906144b9565b60405180910390207f1c3e2c51276ce91148db2972b4614c440d1eff2734afc30a9b675564428f62ef60405160405180910390a46123c9565b81806123c1906144ff565b925050612195565b60008091505b6002548210156125bf578a6040516020016123ea91906143aa565b604051602081830303815290604052805190602001206001600084815260200190815260200160002060000160405160200161242691906144b9565b60405160208183030381529060405280519060200120036125ac57600160008381526020019081526020016000206001015484600160008581526020019081526020016000206002015461247a9190614acb565b600160008581526020019081526020016000206001015460016000868152602001908152602001600020600201546124b29190614a29565b6124bc9190614a9a565b6124c69190614acb565b9050836001600084815260200190815260200160002060020160008282546124ee91906149f5565b925050819055508060016000848152602001908152602001600020600101600082825461251b9190614acb565b92505081905550600160008381526020019081526020016000206002015460016000848152602001908152602001600020600101546001600085815260200190815260200160002060000160405161257391906144b9565b60405180910390207f1c3e2c51276ce91148db2972b4614c440d1eff2734afc30a9b675564428f62ef60405160405180910390a46125bf565b81806125b7906144ff565b9250506123cf565b8a81995099505050505050505050935093915050565b606060008054906101000a900473ffffffffffffffffffffffffffffffffffffffff1673ffffffffffffffffffffffffffffffffffffffff163373ffffffffffffffffffffffffffffffffffffffff1614612665576040517f08c379a000000000000000000000000000000000000000000000000000000000815260040161265c90614593565b60405180910390fd5b600060025467ffffffffffffffff81111561268357612682613c48565b5b6040519080825280602002602001820160405280156126bc57816020015b6126a9613bef565b8152602001906001900390816126a15790505b50905060005b6002548110156127dc57600160008281526020019081526020016000206040518060800160405290816000820180546126fa906143f0565b80601f0160208091040260200160405190810160405280929190818152602001828054612726906143f0565b80156127735780601f1061274857610100808354040283529160200191612773565b820191906000526020600020905b81548152906001019060200180831161275657829003601f168201915b5050505050815260200160018201548152602001600282015481526020016003820160009054906101000a900460ff1615151515815250508282815181106127be576127bd614aff565b5b602002602001018190525080806127d4906144ff565b9150506126c2565b508091505090565b60008054906101000a900473ffffffffffffffffffffffffffffffffffffffff1673ffffffffffffffffffffffffffffffffffffffff163373ffffffffffffffffffffffffffffffffffffffff1614612872576040517f08c379a000000000000000000000000000000000000000000000000000000000815260040161286990614593565b60405180910390fd5b8460016000810361297e5760006001905060005b60025481101561291457836040516020016128a191906143aa565b60405160208183030381529060405280519060200120600160008381526020019081526020016000206000016040516020016128dd91906144b9565b60405160208183030381529060405280519060200120036129015760009150612914565b808061290c906144ff565b915050612886565b508083604051602001612927919061464b565b60405160208183030381529060405290612977576040517f08c379a000000000000000000000000000000000000000000000000000000000815260040161296e9190614678565b60405180910390fd5b5050612d23565b60018103612a82576000805b600254811015612a1857836040516020016129a591906143aa565b60405160208183030381529060405280519060200120600160008381526020019081526020016000206000016040516020016129e191906144b9565b6040516020818303038152906040528051906020012003612a055760019150612a18565b8080612a10906144ff565b91505061298a565b508083604051602001612a2b91906146e6565b60405160208183030381529060405290612a7b576040517f08c379a0000000000000000000000000000000000000000000000000000000008152600401612a729190614678565b60405180910390fd5b5050612d22565b600281148015612a9457506000825114155b15612b9a5760006001905060005b600254811015612b305783604051602001612abd91906143aa565b6040516020818303038152906040528051906020012060016000838152602001908152602001600020600001604051602001612af991906144b9565b6040516020818303038152906040528051906020012003612b1d5760009150612b30565b8080612b28906144ff565b915050612aa2565b508083604051602001612b43919061464b565b60405160208183030381529060405290612b93576040517f08c379a0000000000000000000000000000000000000000000000000000000008152600401612b8a9190614678565b60405180910390fd5b5050612d21565b60038103612d20576000805b600254811015612cba5783604051602001612bc191906143aa565b6040516020818303038152906040528051906020012060016000838152602001908152602001600020600001604051602001612bfd91906144b9565b6040516020818303038152906040528051906020012003612ca757600191506001600082815260200190815260200160002060030160009054906101000a900460ff1684604051602001612c51919061475f565b60405160208183030381529060405290612ca1576040517f08c379a0000000000000000000000000000000000000000000000000000000008152600401612c989190614678565b60405180910390fd5b50612cba565b8080612cb2906144ff565b915050612ba6565b508083604051602001612ccd91906146e6565b60405160208183030381529060405290612d1d576040517f08c379a0000000000000000000000000000000000000000000000000000000008152600401612d149190614678565b60405180910390fd5b50505b5b5b5b85600260008103612e2f5760006001905060005b600254811015612dc55783604051602001612d5291906143aa565b6040516020818303038152906040528051906020012060016000838152602001908152602001600020600001604051602001612d8e91906144b9565b6040516020818303038152906040528051906020012003612db25760009150612dc5565b8080612dbd906144ff565b915050612d37565b508083604051602001612dd8919061464b565b60405160208183030381529060405290612e28576040517f08c379a0000000000000000000000000000000000000000000000000000000008152600401612e1f9190614678565b60405180910390fd5b50506131d4565b60018103612f33576000805b600254811015612ec95783604051602001612e5691906143aa565b6040516020818303038152906040528051906020012060016000838152602001908152602001600020600001604051602001612e9291906144b9565b6040516020818303038152906040528051906020012003612eb65760019150612ec9565b8080612ec1906144ff565b915050612e3b565b508083604051602001612edc91906146e6565b60405160208183030381529060405290612f2c576040517f08c379a0000000000000000000000000000000000000000000000000000000008152600401612f239190614678565b60405180910390fd5b50506131d3565b600281148015612f4557506000825114155b1561304b5760006001905060005b600254811015612fe15783604051602001612f6e91906143aa565b6040516020818303038152906040528051906020012060016000838152602001908152602001600020600001604051602001612faa91906144b9565b6040516020818303038152906040528051906020012003612fce5760009150612fe1565b8080612fd9906144ff565b915050612f53565b508083604051602001612ff4919061464b565b60405160208183030381529060405290613044576040517f08c379a000000000000000000000000000000000000000000000000000000000815260040161303b9190614678565b60405180910390fd5b50506131d2565b600381036131d1576000805b60025481101561316b578360405160200161307291906143aa565b60405160208183030381529060405280519060200120600160008381526020019081526020016000206000016040516020016130ae91906144b9565b604051602081830303815290604052805190602001200361315857600191506001600082815260200190815260200160002060030160009054906101000a900460ff1684604051602001613102919061475f565b60405160208183030381529060405290613152576040517f08c379a00000000000000000000000000000000000000000000000000000000081526004016131499190614678565b60405180910390fd5b5061316b565b8080613163906144ff565b915050613057565b50808360405160200161317e91906146e6565b604051602081830303815290604052906131ce576040517f08c379a00000000000000000000000000000000000000000000000000000000081526004016131c59190614678565b60405180910390fd5b50505b5b5b5b60005b60025481101561325d57896040516020016131f291906143aa565b604051602081830303815290604052805190602001206001600083815260200190815260200160002060000160405160200161322e91906144b9565b60405160208183030381529060405280519060200120031561325d578080613255906144ff565b9150506131d7565b600088101561326b57600097505b600087101561327957600096505b6000895103613286578998505b886001600083815260200190815260200160002060000190816132a99190614923565b50876001600083815260200190815260200160002060010181905550866001600083815260200190815260200160002060020181905550856001600083815260200190815260200160002060030160006101000a81548160ff02191690831515021790555086888a60405161331e91906143aa565b60405180910390207f1c3e2c51276ce91148db2972b4614c440d1eff2734afc30a9b675564428f62ef60405160405180910390a450505050505050505050565b6060600060025467ffffffffffffffff81111561337e5761337d613c48565b5b6040519080825280602002602001820160405280156133b757816020015b6133a4613bef565b81526020019060019003908161339c5790505b50905060005b60025481101561350757600115156001600083815260200190815260200160002060030160009054906101000a900460ff161515036134f45760016000828152602001908152602001600020604051806080016040529081600082018054613424906143f0565b80601f0160208091040260200160405190810160405280929190818152602001828054613450906143f0565b801561349d5780601f106134725761010080835404028352916020019161349d565b820191906000526020600020905b81548152906001019060200180831161348057829003601f168201915b5050505050815260200160018201548152602001600282015481526020016003820160009054906101000a900460ff1615151515815250508282815181106134e8576134e7614aff565b5b60200260200101819052505b80806134ff906144ff565b9150506133bd565b508091505090565b60008054906101000a900473ffffffffffffffffffffffffffffffffffffffff1673ffffffffffffffffffffffffffffffffffffffff163373ffffffffffffffffffffffffffffffffffffffff161461359d576040517f08c379a000000000000000000000000000000000000000000000000000000000815260040161359490614593565b60405180910390fd5b826001600081036136a95760006001905060005b60025481101561363f57836040516020016135cc91906143aa565b604051602081830303815290604052805190602001206001600083815260200190815260200160002060000160405160200161360891906144b9565b604051602081830303815290604052805190602001200361362c576000915061363f565b8080613637906144ff565b9150506135b1565b508083604051602001613652919061464b565b604051602081830303815290604052906136a2576040517f08c379a00000000000000000000000000000000000000000000000000000000081526004016136999190614678565b60405180910390fd5b5050613a4e565b600181036137ad576000805b60025481101561374357836040516020016136d091906143aa565b604051602081830303815290604052805190602001206001600083815260200190815260200160002060000160405160200161370c91906144b9565b60405160208183030381529060405280519060200120036137305760019150613743565b808061373b906144ff565b9150506136b5565b50808360405160200161375691906146e6565b604051602081830303815290604052906137a6576040517f08c379a000000000000000000000000000000000000000000000000000000000815260040161379d9190614678565b60405180910390fd5b5050613a4d565b6002811480156137bf57506000825114155b156138c55760006001905060005b60025481101561385b57836040516020016137e891906143aa565b604051602081830303815290604052805190602001206001600083815260200190815260200160002060000160405160200161382491906144b9565b6040516020818303038152906040528051906020012003613848576000915061385b565b8080613853906144ff565b9150506137cd565b50808360405160200161386e919061464b565b604051602081830303815290604052906138be576040517f08c379a00000000000000000000000000000000000000000000000000000000081526004016138b59190614678565b60405180910390fd5b5050613a4c565b60038103613a4b576000805b6002548110156139e557836040516020016138ec91906143aa565b604051602081830303815290604052805190602001206001600083815260200190815260200160002060000160405160200161392891906144b9565b60405160208183030381529060405280519060200120036139d257600191506001600082815260200190815260200160002060030160009054906101000a900460ff168460405160200161397c919061475f565b604051602081830303815290604052906139cc576040517f08c379a00000000000000000000000000000000000000000000000000000000081526004016139c39190614678565b60405180910390fd5b506139e5565b80806139dd906144ff565b9150506138d1565b5080836040516020016139f891906146e6565b60405160208183030381529060405290613a48576040517f08c379a0000000000000000000000000000000000000000000000000000000008152600401613a3f9190614678565b60405180910390fd5b50505b5b5b5b60008060008092505b600254831015613ba15787604051602001613a7291906143aa565b6040516020818303038152906040528051906020012060016000858152602001908152602001600020600001604051602001613aae91906144b9565b6040516020818303038152906040528051906020012003613b8e57600160008481526020019081526020016000206001015491506001600084815260200190815260200160002060020154905060008783613b099190614b2e565b1215613b1c5781613b1990614b72565b96505b60008682613b2a9190614b2e565b1215613b3d5780613b3a90614b72565b95505b8682613b499190614b2e565b60016000858152602001908152602001600020600101819055508581613b6f9190614b2e565b6001600085815260200190815260200160002060020181905550613ba1565b8280613b99906144ff565b935050613a57565b858789604051613bb191906143aa565b60405180910390207f1c3e2c51276ce91148db2972b4614c440d1eff2734afc30a9b675564428f62ef60405160405180910390a45050505050505050565b60405180608001604052806060815260200160008152602001600081526020016000151581525090565b6000604051905090565b600080fd5b600080fd5b600080fd5b600080fd5b6000601f19601f8301169050919050565b7f4e487b7100000000000000000000000000000000000000000000000000000000600052604160045260246000fd5b613c8082613c37565b810181811067ffffffffffffffff82111715613c9f57613c9e613c48565b5b80604052505050565b6000613cb2613c19565b9050613cbe8282613c77565b919050565b600067ffffffffffffffff821115613cde57613cdd613c48565b5b613ce782613c37565b9050602081019050919050565b82818337600083830152505050565b6000613d16613d1184613cc3565b613ca8565b905082815260208101848484011115613d3257613d31613c32565b5b613d3d848285613cf4565b509392505050565b600082601f830112613d5a57613d59613c2d565b5b8135613d6a848260208601613d03565b91505092915050565b600060208284031215613d8957613d88613c23565b5b600082013567ffffffffffffffff811115613da757613da6613c28565b5b613db384828501613d45565b91505092915050565b600081519050919050565b600082825260208201905092915050565b60005b83811015613df6578082015181840152602081019050613ddb565b60008484015250505050565b6000613e0d82613dbc565b613e178185613dc7565b9350613e27818560208601613dd8565b613e3081613c37565b840191505092915050565b6000819050919050565b613e4e81613e3b565b82525050565b60008115159050919050565b613e6981613e54565b82525050565b60006080830160008301518482036000860152613e8c8282613e02565b9150506020830151613ea16020860182613e45565b506040830151613eb46040860182613e45565b506060830151613ec76060860182613e60565b508091505092915050565b60006020820190508181036000830152613eec8184613e6f565b905092915050565b613efd81613e3b565b8114613f0857600080fd5b50565b600081359050613f1a81613ef4565b92915050565b600080600060608486031215613f3957613f38613c23565b5b600084013567ffffffffffffffff811115613f5757613f56613c28565b5b613f6386828701613d45565b9350506020613f7486828701613f0b565b9250506040613f8586828701613f0b565b9150509250925092565b600080600060608486031215613fa857613fa7613c23565b5b600084013567ffffffffffffffff811115613fc657613fc5613c28565b5b613fd286828701613d45565b9350506020613fe386828701613f0b565b925050604084013567ffffffffffffffff81111561400457614003613c28565b5b61401086828701613d45565b9150509250925092565b600082825260208201905092915050565b600061403682613dbc565b614040818561401a565b9350614050818560208601613dd8565b61405981613c37565b840191505092915050565b61406d81613e3b565b82525050565b6000604082019050818103600083015261408d818561402b565b905061409c6020830184614064565b9392505050565b600081519050919050565b600082825260208201905092915050565b6000819050602082019050919050565b600060808301600083015184820360008601526140ec8282613e02565b91505060208301516141016020860182613e45565b5060408301516141146040860182613e45565b5060608301516141276060860182613e60565b508091505092915050565b600061413e83836140cf565b905092915050565b6000602082019050919050565b600061415e826140a3565b61416881856140ae565b93508360208202850161417a856140bf565b8060005b858110156141b657848403895281516141978582614132565b94506141a283614146565b925060208a0199505060018101905061417e565b50829750879550505050505092915050565b600060208201905081810360008301526141e28184614153565b905092915050565b6141f381613e54565b81146141fe57600080fd5b50565b600081359050614210816141ea565b92915050565b600080600080600060a0868803121561423257614231613c23565b5b600086013567ffffffffffffffff8111156142505761424f613c28565b5b61425c88828901613d45565b955050602086013567ffffffffffffffff81111561427d5761427c613c28565b5b61428988828901613d45565b945050604061429a88828901613f0b565b93505060606142ab88828901613f0b565b92505060806142bc88828901614201565b9150509295509295909350565b6000819050919050565b6142dc816142c9565b81146142e757600080fd5b50565b6000813590506142f9816142d3565b92915050565b60008060006060848603121561431857614317613c23565b5b600084013567ffffffffffffffff81111561433657614335613c28565b5b61434286828701613d45565b9350506020614353868287016142ea565b9250506040614364868287016142ea565b9150509250925092565b600081905092915050565b600061438482613dbc565b61438e818561436e565b935061439e818560208601613dd8565b80840191505092915050565b60006143b68284614379565b915081905092915050565b7f4e487b7100000000000000000000000000000000000000000000000000000000600052602260045260246000fd5b6000600282049050600182168061440857607f821691505b60208210810361441b5761441a6143c1565b5b50919050565b60008190508160005260206000209050919050565b60008154614443816143f0565b61444d818661436e565b94506001821660008114614468576001811461447d576144b0565b60ff19831686528115158202860193506144b0565b61448685614421565b60005b838110156144a857815481890152600182019150602081019050614489565b838801955050505b50505092915050565b60006144c58284614436565b915081905092915050565b7f4e487b7100000000000000000000000000000000000000000000000000000000600052601160045260246000fd5b600061450a82613e3b565b91507fffffffffffffffffffffffffffffffffffffffffffffffffffffffffffffffff820361453c5761453b6144d0565b5b600182019050919050565b7f43616c6c6572206973206e6f74206f776e657200000000000000000000000000600082015250565b600061457d60138361401a565b915061458882614547565b602082019050919050565b600060208201905081810360008301526145ac81614570565b9050919050565b7f43727970746f63757272656e6379200000000000000000000000000000000000600082015250565b60006145e9600f8361436e565b91506145f4826145b3565b600f82019050919050565b7f20616c72656164792065786973742e0000000000000000000000000000000000600082015250565b6000614635600f8361436e565b9150614640826145ff565b600f82019050919050565b6000614656826145dc565b91506146628284614379565b915061466d82614628565b915081905092915050565b60006020820190508181036000830152614692818461402b565b905092915050565b7f206973206e6f742065786973742e000000000000000000000000000000000000600082015250565b60006146d0600e8361436e565b91506146db8261469a565b600e82019050919050565b60006146f1826145dc565b91506146fd8284614379565b9150614708826146c3565b915081905092915050565b7f206973206e6f7420617661696c61626c652e0000000000000000000000000000600082015250565b600061474960128361436e565b915061475482614713565b601282019050919050565b600061476a826145dc565b91506147768284614379565b91506147818261473c565b915081905092915050565b60006020601f8301049050919050565b600082821b905092915050565b6000600883026147d97fffffffffffffffffffffffffffffffffffffffffffffffffffffffffffffffff8261479c565b6147e3868361479c565b95508019841693508086168417925050509392505050565b6000819050919050565b600061482061481b61481684613e3b565b6147fb565b613e3b565b9050919050565b6000819050919050565b61483a83614805565b61484e61484682614827565b8484546147a9565b825550505050565b600090565b614863614856565b61486e818484614831565b505050565b5b818110156148925761488760008261485b565b600181019050614874565b5050565b601f8211156148d7576148a881614421565b6148b18461478c565b810160208510156148c0578190505b6148d46148cc8561478c565b830182614873565b50505b505050565b600082821c905092915050565b60006148fa600019846008026148dc565b1980831691505092915050565b600061491383836148e9565b9150826002028217905092915050565b61492c82613dbc565b67ffffffffffffffff81111561494557614944613c48565b5b61494f82546143f0565b61495a828285614896565b600060209050601f83116001811461498d576000841561497b578287015190505b6149858582614907565b8655506149ed565b601f19841661499b86614421565b60005b828110156149c35784890151825560018201915060208501945060208101905061499e565b868310156149e057848901516149dc601f8916826148e9565b8355505b6001600288020188555050505b505050505050565b6000614a0082613e3b565b9150614a0b83613e3b565b9250828201905080821115614a2357614a226144d0565b5b92915050565b6000614a3482613e3b565b9150614a3f83613e3b565b9250828202614a4d81613e3b565b91508282048414831517614a6457614a636144d0565b5b5092915050565b7f4e487b7100000000000000000000000000000000000000000000000000000000600052601260045260246000fd5b6000614aa582613e3b565b9150614ab083613e3b565b925082614ac057614abf614a6b565b5b828204905092915050565b6000614ad682613e3b565b9150614ae183613e3b565b9250828203905081811115614af957614af86144d0565b5b92915050565b7f4e487b7100000000000000000000000000000000000000000000000000000000600052603260045260246000fd5b6000614b39826142c9565b9150614b44836142c9565b925082820190508281121560008312168382126000841215161715614b6c57614b6b6144d0565b5b92915050565b6000614b7d826142c9565b91507f80000000000000000000000000000000000000000000000000000000000000008203614baf57614bae6144d0565b5b81600003905091905056fea2646970667358221220770f832a71c23370853a8107ab61a35bbb3343f13ed559492b24bb5506276a7f64736f6c63430008110033",
  "immutableReferences": {},
  "source": "//SPDX-License-Identifier: MIT\r\npragma solidity ^0.8.0;\r\n//import \"hardhat/console.sol\";\r\n//import \"@openzeppelin/contracts/utils/Strings.sol\";\r\n\r\ncontract DeX{\r\n\r\n    address private owner;\r\n    // Rules(16/09/2022):\r\n    // 1. One Y3Token = 100 usd (Our own token)\r\n    // 2. Ether price = 1,472.00 usd\r\n    // 3. Bitcoin price = 19,758.00 usd\r\n    // 4. PAX Gold price = 1,685.00 usd\r\n\r\n    //Add code to convert 1 ETH -> Y4 Token \r\n    //Add mapping for balance(address)\r\n\r\n    struct pool{\r\n        string cryptoName;\r\n        uint cryptoAmt;\r\n        uint tokenAmt;\r\n        bool cryptoStatus;\r\n    }\r\n\r\n    // act like dictionary in python\r\n    mapping(uint => pool) private cryptoList;\r\n    uint cryptoListNum = 0;\r\n\r\n    event OwnerSet(address indexed oldOwner, address indexed newOwner);\r\n    event PoolValue(string indexed cryptoName,uint indexed cVal, uint indexed tVal);\r\n\r\n    constructor() {\r\n        owner = msg.sender; \r\n        emit OwnerSet(address(0), owner);\r\n        addPool('Bitcoin', 101, 20000);\r\n        addPool('Ether', 1359, 20000);\r\n        addPool('PAX Gold', 1187, 20000);\r\n        //console.log(\"Pool created successfully. Liquidity Provider:\", msg.sender);\r\n    }\r\n\r\n    modifier isOwner() {\r\n        require(msg.sender == owner, \"Caller is not owner\");\r\n        _;\r\n    }\r\n\r\n    modifier inList(string memory cName, int funcName) {\r\n        //Used to validate add pool\r\n        if(funcName == 0){\r\n            bool resultStatus = true;\r\n            for (uint j=0; j<cryptoListNum; j++) {\r\n                if(keccak256(abi.encodePacked(cryptoList[j].cryptoName)) == keccak256(abi.encodePacked(cName))){\r\n                    resultStatus = false;\r\n                    break;\r\n                }\r\n            }\r\n            require(resultStatus, string(abi.encodePacked(\"Cryptocurrency \", cName, \" already exist.\")));\r\n        }\r\n        //Used to validate add amount to pool\r\n        else if(funcName == 1){\r\n            bool resultStatus = false;\r\n            for (uint j=0; j<cryptoListNum; j++) {\r\n                if(keccak256(abi.encodePacked(cryptoList[j].cryptoName)) == keccak256(abi.encodePacked(cName))){\r\n                    resultStatus = true;\r\n                    break;\r\n                }\r\n            }\r\n            require(resultStatus, string(abi.encodePacked(\"Cryptocurrency \", cName, \" is not exist.\")));\r\n        }\r\n        //Used to validate edit pool\r\n        else if(funcName == 2 && bytes(cName).length!=0){\r\n            bool resultStatus = true;\r\n            for (uint j=0; j<cryptoListNum; j++) {\r\n                if(keccak256(abi.encodePacked(cryptoList[j].cryptoName)) == keccak256(abi.encodePacked(cName))){\r\n                    resultStatus = false;\r\n                    break;\r\n                }\r\n            }\r\n            require(resultStatus, string(abi.encodePacked(\"Cryptocurrency \", cName, \" already exist.\")));\r\n        }\r\n        //Used to validate exchange buy and sell crypto\r\n        else if(funcName == 3){\r\n            bool resultStatus = false;\r\n            for (uint j=0; j<cryptoListNum; j++) {\r\n                if(keccak256(abi.encodePacked(cryptoList[j].cryptoName)) == keccak256(abi.encodePacked(cName))){\r\n                    resultStatus = true;\r\n                    require(cryptoList[j].cryptoStatus, string(abi.encodePacked(\"Cryptocurrency \", cName, \" is not available.\")));\r\n                    break;\r\n                }\r\n            }\r\n            require(resultStatus, string(abi.encodePacked(\"Cryptocurrency \", cName, \" is not exist.\")));\r\n        }\r\n        _;\r\n    }\r\n\r\n    function addPool(string memory cName, uint cVal, uint tVal) public isOwner inList(cName, 0){\r\n        if(bytes(cName).length!=0){\r\n            cryptoList[cryptoListNum] = pool(cName, cVal, tVal, true);\r\n            cryptoListNum ++;\r\n        }\r\n        emit PoolValue(cName,cVal,tVal);\r\n    }\r\n\r\n    function getPool(string memory cName) public view returns(pool memory){\r\n        uint j;\r\n        for (j=0; j<cryptoListNum; j++) {\r\n            if(keccak256(abi.encodePacked(cryptoList[j].cryptoName)) == keccak256(abi.encodePacked(cName))) return cryptoList[j];\r\n        }\r\n        return cryptoList[j];\r\n    }\r\n\r\n    function addAmt(string memory cName, int cVal, int tVal) public isOwner inList(cName, 1){\r\n        uint j;\r\n        int tempCVal;\r\n        int tempTVal;\r\n        for (j=0; j<cryptoListNum; j++) {\r\n            if(keccak256(abi.encodePacked(cryptoList[j].cryptoName)) == keccak256(abi.encodePacked(cName))){\r\n                tempCVal = int(cryptoList[j].cryptoAmt);\r\n                tempTVal = int(cryptoList[j].tokenAmt);\r\n                if((tempCVal + cVal)<0){\r\n                    cVal = -tempCVal;\r\n                }\r\n                if((tempTVal + tVal)<0){\r\n                    tVal = -tempTVal;\r\n                }\r\n                cryptoList[j].cryptoAmt =  uint(tempCVal + cVal);\r\n                cryptoList[j].tokenAmt = uint(tempTVal + tVal);\r\n                break;\r\n            }\r\n        }\r\n        emit PoolValue(cName,uint(cVal),uint(tVal));\r\n        //Add write success or fail return/emit\r\n    }\r\n\r\n    // left the newCName empty if no update\r\n    function editPoolDetail(string memory oldCName, string memory newCName, uint cVal, uint tVal, bool pStatus) public isOwner inList(oldCName, 1) inList(newCName, 2){\r\n        uint j;\r\n        for (j=0; j<cryptoListNum; j++) {\r\n            if(keccak256(abi.encodePacked(cryptoList[j].cryptoName)) == keccak256(abi.encodePacked(oldCName))) break;\r\n        }\r\n        if(cVal<0){\r\n            cVal = 0;\r\n        }\r\n        if(tVal<0){\r\n            tVal = 0;\r\n        }\r\n        if(bytes(newCName).length==0){\r\n            newCName = oldCName;\r\n        }\r\n        cryptoList[j].cryptoName = newCName;\r\n        cryptoList[j].cryptoAmt = cVal;\r\n        cryptoList[j].tokenAmt = tVal;\r\n        cryptoList[j].cryptoStatus = pStatus;\r\n        emit PoolValue(newCName,cVal,tVal);\r\n         //Add write success or fail return/emit\r\n    }\r\n\r\n    function listAllPool() public isOwner view returns(pool[] memory){\r\n        pool[] memory tempPool = new pool[](cryptoListNum);\r\n        for(uint j=0; j<cryptoListNum; j++){\r\n            tempPool[j]=cryptoList[j];\r\n        }\r\n        return tempPool;\r\n    }\r\n\r\n    function listAllValidPool() public view returns(pool[] memory){\r\n        pool[] memory tempPool = new pool[](cryptoListNum);\r\n        for(uint j=0; j<cryptoListNum; j++){\r\n            if(cryptoList[j].cryptoStatus == true) tempPool[j]=cryptoList[j];\r\n        }\r\n        return tempPool;\r\n    }\r\n\r\n    // Buy exchangeAmt of cryptoType with X targetCryptoType\r\n    function exchangeBuy(string memory cryptoType, uint exchangeAmt, string memory targetCryptoType) public inList(cryptoType, 3) inList(targetCryptoType, 3) returns(string memory, uint){\r\n        // Exchange cryptoType to token\r\n        uint token = 0;\r\n        uint j;\r\n        uint i;\r\n        for(j=0; j<cryptoListNum; j++){\r\n            if(keccak256(abi.encodePacked(cryptoList[j].cryptoName)) == keccak256(abi.encodePacked(cryptoType))){\r\n                if(cryptoList[j].cryptoAmt==0 || cryptoList[j].cryptoAmt<exchangeAmt){\r\n                    //console.log(string(abi.encodePacked(\"Cryptocurrency \", cryptoList[j].cryptoName, \" pool is not enough. Maximum amount: \", Strings.toString(cryptoList[j].cryptoAmt))));\r\n                    revert();\r\n                }\r\n                token = ((cryptoList[j].tokenAmt*cryptoList[j].cryptoAmt)/(cryptoList[j].cryptoAmt-exchangeAmt))-cryptoList[j].tokenAmt;\r\n                cryptoList[j].tokenAmt -= token;\r\n                cryptoList[j].cryptoAmt += exchangeAmt;\r\n                emit PoolValue(cryptoList[j].cryptoName,cryptoList[j].cryptoAmt,cryptoList[j].tokenAmt);\r\n                break;\r\n            }\r\n        }\r\n\r\n        // Token to targetCryptoType\r\n        uint returnAmt = 0;\r\n        for(i=0; i<cryptoListNum; i++){\r\n            if(keccak256(abi.encodePacked(cryptoList[i].cryptoName)) == keccak256(abi.encodePacked(targetCryptoType))){\r\n                returnAmt = ((cryptoList[i].tokenAmt*cryptoList[i].cryptoAmt)/(cryptoList[i].tokenAmt-token))-cryptoList[i].cryptoAmt;\r\n                cryptoList[i].tokenAmt += token;\r\n                cryptoList[i].cryptoAmt -= returnAmt;\r\n                emit PoolValue(cryptoList[i].cryptoName,cryptoList[i].cryptoAmt,cryptoList[i].tokenAmt);\r\n                break;\r\n            }\r\n        }\r\n        \r\n        return (targetCryptoType, returnAmt);\r\n    }\r\n\r\n    // Sell exchangeAmt of cryptoType to X TargetCryptoType\r\n    function exchangeSell(string memory cryptoType, uint exchangeAmt, string memory targetCryptoType) public inList(cryptoType, 3) inList(targetCryptoType, 3) returns(string memory, uint){\r\n        // Exchange cryptoType to token\r\n        uint token = 0;\r\n        uint i;\r\n        uint j;\r\n        for(j=0; j<cryptoListNum; j++){\r\n            if(keccak256(abi.encodePacked(cryptoList[j].cryptoName)) == keccak256(abi.encodePacked(cryptoType))){\r\n                token = cryptoList[j].tokenAmt-((cryptoList[j].tokenAmt*cryptoList[j].cryptoAmt)/(cryptoList[j].cryptoAmt+exchangeAmt));\r\n                cryptoList[j].tokenAmt -= token;\r\n                cryptoList[j].cryptoAmt += exchangeAmt;\r\n                emit PoolValue(cryptoList[j].cryptoName,cryptoList[j].cryptoAmt,cryptoList[j].tokenAmt);\r\n                break;\r\n            }\r\n        }\r\n\r\n        // Token to targetCryptoType\r\n        uint returnAmt = 0;\r\n        for(i=0; i<cryptoListNum; i++){\r\n            if(keccak256(abi.encodePacked(cryptoList[i].cryptoName)) == keccak256(abi.encodePacked(targetCryptoType))){\r\n                if(cryptoList[i].cryptoAmt==0){\r\n                    //console.log(string(abi.encodePacked(\"Cryptocurrency \", cryptoList[i].cryptoName, \" pool is empty.\")));\r\n                    cryptoList[j].tokenAmt += token;\r\n                    cryptoList[j].cryptoAmt -= exchangeAmt;\r\n                    revert();\r\n                }\r\n                returnAmt = cryptoList[i].cryptoAmt-((cryptoList[i].tokenAmt*cryptoList[i].cryptoAmt)/(cryptoList[i].tokenAmt+token));\r\n                cryptoList[i].tokenAmt += token;\r\n                cryptoList[i].cryptoAmt -= returnAmt;\r\n                emit PoolValue(cryptoList[i].cryptoName,cryptoList[i].cryptoAmt,cryptoList[i].tokenAmt);\r\n                break;\r\n            }\r\n        }\r\n        \r\n        return (targetCryptoType, returnAmt);\r\n    }\r\n}",
  "sourcePath": "c:\\Users\\maste\\OneDrive\\Documents\\Taruc Documents\\Degree\\Y4S1\\Blockchain Application Development\\Project\\Y3S1_Blockchain\\contracts\\DeX.sol",
  "compiler": {
    "name": "solc",
    "version": "0.8.17+commit.8df45f5f.Emscripten.clang"
  },
  "schemaVersion": "3.4.10",
  "updatedAt": "2022-10-01T11:24:34.731Z",
  "networkType": "ethereum",
  "devdoc": {
    "kind": "dev",
    "methods": {},
    "version": 1
  },
  "userdoc": {
    "kind": "user",
    "methods": {},
    "version": 1
  }
}