{
  "contractName": "DeX",
  "abi": [
    {
      "inputs": [],
      "stateMutability": "nonpayable",
      "type": "constructor"
    },
    {
      "anonymous": false,
      "inputs": [
        {
          "indexed": true,
          "internalType": "address",
          "name": "oldOwner",
          "type": "address"
        },
        {
          "indexed": true,
          "internalType": "address",
          "name": "newOwner",
          "type": "address"
        }
      ],
      "name": "OwnerSet",
      "type": "event"
    },
    {
      "inputs": [
        {
          "internalType": "string",
          "name": "cName",
          "type": "string"
        },
        {
          "internalType": "uint256",
          "name": "cVal",
          "type": "uint256"
        },
        {
          "internalType": "uint256",
          "name": "tVal",
          "type": "uint256"
        }
      ],
      "name": "addPool",
      "outputs": [],
      "stateMutability": "nonpayable",
      "type": "function"
    },
    {
      "inputs": [
        {
          "internalType": "string",
          "name": "cName",
          "type": "string"
        }
      ],
      "name": "getPool",
      "outputs": [
        {
          "components": [
            {
              "internalType": "string",
              "name": "cryptoName",
              "type": "string"
            },
            {
              "internalType": "uint256",
              "name": "cryptoAmt",
              "type": "uint256"
            },
            {
              "internalType": "uint256",
              "name": "tokenAmt",
              "type": "uint256"
            },
            {
              "internalType": "bool",
              "name": "cryptoStatus",
              "type": "bool"
            }
          ],
          "internalType": "struct DeX.pool",
          "name": "",
          "type": "tuple"
        }
      ],
      "stateMutability": "view",
      "type": "function",
      "constant": true
    },
    {
      "inputs": [
        {
          "internalType": "string",
          "name": "cName",
          "type": "string"
        },
        {
          "internalType": "int256",
          "name": "cVal",
          "type": "int256"
        },
        {
          "internalType": "int256",
          "name": "tVal",
          "type": "int256"
        }
      ],
      "name": "addAmt",
      "outputs": [],
      "stateMutability": "nonpayable",
      "type": "function"
    },
    {
      "inputs": [
        {
          "internalType": "string",
          "name": "oldCName",
          "type": "string"
        },
        {
          "internalType": "string",
          "name": "newCName",
          "type": "string"
        },
        {
          "internalType": "uint256",
          "name": "cVal",
          "type": "uint256"
        },
        {
          "internalType": "uint256",
          "name": "tVal",
          "type": "uint256"
        },
        {
          "internalType": "bool",
          "name": "pStatus",
          "type": "bool"
        }
      ],
      "name": "editPoolDetail",
      "outputs": [],
      "stateMutability": "nonpayable",
      "type": "function"
    },
    {
      "inputs": [],
      "name": "listAllPool",
      "outputs": [
        {
          "components": [
            {
              "internalType": "string",
              "name": "cryptoName",
              "type": "string"
            },
            {
              "internalType": "uint256",
              "name": "cryptoAmt",
              "type": "uint256"
            },
            {
              "internalType": "uint256",
              "name": "tokenAmt",
              "type": "uint256"
            },
            {
              "internalType": "bool",
              "name": "cryptoStatus",
              "type": "bool"
            }
          ],
          "internalType": "struct DeX.pool[]",
          "name": "",
          "type": "tuple[]"
        }
      ],
      "stateMutability": "view",
      "type": "function",
      "constant": true
    },
    {
      "inputs": [],
      "name": "listAllValidPool",
      "outputs": [
        {
          "components": [
            {
              "internalType": "string",
              "name": "cryptoName",
              "type": "string"
            },
            {
              "internalType": "uint256",
              "name": "cryptoAmt",
              "type": "uint256"
            },
            {
              "internalType": "uint256",
              "name": "tokenAmt",
              "type": "uint256"
            },
            {
              "internalType": "bool",
              "name": "cryptoStatus",
              "type": "bool"
            }
          ],
          "internalType": "struct DeX.pool[]",
          "name": "",
          "type": "tuple[]"
        }
      ],
      "stateMutability": "view",
      "type": "function",
      "constant": true
    },
    {
      "inputs": [
        {
          "internalType": "string",
          "name": "cryptoType",
          "type": "string"
        },
        {
          "internalType": "uint256",
          "name": "exchangeAmt",
          "type": "uint256"
        },
        {
          "internalType": "string",
          "name": "targetCryptoType",
          "type": "string"
        }
      ],
      "name": "exchangeBuy",
      "outputs": [
        {
          "internalType": "string",
          "name": "",
          "type": "string"
        },
        {
          "internalType": "uint256",
          "name": "",
          "type": "uint256"
        }
      ],
      "stateMutability": "nonpayable",
      "type": "function"
    },
    {
      "inputs": [
        {
          "internalType": "string",
          "name": "cryptoType",
          "type": "string"
        },
        {
          "internalType": "uint256",
          "name": "exchangeAmt",
          "type": "uint256"
        },
        {
          "internalType": "string",
          "name": "targetCryptoType",
          "type": "string"
        }
      ],
      "name": "exchangeSell",
      "outputs": [
        {
          "internalType": "string",
          "name": "",
          "type": "string"
        },
        {
          "internalType": "uint256",
          "name": "",
          "type": "uint256"
        }
      ],
      "stateMutability": "nonpayable",
      "type": "function"
    }
  ],
  "bytecode": "0x608060405260006002553480156200001657600080fd5b50336000806101000a81548173ffffffffffffffffffffffffffffffffffffffff021916908373ffffffffffffffffffffffffffffffffffffffff16021790555060008054906101000a900473ffffffffffffffffffffffffffffffffffffffff1673ffffffffffffffffffffffffffffffffffffffff16600073ffffffffffffffffffffffffffffffffffffffff167f342827c97908e5e2f71151c08502a66d44b6f758e3ac2f1de95f02eb95f0a73560405160405180910390a36200011d6040518060400160405280600781526020017f426974636f696e000000000000000000000000000000000000000000000000008152506065614e20620001bb60201b60201c565b620001696040518060400160405280600581526020017f457468657200000000000000000000000000000000000000000000000000000081525061054f614e20620001bb60201b60201c565b620001b56040518060400160405280600881526020017f50415820476f6c640000000000000000000000000000000000000000000000008152506104a3614e20620001bb60201b60201c565b62000fd7565b60008054906101000a900473ffffffffffffffffffffffffffffffffffffffff1673ffffffffffffffffffffffffffffffffffffffff163373ffffffffffffffffffffffffffffffffffffffff16146200024c576040517f08c379a000000000000000000000000000000000000000000000000000000000815260040162000243906200085a565b60405180910390fd5b826000808103620003685760006001905060005b600254811015620002f857836040516020016200027e9190620008f5565b6040516020818303038152906040528051906020012060016000838152602001908152602001600020600001604051602001620002bc919062000a16565b6040516020818303038152906040528051906020012003620002e25760009150620002f8565b8080620002ef9062000a68565b91505062000260565b5080836040516020016200030d919062000b55565b6040516020818303038152906040529062000360576040517f08c379a000000000000000000000000000000000000000000000000000000000815260040162000357919062000bda565b60405180910390fd5b505062000745565b600181036200047d576000805b6002548110156200040d5783604051602001620003939190620008f5565b6040516020818303038152906040528051906020012060016000838152602001908152602001600020600001604051602001620003d1919062000a16565b6040516020818303038152906040528051906020012003620003f757600191506200040d565b8080620004049062000a68565b91505062000375565b50808360405160200162000422919062000c4e565b6040516020818303038152906040529062000475576040517f08c379a00000000000000000000000000000000000000000000000000000000081526004016200046c919062000bda565b60405180910390fd5b505062000744565b6002811480156200049057506000825114155b15620005a75760006001905060005b600254811015620005375783604051602001620004bd9190620008f5565b6040516020818303038152906040528051906020012060016000838152602001908152602001600020600001604051602001620004fb919062000a16565b604051602081830303815290604052805190602001200362000521576000915062000537565b80806200052e9062000a68565b9150506200049f565b5080836040516020016200054c919062000b55565b604051602081830303815290604052906200059f576040517f08c379a000000000000000000000000000000000000000000000000000000000815260040162000596919062000bda565b60405180910390fd5b505062000743565b6003810362000742576000805b600254811015620006d75783604051602001620005d29190620008f5565b604051602081830303815290604052805190602001206001600083815260200190815260200160002060000160405160200162000610919062000a16565b6040516020818303038152906040528051906020012003620006c157600191506001600082815260200190815260200160002060030160009054906101000a900460ff168460405160200162000667919062000cd1565b60405160208183030381529060405290620006ba576040517f08c379a0000000000000000000000000000000000000000000000000000000008152600401620006b1919062000bda565b60405180910390fd5b50620006d7565b8080620006ce9062000a68565b915050620005b4565b508083604051602001620006ec919062000c4e565b604051602081830303815290604052906200073f576040517f08c379a000000000000000000000000000000000000000000000000000000000815260040162000736919062000bda565b60405180910390fd5b50505b5b5b5b6000855114620007f25760405180608001604052808681526020018581526020018481526020016001151581525060016000600254815260200190815260200160002060008201518160000190816200079f919062000ef0565b50602082015181600101556040820151816002015560608201518160030160006101000a81548160ff02191690831515021790555090505060026000815480929190620007ec9062000a68565b91905055505b5050505050565b600082825260208201905092915050565b7f43616c6c6572206973206e6f74206f776e657200000000000000000000000000600082015250565b600062000842601383620007f9565b91506200084f826200080a565b602082019050919050565b60006020820190508181036000830152620008758162000833565b9050919050565b600081519050919050565b600081905092915050565b60005b83811015620008b257808201518184015260208101905062000895565b60008484015250505050565b6000620008cb826200087c565b620008d7818562000887565b9350620008e981856020860162000892565b80840191505092915050565b6000620009038284620008be565b915081905092915050565b7f4e487b7100000000000000000000000000000000000000000000000000000000600052602260045260246000fd5b600060028204905060018216806200095657607f821691505b6020821081036200096c576200096b6200090e565b5b50919050565b60008190508160005260206000209050919050565b6000815462000996816200093d565b620009a2818662000887565b94506001821660008114620009c05760018114620009d65762000a0d565b60ff198316865281151582028601935062000a0d565b620009e18562000972565b60005b8381101562000a0557815481890152600182019150602081019050620009e4565b838801955050505b50505092915050565b600062000a24828462000987565b915081905092915050565b7f4e487b7100000000000000000000000000000000000000000000000000000000600052601160045260246000fd5b6000819050919050565b600062000a758262000a5e565b91507fffffffffffffffffffffffffffffffffffffffffffffffffffffffffffffffff820362000aaa5762000aa962000a2f565b5b600182019050919050565b7f43727970746f63757272656e6379200000000000000000000000000000000000600082015250565b600062000aed600f8362000887565b915062000afa8262000ab5565b600f82019050919050565b7f20616c72656164792065786973742e0000000000000000000000000000000000600082015250565b600062000b3d600f8362000887565b915062000b4a8262000b05565b600f82019050919050565b600062000b628262000ade565b915062000b708284620008be565b915062000b7d8262000b2e565b915081905092915050565b6000601f19601f8301169050919050565b600062000ba6826200087c565b62000bb28185620007f9565b935062000bc481856020860162000892565b62000bcf8162000b88565b840191505092915050565b6000602082019050818103600083015262000bf6818462000b99565b905092915050565b7f206973206e6f742065786973742e000000000000000000000000000000000000600082015250565b600062000c36600e8362000887565b915062000c438262000bfe565b600e82019050919050565b600062000c5b8262000ade565b915062000c698284620008be565b915062000c768262000c27565b915081905092915050565b7f206973206e6f7420617661696c61626c652e0000000000000000000000000000600082015250565b600062000cb960128362000887565b915062000cc68262000c81565b601282019050919050565b600062000cde8262000ade565b915062000cec8284620008be565b915062000cf98262000caa565b915081905092915050565b7f4e487b7100000000000000000000000000000000000000000000000000000000600052604160045260246000fd5b60006020601f8301049050919050565b600082821b905092915050565b60006008830262000d827fffffffffffffffffffffffffffffffffffffffffffffffffffffffffffffffff8262000d43565b62000d8e868362000d43565b95508019841693508086168417925050509392505050565b6000819050919050565b600062000dd162000dcb62000dc58462000a5e565b62000da6565b62000a5e565b9050919050565b6000819050919050565b62000ded8362000db0565b62000e0562000dfc8262000dd8565b84845462000d50565b825550505050565b600090565b62000e1c62000e0d565b62000e2981848462000de2565b505050565b5b8181101562000e515762000e4560008262000e12565b60018101905062000e2f565b5050565b601f82111562000ea05762000e6a8162000972565b62000e758462000d33565b8101602085101562000e85578190505b62000e9d62000e948562000d33565b83018262000e2e565b50505b505050565b600082821c905092915050565b600062000ec56000198460080262000ea5565b1980831691505092915050565b600062000ee0838362000eb2565b9150826002028217905092915050565b62000efb826200087c565b67ffffffffffffffff81111562000f175762000f1662000d04565b5b62000f2382546200093d565b62000f3082828562000e55565b600060209050601f83116001811462000f68576000841562000f53578287015190505b62000f5f858262000ed2565b86555062000fcf565b601f19841662000f788662000972565b60005b8281101562000fa25784890151825560018201915060208501945060208101905062000f7b565b8683101562000fc2578489015162000fbe601f89168262000eb2565b8355505b6001600288020188555050505b505050505050565b6149108062000fe76000396000f3fe608060405234801561001057600080fd5b50600436106100885760003560e01c8063ba0d181b1161005b578063ba0d181b1461013b578063bf9b12b914610159578063e7710f6814610175578063fc81792a1461019357610088565b806341d7b0261461008d57806376a38cd6146100bd5780638012cf5c146100d9578063b1fc4dc61461010a575b600080fd5b6100a760048036038101906100a29190613a93565b6101af565b6040516100b49190613bf2565b60405180910390f35b6100d760048036038101906100d29190613c40565b61040e565b005b6100f360048036038101906100ee9190613caf565b6109fb565b604051610101929190613d93565b60405180910390f35b610124600480360381019061011f9190613caf565b6116d8565b604051610132929190613d93565b60405180910390f35b61014361237d565b6040516101509190613ee8565b60405180910390f35b610173600480360381019061016e9190613f36565b61258c565b005b61017d6130c2565b60405161018a9190613ee8565b60405180910390f35b6101ad60048036038101906101a8919061401f565b613273565b005b6101b761390f565b60005b60025481101561032657826040516020016101d591906140ca565b604051602081830303815290604052805190602001206001600083815260200190815260200160002060000160405160200161021191906141d9565b6040516020818303038152906040528051906020012003610313576001600082815260200190815260200160002060405180608001604052908160008201805461025a90614110565b80601f016020809104026020016040519081016040528092919081815260200182805461028690614110565b80156102d35780601f106102a8576101008083540402835291602001916102d3565b820191906000526020600020905b8154815290600101906020018083116102b657829003601f168201915b5050505050815260200160018201548152602001600282015481526020016003820160009054906101000a900460ff161515151581525050915050610409565b808061031e9061421f565b9150506101ba565b6001600082815260200190815260200160002060405180608001604052908160008201805461035490614110565b80601f016020809104026020016040519081016040528092919081815260200182805461038090614110565b80156103cd5780601f106103a2576101008083540402835291602001916103cd565b820191906000526020600020905b8154815290600101906020018083116103b057829003601f168201915b5050505050815260200160018201548152602001600282015481526020016003820160009054906101000a900460ff1615151515815250509150505b919050565b60008054906101000a900473ffffffffffffffffffffffffffffffffffffffff1673ffffffffffffffffffffffffffffffffffffffff163373ffffffffffffffffffffffffffffffffffffffff161461049c576040517f08c379a0000000000000000000000000000000000000000000000000000000008152600401610493906142b3565b60405180910390fd5b8260008081036105a75760006001905060005b60025481101561053d57836040516020016104ca91906140ca565b604051602081830303815290604052805190602001206001600083815260200190815260200160002060000160405160200161050691906141d9565b604051602081830303815290604052805190602001200361052a576000915061053d565b80806105359061421f565b9150506104af565b508083604051602001610550919061436b565b604051602081830303815290604052906105a0576040517f08c379a00000000000000000000000000000000000000000000000000000000081526004016105979190614398565b60405180910390fd5b505061094c565b600181036106ab576000805b60025481101561064157836040516020016105ce91906140ca565b604051602081830303815290604052805190602001206001600083815260200190815260200160002060000160405160200161060a91906141d9565b604051602081830303815290604052805190602001200361062e5760019150610641565b80806106399061421f565b9150506105b3565b5080836040516020016106549190614406565b604051602081830303815290604052906106a4576040517f08c379a000000000000000000000000000000000000000000000000000000000815260040161069b9190614398565b60405180910390fd5b505061094b565b6002811480156106bd57506000825114155b156107c35760006001905060005b60025481101561075957836040516020016106e691906140ca565b604051602081830303815290604052805190602001206001600083815260200190815260200160002060000160405160200161072291906141d9565b60405160208183030381529060405280519060200120036107465760009150610759565b80806107519061421f565b9150506106cb565b50808360405160200161076c919061436b565b604051602081830303815290604052906107bc576040517f08c379a00000000000000000000000000000000000000000000000000000000081526004016107b39190614398565b60405180910390fd5b505061094a565b60038103610949576000805b6002548110156108e357836040516020016107ea91906140ca565b604051602081830303815290604052805190602001206001600083815260200190815260200160002060000160405160200161082691906141d9565b60405160208183030381529060405280519060200120036108d057600191506001600082815260200190815260200160002060030160009054906101000a900460ff168460405160200161087a919061447f565b604051602081830303815290604052906108ca576040517f08c379a00000000000000000000000000000000000000000000000000000000081526004016108c19190614398565b60405180910390fd5b506108e3565b80806108db9061421f565b9150506107cf565b5080836040516020016108f69190614406565b60405160208183030381529060405290610946576040517f08c379a000000000000000000000000000000000000000000000000000000000815260040161093d9190614398565b60405180910390fd5b50505b5b5b5b60008551146109f45760405180608001604052808681526020018581526020018481526020016001151581525060016000600254815260200190815260200160002060008201518160000190816109a39190614643565b50602082015181600101556040820151816002015560608201518160030160006101000a81548160ff021916908315150217905550905050600260008154809291906109ee9061421f565b91905055505b5050505050565b6060600084600360008103610b0b5760006001905060005b600254811015610aa15783604051602001610a2e91906140ca565b6040516020818303038152906040528051906020012060016000838152602001908152602001600020600001604051602001610a6a91906141d9565b6040516020818303038152906040528051906020012003610a8e5760009150610aa1565b8080610a999061421f565b915050610a13565b508083604051602001610ab4919061436b565b60405160208183030381529060405290610b04576040517f08c379a0000000000000000000000000000000000000000000000000000000008152600401610afb9190614398565b60405180910390fd5b5050610eb0565b60018103610c0f576000805b600254811015610ba55783604051602001610b3291906140ca565b6040516020818303038152906040528051906020012060016000838152602001908152602001600020600001604051602001610b6e91906141d9565b6040516020818303038152906040528051906020012003610b925760019150610ba5565b8080610b9d9061421f565b915050610b17565b508083604051602001610bb89190614406565b60405160208183030381529060405290610c08576040517f08c379a0000000000000000000000000000000000000000000000000000000008152600401610bff9190614398565b60405180910390fd5b5050610eaf565b600281148015610c2157506000825114155b15610d275760006001905060005b600254811015610cbd5783604051602001610c4a91906140ca565b6040516020818303038152906040528051906020012060016000838152602001908152602001600020600001604051602001610c8691906141d9565b6040516020818303038152906040528051906020012003610caa5760009150610cbd565b8080610cb59061421f565b915050610c2f565b508083604051602001610cd0919061436b565b60405160208183030381529060405290610d20576040517f08c379a0000000000000000000000000000000000000000000000000000000008152600401610d179190614398565b60405180910390fd5b5050610eae565b60038103610ead576000805b600254811015610e475783604051602001610d4e91906140ca565b6040516020818303038152906040528051906020012060016000838152602001908152602001600020600001604051602001610d8a91906141d9565b6040516020818303038152906040528051906020012003610e3457600191506001600082815260200190815260200160002060030160009054906101000a900460ff1684604051602001610dde919061447f565b60405160208183030381529060405290610e2e576040517f08c379a0000000000000000000000000000000000000000000000000000000008152600401610e259190614398565b60405180910390fd5b50610e47565b8080610e3f9061421f565b915050610d33565b508083604051602001610e5a9190614406565b60405160208183030381529060405290610eaa576040517f08c379a0000000000000000000000000000000000000000000000000000000008152600401610ea19190614398565b60405180910390fd5b50505b5b5b5b84600360008103610fbc5760006001905060005b600254811015610f525783604051602001610edf91906140ca565b6040516020818303038152906040528051906020012060016000838152602001908152602001600020600001604051602001610f1b91906141d9565b6040516020818303038152906040528051906020012003610f3f5760009150610f52565b8080610f4a9061421f565b915050610ec4565b508083604051602001610f65919061436b565b60405160208183030381529060405290610fb5576040517f08c379a0000000000000000000000000000000000000000000000000000000008152600401610fac9190614398565b60405180910390fd5b5050611361565b600181036110c0576000805b6002548110156110565783604051602001610fe391906140ca565b604051602081830303815290604052805190602001206001600083815260200190815260200160002060000160405160200161101f91906141d9565b60405160208183030381529060405280519060200120036110435760019150611056565b808061104e9061421f565b915050610fc8565b5080836040516020016110699190614406565b604051602081830303815290604052906110b9576040517f08c379a00000000000000000000000000000000000000000000000000000000081526004016110b09190614398565b60405180910390fd5b5050611360565b6002811480156110d257506000825114155b156111d85760006001905060005b60025481101561116e57836040516020016110fb91906140ca565b604051602081830303815290604052805190602001206001600083815260200190815260200160002060000160405160200161113791906141d9565b604051602081830303815290604052805190602001200361115b576000915061116e565b80806111669061421f565b9150506110e0565b508083604051602001611181919061436b565b604051602081830303815290604052906111d1576040517f08c379a00000000000000000000000000000000000000000000000000000000081526004016111c89190614398565b60405180910390fd5b505061135f565b6003810361135e576000805b6002548110156112f857836040516020016111ff91906140ca565b604051602081830303815290604052805190602001206001600083815260200190815260200160002060000160405160200161123b91906141d9565b60405160208183030381529060405280519060200120036112e557600191506001600082815260200190815260200160002060030160009054906101000a900460ff168460405160200161128f919061447f565b604051602081830303815290604052906112df576040517f08c379a00000000000000000000000000000000000000000000000000000000081526004016112d69190614398565b60405180910390fd5b506112f8565b80806112f09061421f565b9150506111e4565b50808360405160200161130b9190614406565b6040516020818303038152906040529061135b576040517f08c379a00000000000000000000000000000000000000000000000000000000081526004016113529190614398565b60405180910390fd5b50505b5b5b5b60008080600090505b6002548110156114d5578b60405160200161138591906140ca565b60405160208183030381529060405280519060200120600160008381526020019081526020016000206000016040516020016113c191906141d9565b60405160208183030381529060405280519060200120036114c2578a60016000838152602001908152602001600020600101546113fe9190614715565b600160008381526020019081526020016000206001015460016000848152602001908152602001600020600201546114369190614749565b61144091906147ba565b600160008381526020019081526020016000206002015461146191906147eb565b92508260016000838152602001908152602001600020600201600082825461148991906147eb565b925050819055508a6001600083815260200190815260200160002060010160008282546114b69190614715565b925050819055506114d5565b80806114cd9061421f565b91505061136a565b60008092505b6002548310156116c2578a6040516020016114f691906140ca565b604051602081830303815290604052805190602001206001600085815260200190815260200160002060000160405160200161153291906141d9565b60405160208183030381529060405280519060200120036116af5760006001600085815260200190815260200160002060010154036115c957836001600084815260200190815260200160002060020160008282546115919190614715565b925050819055508b6001600084815260200190815260200160002060010160008282546115be91906147eb565b925050819055600080fd5b8360016000858152602001908152602001600020600201546115eb9190614715565b600160008581526020019081526020016000206001015460016000868152602001908152602001600020600201546116239190614749565b61162d91906147ba565b600160008581526020019081526020016000206001015461164e91906147eb565b9050836001600085815260200190815260200160002060020160008282546116769190614715565b92505081905550806001600085815260200190815260200160002060010160008282546116a391906147eb565b925050819055506116c2565b82806116ba9061421f565b9350506114db565b8a81995099505050505050505050935093915050565b60606000846003600081036117e85760006001905060005b60025481101561177e578360405160200161170b91906140ca565b604051602081830303815290604052805190602001206001600083815260200190815260200160002060000160405160200161174791906141d9565b604051602081830303815290604052805190602001200361176b576000915061177e565b80806117769061421f565b9150506116f0565b508083604051602001611791919061436b565b604051602081830303815290604052906117e1576040517f08c379a00000000000000000000000000000000000000000000000000000000081526004016117d89190614398565b60405180910390fd5b5050611b8d565b600181036118ec576000805b600254811015611882578360405160200161180f91906140ca565b604051602081830303815290604052805190602001206001600083815260200190815260200160002060000160405160200161184b91906141d9565b604051602081830303815290604052805190602001200361186f5760019150611882565b808061187a9061421f565b9150506117f4565b5080836040516020016118959190614406565b604051602081830303815290604052906118e5576040517f08c379a00000000000000000000000000000000000000000000000000000000081526004016118dc9190614398565b60405180910390fd5b5050611b8c565b6002811480156118fe57506000825114155b15611a045760006001905060005b60025481101561199a578360405160200161192791906140ca565b604051602081830303815290604052805190602001206001600083815260200190815260200160002060000160405160200161196391906141d9565b6040516020818303038152906040528051906020012003611987576000915061199a565b80806119929061421f565b91505061190c565b5080836040516020016119ad919061436b565b604051602081830303815290604052906119fd576040517f08c379a00000000000000000000000000000000000000000000000000000000081526004016119f49190614398565b60405180910390fd5b5050611b8b565b60038103611b8a576000805b600254811015611b245783604051602001611a2b91906140ca565b6040516020818303038152906040528051906020012060016000838152602001908152602001600020600001604051602001611a6791906141d9565b6040516020818303038152906040528051906020012003611b1157600191506001600082815260200190815260200160002060030160009054906101000a900460ff1684604051602001611abb919061447f565b60405160208183030381529060405290611b0b576040517f08c379a0000000000000000000000000000000000000000000000000000000008152600401611b029190614398565b60405180910390fd5b50611b24565b8080611b1c9061421f565b915050611a10565b508083604051602001611b379190614406565b60405160208183030381529060405290611b87576040517f08c379a0000000000000000000000000000000000000000000000000000000008152600401611b7e9190614398565b60405180910390fd5b50505b5b5b5b84600360008103611c995760006001905060005b600254811015611c2f5783604051602001611bbc91906140ca565b6040516020818303038152906040528051906020012060016000838152602001908152602001600020600001604051602001611bf891906141d9565b6040516020818303038152906040528051906020012003611c1c5760009150611c2f565b8080611c279061421f565b915050611ba1565b508083604051602001611c42919061436b565b60405160208183030381529060405290611c92576040517f08c379a0000000000000000000000000000000000000000000000000000000008152600401611c899190614398565b60405180910390fd5b505061203e565b60018103611d9d576000805b600254811015611d335783604051602001611cc091906140ca565b6040516020818303038152906040528051906020012060016000838152602001908152602001600020600001604051602001611cfc91906141d9565b6040516020818303038152906040528051906020012003611d205760019150611d33565b8080611d2b9061421f565b915050611ca5565b508083604051602001611d469190614406565b60405160208183030381529060405290611d96576040517f08c379a0000000000000000000000000000000000000000000000000000000008152600401611d8d9190614398565b60405180910390fd5b505061203d565b600281148015611daf57506000825114155b15611eb55760006001905060005b600254811015611e4b5783604051602001611dd891906140ca565b6040516020818303038152906040528051906020012060016000838152602001908152602001600020600001604051602001611e1491906141d9565b6040516020818303038152906040528051906020012003611e385760009150611e4b565b8080611e439061421f565b915050611dbd565b508083604051602001611e5e919061436b565b60405160208183030381529060405290611eae576040517f08c379a0000000000000000000000000000000000000000000000000000000008152600401611ea59190614398565b60405180910390fd5b505061203c565b6003810361203b576000805b600254811015611fd55783604051602001611edc91906140ca565b6040516020818303038152906040528051906020012060016000838152602001908152602001600020600001604051602001611f1891906141d9565b6040516020818303038152906040528051906020012003611fc257600191506001600082815260200190815260200160002060030160009054906101000a900460ff1684604051602001611f6c919061447f565b60405160208183030381529060405290611fbc576040517f08c379a0000000000000000000000000000000000000000000000000000000008152600401611fb39190614398565b60405180910390fd5b50611fd5565b8080611fcd9061421f565b915050611ec1565b508083604051602001611fe89190614406565b60405160208183030381529060405290612038576040517f08c379a000000000000000000000000000000000000000000000000000000000815260040161202f9190614398565b60405180910390fd5b50505b5b5b5b60008080600091505b6002548210156121f6578b60405160200161206291906140ca565b604051602081830303815290604052805190602001206001600084815260200190815260200160002060000160405160200161209e91906141d9565b60405160208183030381529060405280519060200120036121e3576000600160008481526020019081526020016000206001015414806120f357508a6001600084815260200190815260200160002060010154105b156120fd57600080fd5b60016000838152602001908152602001600020600201548b600160008581526020019081526020016000206001015461213691906147eb565b6001600085815260200190815260200160002060010154600160008681526020019081526020016000206002015461216e9190614749565b61217891906147ba565b61218291906147eb565b9250826001600084815260200190815260200160002060020160008282546121aa91906147eb565b925050819055508a6001600084815260200190815260200160002060010160008282546121d79190614715565b925050819055506121f6565b81806121ee9061421f565b925050612047565b60008091505b600254821015612367578a60405160200161221791906140ca565b604051602081830303815290604052805190602001206001600084815260200190815260200160002060000160405160200161225391906141d9565b60405160208183030381529060405280519060200120036123545760016000838152602001908152602001600020600101548460016000858152602001908152602001600020600201546122a791906147eb565b600160008581526020019081526020016000206001015460016000868152602001908152602001600020600201546122df9190614749565b6122e991906147ba565b6122f391906147eb565b90508360016000848152602001908152602001600020600201600082825461231b9190614715565b925050819055508060016000848152602001908152602001600020600101600082825461234891906147eb565b92505081905550612367565b818061235f9061421f565b9250506121fc565b8a81995099505050505050505050935093915050565b606060008054906101000a900473ffffffffffffffffffffffffffffffffffffffff1673ffffffffffffffffffffffffffffffffffffffff163373ffffffffffffffffffffffffffffffffffffffff161461240d576040517f08c379a0000000000000000000000000000000000000000000000000000000008152600401612404906142b3565b60405180910390fd5b600060025467ffffffffffffffff81111561242b5761242a613968565b5b60405190808252806020026020018201604052801561246457816020015b61245161390f565b8152602001906001900390816124495790505b50905060005b60025481101561258457600160008281526020019081526020016000206040518060800160405290816000820180546124a290614110565b80601f01602080910402602001604051908101604052809291908181526020018280546124ce90614110565b801561251b5780601f106124f05761010080835404028352916020019161251b565b820191906000526020600020905b8154815290600101906020018083116124fe57829003601f168201915b5050505050815260200160018201548152602001600282015481526020016003820160009054906101000a900460ff1615151515815250508282815181106125665761256561481f565b5b6020026020010181905250808061257c9061421f565b91505061246a565b508091505090565b60008054906101000a900473ffffffffffffffffffffffffffffffffffffffff1673ffffffffffffffffffffffffffffffffffffffff163373ffffffffffffffffffffffffffffffffffffffff161461261a576040517f08c379a0000000000000000000000000000000000000000000000000000000008152600401612611906142b3565b60405180910390fd5b846001600081036127265760006001905060005b6002548110156126bc578360405160200161264991906140ca565b604051602081830303815290604052805190602001206001600083815260200190815260200160002060000160405160200161268591906141d9565b60405160208183030381529060405280519060200120036126a957600091506126bc565b80806126b49061421f565b91505061262e565b5080836040516020016126cf919061436b565b6040516020818303038152906040529061271f576040517f08c379a00000000000000000000000000000000000000000000000000000000081526004016127169190614398565b60405180910390fd5b5050612acb565b6001810361282a576000805b6002548110156127c0578360405160200161274d91906140ca565b604051602081830303815290604052805190602001206001600083815260200190815260200160002060000160405160200161278991906141d9565b60405160208183030381529060405280519060200120036127ad57600191506127c0565b80806127b89061421f565b915050612732565b5080836040516020016127d39190614406565b60405160208183030381529060405290612823576040517f08c379a000000000000000000000000000000000000000000000000000000000815260040161281a9190614398565b60405180910390fd5b5050612aca565b60028114801561283c57506000825114155b156129425760006001905060005b6002548110156128d8578360405160200161286591906140ca565b60405160208183030381529060405280519060200120600160008381526020019081526020016000206000016040516020016128a191906141d9565b60405160208183030381529060405280519060200120036128c557600091506128d8565b80806128d09061421f565b91505061284a565b5080836040516020016128eb919061436b565b6040516020818303038152906040529061293b576040517f08c379a00000000000000000000000000000000000000000000000000000000081526004016129329190614398565b60405180910390fd5b5050612ac9565b60038103612ac8576000805b600254811015612a62578360405160200161296991906140ca565b60405160208183030381529060405280519060200120600160008381526020019081526020016000206000016040516020016129a591906141d9565b6040516020818303038152906040528051906020012003612a4f57600191506001600082815260200190815260200160002060030160009054906101000a900460ff16846040516020016129f9919061447f565b60405160208183030381529060405290612a49576040517f08c379a0000000000000000000000000000000000000000000000000000000008152600401612a409190614398565b60405180910390fd5b50612a62565b8080612a5a9061421f565b91505061294e565b508083604051602001612a759190614406565b60405160208183030381529060405290612ac5576040517f08c379a0000000000000000000000000000000000000000000000000000000008152600401612abc9190614398565b60405180910390fd5b50505b5b5b5b85600260008103612bd75760006001905060005b600254811015612b6d5783604051602001612afa91906140ca565b6040516020818303038152906040528051906020012060016000838152602001908152602001600020600001604051602001612b3691906141d9565b6040516020818303038152906040528051906020012003612b5a5760009150612b6d565b8080612b659061421f565b915050612adf565b508083604051602001612b80919061436b565b60405160208183030381529060405290612bd0576040517f08c379a0000000000000000000000000000000000000000000000000000000008152600401612bc79190614398565b60405180910390fd5b5050612f7c565b60018103612cdb576000805b600254811015612c715783604051602001612bfe91906140ca565b6040516020818303038152906040528051906020012060016000838152602001908152602001600020600001604051602001612c3a91906141d9565b6040516020818303038152906040528051906020012003612c5e5760019150612c71565b8080612c699061421f565b915050612be3565b508083604051602001612c849190614406565b60405160208183030381529060405290612cd4576040517f08c379a0000000000000000000000000000000000000000000000000000000008152600401612ccb9190614398565b60405180910390fd5b5050612f7b565b600281148015612ced57506000825114155b15612df35760006001905060005b600254811015612d895783604051602001612d1691906140ca565b6040516020818303038152906040528051906020012060016000838152602001908152602001600020600001604051602001612d5291906141d9565b6040516020818303038152906040528051906020012003612d765760009150612d89565b8080612d819061421f565b915050612cfb565b508083604051602001612d9c919061436b565b60405160208183030381529060405290612dec576040517f08c379a0000000000000000000000000000000000000000000000000000000008152600401612de39190614398565b60405180910390fd5b5050612f7a565b60038103612f79576000805b600254811015612f135783604051602001612e1a91906140ca565b6040516020818303038152906040528051906020012060016000838152602001908152602001600020600001604051602001612e5691906141d9565b6040516020818303038152906040528051906020012003612f0057600191506001600082815260200190815260200160002060030160009054906101000a900460ff1684604051602001612eaa919061447f565b60405160208183030381529060405290612efa576040517f08c379a0000000000000000000000000000000000000000000000000000000008152600401612ef19190614398565b60405180910390fd5b50612f13565b8080612f0b9061421f565b915050612dff565b508083604051602001612f269190614406565b60405160208183030381529060405290612f76576040517f08c379a0000000000000000000000000000000000000000000000000000000008152600401612f6d9190614398565b60405180910390fd5b50505b5b5b5b60005b6002548110156130055789604051602001612f9a91906140ca565b6040516020818303038152906040528051906020012060016000838152602001908152602001600020600001604051602001612fd691906141d9565b604051602081830303815290604052805190602001200315613005578080612ffd9061421f565b915050612f7f565b600088101561301357600097505b600087101561302157600096505b600089510361302e578998505b886001600083815260200190815260200160002060000190816130519190614643565b50876001600083815260200190815260200160002060010181905550866001600083815260200190815260200160002060020181905550856001600083815260200190815260200160002060030160006101000a81548160ff02191690831515021790555050505050505050505050565b6060600060025467ffffffffffffffff8111156130e2576130e1613968565b5b60405190808252806020026020018201604052801561311b57816020015b61310861390f565b8152602001906001900390816131005790505b50905060005b60025481101561326b57600115156001600083815260200190815260200160002060030160009054906101000a900460ff16151503613258576001600082815260200190815260200160002060405180608001604052908160008201805461318890614110565b80601f01602080910402602001604051908101604052809291908181526020018280546131b490614110565b80156132015780601f106131d657610100808354040283529160200191613201565b820191906000526020600020905b8154815290600101906020018083116131e457829003601f168201915b5050505050815260200160018201548152602001600282015481526020016003820160009054906101000a900460ff16151515158152505082828151811061324c5761324b61481f565b5b60200260200101819052505b80806132639061421f565b915050613121565b508091505090565b60008054906101000a900473ffffffffffffffffffffffffffffffffffffffff1673ffffffffffffffffffffffffffffffffffffffff163373ffffffffffffffffffffffffffffffffffffffff1614613301576040517f08c379a00000000000000000000000000000000000000000000000000000000081526004016132f8906142b3565b60405180910390fd5b8260016000810361340d5760006001905060005b6002548110156133a3578360405160200161333091906140ca565b604051602081830303815290604052805190602001206001600083815260200190815260200160002060000160405160200161336c91906141d9565b604051602081830303815290604052805190602001200361339057600091506133a3565b808061339b9061421f565b915050613315565b5080836040516020016133b6919061436b565b60405160208183030381529060405290613406576040517f08c379a00000000000000000000000000000000000000000000000000000000081526004016133fd9190614398565b60405180910390fd5b50506137b2565b60018103613511576000805b6002548110156134a7578360405160200161343491906140ca565b604051602081830303815290604052805190602001206001600083815260200190815260200160002060000160405160200161347091906141d9565b604051602081830303815290604052805190602001200361349457600191506134a7565b808061349f9061421f565b915050613419565b5080836040516020016134ba9190614406565b6040516020818303038152906040529061350a576040517f08c379a00000000000000000000000000000000000000000000000000000000081526004016135019190614398565b60405180910390fd5b50506137b1565b60028114801561352357506000825114155b156136295760006001905060005b6002548110156135bf578360405160200161354c91906140ca565b604051602081830303815290604052805190602001206001600083815260200190815260200160002060000160405160200161358891906141d9565b60405160208183030381529060405280519060200120036135ac57600091506135bf565b80806135b79061421f565b915050613531565b5080836040516020016135d2919061436b565b60405160208183030381529060405290613622576040517f08c379a00000000000000000000000000000000000000000000000000000000081526004016136199190614398565b60405180910390fd5b50506137b0565b600381036137af576000805b600254811015613749578360405160200161365091906140ca565b604051602081830303815290604052805190602001206001600083815260200190815260200160002060000160405160200161368c91906141d9565b604051602081830303815290604052805190602001200361373657600191506001600082815260200190815260200160002060030160009054906101000a900460ff16846040516020016136e0919061447f565b60405160208183030381529060405290613730576040517f08c379a00000000000000000000000000000000000000000000000000000000081526004016137279190614398565b60405180910390fd5b50613749565b80806137419061421f565b915050613635565b50808360405160200161375c9190614406565b604051602081830303815290604052906137ac576040517f08c379a00000000000000000000000000000000000000000000000000000000081526004016137a39190614398565b60405180910390fd5b50505b5b5b5b60008060008092505b60025483101561390557876040516020016137d691906140ca565b604051602081830303815290604052805190602001206001600085815260200190815260200160002060000160405160200161381291906141d9565b60405160208183030381529060405280519060200120036138f25760016000848152602001908152602001600020600101549150600160008481526020019081526020016000206002015490506000878361386d919061484e565b1215613880578161387d90614892565b96505b6000868261388e919061484e565b12156138a1578061389e90614892565b95505b86826138ad919061484e565b600160008581526020019081526020016000206001018190555085816138d3919061484e565b6001600085815260200190815260200160002060020181905550613905565b82806138fd9061421f565b9350506137bb565b5050505050505050565b60405180608001604052806060815260200160008152602001600081526020016000151581525090565b6000604051905090565b600080fd5b600080fd5b600080fd5b600080fd5b6000601f19601f8301169050919050565b7f4e487b7100000000000000000000000000000000000000000000000000000000600052604160045260246000fd5b6139a082613957565b810181811067ffffffffffffffff821117156139bf576139be613968565b5b80604052505050565b60006139d2613939565b90506139de8282613997565b919050565b600067ffffffffffffffff8211156139fe576139fd613968565b5b613a0782613957565b9050602081019050919050565b82818337600083830152505050565b6000613a36613a31846139e3565b6139c8565b905082815260208101848484011115613a5257613a51613952565b5b613a5d848285613a14565b509392505050565b600082601f830112613a7a57613a7961394d565b5b8135613a8a848260208601613a23565b91505092915050565b600060208284031215613aa957613aa8613943565b5b600082013567ffffffffffffffff811115613ac757613ac6613948565b5b613ad384828501613a65565b91505092915050565b600081519050919050565b600082825260208201905092915050565b60005b83811015613b16578082015181840152602081019050613afb565b60008484015250505050565b6000613b2d82613adc565b613b378185613ae7565b9350613b47818560208601613af8565b613b5081613957565b840191505092915050565b6000819050919050565b613b6e81613b5b565b82525050565b60008115159050919050565b613b8981613b74565b82525050565b60006080830160008301518482036000860152613bac8282613b22565b9150506020830151613bc16020860182613b65565b506040830151613bd46040860182613b65565b506060830151613be76060860182613b80565b508091505092915050565b60006020820190508181036000830152613c0c8184613b8f565b905092915050565b613c1d81613b5b565b8114613c2857600080fd5b50565b600081359050613c3a81613c14565b92915050565b600080600060608486031215613c5957613c58613943565b5b600084013567ffffffffffffffff811115613c7757613c76613948565b5b613c8386828701613a65565b9350506020613c9486828701613c2b565b9250506040613ca586828701613c2b565b9150509250925092565b600080600060608486031215613cc857613cc7613943565b5b600084013567ffffffffffffffff811115613ce657613ce5613948565b5b613cf286828701613a65565b9350506020613d0386828701613c2b565b925050604084013567ffffffffffffffff811115613d2457613d23613948565b5b613d3086828701613a65565b9150509250925092565b600082825260208201905092915050565b6000613d5682613adc565b613d608185613d3a565b9350613d70818560208601613af8565b613d7981613957565b840191505092915050565b613d8d81613b5b565b82525050565b60006040820190508181036000830152613dad8185613d4b565b9050613dbc6020830184613d84565b9392505050565b600081519050919050565b600082825260208201905092915050565b6000819050602082019050919050565b60006080830160008301518482036000860152613e0c8282613b22565b9150506020830151613e216020860182613b65565b506040830151613e346040860182613b65565b506060830151613e476060860182613b80565b508091505092915050565b6000613e5e8383613def565b905092915050565b6000602082019050919050565b6000613e7e82613dc3565b613e888185613dce565b935083602082028501613e9a85613ddf565b8060005b85811015613ed65784840389528151613eb78582613e52565b9450613ec283613e66565b925060208a01995050600181019050613e9e565b50829750879550505050505092915050565b60006020820190508181036000830152613f028184613e73565b905092915050565b613f1381613b74565b8114613f1e57600080fd5b50565b600081359050613f3081613f0a565b92915050565b600080600080600060a08688031215613f5257613f51613943565b5b600086013567ffffffffffffffff811115613f7057613f6f613948565b5b613f7c88828901613a65565b955050602086013567ffffffffffffffff811115613f9d57613f9c613948565b5b613fa988828901613a65565b9450506040613fba88828901613c2b565b9350506060613fcb88828901613c2b565b9250506080613fdc88828901613f21565b9150509295509295909350565b6000819050919050565b613ffc81613fe9565b811461400757600080fd5b50565b60008135905061401981613ff3565b92915050565b60008060006060848603121561403857614037613943565b5b600084013567ffffffffffffffff81111561405657614055613948565b5b61406286828701613a65565b93505060206140738682870161400a565b92505060406140848682870161400a565b9150509250925092565b600081905092915050565b60006140a482613adc565b6140ae818561408e565b93506140be818560208601613af8565b80840191505092915050565b60006140d68284614099565b915081905092915050565b7f4e487b7100000000000000000000000000000000000000000000000000000000600052602260045260246000fd5b6000600282049050600182168061412857607f821691505b60208210810361413b5761413a6140e1565b5b50919050565b60008190508160005260206000209050919050565b6000815461416381614110565b61416d818661408e565b94506001821660008114614188576001811461419d576141d0565b60ff19831686528115158202860193506141d0565b6141a685614141565b60005b838110156141c8578154818901526001820191506020810190506141a9565b838801955050505b50505092915050565b60006141e58284614156565b915081905092915050565b7f4e487b7100000000000000000000000000000000000000000000000000000000600052601160045260246000fd5b600061422a82613b5b565b91507fffffffffffffffffffffffffffffffffffffffffffffffffffffffffffffffff820361425c5761425b6141f0565b5b600182019050919050565b7f43616c6c6572206973206e6f74206f776e657200000000000000000000000000600082015250565b600061429d601383613d3a565b91506142a882614267565b602082019050919050565b600060208201905081810360008301526142cc81614290565b9050919050565b7f43727970746f63757272656e6379200000000000000000000000000000000000600082015250565b6000614309600f8361408e565b9150614314826142d3565b600f82019050919050565b7f20616c72656164792065786973742e0000000000000000000000000000000000600082015250565b6000614355600f8361408e565b91506143608261431f565b600f82019050919050565b6000614376826142fc565b91506143828284614099565b915061438d82614348565b915081905092915050565b600060208201905081810360008301526143b28184613d4b565b905092915050565b7f206973206e6f742065786973742e000000000000000000000000000000000000600082015250565b60006143f0600e8361408e565b91506143fb826143ba565b600e82019050919050565b6000614411826142fc565b915061441d8284614099565b9150614428826143e3565b915081905092915050565b7f206973206e6f7420617661696c61626c652e0000000000000000000000000000600082015250565b600061446960128361408e565b915061447482614433565b601282019050919050565b600061448a826142fc565b91506144968284614099565b91506144a18261445c565b915081905092915050565b60006020601f8301049050919050565b600082821b905092915050565b6000600883026144f97fffffffffffffffffffffffffffffffffffffffffffffffffffffffffffffffff826144bc565b61450386836144bc565b95508019841693508086168417925050509392505050565b6000819050919050565b600061454061453b61453684613b5b565b61451b565b613b5b565b9050919050565b6000819050919050565b61455a83614525565b61456e61456682614547565b8484546144c9565b825550505050565b600090565b614583614576565b61458e818484614551565b505050565b5b818110156145b2576145a760008261457b565b600181019050614594565b5050565b601f8211156145f7576145c881614141565b6145d1846144ac565b810160208510156145e0578190505b6145f46145ec856144ac565b830182614593565b50505b505050565b600082821c905092915050565b600061461a600019846008026145fc565b1980831691505092915050565b60006146338383614609565b9150826002028217905092915050565b61464c82613adc565b67ffffffffffffffff81111561466557614664613968565b5b61466f8254614110565b61467a8282856145b6565b600060209050601f8311600181146146ad576000841561469b578287015190505b6146a58582614627565b86555061470d565b601f1984166146bb86614141565b60005b828110156146e3578489015182556001820191506020850194506020810190506146be565b8683101561470057848901516146fc601f891682614609565b8355505b6001600288020188555050505b505050505050565b600061472082613b5b565b915061472b83613b5b565b9250828201905080821115614743576147426141f0565b5b92915050565b600061475482613b5b565b915061475f83613b5b565b925082820261476d81613b5b565b91508282048414831517614784576147836141f0565b5b5092915050565b7f4e487b7100000000000000000000000000000000000000000000000000000000600052601260045260246000fd5b60006147c582613b5b565b91506147d083613b5b565b9250826147e0576147df61478b565b5b828204905092915050565b60006147f682613b5b565b915061480183613b5b565b9250828203905081811115614819576148186141f0565b5b92915050565b7f4e487b7100000000000000000000000000000000000000000000000000000000600052603260045260246000fd5b600061485982613fe9565b915061486483613fe9565b92508282019050828112156000831216838212600084121516171561488c5761488b6141f0565b5b92915050565b600061489d82613fe9565b91507f800000000000000000000000000000000000000000000000000000000000000082036148cf576148ce6141f0565b5b81600003905091905056fea26469706673582212203e386330fc19ab7c012d69bc4d732ec0e19ec95393a91451d7a0bf9801ca17c164736f6c63430008110033",
  "immutableReferences": {},
  "source": "//SPDX-License-Identifier: MIT\r\npragma solidity ^0.8.0;\r\n//import \"hardhat/console.sol\";\r\n//import \"@openzeppelin/contracts/utils/Strings.sol\";\r\n\r\ncontract DeX{\r\n\r\n    address private owner;\r\n    // Rules(16/09/2022):\r\n    // 1. One Y3Token = 100 usd (Our own token)\r\n    // 2. Ether price = 1,472.00 usd\r\n    // 3. Bitcoin price = 19,758.00 usd\r\n    // 4. PAX Gold price = 1,685.00 usd\r\n\r\n    struct pool{\r\n        string cryptoName;\r\n        uint cryptoAmt;\r\n        uint tokenAmt;\r\n        bool cryptoStatus;\r\n    }\r\n\r\n    // act like dictionary in python\r\n    mapping(uint => pool) private cryptoList;\r\n    uint cryptoListNum = 0;\r\n\r\n    event OwnerSet(address indexed oldOwner, address indexed newOwner);\r\n\r\n    modifier isOwner() {\r\n        require(msg.sender == owner, \"Caller is not owner\");\r\n        _;\r\n    }\r\n\r\n    modifier inList(string memory cName, int funcName) {\r\n        if(funcName == 0){\r\n            bool resultStatus = true;\r\n            for (uint j=0; j<cryptoListNum; j++) {\r\n                if(keccak256(abi.encodePacked(cryptoList[j].cryptoName)) == keccak256(abi.encodePacked(cName))){\r\n                    resultStatus = false;\r\n                    break;\r\n                }\r\n            }\r\n            require(resultStatus, string(abi.encodePacked(\"Cryptocurrency \", cName, \" already exist.\")));\r\n        }\r\n        else if(funcName == 1){\r\n            bool resultStatus = false;\r\n            for (uint j=0; j<cryptoListNum; j++) {\r\n                if(keccak256(abi.encodePacked(cryptoList[j].cryptoName)) == keccak256(abi.encodePacked(cName))){\r\n                    resultStatus = true;\r\n                    break;\r\n                }\r\n            }\r\n            require(resultStatus, string(abi.encodePacked(\"Cryptocurrency \", cName, \" is not exist.\")));\r\n        }\r\n        else if(funcName == 2 && bytes(cName).length!=0){\r\n            bool resultStatus = true;\r\n            for (uint j=0; j<cryptoListNum; j++) {\r\n                if(keccak256(abi.encodePacked(cryptoList[j].cryptoName)) == keccak256(abi.encodePacked(cName))){\r\n                    resultStatus = false;\r\n                    break;\r\n                }\r\n            }\r\n            require(resultStatus, string(abi.encodePacked(\"Cryptocurrency \", cName, \" already exist.\")));\r\n        }\r\n        else if(funcName == 3){\r\n            bool resultStatus = false;\r\n            for (uint j=0; j<cryptoListNum; j++) {\r\n                if(keccak256(abi.encodePacked(cryptoList[j].cryptoName)) == keccak256(abi.encodePacked(cName))){\r\n                    resultStatus = true;\r\n                    require(cryptoList[j].cryptoStatus, string(abi.encodePacked(\"Cryptocurrency \", cName, \" is not available.\")));\r\n                    break;\r\n                }\r\n            }\r\n            require(resultStatus, string(abi.encodePacked(\"Cryptocurrency \", cName, \" is not exist.\")));\r\n        }\r\n        _;\r\n    }\r\n\r\n    function addPool(string memory cName, uint cVal, uint tVal) public isOwner inList(cName, 0){\r\n        if(bytes(cName).length!=0){\r\n            cryptoList[cryptoListNum] = pool(cName, cVal, tVal, true);\r\n            cryptoListNum ++;\r\n        }\r\n    }\r\n\r\n    function getPool(string memory cName) public view returns(pool memory){\r\n        uint j;\r\n        for (j=0; j<cryptoListNum; j++) {\r\n            if(keccak256(abi.encodePacked(cryptoList[j].cryptoName)) == keccak256(abi.encodePacked(cName))) return cryptoList[j];\r\n        }\r\n        return cryptoList[j];\r\n    }\r\n\r\n    function addAmt(string memory cName, int cVal, int tVal) public isOwner inList(cName, 1){\r\n        uint j;\r\n        int tempCVal;\r\n        int tempTVal;\r\n        for (j=0; j<cryptoListNum; j++) {\r\n            if(keccak256(abi.encodePacked(cryptoList[j].cryptoName)) == keccak256(abi.encodePacked(cName))){\r\n                tempCVal = int(cryptoList[j].cryptoAmt);\r\n                tempTVal = int(cryptoList[j].tokenAmt);\r\n                if((tempCVal + cVal)<0){\r\n                    cVal = -tempCVal;\r\n                }\r\n                if((tempTVal + tVal)<0){\r\n                    tVal = -tempTVal;\r\n                }\r\n                cryptoList[j].cryptoAmt =  uint(tempCVal + cVal);\r\n                cryptoList[j].tokenAmt = uint(tempTVal + tVal);\r\n                break;\r\n            }\r\n        }\r\n    }\r\n\r\n    // left the newCName empty if no update\r\n    function editPoolDetail(string memory oldCName, string memory newCName, uint cVal, uint tVal, bool pStatus) public isOwner inList(oldCName, 1) inList(newCName, 2){\r\n        uint j;\r\n        for (j=0; j<cryptoListNum; j++) {\r\n            if(keccak256(abi.encodePacked(cryptoList[j].cryptoName)) == keccak256(abi.encodePacked(oldCName))) break;\r\n        }\r\n        if(cVal<0){\r\n            cVal = 0;\r\n        }\r\n        if(tVal<0){\r\n            tVal = 0;\r\n        }\r\n        if(bytes(newCName).length==0){\r\n            newCName = oldCName;\r\n        }\r\n        cryptoList[j].cryptoName = newCName;\r\n        cryptoList[j].cryptoAmt = cVal;\r\n        cryptoList[j].tokenAmt = tVal;\r\n        cryptoList[j].cryptoStatus = pStatus;\r\n    }\r\n\r\n    function listAllPool() public isOwner view returns(pool[] memory){\r\n        pool[] memory tempPool = new pool[](cryptoListNum);\r\n        for(uint j=0; j<cryptoListNum; j++){\r\n            tempPool[j]=cryptoList[j];\r\n        }\r\n        return tempPool;\r\n    }\r\n\r\n    function listAllValidPool() public view returns(pool[] memory){\r\n        pool[] memory tempPool = new pool[](cryptoListNum);\r\n        for(uint j=0; j<cryptoListNum; j++){\r\n            if(cryptoList[j].cryptoStatus == true) tempPool[j]=cryptoList[j];\r\n        }\r\n        return tempPool;\r\n    }\r\n\r\n    constructor() {\r\n        owner = msg.sender; \r\n        emit OwnerSet(address(0), owner);\r\n        addPool('Bitcoin', 101, 20000);\r\n        addPool('Ether', 1359, 20000);\r\n        addPool('PAX Gold', 1187, 20000);\r\n        //console.log(\"Pool created successfully. Liquidity Provider:\", msg.sender);\r\n    }\r\n\r\n    // Buy exchangeAmt of cryptoType with X targetCryptoType\r\n    function exchangeBuy(string memory cryptoType, uint exchangeAmt, string memory targetCryptoType) public inList(cryptoType, 3) inList(targetCryptoType, 3) returns(string memory, uint){\r\n        // Exchange cryptoType to token\r\n        uint token = 0;\r\n        uint j;\r\n        uint i;\r\n        for(j=0; j<cryptoListNum; j++){\r\n            if(keccak256(abi.encodePacked(cryptoList[j].cryptoName)) == keccak256(abi.encodePacked(cryptoType))){\r\n                if(cryptoList[j].cryptoAmt==0 || cryptoList[j].cryptoAmt<exchangeAmt){\r\n                    //console.log(string(abi.encodePacked(\"Cryptocurrency \", cryptoList[j].cryptoName, \" pool is not enough. Maximum amount: \", Strings.toString(cryptoList[j].cryptoAmt))));\r\n                    revert();\r\n                }\r\n                token = ((cryptoList[j].tokenAmt*cryptoList[j].cryptoAmt)/(cryptoList[j].cryptoAmt-exchangeAmt))-cryptoList[j].tokenAmt;\r\n                cryptoList[j].tokenAmt -= token;\r\n                cryptoList[j].cryptoAmt += exchangeAmt;\r\n                break;\r\n            }\r\n        }\r\n\r\n        // Token to targetCryptoType\r\n        uint returnAmt = 0;\r\n        for(i=0; i<cryptoListNum; i++){\r\n            if(keccak256(abi.encodePacked(cryptoList[i].cryptoName)) == keccak256(abi.encodePacked(targetCryptoType))){\r\n                returnAmt = ((cryptoList[i].tokenAmt*cryptoList[i].cryptoAmt)/(cryptoList[i].tokenAmt-token))-cryptoList[i].cryptoAmt;\r\n                cryptoList[i].tokenAmt += token;\r\n                cryptoList[i].cryptoAmt -= returnAmt;\r\n                break;\r\n            }\r\n        }\r\n        \r\n        return (targetCryptoType, returnAmt);\r\n    }\r\n\r\n    // Sell exchangeAmt of cryptoType to X TargetCryptoType\r\n    function exchangeSell(string memory cryptoType, uint exchangeAmt, string memory targetCryptoType) public inList(cryptoType, 3) inList(targetCryptoType, 3) returns(string memory, uint){\r\n        // Exchange cryptoType to token\r\n        uint token = 0;\r\n        uint i;\r\n        uint j;\r\n        for(j=0; j<cryptoListNum; j++){\r\n            if(keccak256(abi.encodePacked(cryptoList[j].cryptoName)) == keccak256(abi.encodePacked(cryptoType))){\r\n                token = cryptoList[j].tokenAmt-((cryptoList[j].tokenAmt*cryptoList[j].cryptoAmt)/(cryptoList[j].cryptoAmt+exchangeAmt));\r\n                cryptoList[j].tokenAmt -= token;\r\n                cryptoList[j].cryptoAmt += exchangeAmt;\r\n                break;\r\n            }\r\n        }\r\n\r\n        // Token to targetCryptoType\r\n        uint returnAmt = 0;\r\n        for(i=0; i<cryptoListNum; i++){\r\n            if(keccak256(abi.encodePacked(cryptoList[i].cryptoName)) == keccak256(abi.encodePacked(targetCryptoType))){\r\n                if(cryptoList[i].cryptoAmt==0){\r\n                    //console.log(string(abi.encodePacked(\"Cryptocurrency \", cryptoList[i].cryptoName, \" pool is empty.\")));\r\n                    cryptoList[j].tokenAmt += token;\r\n                    cryptoList[j].cryptoAmt -= exchangeAmt;\r\n                    revert();\r\n                }\r\n                returnAmt = cryptoList[i].cryptoAmt-((cryptoList[i].tokenAmt*cryptoList[i].cryptoAmt)/(cryptoList[i].tokenAmt+token));\r\n                cryptoList[i].tokenAmt += token;\r\n                cryptoList[i].cryptoAmt -= returnAmt;\r\n                break;\r\n            }\r\n        }\r\n        \r\n        return (targetCryptoType, returnAmt);\r\n    }\r\n}",
  "sourcePath": "d:\\Documents\\TARC\\Degree\\Y3S1\\Blockchain\\Y3S1_Blockchain\\contracts\\DeX.sol",
  "compiler": {
    "name": "solc",
    "version": "0.8.17+commit.8df45f5f.Emscripten.clang"
  },
  "schemaVersion": "3.4.10",
  "updatedAt": "2022-09-30T17:01:49.000Z",
  "networkType": "ethereum",
  "devdoc": {
    "kind": "dev",
    "methods": {},
    "version": 1
  },
  "userdoc": {
    "kind": "user",
    "methods": {},
    "version": 1
  }
}