{
  "contractName": "DeX",
  "abi": [
    {
      "inputs": [],
      "stateMutability": "nonpayable",
      "type": "constructor"
    },
    {
      "anonymous": false,
      "inputs": [
        {
          "indexed": true,
          "internalType": "address",
          "name": "addr",
          "type": "address"
        },
        {
          "indexed": true,
          "internalType": "uint256",
          "name": "amount",
          "type": "uint256"
        }
      ],
      "name": "Deposited",
      "type": "event"
    },
    {
      "anonymous": false,
      "inputs": [
        {
          "indexed": true,
          "internalType": "address",
          "name": "oldOwner",
          "type": "address"
        },
        {
          "indexed": true,
          "internalType": "address",
          "name": "newOwner",
          "type": "address"
        }
      ],
      "name": "OwnerSet",
      "type": "event"
    },
    {
      "anonymous": false,
      "inputs": [
        {
          "indexed": true,
          "internalType": "string",
          "name": "cryptoName",
          "type": "string"
        },
        {
          "indexed": true,
          "internalType": "uint256",
          "name": "cVal",
          "type": "uint256"
        },
        {
          "indexed": true,
          "internalType": "uint256",
          "name": "tVal",
          "type": "uint256"
        }
      ],
      "name": "PoolValue",
      "type": "event"
    },
    {
      "anonymous": false,
      "inputs": [
        {
          "indexed": true,
          "internalType": "address",
          "name": "addr",
          "type": "address"
        },
        {
          "indexed": true,
          "internalType": "uint256",
          "name": "amount",
          "type": "uint256"
        }
      ],
      "name": "Withdrawn",
      "type": "event"
    },
    {
      "inputs": [
        {
          "internalType": "uint256",
          "name": "amount",
          "type": "uint256"
        }
      ],
      "name": "deposit",
      "outputs": [],
      "stateMutability": "payable",
      "type": "function",
      "payable": true
    },
    {
      "inputs": [
        {
          "internalType": "uint256",
          "name": "amount",
          "type": "uint256"
        }
      ],
      "name": "withdraw",
      "outputs": [],
      "stateMutability": "nonpayable",
      "type": "function"
    },
    {
      "inputs": [],
      "name": "getEther",
      "outputs": [
        {
          "internalType": "uint256",
          "name": "",
          "type": "uint256"
        }
      ],
      "stateMutability": "view",
      "type": "function",
      "constant": true
    },
    {
      "inputs": [],
      "name": "balanceOf",
      "outputs": [
        {
          "internalType": "uint256",
          "name": "",
          "type": "uint256"
        }
      ],
      "stateMutability": "view",
      "type": "function",
      "constant": true
    },
    {
      "inputs": [
        {
          "internalType": "string",
          "name": "cName",
          "type": "string"
        },
        {
          "internalType": "uint256",
          "name": "cVal",
          "type": "uint256"
        },
        {
          "internalType": "uint256",
          "name": "tVal",
          "type": "uint256"
        }
      ],
      "name": "addPool",
      "outputs": [],
      "stateMutability": "nonpayable",
      "type": "function"
    },
    {
      "inputs": [
        {
          "internalType": "string",
          "name": "cName",
          "type": "string"
        },
        {
          "internalType": "uint256",
          "name": "cVal",
          "type": "uint256"
        },
        {
          "internalType": "uint256",
          "name": "tVal",
          "type": "uint256"
        }
      ],
      "name": "initPool",
      "outputs": [],
      "stateMutability": "nonpayable",
      "type": "function"
    },
    {
      "inputs": [
        {
          "internalType": "string",
          "name": "cName",
          "type": "string"
        }
      ],
      "name": "getPool",
      "outputs": [
        {
          "components": [
            {
              "internalType": "string",
              "name": "cryptoName",
              "type": "string"
            },
            {
              "internalType": "uint256",
              "name": "cryptoAmt",
              "type": "uint256"
            },
            {
              "internalType": "uint256",
              "name": "tokenAmt",
              "type": "uint256"
            },
            {
              "internalType": "bool",
              "name": "cryptoStatus",
              "type": "bool"
            }
          ],
          "internalType": "struct DeX.pool",
          "name": "",
          "type": "tuple"
        }
      ],
      "stateMutability": "view",
      "type": "function",
      "constant": true
    },
    {
      "inputs": [
        {
          "internalType": "string",
          "name": "cName",
          "type": "string"
        },
        {
          "internalType": "int256",
          "name": "cVal",
          "type": "int256"
        },
        {
          "internalType": "int256",
          "name": "tVal",
          "type": "int256"
        }
      ],
      "name": "addAmt",
      "outputs": [],
      "stateMutability": "nonpayable",
      "type": "function"
    },
    {
      "inputs": [
        {
          "internalType": "string",
          "name": "oldCName",
          "type": "string"
        },
        {
          "internalType": "string",
          "name": "newCName",
          "type": "string"
        },
        {
          "internalType": "uint256",
          "name": "cVal",
          "type": "uint256"
        },
        {
          "internalType": "uint256",
          "name": "tVal",
          "type": "uint256"
        },
        {
          "internalType": "bool",
          "name": "pStatus",
          "type": "bool"
        }
      ],
      "name": "editPoolDetail",
      "outputs": [],
      "stateMutability": "nonpayable",
      "type": "function"
    },
    {
      "inputs": [],
      "name": "listAllPool",
      "outputs": [
        {
          "components": [
            {
              "internalType": "string",
              "name": "cryptoName",
              "type": "string"
            },
            {
              "internalType": "uint256",
              "name": "cryptoAmt",
              "type": "uint256"
            },
            {
              "internalType": "uint256",
              "name": "tokenAmt",
              "type": "uint256"
            },
            {
              "internalType": "bool",
              "name": "cryptoStatus",
              "type": "bool"
            }
          ],
          "internalType": "struct DeX.pool[]",
          "name": "",
          "type": "tuple[]"
        }
      ],
      "stateMutability": "view",
      "type": "function",
      "constant": true
    },
    {
      "inputs": [],
      "name": "listAllValidPool",
      "outputs": [
        {
          "components": [
            {
              "internalType": "string",
              "name": "cryptoName",
              "type": "string"
            },
            {
              "internalType": "uint256",
              "name": "cryptoAmt",
              "type": "uint256"
            },
            {
              "internalType": "uint256",
              "name": "tokenAmt",
              "type": "uint256"
            },
            {
              "internalType": "bool",
              "name": "cryptoStatus",
              "type": "bool"
            }
          ],
          "internalType": "struct DeX.pool[]",
          "name": "",
          "type": "tuple[]"
        }
      ],
      "stateMutability": "view",
      "type": "function",
      "constant": true
    },
    {
      "inputs": [
        {
          "internalType": "string",
          "name": "cryptoType",
          "type": "string"
        },
        {
          "internalType": "uint256",
          "name": "exchangeAmt",
          "type": "uint256"
        },
        {
          "internalType": "string",
          "name": "targetCryptoType",
          "type": "string"
        }
      ],
      "name": "exchangeBuy",
      "outputs": [
        {
          "internalType": "string",
          "name": "",
          "type": "string"
        },
        {
          "internalType": "uint256",
          "name": "",
          "type": "uint256"
        }
      ],
      "stateMutability": "nonpayable",
      "type": "function"
    },
    {
      "inputs": [
        {
          "internalType": "string",
          "name": "cryptoType",
          "type": "string"
        },
        {
          "internalType": "uint256",
          "name": "exchangeAmt",
          "type": "uint256"
        },
        {
          "internalType": "string",
          "name": "targetCryptoType",
          "type": "string"
        }
      ],
      "name": "exchangeSell",
      "outputs": [
        {
          "internalType": "string",
          "name": "",
          "type": "string"
        },
        {
          "internalType": "uint256",
          "name": "",
          "type": "uint256"
        }
      ],
      "stateMutability": "nonpayable",
      "type": "function"
    }
  ],
  "bytecode": "0x608060405260006003553480156200001657600080fd5b50336000806101000a81548173ffffffffffffffffffffffffffffffffffffffff021916908373ffffffffffffffffffffffffffffffffffffffff16021790555060008054906101000a900473ffffffffffffffffffffffffffffffffffffffff1673ffffffffffffffffffffffffffffffffffffffff16600073ffffffffffffffffffffffffffffffffffffffff167f342827c97908e5e2f71151c08502a66d44b6f758e3ac2f1de95f02eb95f0a73560405160405180910390a3620001256040518060400160405280600881526020017f77426974636f696e00000000000000000000000000000000000000000000000081525064174876e80065015607392200620001d460201b60201c565b620001796040518060400160405280600381526020017f424154000000000000000000000000000000000000000000000000000000000081525066031bd124399400642e90edd000620001d460201b60201c565b620001ce6040518060400160405280600381526020017f424e42000000000000000000000000000000000000000000000000000000000081525066034ebd544930006501d1a94a2000620001d460201b60201c565b62001036565b60008054906101000a900473ffffffffffffffffffffffffffffffffffffffff1673ffffffffffffffffffffffffffffffffffffffff163373ffffffffffffffffffffffffffffffffffffffff161462000265576040517f08c379a00000000000000000000000000000000000000000000000000000000081526004016200025c90620008b9565b60405180910390fd5b826000808103620003815760006001905060005b60035481101562000311578360405160200162000297919062000954565b6040516020818303038152906040528051906020012060016000838152602001908152602001600020600001604051602001620002d5919062000a75565b6040516020818303038152906040528051906020012003620002fb576000915062000311565b8080620003089062000ac7565b91505062000279565b50808360405160200162000326919062000bb4565b6040516020818303038152906040529062000379576040517f08c379a000000000000000000000000000000000000000000000000000000000815260040162000370919062000c39565b60405180910390fd5b50506200075e565b6001810362000496576000805b600354811015620004265783604051602001620003ac919062000954565b6040516020818303038152906040528051906020012060016000838152602001908152602001600020600001604051602001620003ea919062000a75565b604051602081830303815290604052805190602001200362000410576001915062000426565b80806200041d9062000ac7565b9150506200038e565b5080836040516020016200043b919062000cad565b604051602081830303815290604052906200048e576040517f08c379a000000000000000000000000000000000000000000000000000000000815260040162000485919062000c39565b60405180910390fd5b50506200075d565b600281148015620004a957506000825114155b15620005c05760006001905060005b600354811015620005505783604051602001620004d6919062000954565b604051602081830303815290604052805190602001206001600083815260200190815260200160002060000160405160200162000514919062000a75565b60405160208183030381529060405280519060200120036200053a576000915062000550565b8080620005479062000ac7565b915050620004b8565b50808360405160200162000565919062000bb4565b60405160208183030381529060405290620005b8576040517f08c379a0000000000000000000000000000000000000000000000000000000008152600401620005af919062000c39565b60405180910390fd5b50506200075c565b600381036200075b576000805b600354811015620006f05783604051602001620005eb919062000954565b604051602081830303815290604052805190602001206001600083815260200190815260200160002060000160405160200162000629919062000a75565b6040516020818303038152906040528051906020012003620006da57600191506001600082815260200190815260200160002060030160009054906101000a900460ff168460405160200162000680919062000d30565b60405160208183030381529060405290620006d3576040517f08c379a0000000000000000000000000000000000000000000000000000000008152600401620006ca919062000c39565b60405180910390fd5b50620006f0565b8080620006e79062000ac7565b915050620005cd565b50808360405160200162000705919062000cad565b6040516020818303038152906040529062000758576040517f08c379a00000000000000000000000000000000000000000000000000000000081526004016200074f919062000c39565b60405180910390fd5b50505b5b5b5b60008551146200080b576040518060800160405280868152602001858152602001848152602001600115158152506001600060035481526020019081526020016000206000820151816000019081620007b8919062000f4f565b50602082015181600101556040820151816002015560608201518160030160006101000a81548160ff02191690831515021790555090505060036000815480929190620008059062000ac7565b91905055505b8284866040516200081d919062000954565b60405180910390207f1c3e2c51276ce91148db2972b4614c440d1eff2734afc30a9b675564428f62ef60405160405180910390a45050505050565b600082825260208201905092915050565b7f43616c6c6572206973206e6f74206f776e657200000000000000000000000000600082015250565b6000620008a160138362000858565b9150620008ae8262000869565b602082019050919050565b60006020820190508181036000830152620008d48162000892565b9050919050565b600081519050919050565b600081905092915050565b60005b8381101562000911578082015181840152602081019050620008f4565b60008484015250505050565b60006200092a82620008db565b620009368185620008e6565b935062000948818560208601620008f1565b80840191505092915050565b60006200096282846200091d565b915081905092915050565b7f4e487b7100000000000000000000000000000000000000000000000000000000600052602260045260246000fd5b60006002820490506001821680620009b557607f821691505b602082108103620009cb57620009ca6200096d565b5b50919050565b60008190508160005260206000209050919050565b60008154620009f5816200099c565b62000a018186620008e6565b9450600182166000811462000a1f576001811462000a355762000a6c565b60ff198316865281151582028601935062000a6c565b62000a4085620009d1565b60005b8381101562000a645781548189015260018201915060208101905062000a43565b838801955050505b50505092915050565b600062000a838284620009e6565b915081905092915050565b7f4e487b7100000000000000000000000000000000000000000000000000000000600052601160045260246000fd5b6000819050919050565b600062000ad48262000abd565b91507fffffffffffffffffffffffffffffffffffffffffffffffffffffffffffffffff820362000b095762000b0862000a8e565b5b600182019050919050565b7f43727970746f63757272656e6379200000000000000000000000000000000000600082015250565b600062000b4c600f83620008e6565b915062000b598262000b14565b600f82019050919050565b7f20616c72656164792065786973742e0000000000000000000000000000000000600082015250565b600062000b9c600f83620008e6565b915062000ba98262000b64565b600f82019050919050565b600062000bc18262000b3d565b915062000bcf82846200091d565b915062000bdc8262000b8d565b915081905092915050565b6000601f19601f8301169050919050565b600062000c0582620008db565b62000c11818562000858565b935062000c23818560208601620008f1565b62000c2e8162000be7565b840191505092915050565b6000602082019050818103600083015262000c55818462000bf8565b905092915050565b7f206973206e6f742065786973742e000000000000000000000000000000000000600082015250565b600062000c95600e83620008e6565b915062000ca28262000c5d565b600e82019050919050565b600062000cba8262000b3d565b915062000cc882846200091d565b915062000cd58262000c86565b915081905092915050565b7f206973206e6f7420617661696c61626c652e0000000000000000000000000000600082015250565b600062000d18601283620008e6565b915062000d258262000ce0565b601282019050919050565b600062000d3d8262000b3d565b915062000d4b82846200091d565b915062000d588262000d09565b915081905092915050565b7f4e487b7100000000000000000000000000000000000000000000000000000000600052604160045260246000fd5b60006020601f8301049050919050565b600082821b905092915050565b60006008830262000de17fffffffffffffffffffffffffffffffffffffffffffffffffffffffffffffffff8262000da2565b62000ded868362000da2565b95508019841693508086168417925050509392505050565b6000819050919050565b600062000e3062000e2a62000e248462000abd565b62000e05565b62000abd565b9050919050565b6000819050919050565b62000e4c8362000e0f565b62000e6462000e5b8262000e37565b84845462000daf565b825550505050565b600090565b62000e7b62000e6c565b62000e8881848462000e41565b505050565b5b8181101562000eb05762000ea460008262000e71565b60018101905062000e8e565b5050565b601f82111562000eff5762000ec981620009d1565b62000ed48462000d92565b8101602085101562000ee4578190505b62000efc62000ef38562000d92565b83018262000e8d565b50505b505050565b600082821c905092915050565b600062000f246000198460080262000f04565b1980831691505092915050565b600062000f3f838362000f11565b9150826002028217905092915050565b62000f5a82620008db565b67ffffffffffffffff81111562000f765762000f7562000d63565b5b62000f8282546200099c565b62000f8f82828562000eb4565b600060209050601f83116001811462000fc7576000841562000fb2578287015190505b62000fbe858262000f31565b8655506200102e565b601f19841662000fd786620009d1565b60005b82811015620010015784890151825560018201915060208501945060208101905062000fda565b868310156200102157848901516200101d601f89168262000f11565b8355505b6001600288020188555050505b505050505050565b6155d380620010466000396000f3fe6080604052600436106100c25760003560e01c8063b1fc4dc61161007f578063bf9b12b911610059578063bf9b12b91461026d578063de0ff7c514610296578063e7710f68146102c1578063fc81792a146102ec576100c2565b8063b1fc4dc6146101e8578063b6b55f2514610226578063ba0d181b14610242576100c2565b80632e1a7d4d146100c757806341d7b026146100f0578063493726dc1461012d578063722713f71461015657806376a38cd6146101815780638012cf5c146101aa575b600080fd5b3480156100d357600080fd5b506100ee60048036038101906100e991906145fe565b610315565b005b3480156100fc57600080fd5b5061011760048036038101906101129190614771565b610445565b60405161012491906148c6565b60405180910390f35b34801561013957600080fd5b50610154600480360381019061014f91906148e8565b6106a4565b005b34801561016257600080fd5b5061016b610cd5565b6040516101789190614966565b60405180910390f35b34801561018d57600080fd5b506101a860048036038101906101a391906148e8565b610d1c565b005b3480156101b657600080fd5b506101d160048036038101906101cc9190614981565b611361565b6040516101df929190614a56565b60405180910390f35b3480156101f457600080fd5b5061020f600480360381019061020a9190614981565b61212c565b60405161021d929190614a56565b60405180910390f35b610240600480360381019061023b91906145fe565b612ebf565b005b34801561024e57600080fd5b50610257612f68565b6040516102649190614bab565b60405180910390f35b34801561027957600080fd5b50610294600480360381019061028f9190614bf9565b613177565b005b3480156102a257600080fd5b506102ab613cf1565b6040516102b89190614966565b60405180910390f35b3480156102cd57600080fd5b506102d6613cf9565b6040516102e39190614bab565b60405180910390f35b3480156102f857600080fd5b50610313600480360381019061030e9190614ce2565b613eaa565b005b600260003373ffffffffffffffffffffffffffffffffffffffff1673ffffffffffffffffffffffffffffffffffffffff1681526020019081526020016000205481111561036157600080fd5b80600260003373ffffffffffffffffffffffffffffffffffffffff1673ffffffffffffffffffffffffffffffffffffffff16815260200190815260200160002060008282546103b09190614d80565b925050819055503373ffffffffffffffffffffffffffffffffffffffff166108fc479081150290604051600060405180830381858888f193505050501580156103fd573d6000803e3d6000fd5b50803373ffffffffffffffffffffffffffffffffffffffff167f7084f5476618d8e60b11ef0d7d3f06914655adb8793e28ff7f018d4c76d505d560405160405180910390a350565b61044d61458a565b60005b6003548110156105bc578260405160200161046b9190614df0565b60405160208183030381529060405280519060200120600160008381526020019081526020016000206000016040516020016104a79190614eff565b60405160208183030381529060405280519060200120036105a957600160008281526020019081526020016000206040518060800160405290816000820180546104f090614e36565b80601f016020809104026020016040519081016040528092919081815260200182805461051c90614e36565b80156105695780601f1061053e57610100808354040283529160200191610569565b820191906000526020600020905b81548152906001019060200180831161054c57829003601f168201915b5050505050815260200160018201548152602001600282015481526020016003820160009054906101000a900460ff16151515158152505091505061069f565b80806105b490614f16565b915050610450565b600160008281526020019081526020016000206040518060800160405290816000820180546105ea90614e36565b80601f016020809104026020016040519081016040528092919081815260200182805461061690614e36565b80156106635780601f1061063857610100808354040283529160200191610663565b820191906000526020600020905b81548152906001019060200180831161064657829003601f168201915b5050505050815260200160018201548152602001600282015481526020016003820160009054906101000a900460ff1615151515815250509150505b919050565b60008054906101000a900473ffffffffffffffffffffffffffffffffffffffff1673ffffffffffffffffffffffffffffffffffffffff163373ffffffffffffffffffffffffffffffffffffffff1614610732576040517f08c379a000000000000000000000000000000000000000000000000000000000815260040161072990614faa565b60405180910390fd5b82600080810361083d5760006001905060005b6003548110156107d357836040516020016107609190614df0565b604051602081830303815290604052805190602001206001600083815260200190815260200160002060000160405160200161079c9190614eff565b60405160208183030381529060405280519060200120036107c057600091506107d3565b80806107cb90614f16565b915050610745565b5080836040516020016107e69190615062565b60405160208183030381529060405290610836576040517f08c379a000000000000000000000000000000000000000000000000000000000815260040161082d919061508f565b60405180910390fd5b5050610be2565b60018103610941576000805b6003548110156108d757836040516020016108649190614df0565b60405160208183030381529060405280519060200120600160008381526020019081526020016000206000016040516020016108a09190614eff565b60405160208183030381529060405280519060200120036108c457600191506108d7565b80806108cf90614f16565b915050610849565b5080836040516020016108ea91906150fd565b6040516020818303038152906040529061093a576040517f08c379a0000000000000000000000000000000000000000000000000000000008152600401610931919061508f565b60405180910390fd5b5050610be1565b60028114801561095357506000825114155b15610a595760006001905060005b6003548110156109ef578360405160200161097c9190614df0565b60405160208183030381529060405280519060200120600160008381526020019081526020016000206000016040516020016109b89190614eff565b60405160208183030381529060405280519060200120036109dc57600091506109ef565b80806109e790614f16565b915050610961565b508083604051602001610a029190615062565b60405160208183030381529060405290610a52576040517f08c379a0000000000000000000000000000000000000000000000000000000008152600401610a49919061508f565b60405180910390fd5b5050610be0565b60038103610bdf576000805b600354811015610b795783604051602001610a809190614df0565b6040516020818303038152906040528051906020012060016000838152602001908152602001600020600001604051602001610abc9190614eff565b6040516020818303038152906040528051906020012003610b6657600191506001600082815260200190815260200160002060030160009054906101000a900460ff1684604051602001610b109190615176565b60405160208183030381529060405290610b60576040517f08c379a0000000000000000000000000000000000000000000000000000000008152600401610b57919061508f565b60405180910390fd5b50610b79565b8080610b7190614f16565b915050610a65565b508083604051602001610b8c91906150fd565b60405160208183030381529060405290610bdc576040517f08c379a0000000000000000000000000000000000000000000000000000000008152600401610bd3919061508f565b60405180910390fd5b50505b5b5b5b6000855114610c8a576040518060800160405280868152602001858152602001848152602001600115158152506001600060035481526020019081526020016000206000820151816000019081610c39919061533a565b50602082015181600101556040820151816002015560608201518160030160006101000a81548160ff02191690831515021790555090505060036000815480929190610c8490614f16565b91905055505b828486604051610c9a9190614df0565b60405180910390207f1c3e2c51276ce91148db2972b4614c440d1eff2734afc30a9b675564428f62ef60405160405180910390a45050505050565b6000600260003373ffffffffffffffffffffffffffffffffffffffff1673ffffffffffffffffffffffffffffffffffffffff16815260200190815260200160002054905090565b826000808103610e275760006001905060005b600354811015610dbd5783604051602001610d4a9190614df0565b6040516020818303038152906040528051906020012060016000838152602001908152602001600020600001604051602001610d869190614eff565b6040516020818303038152906040528051906020012003610daa5760009150610dbd565b8080610db590614f16565b915050610d2f565b508083604051602001610dd09190615062565b60405160208183030381529060405290610e20576040517f08c379a0000000000000000000000000000000000000000000000000000000008152600401610e17919061508f565b60405180910390fd5b50506111cc565b60018103610f2b576000805b600354811015610ec15783604051602001610e4e9190614df0565b6040516020818303038152906040528051906020012060016000838152602001908152602001600020600001604051602001610e8a9190614eff565b6040516020818303038152906040528051906020012003610eae5760019150610ec1565b8080610eb990614f16565b915050610e33565b508083604051602001610ed491906150fd565b60405160208183030381529060405290610f24576040517f08c379a0000000000000000000000000000000000000000000000000000000008152600401610f1b919061508f565b60405180910390fd5b50506111cb565b600281148015610f3d57506000825114155b156110435760006001905060005b600354811015610fd95783604051602001610f669190614df0565b6040516020818303038152906040528051906020012060016000838152602001908152602001600020600001604051602001610fa29190614eff565b6040516020818303038152906040528051906020012003610fc65760009150610fd9565b8080610fd190614f16565b915050610f4b565b508083604051602001610fec9190615062565b6040516020818303038152906040529061103c576040517f08c379a0000000000000000000000000000000000000000000000000000000008152600401611033919061508f565b60405180910390fd5b50506111ca565b600381036111c9576000805b600354811015611163578360405160200161106a9190614df0565b60405160208183030381529060405280519060200120600160008381526020019081526020016000206000016040516020016110a69190614eff565b604051602081830303815290604052805190602001200361115057600191506001600082815260200190815260200160002060030160009054906101000a900460ff16846040516020016110fa9190615176565b6040516020818303038152906040529061114a576040517f08c379a0000000000000000000000000000000000000000000000000000000008152600401611141919061508f565b60405180910390fd5b50611163565b808061115b90614f16565b91505061104f565b50808360405160200161117691906150fd565b604051602081830303815290604052906111c6576040517f08c379a00000000000000000000000000000000000000000000000000000000081526004016111bd919061508f565b60405180910390fd5b50505b5b5b5b82600260003373ffffffffffffffffffffffffffffffffffffffff1673ffffffffffffffffffffffffffffffffffffffff16815260200190815260200160002054101561121857600080fd5b600085511461131657604051806080016040528086815260200185815260200184815260200160011515815250600160006003548152602001908152602001600020600082015181600001908161126f919061533a565b50602082015181600101556040820151816002015560608201518160030160006101000a81548160ff021916908315150217905550905050600360008154809291906112ba90614f16565b919050555082600260003373ffffffffffffffffffffffffffffffffffffffff1673ffffffffffffffffffffffffffffffffffffffff168152602001908152602001600020600082825461130e9190614d80565b925050819055505b8284866040516113269190614df0565b60405180910390207f1c3e2c51276ce91148db2972b4614c440d1eff2734afc30a9b675564428f62ef60405160405180910390a45050505050565b60606000846003600081036114715760006001905060005b60035481101561140757836040516020016113949190614df0565b60405160208183030381529060405280519060200120600160008381526020019081526020016000206000016040516020016113d09190614eff565b60405160208183030381529060405280519060200120036113f45760009150611407565b80806113ff90614f16565b915050611379565b50808360405160200161141a9190615062565b6040516020818303038152906040529061146a576040517f08c379a0000000000000000000000000000000000000000000000000000000008152600401611461919061508f565b60405180910390fd5b5050611816565b60018103611575576000805b60035481101561150b57836040516020016114989190614df0565b60405160208183030381529060405280519060200120600160008381526020019081526020016000206000016040516020016114d49190614eff565b60405160208183030381529060405280519060200120036114f8576001915061150b565b808061150390614f16565b91505061147d565b50808360405160200161151e91906150fd565b6040516020818303038152906040529061156e576040517f08c379a0000000000000000000000000000000000000000000000000000000008152600401611565919061508f565b60405180910390fd5b5050611815565b60028114801561158757506000825114155b1561168d5760006001905060005b60035481101561162357836040516020016115b09190614df0565b60405160208183030381529060405280519060200120600160008381526020019081526020016000206000016040516020016115ec9190614eff565b60405160208183030381529060405280519060200120036116105760009150611623565b808061161b90614f16565b915050611595565b5080836040516020016116369190615062565b60405160208183030381529060405290611686576040517f08c379a000000000000000000000000000000000000000000000000000000000815260040161167d919061508f565b60405180910390fd5b5050611814565b60038103611813576000805b6003548110156117ad57836040516020016116b49190614df0565b60405160208183030381529060405280519060200120600160008381526020019081526020016000206000016040516020016116f09190614eff565b604051602081830303815290604052805190602001200361179a57600191506001600082815260200190815260200160002060030160009054906101000a900460ff16846040516020016117449190615176565b60405160208183030381529060405290611794576040517f08c379a000000000000000000000000000000000000000000000000000000000815260040161178b919061508f565b60405180910390fd5b506117ad565b80806117a590614f16565b915050611699565b5080836040516020016117c091906150fd565b60405160208183030381529060405290611810576040517f08c379a0000000000000000000000000000000000000000000000000000000008152600401611807919061508f565b60405180910390fd5b50505b5b5b5b846003600081036119225760006001905060005b6003548110156118b857836040516020016118459190614df0565b60405160208183030381529060405280519060200120600160008381526020019081526020016000206000016040516020016118819190614eff565b60405160208183030381529060405280519060200120036118a557600091506118b8565b80806118b090614f16565b91505061182a565b5080836040516020016118cb9190615062565b6040516020818303038152906040529061191b576040517f08c379a0000000000000000000000000000000000000000000000000000000008152600401611912919061508f565b60405180910390fd5b5050611cc7565b60018103611a26576000805b6003548110156119bc57836040516020016119499190614df0565b60405160208183030381529060405280519060200120600160008381526020019081526020016000206000016040516020016119859190614eff565b60405160208183030381529060405280519060200120036119a957600191506119bc565b80806119b490614f16565b91505061192e565b5080836040516020016119cf91906150fd565b60405160208183030381529060405290611a1f576040517f08c379a0000000000000000000000000000000000000000000000000000000008152600401611a16919061508f565b60405180910390fd5b5050611cc6565b600281148015611a3857506000825114155b15611b3e5760006001905060005b600354811015611ad45783604051602001611a619190614df0565b6040516020818303038152906040528051906020012060016000838152602001908152602001600020600001604051602001611a9d9190614eff565b6040516020818303038152906040528051906020012003611ac15760009150611ad4565b8080611acc90614f16565b915050611a46565b508083604051602001611ae79190615062565b60405160208183030381529060405290611b37576040517f08c379a0000000000000000000000000000000000000000000000000000000008152600401611b2e919061508f565b60405180910390fd5b5050611cc5565b60038103611cc4576000805b600354811015611c5e5783604051602001611b659190614df0565b6040516020818303038152906040528051906020012060016000838152602001908152602001600020600001604051602001611ba19190614eff565b6040516020818303038152906040528051906020012003611c4b57600191506001600082815260200190815260200160002060030160009054906101000a900460ff1684604051602001611bf59190615176565b60405160208183030381529060405290611c45576040517f08c379a0000000000000000000000000000000000000000000000000000000008152600401611c3c919061508f565b60405180910390fd5b50611c5e565b8080611c5690614f16565b915050611b4a565b508083604051602001611c7191906150fd565b60405160208183030381529060405290611cc1576040517f08c379a0000000000000000000000000000000000000000000000000000000008152600401611cb8919061508f565b60405180910390fd5b50505b5b5b5b6000808060008091505b600354821015611eb2578c604051602001611cec9190614df0565b6040516020818303038152906040528051906020012060016000848152602001908152602001600020600001604051602001611d289190614eff565b6040516020818303038152906040528051906020012003611e9f578b6001600084815260200190815260200160002060010154611d65919061540c565b60016000848152602001908152602001600020600201546001600085815260200190815260200160002060010154611d9d9190615440565b611da791906154b1565b9050806001600084815260200190815260200160002060020154611dcb9190614d80565b93508060016000848152602001908152602001600020600201819055508b600160008481526020019081526020016000206001016000828254611e0e919061540c565b925050819055506001600083815260200190815260200160002060020154600160008481526020019081526020016000206001015460016000858152602001908152602001600020600001604051611e669190614eff565b60405180910390207f1c3e2c51276ce91148db2972b4614c440d1eff2734afc30a9b675564428f62ef60405160405180910390a4611eb2565b8180611eaa90614f16565b925050611cd1565b60008093505b600354841015612115578b604051602001611ed39190614df0565b6040516020818303038152906040528051906020012060016000868152602001908152602001600020600001604051602001611f0f9190614eff565b6040516020818303038152906040528051906020012003612102576000600160008681526020019081526020016000206001015403611fa65784600160008581526020019081526020016000206002016000828254611f6e919061540c565b925050819055508c600160008581526020019081526020016000206001016000828254611f9b9190614d80565b925050819055600080fd5b846001600086815260200190815260200160002060020154611fc8919061540c565b600160008681526020019081526020016000206001015460016000878152602001908152602001600020600201546120009190615440565b61200a91906154b1565b915081600160008681526020019081526020016000206001015461202e9190614d80565b905084600160008681526020019081526020016000206002016000828254612056919061540c565b9250508190555081600160008681526020019081526020016000206001018190555060016000858152602001908152602001600020600201546001600086815260200190815260200160002060010154600160008781526020019081526020016000206000016040516120c99190614eff565b60405180910390207f1c3e2c51276ce91148db2972b4614c440d1eff2734afc30a9b675564428f62ef60405160405180910390a4612115565b838061210d90614f16565b945050611eb8565b8b819a509a50505050505050505050935093915050565b606060008460036000810361223c5760006001905060005b6003548110156121d2578360405160200161215f9190614df0565b604051602081830303815290604052805190602001206001600083815260200190815260200160002060000160405160200161219b9190614eff565b60405160208183030381529060405280519060200120036121bf57600091506121d2565b80806121ca90614f16565b915050612144565b5080836040516020016121e59190615062565b60405160208183030381529060405290612235576040517f08c379a000000000000000000000000000000000000000000000000000000000815260040161222c919061508f565b60405180910390fd5b50506125e1565b60018103612340576000805b6003548110156122d657836040516020016122639190614df0565b604051602081830303815290604052805190602001206001600083815260200190815260200160002060000160405160200161229f9190614eff565b60405160208183030381529060405280519060200120036122c357600191506122d6565b80806122ce90614f16565b915050612248565b5080836040516020016122e991906150fd565b60405160208183030381529060405290612339576040517f08c379a0000000000000000000000000000000000000000000000000000000008152600401612330919061508f565b60405180910390fd5b50506125e0565b60028114801561235257506000825114155b156124585760006001905060005b6003548110156123ee578360405160200161237b9190614df0565b60405160208183030381529060405280519060200120600160008381526020019081526020016000206000016040516020016123b79190614eff565b60405160208183030381529060405280519060200120036123db57600091506123ee565b80806123e690614f16565b915050612360565b5080836040516020016124019190615062565b60405160208183030381529060405290612451576040517f08c379a0000000000000000000000000000000000000000000000000000000008152600401612448919061508f565b60405180910390fd5b50506125df565b600381036125de576000805b600354811015612578578360405160200161247f9190614df0565b60405160208183030381529060405280519060200120600160008381526020019081526020016000206000016040516020016124bb9190614eff565b604051602081830303815290604052805190602001200361256557600191506001600082815260200190815260200160002060030160009054906101000a900460ff168460405160200161250f9190615176565b6040516020818303038152906040529061255f576040517f08c379a0000000000000000000000000000000000000000000000000000000008152600401612556919061508f565b60405180910390fd5b50612578565b808061257090614f16565b915050612464565b50808360405160200161258b91906150fd565b604051602081830303815290604052906125db576040517f08c379a00000000000000000000000000000000000000000000000000000000081526004016125d2919061508f565b60405180910390fd5b50505b5b5b5b846003600081036126ed5760006001905060005b60035481101561268357836040516020016126109190614df0565b604051602081830303815290604052805190602001206001600083815260200190815260200160002060000160405160200161264c9190614eff565b60405160208183030381529060405280519060200120036126705760009150612683565b808061267b90614f16565b9150506125f5565b5080836040516020016126969190615062565b604051602081830303815290604052906126e6576040517f08c379a00000000000000000000000000000000000000000000000000000000081526004016126dd919061508f565b60405180910390fd5b5050612a92565b600181036127f1576000805b60035481101561278757836040516020016127149190614df0565b60405160208183030381529060405280519060200120600160008381526020019081526020016000206000016040516020016127509190614eff565b60405160208183030381529060405280519060200120036127745760019150612787565b808061277f90614f16565b9150506126f9565b50808360405160200161279a91906150fd565b604051602081830303815290604052906127ea576040517f08c379a00000000000000000000000000000000000000000000000000000000081526004016127e1919061508f565b60405180910390fd5b5050612a91565b60028114801561280357506000825114155b156129095760006001905060005b60035481101561289f578360405160200161282c9190614df0565b60405160208183030381529060405280519060200120600160008381526020019081526020016000206000016040516020016128689190614eff565b604051602081830303815290604052805190602001200361288c576000915061289f565b808061289790614f16565b915050612811565b5080836040516020016128b29190615062565b60405160208183030381529060405290612902576040517f08c379a00000000000000000000000000000000000000000000000000000000081526004016128f9919061508f565b60405180910390fd5b5050612a90565b60038103612a8f576000805b600354811015612a2957836040516020016129309190614df0565b604051602081830303815290604052805190602001206001600083815260200190815260200160002060000160405160200161296c9190614eff565b6040516020818303038152906040528051906020012003612a1657600191506001600082815260200190815260200160002060030160009054906101000a900460ff16846040516020016129c09190615176565b60405160208183030381529060405290612a10576040517f08c379a0000000000000000000000000000000000000000000000000000000008152600401612a07919061508f565b60405180910390fd5b50612a29565b8080612a2190614f16565b915050612915565b508083604051602001612a3c91906150fd565b60405160208183030381529060405290612a8c576040517f08c379a0000000000000000000000000000000000000000000000000000000008152600401612a83919061508f565b60405180910390fd5b50505b5b5b5b6000808060008092505b600354831015612cc1578c604051602001612ab79190614df0565b6040516020818303038152906040528051906020012060016000858152602001908152602001600020600001604051602001612af39190614eff565b6040516020818303038152906040528051906020012003612cae57600060016000858152602001908152602001600020600101541480612b4857508b6001600085815260200190815260200160002060010154105b15612b5257600080fd5b8b6001600085815260200190815260200160002060010154612b749190614d80565b60016000858152602001908152602001600020600101546001600086815260200190815260200160002060020154612bac9190615440565b612bb691906154b1565b9050600160008481526020019081526020016000206002015481612bda9190614d80565b93508060016000858152602001908152602001600020600201819055508b600160008581526020019081526020016000206001016000828254612c1d9190614d80565b925050819055506001600084815260200190815260200160002060020154600160008581526020019081526020016000206001015460016000868152602001908152602001600020600001604051612c759190614eff565b60405180910390207f1c3e2c51276ce91148db2972b4614c440d1eff2734afc30a9b675564428f62ef60405160405180910390a4612cc1565b8280612cb990614f16565b935050612a9c565b60008092505b600354831015612ea8578b604051602001612ce29190614df0565b6040516020818303038152906040528051906020012060016000858152602001908152602001600020600001604051602001612d1e9190614eff565b6040516020818303038152906040528051906020012003612e9557846001600085815260200190815260200160002060020154612d5b9190614d80565b60016000858152602001908152602001600020600101546001600086815260200190815260200160002060020154612d939190615440565b612d9d91906154b1565b9150600160008481526020019081526020016000206001015482612dc19190614d80565b905084600160008581526020019081526020016000206002016000828254612de99190614d80565b925050819055508160016000858152602001908152602001600020600101819055506001600084815260200190815260200160002060020154600160008581526020019081526020016000206001015460016000868152602001908152602001600020600001604051612e5c9190614eff565b60405180910390207f1c3e2c51276ce91148db2972b4614c440d1eff2734afc30a9b675564428f62ef60405160405180910390a4612ea8565b8280612ea090614f16565b935050612cc7565b8b819a509a50505050505050505050935093915050565b803414612ecb57600080fd5b80600260003373ffffffffffffffffffffffffffffffffffffffff1673ffffffffffffffffffffffffffffffffffffffff1681526020019081526020016000206000828254612f1a919061540c565b92505081905550803373ffffffffffffffffffffffffffffffffffffffff167f2da466a7b24304f47e87fa2e1e5a81b9831ce54fec19055ce277ca2f39ba42c460405160405180910390a350565b606060008054906101000a900473ffffffffffffffffffffffffffffffffffffffff1673ffffffffffffffffffffffffffffffffffffffff163373ffffffffffffffffffffffffffffffffffffffff1614612ff8576040517f08c379a0000000000000000000000000000000000000000000000000000000008152600401612fef90614faa565b60405180910390fd5b600060035467ffffffffffffffff81111561301657613015614646565b5b60405190808252806020026020018201604052801561304f57816020015b61303c61458a565b8152602001906001900390816130345790505b50905060005b60035481101561316f576001600082815260200190815260200160002060405180608001604052908160008201805461308d90614e36565b80601f01602080910402602001604051908101604052809291908181526020018280546130b990614e36565b80156131065780601f106130db57610100808354040283529160200191613106565b820191906000526020600020905b8154815290600101906020018083116130e957829003601f168201915b5050505050815260200160018201548152602001600282015481526020016003820160009054906101000a900460ff161515151581525050828281518110613151576131506154e2565b5b6020026020010181905250808061316790614f16565b915050613055565b508091505090565b60008054906101000a900473ffffffffffffffffffffffffffffffffffffffff1673ffffffffffffffffffffffffffffffffffffffff163373ffffffffffffffffffffffffffffffffffffffff1614613205576040517f08c379a00000000000000000000000000000000000000000000000000000000081526004016131fc90614faa565b60405180910390fd5b846001600081036133115760006001905060005b6003548110156132a757836040516020016132349190614df0565b60405160208183030381529060405280519060200120600160008381526020019081526020016000206000016040516020016132709190614eff565b604051602081830303815290604052805190602001200361329457600091506132a7565b808061329f90614f16565b915050613219565b5080836040516020016132ba9190615062565b6040516020818303038152906040529061330a576040517f08c379a0000000000000000000000000000000000000000000000000000000008152600401613301919061508f565b60405180910390fd5b50506136b6565b60018103613415576000805b6003548110156133ab57836040516020016133389190614df0565b60405160208183030381529060405280519060200120600160008381526020019081526020016000206000016040516020016133749190614eff565b604051602081830303815290604052805190602001200361339857600191506133ab565b80806133a390614f16565b91505061331d565b5080836040516020016133be91906150fd565b6040516020818303038152906040529061340e576040517f08c379a0000000000000000000000000000000000000000000000000000000008152600401613405919061508f565b60405180910390fd5b50506136b5565b60028114801561342757506000825114155b1561352d5760006001905060005b6003548110156134c357836040516020016134509190614df0565b604051602081830303815290604052805190602001206001600083815260200190815260200160002060000160405160200161348c9190614eff565b60405160208183030381529060405280519060200120036134b057600091506134c3565b80806134bb90614f16565b915050613435565b5080836040516020016134d69190615062565b60405160208183030381529060405290613526576040517f08c379a000000000000000000000000000000000000000000000000000000000815260040161351d919061508f565b60405180910390fd5b50506136b4565b600381036136b3576000805b60035481101561364d57836040516020016135549190614df0565b60405160208183030381529060405280519060200120600160008381526020019081526020016000206000016040516020016135909190614eff565b604051602081830303815290604052805190602001200361363a57600191506001600082815260200190815260200160002060030160009054906101000a900460ff16846040516020016135e49190615176565b60405160208183030381529060405290613634576040517f08c379a000000000000000000000000000000000000000000000000000000000815260040161362b919061508f565b60405180910390fd5b5061364d565b808061364590614f16565b915050613539565b50808360405160200161366091906150fd565b604051602081830303815290604052906136b0576040517f08c379a00000000000000000000000000000000000000000000000000000000081526004016136a7919061508f565b60405180910390fd5b50505b5b5b5b856002600081036137c25760006001905060005b60035481101561375857836040516020016136e59190614df0565b60405160208183030381529060405280519060200120600160008381526020019081526020016000206000016040516020016137219190614eff565b60405160208183030381529060405280519060200120036137455760009150613758565b808061375090614f16565b9150506136ca565b50808360405160200161376b9190615062565b604051602081830303815290604052906137bb576040517f08c379a00000000000000000000000000000000000000000000000000000000081526004016137b2919061508f565b60405180910390fd5b5050613b67565b600181036138c6576000805b60035481101561385c57836040516020016137e99190614df0565b60405160208183030381529060405280519060200120600160008381526020019081526020016000206000016040516020016138259190614eff565b6040516020818303038152906040528051906020012003613849576001915061385c565b808061385490614f16565b9150506137ce565b50808360405160200161386f91906150fd565b604051602081830303815290604052906138bf576040517f08c379a00000000000000000000000000000000000000000000000000000000081526004016138b6919061508f565b60405180910390fd5b5050613b66565b6002811480156138d857506000825114155b156139de5760006001905060005b60035481101561397457836040516020016139019190614df0565b604051602081830303815290604052805190602001206001600083815260200190815260200160002060000160405160200161393d9190614eff565b60405160208183030381529060405280519060200120036139615760009150613974565b808061396c90614f16565b9150506138e6565b5080836040516020016139879190615062565b604051602081830303815290604052906139d7576040517f08c379a00000000000000000000000000000000000000000000000000000000081526004016139ce919061508f565b60405180910390fd5b5050613b65565b60038103613b64576000805b600354811015613afe5783604051602001613a059190614df0565b6040516020818303038152906040528051906020012060016000838152602001908152602001600020600001604051602001613a419190614eff565b6040516020818303038152906040528051906020012003613aeb57600191506001600082815260200190815260200160002060030160009054906101000a900460ff1684604051602001613a959190615176565b60405160208183030381529060405290613ae5576040517f08c379a0000000000000000000000000000000000000000000000000000000008152600401613adc919061508f565b60405180910390fd5b50613afe565b8080613af690614f16565b9150506139ea565b508083604051602001613b1191906150fd565b60405160208183030381529060405290613b61576040517f08c379a0000000000000000000000000000000000000000000000000000000008152600401613b58919061508f565b60405180910390fd5b50505b5b5b5b60005b600354811015613bf05789604051602001613b859190614df0565b6040516020818303038152906040528051906020012060016000838152602001908152602001600020600001604051602001613bc19190614eff565b604051602081830303815290604052805190602001200315613bf0578080613be890614f16565b915050613b6a565b6000881015613bfe57600097505b6000871015613c0c57600096505b6000895103613c19578998505b88600160008381526020019081526020016000206000019081613c3c919061533a565b50876001600083815260200190815260200160002060010181905550866001600083815260200190815260200160002060020181905550856001600083815260200190815260200160002060030160006101000a81548160ff02191690831515021790555086888a604051613cb19190614df0565b60405180910390207f1c3e2c51276ce91148db2972b4614c440d1eff2734afc30a9b675564428f62ef60405160405180910390a450505050505050505050565b600047905090565b6060600060035467ffffffffffffffff811115613d1957613d18614646565b5b604051908082528060200260200182016040528015613d5257816020015b613d3f61458a565b815260200190600190039081613d375790505b50905060005b600354811015613ea257600115156001600083815260200190815260200160002060030160009054906101000a900460ff16151503613e8f5760016000828152602001908152602001600020604051806080016040529081600082018054613dbf90614e36565b80601f0160208091040260200160405190810160405280929190818152602001828054613deb90614e36565b8015613e385780601f10613e0d57610100808354040283529160200191613e38565b820191906000526020600020905b815481529060010190602001808311613e1b57829003601f168201915b5050505050815260200160018201548152602001600282015481526020016003820160009054906101000a900460ff161515151581525050828281518110613e8357613e826154e2565b5b60200260200101819052505b8080613e9a90614f16565b915050613d58565b508091505090565b60008054906101000a900473ffffffffffffffffffffffffffffffffffffffff1673ffffffffffffffffffffffffffffffffffffffff163373ffffffffffffffffffffffffffffffffffffffff1614613f38576040517f08c379a0000000000000000000000000000000000000000000000000000000008152600401613f2f90614faa565b60405180910390fd5b826001600081036140445760006001905060005b600354811015613fda5783604051602001613f679190614df0565b6040516020818303038152906040528051906020012060016000838152602001908152602001600020600001604051602001613fa39190614eff565b6040516020818303038152906040528051906020012003613fc75760009150613fda565b8080613fd290614f16565b915050613f4c565b508083604051602001613fed9190615062565b6040516020818303038152906040529061403d576040517f08c379a0000000000000000000000000000000000000000000000000000000008152600401614034919061508f565b60405180910390fd5b50506143e9565b60018103614148576000805b6003548110156140de578360405160200161406b9190614df0565b60405160208183030381529060405280519060200120600160008381526020019081526020016000206000016040516020016140a79190614eff565b60405160208183030381529060405280519060200120036140cb57600191506140de565b80806140d690614f16565b915050614050565b5080836040516020016140f191906150fd565b60405160208183030381529060405290614141576040517f08c379a0000000000000000000000000000000000000000000000000000000008152600401614138919061508f565b60405180910390fd5b50506143e8565b60028114801561415a57506000825114155b156142605760006001905060005b6003548110156141f657836040516020016141839190614df0565b60405160208183030381529060405280519060200120600160008381526020019081526020016000206000016040516020016141bf9190614eff565b60405160208183030381529060405280519060200120036141e357600091506141f6565b80806141ee90614f16565b915050614168565b5080836040516020016142099190615062565b60405160208183030381529060405290614259576040517f08c379a0000000000000000000000000000000000000000000000000000000008152600401614250919061508f565b60405180910390fd5b50506143e7565b600381036143e6576000805b60035481101561438057836040516020016142879190614df0565b60405160208183030381529060405280519060200120600160008381526020019081526020016000206000016040516020016142c39190614eff565b604051602081830303815290604052805190602001200361436d57600191506001600082815260200190815260200160002060030160009054906101000a900460ff16846040516020016143179190615176565b60405160208183030381529060405290614367576040517f08c379a000000000000000000000000000000000000000000000000000000000815260040161435e919061508f565b60405180910390fd5b50614380565b808061437890614f16565b91505061426c565b50808360405160200161439391906150fd565b604051602081830303815290604052906143e3576040517f08c379a00000000000000000000000000000000000000000000000000000000081526004016143da919061508f565b60405180910390fd5b50505b5b5b5b60008060008092505b60035483101561453c578760405160200161440d9190614df0565b60405160208183030381529060405280519060200120600160008581526020019081526020016000206000016040516020016144499190614eff565b6040516020818303038152906040528051906020012003614529576001600084815260200190815260200160002060010154915060016000848152602001908152602001600020600201549050600087836144a49190615511565b12156144b757816144b490615555565b96505b600086826144c59190615511565b12156144d857806144d590615555565b95505b86826144e49190615511565b6001600085815260200190815260200160002060010181905550858161450a9190615511565b600160008581526020019081526020016000206002018190555061453c565b828061453490614f16565b9350506143f2565b85878960405161454c9190614df0565b60405180910390207f1c3e2c51276ce91148db2972b4614c440d1eff2734afc30a9b675564428f62ef60405160405180910390a45050505050505050565b60405180608001604052806060815260200160008152602001600081526020016000151581525090565b6000604051905090565b600080fd5b600080fd5b6000819050919050565b6145db816145c8565b81146145e657600080fd5b50565b6000813590506145f8816145d2565b92915050565b600060208284031215614614576146136145be565b5b6000614622848285016145e9565b91505092915050565b600080fd5b600080fd5b6000601f19601f8301169050919050565b7f4e487b7100000000000000000000000000000000000000000000000000000000600052604160045260246000fd5b61467e82614635565b810181811067ffffffffffffffff8211171561469d5761469c614646565b5b80604052505050565b60006146b06145b4565b90506146bc8282614675565b919050565b600067ffffffffffffffff8211156146dc576146db614646565b5b6146e582614635565b9050602081019050919050565b82818337600083830152505050565b600061471461470f846146c1565b6146a6565b9050828152602081018484840111156147305761472f614630565b5b61473b8482856146f2565b509392505050565b600082601f8301126147585761475761462b565b5b8135614768848260208601614701565b91505092915050565b600060208284031215614787576147866145be565b5b600082013567ffffffffffffffff8111156147a5576147a46145c3565b5b6147b184828501614743565b91505092915050565b600081519050919050565b600082825260208201905092915050565b60005b838110156147f45780820151818401526020810190506147d9565b60008484015250505050565b600061480b826147ba565b61481581856147c5565b93506148258185602086016147d6565b61482e81614635565b840191505092915050565b614842816145c8565b82525050565b60008115159050919050565b61485d81614848565b82525050565b600060808301600083015184820360008601526148808282614800565b91505060208301516148956020860182614839565b5060408301516148a86040860182614839565b5060608301516148bb6060860182614854565b508091505092915050565b600060208201905081810360008301526148e08184614863565b905092915050565b600080600060608486031215614901576149006145be565b5b600084013567ffffffffffffffff81111561491f5761491e6145c3565b5b61492b86828701614743565b935050602061493c868287016145e9565b925050604061494d868287016145e9565b9150509250925092565b614960816145c8565b82525050565b600060208201905061497b6000830184614957565b92915050565b60008060006060848603121561499a576149996145be565b5b600084013567ffffffffffffffff8111156149b8576149b76145c3565b5b6149c486828701614743565b93505060206149d5868287016145e9565b925050604084013567ffffffffffffffff8111156149f6576149f56145c3565b5b614a0286828701614743565b9150509250925092565b600082825260208201905092915050565b6000614a28826147ba565b614a328185614a0c565b9350614a428185602086016147d6565b614a4b81614635565b840191505092915050565b60006040820190508181036000830152614a708185614a1d565b9050614a7f6020830184614957565b9392505050565b600081519050919050565b600082825260208201905092915050565b6000819050602082019050919050565b60006080830160008301518482036000860152614acf8282614800565b9150506020830151614ae46020860182614839565b506040830151614af76040860182614839565b506060830151614b0a6060860182614854565b508091505092915050565b6000614b218383614ab2565b905092915050565b6000602082019050919050565b6000614b4182614a86565b614b4b8185614a91565b935083602082028501614b5d85614aa2565b8060005b85811015614b995784840389528151614b7a8582614b15565b9450614b8583614b29565b925060208a01995050600181019050614b61565b50829750879550505050505092915050565b60006020820190508181036000830152614bc58184614b36565b905092915050565b614bd681614848565b8114614be157600080fd5b50565b600081359050614bf381614bcd565b92915050565b600080600080600060a08688031215614c1557614c146145be565b5b600086013567ffffffffffffffff811115614c3357614c326145c3565b5b614c3f88828901614743565b955050602086013567ffffffffffffffff811115614c6057614c5f6145c3565b5b614c6c88828901614743565b9450506040614c7d888289016145e9565b9350506060614c8e888289016145e9565b9250506080614c9f88828901614be4565b9150509295509295909350565b6000819050919050565b614cbf81614cac565b8114614cca57600080fd5b50565b600081359050614cdc81614cb6565b92915050565b600080600060608486031215614cfb57614cfa6145be565b5b600084013567ffffffffffffffff811115614d1957614d186145c3565b5b614d2586828701614743565b9350506020614d3686828701614ccd565b9250506040614d4786828701614ccd565b9150509250925092565b7f4e487b7100000000000000000000000000000000000000000000000000000000600052601160045260246000fd5b6000614d8b826145c8565b9150614d96836145c8565b9250828203905081811115614dae57614dad614d51565b5b92915050565b600081905092915050565b6000614dca826147ba565b614dd48185614db4565b9350614de48185602086016147d6565b80840191505092915050565b6000614dfc8284614dbf565b915081905092915050565b7f4e487b7100000000000000000000000000000000000000000000000000000000600052602260045260246000fd5b60006002820490506001821680614e4e57607f821691505b602082108103614e6157614e60614e07565b5b50919050565b60008190508160005260206000209050919050565b60008154614e8981614e36565b614e938186614db4565b94506001821660008114614eae5760018114614ec357614ef6565b60ff1983168652811515820286019350614ef6565b614ecc85614e67565b60005b83811015614eee57815481890152600182019150602081019050614ecf565b838801955050505b50505092915050565b6000614f0b8284614e7c565b915081905092915050565b6000614f21826145c8565b91507fffffffffffffffffffffffffffffffffffffffffffffffffffffffffffffffff8203614f5357614f52614d51565b5b600182019050919050565b7f43616c6c6572206973206e6f74206f776e657200000000000000000000000000600082015250565b6000614f94601383614a0c565b9150614f9f82614f5e565b602082019050919050565b60006020820190508181036000830152614fc381614f87565b9050919050565b7f43727970746f63757272656e6379200000000000000000000000000000000000600082015250565b6000615000600f83614db4565b915061500b82614fca565b600f82019050919050565b7f20616c72656164792065786973742e0000000000000000000000000000000000600082015250565b600061504c600f83614db4565b915061505782615016565b600f82019050919050565b600061506d82614ff3565b91506150798284614dbf565b91506150848261503f565b915081905092915050565b600060208201905081810360008301526150a98184614a1d565b905092915050565b7f206973206e6f742065786973742e000000000000000000000000000000000000600082015250565b60006150e7600e83614db4565b91506150f2826150b1565b600e82019050919050565b600061510882614ff3565b91506151148284614dbf565b915061511f826150da565b915081905092915050565b7f206973206e6f7420617661696c61626c652e0000000000000000000000000000600082015250565b6000615160601283614db4565b915061516b8261512a565b601282019050919050565b600061518182614ff3565b915061518d8284614dbf565b915061519882615153565b915081905092915050565b60006020601f8301049050919050565b600082821b905092915050565b6000600883026151f07fffffffffffffffffffffffffffffffffffffffffffffffffffffffffffffffff826151b3565b6151fa86836151b3565b95508019841693508086168417925050509392505050565b6000819050919050565b600061523761523261522d846145c8565b615212565b6145c8565b9050919050565b6000819050919050565b6152518361521c565b61526561525d8261523e565b8484546151c0565b825550505050565b600090565b61527a61526d565b615285818484615248565b505050565b5b818110156152a95761529e600082615272565b60018101905061528b565b5050565b601f8211156152ee576152bf81614e67565b6152c8846151a3565b810160208510156152d7578190505b6152eb6152e3856151a3565b83018261528a565b50505b505050565b600082821c905092915050565b6000615311600019846008026152f3565b1980831691505092915050565b600061532a8383615300565b9150826002028217905092915050565b615343826147ba565b67ffffffffffffffff81111561535c5761535b614646565b5b6153668254614e36565b6153718282856152ad565b600060209050601f8311600181146153a45760008415615392578287015190505b61539c858261531e565b865550615404565b601f1984166153b286614e67565b60005b828110156153da578489015182556001820191506020850194506020810190506153b5565b868310156153f757848901516153f3601f891682615300565b8355505b6001600288020188555050505b505050505050565b6000615417826145c8565b9150615422836145c8565b925082820190508082111561543a57615439614d51565b5b92915050565b600061544b826145c8565b9150615456836145c8565b9250828202615464816145c8565b9150828204841483151761547b5761547a614d51565b5b5092915050565b7f4e487b7100000000000000000000000000000000000000000000000000000000600052601260045260246000fd5b60006154bc826145c8565b91506154c7836145c8565b9250826154d7576154d6615482565b5b828204905092915050565b7f4e487b7100000000000000000000000000000000000000000000000000000000600052603260045260246000fd5b600061551c82614cac565b915061552783614cac565b92508282019050828112156000831216838212600084121516171561554f5761554e614d51565b5b92915050565b600061556082614cac565b91507f8000000000000000000000000000000000000000000000000000000000000000820361559257615591614d51565b5b81600003905091905056fea2646970667358221220db2449bc5f54e232fdb8ba062261384b72b22f1f255d8c827d14bd1e806e01f864736f6c63430008110033",
  "immutableReferences": {},
  "source": "//SPDX-License-Identifier: MIT\r\npragma solidity ^0.8.0;\r\n//import \"hardhat/console.sol\";\r\n//import \"@openzeppelin/contracts/utils/Strings.sol\";\r\n\r\ncontract DeX{\r\n\r\n    address private owner;\r\n    // Rules(16/09/2022):\r\n    // 1. One Y3Token = 100 usd (Our own token)\r\n    // 2. Ether price = 1,472.00 usd\r\n    // 3. Bitcoin price = 19,758.00 usd\r\n    // 4. PAX Gold price = 1,685.00 usd\r\n\r\n    //Add code to convert 1 ETH -> Y4 Token \r\n    //Add mapping for balance(address)\r\n\r\n    struct pool{\r\n        string cryptoName;\r\n        uint cryptoAmt;\r\n        uint tokenAmt;\r\n        bool cryptoStatus;\r\n    }\r\n\r\n    // act like dictionary in python\r\n    mapping(uint => pool) private cryptoList;\r\n    uint cryptoListNum = 0;\r\n\r\n    event OwnerSet(address indexed oldOwner, address indexed newOwner);\r\n    event PoolValue(string indexed cryptoName,uint indexed cVal, uint indexed tVal);\r\n\r\n    constructor() {\r\n        owner = msg.sender; \r\n        emit OwnerSet(address(0), owner);\r\n        addPool('Bitcoin', 101, 20000);\r\n        addPool('Ether', 1359, 20000);\r\n        addPool('PAX Gold', 1187, 20000);\r\n        //console.log(\"Pool created successfully. Liquidity Provider:\", msg.sender);\r\n    }\r\n\r\n    modifier isOwner() {\r\n        require(msg.sender == owner, \"Caller is not owner\");\r\n        _;\r\n    }\r\n\r\n    modifier inList(string memory cName, int funcName) {\r\n        //Used to validate add pool\r\n        if(funcName == 0){\r\n            bool resultStatus = true;\r\n            for (uint j=0; j<cryptoListNum; j++) {\r\n                if(keccak256(abi.encodePacked(cryptoList[j].cryptoName)) == keccak256(abi.encodePacked(cName))){\r\n                    resultStatus = false;\r\n                    break;\r\n                }\r\n            }\r\n            require(resultStatus, string(abi.encodePacked(\"Cryptocurrency \", cName, \" already exist.\")));\r\n        }\r\n        //Used to validate add amount to pool\r\n        else if(funcName == 1){\r\n            bool resultStatus = false;\r\n            for (uint j=0; j<cryptoListNum; j++) {\r\n                if(keccak256(abi.encodePacked(cryptoList[j].cryptoName)) == keccak256(abi.encodePacked(cName))){\r\n                    resultStatus = true;\r\n                    break;\r\n                }\r\n            }\r\n            require(resultStatus, string(abi.encodePacked(\"Cryptocurrency \", cName, \" is not exist.\")));\r\n        }\r\n        //Used to validate edit pool\r\n        else if(funcName == 2 && bytes(cName).length!=0){\r\n            bool resultStatus = true;\r\n            for (uint j=0; j<cryptoListNum; j++) {\r\n                if(keccak256(abi.encodePacked(cryptoList[j].cryptoName)) == keccak256(abi.encodePacked(cName))){\r\n                    resultStatus = false;\r\n                    break;\r\n                }\r\n            }\r\n            require(resultStatus, string(abi.encodePacked(\"Cryptocurrency \", cName, \" already exist.\")));\r\n        }\r\n        //Used to validate exchange buy and sell crypto\r\n        else if(funcName == 3){\r\n            bool resultStatus = false;\r\n            for (uint j=0; j<cryptoListNum; j++) {\r\n                if(keccak256(abi.encodePacked(cryptoList[j].cryptoName)) == keccak256(abi.encodePacked(cName))){\r\n                    resultStatus = true;\r\n                    require(cryptoList[j].cryptoStatus, string(abi.encodePacked(\"Cryptocurrency \", cName, \" is not available.\")));\r\n                    break;\r\n                }\r\n            }\r\n            require(resultStatus, string(abi.encodePacked(\"Cryptocurrency \", cName, \" is not exist.\")));\r\n        }\r\n        _;\r\n    }\r\n\r\n    function addPool(string memory cName, uint cVal, uint tVal) public isOwner inList(cName, 0){\r\n        if(bytes(cName).length!=0){\r\n            cryptoList[cryptoListNum] = pool(cName, cVal, tVal, true);\r\n            cryptoListNum ++;\r\n        }\r\n        emit PoolValue(cName,cVal,tVal);\r\n    }\r\n\r\n    function getPool(string memory cName) public view returns(pool memory){\r\n        uint j;\r\n        for (j=0; j<cryptoListNum; j++) {\r\n            if(keccak256(abi.encodePacked(cryptoList[j].cryptoName)) == keccak256(abi.encodePacked(cName))) return cryptoList[j];\r\n        }\r\n        return cryptoList[j];\r\n    }\r\n\r\n    function addAmt(string memory cName, int cVal, int tVal) public isOwner inList(cName, 1){\r\n        uint j;\r\n        int tempCVal;\r\n        int tempTVal;\r\n        for (j=0; j<cryptoListNum; j++) {\r\n            if(keccak256(abi.encodePacked(cryptoList[j].cryptoName)) == keccak256(abi.encodePacked(cName))){\r\n                tempCVal = int(cryptoList[j].cryptoAmt);\r\n                tempTVal = int(cryptoList[j].tokenAmt);\r\n                if((tempCVal + cVal)<0){\r\n                    cVal = -tempCVal;\r\n                }\r\n                if((tempTVal + tVal)<0){\r\n                    tVal = -tempTVal;\r\n                }\r\n                cryptoList[j].cryptoAmt =  uint(tempCVal + cVal);\r\n                cryptoList[j].tokenAmt = uint(tempTVal + tVal);\r\n                break;\r\n            }\r\n        }\r\n        emit PoolValue(cName,uint(cVal),uint(tVal));\r\n        //Add write success or fail return/emit\r\n    }\r\n\r\n    // left the newCName empty if no update\r\n    function editPoolDetail(string memory oldCName, string memory newCName, uint cVal, uint tVal, bool pStatus) public isOwner inList(oldCName, 1) inList(newCName, 2){\r\n        uint j;\r\n        for (j=0; j<cryptoListNum; j++) {\r\n            if(keccak256(abi.encodePacked(cryptoList[j].cryptoName)) == keccak256(abi.encodePacked(oldCName))) break;\r\n        }\r\n        if(cVal<0){\r\n            cVal = 0;\r\n        }\r\n        if(tVal<0){\r\n            tVal = 0;\r\n        }\r\n        if(bytes(newCName).length==0){\r\n            newCName = oldCName;\r\n        }\r\n        cryptoList[j].cryptoName = newCName;\r\n        cryptoList[j].cryptoAmt = cVal;\r\n        cryptoList[j].tokenAmt = tVal;\r\n        cryptoList[j].cryptoStatus = pStatus;\r\n        emit PoolValue(newCName,cVal,tVal);\r\n         //Add write success or fail return/emit\r\n    }\r\n\r\n    function listAllPool() public isOwner view returns(pool[] memory){\r\n        pool[] memory tempPool = new pool[](cryptoListNum);\r\n        for(uint j=0; j<cryptoListNum; j++){\r\n            tempPool[j]=cryptoList[j];\r\n        }\r\n        return tempPool;\r\n    }\r\n\r\n    function listAllValidPool() public view returns(pool[] memory){\r\n        pool[] memory tempPool = new pool[](cryptoListNum);\r\n        for(uint j=0; j<cryptoListNum; j++){\r\n            if(cryptoList[j].cryptoStatus == true) tempPool[j]=cryptoList[j];\r\n        }\r\n        return tempPool;\r\n    }\r\n\r\n    // Buy exchangeAmt of cryptoType with X targetCryptoType\r\n    function exchangeBuy(string memory cryptoType, uint exchangeAmt, string memory targetCryptoType) public inList(cryptoType, 3) inList(targetCryptoType, 3) returns(string memory, uint){\r\n        // Exchange cryptoType to token\r\n        uint token = 0;\r\n        uint j;\r\n        uint i;\r\n        for(j=0; j<cryptoListNum; j++){\r\n            if(keccak256(abi.encodePacked(cryptoList[j].cryptoName)) == keccak256(abi.encodePacked(cryptoType))){\r\n                if(cryptoList[j].cryptoAmt==0 || cryptoList[j].cryptoAmt<exchangeAmt){\r\n                    //console.log(string(abi.encodePacked(\"Cryptocurrency \", cryptoList[j].cryptoName, \" pool is not enough. Maximum amount: \", Strings.toString(cryptoList[j].cryptoAmt))));\r\n                    revert();\r\n                }\r\n                token = ((cryptoList[j].tokenAmt*cryptoList[j].cryptoAmt)/(cryptoList[j].cryptoAmt-exchangeAmt))-cryptoList[j].tokenAmt;\r\n                cryptoList[j].tokenAmt -= token;\r\n                cryptoList[j].cryptoAmt += exchangeAmt;\r\n                emit PoolValue(cryptoList[j].cryptoName,cryptoList[j].cryptoAmt,cryptoList[j].tokenAmt);\r\n                break;\r\n            }\r\n        }\r\n\r\n        // Token to targetCryptoType\r\n        uint returnAmt = 0;\r\n        for(i=0; i<cryptoListNum; i++){\r\n            if(keccak256(abi.encodePacked(cryptoList[i].cryptoName)) == keccak256(abi.encodePacked(targetCryptoType))){\r\n                returnAmt = ((cryptoList[i].tokenAmt*cryptoList[i].cryptoAmt)/(cryptoList[i].tokenAmt-token))-cryptoList[i].cryptoAmt;\r\n                cryptoList[i].tokenAmt += token;\r\n                cryptoList[i].cryptoAmt -= returnAmt;\r\n                emit PoolValue(cryptoList[i].cryptoName,cryptoList[i].cryptoAmt,cryptoList[i].tokenAmt);\r\n                break;\r\n            }\r\n        }\r\n        \r\n        return (targetCryptoType, returnAmt);\r\n    }\r\n\r\n    // Sell exchangeAmt of cryptoType to X TargetCryptoType\r\n    function exchangeSell(string memory cryptoType, uint exchangeAmt, string memory targetCryptoType) public inList(cryptoType, 3) inList(targetCryptoType, 3) returns(string memory, uint){\r\n        // Exchange cryptoType to token\r\n        uint token = 0;\r\n        uint i;\r\n        uint j;\r\n        for(j=0; j<cryptoListNum; j++){\r\n            if(keccak256(abi.encodePacked(cryptoList[j].cryptoName)) == keccak256(abi.encodePacked(cryptoType))){\r\n                token = cryptoList[j].tokenAmt-((cryptoList[j].tokenAmt*cryptoList[j].cryptoAmt)/(cryptoList[j].cryptoAmt+exchangeAmt));\r\n                cryptoList[j].tokenAmt -= token;\r\n                cryptoList[j].cryptoAmt += exchangeAmt;\r\n                emit PoolValue(cryptoList[j].cryptoName,cryptoList[j].cryptoAmt,cryptoList[j].tokenAmt);\r\n                break;\r\n            }\r\n        }\r\n\r\n        // Token to targetCryptoType\r\n        uint returnAmt = 0;\r\n        for(i=0; i<cryptoListNum; i++){\r\n            if(keccak256(abi.encodePacked(cryptoList[i].cryptoName)) == keccak256(abi.encodePacked(targetCryptoType))){\r\n                if(cryptoList[i].cryptoAmt==0){\r\n                    //console.log(string(abi.encodePacked(\"Cryptocurrency \", cryptoList[i].cryptoName, \" pool is empty.\")));\r\n                    cryptoList[j].tokenAmt += token;\r\n                    cryptoList[j].cryptoAmt -= exchangeAmt;\r\n                    revert();\r\n                }\r\n                returnAmt = cryptoList[i].cryptoAmt-((cryptoList[i].tokenAmt*cryptoList[i].cryptoAmt)/(cryptoList[i].tokenAmt+token));\r\n                cryptoList[i].tokenAmt += token;\r\n                cryptoList[i].cryptoAmt -= returnAmt;\r\n                emit PoolValue(cryptoList[i].cryptoName,cryptoList[i].cryptoAmt,cryptoList[i].tokenAmt);\r\n                break;\r\n            }\r\n        }\r\n        \r\n        return (targetCryptoType, returnAmt);\r\n    }\r\n}",
  "sourcePath": "d:\\Documents\\TARC\\Degree\\Y3S1\\Blockchain\\Y3S1_Blockchain\\contracts\\DeX.sol",
  "compiler": {
    "name": "solc",
    "version": "0.8.17+commit.8df45f5f.Emscripten.clang"
  },
  "schemaVersion": "3.4.10",
  "updatedAt": "2022-10-02T09:55:31.738Z",
  "networkType": "ethereum",
  "devdoc": {
    "kind": "dev",
    "methods": {},
    "version": 1
  },
  "userdoc": {
    "kind": "user",
    "methods": {},
    "version": 1
  }
}